{
  "address": "0x51c408d216F1CC6841E27D9e13FF71853bF4C5af",
  "abi": [
    {
      "inputs": [],
      "name": "ArmyCannotAccelerateManeuverFromCultistsSettlementWithNonZeroCultistsArmy",
      "type": "error"
    },
    {
      "inputs": [],
      "name": "ArmyCannotAttackAnotherArmyIfTheyAreNotOnSamePosition",
      "type": "error"
    },
    {
      "inputs": [],
      "name": "ArmyCannotAttackItself",
      "type": "error"
    },
    {
      "inputs": [],
      "name": "ArmyCannotAttackNotCurrentEraArmy",
      "type": "error"
    },
    {
      "inputs": [],
      "name": "ArmyCannotBesiegeOwnSettlement",
      "type": "error"
    },
    {
      "inputs": [],
      "name": "ArmyCannotJoinToBattleNotAtSamePosition",
      "type": "error"
    },
    {
      "inputs": [],
      "name": "ArmyCannotJoinToBattleNotInLobbyPhase",
      "type": "error"
    },
    {
      "inputs": [],
      "name": "ArmyCannotJoinToNotCurrentEraBattle",
      "type": "error"
    },
    {
      "inputs": [],
      "name": "ArmyCannotManeuverToPositionWithoutSettlement",
      "type": "error"
    },
    {
      "inputs": [],
      "name": "ArmyCannotManeuverToSamePosition",
      "type": "error"
    },
    {
      "inputs": [],
      "name": "ArmyCannotModifySiegeUnitsToLiquidatableState",
      "type": "error"
    },
    {
      "inputs": [],
      "name": "ArmyCannotUseMoreResourcesForAccelerationThanBuildingTreasuryHas",
      "type": "error"
    },
    {
      "inputs": [],
      "name": "ArmyIsInBattle",
      "type": "error"
    },
    {
      "inputs": [],
      "name": "ArmyIsInSiege",
      "type": "error"
    },
    {
      "inputs": [],
      "name": "ArmyIsManeuvering",
      "type": "error"
    },
    {
      "inputs": [],
      "name": "ArmyIsNotManeuveringSecretly",
      "type": "error"
    },
    {
      "inputs": [],
      "name": "ArmyIsStunned",
      "type": "error"
    },
    {
      "inputs": [],
      "name": "ArmyWithoutUnitsCannotAccelerate",
      "type": "error"
    },
    {
      "inputs": [],
      "name": "ArmyWithoutUnitsCannotBeginSecretManeuver",
      "type": "error"
    },
    {
      "inputs": [],
      "name": "ArmyWithoutUnitsCannotJoinBattle",
      "type": "error"
    },
    {
      "inputs": [],
      "name": "ArmyWithoutUnitsCannotManeuverToNotHomeSettlement",
      "type": "error"
    },
    {
      "inputs": [],
      "name": "NotEnoughUnitsForDemilitarization",
      "type": "error"
    },
    {
      "inputs": [],
      "name": "OnlyActiveGame",
      "type": "error"
    },
    {
      "inputs": [],
      "name": "OnlyMightyCreator",
      "type": "error"
    },
    {
      "inputs": [],
      "name": "OnlyRulerOrWorldAssetFromSameEra",
      "type": "error"
    },
    {
      "inputs": [],
      "name": "OnlyWorldAssetFromSameEra",
      "type": "error"
    },
    {
      "inputs": [],
      "name": "SecretManeuverRevealNotPossibleAtThisTime",
      "type": "error"
    },
    {
      "inputs": [],
      "name": "SecretManeuverRevealNotPossibleToNotSpecifiedRegion",
      "type": "error"
    },
    {
      "inputs": [],
      "name": "WrongDemilitarizationInput",
      "type": "error"
    },
    {
      "inputs": [],
      "name": "WrongJoinSide",
      "type": "error"
    },
    {
      "inputs": [],
      "name": "WrongRobberyMultiplierSpecified",
      "type": "error"
    },
    {
      "inputs": [],
      "name": "WrongSecretManeuverRevealInfo",
      "type": "error"
    },
    {
      "anonymous": false,
      "inputs": [
        {
          "indexed": false,
          "internalType": "address",
          "name": "battleAddress",
          "type": "address"
        },
        {
          "indexed": false,
          "internalType": "address",
          "name": "targetArmyAddress",
          "type": "address"
        }
      ],
      "name": "BattleCreated",
      "type": "event"
    },
    {
      "anonymous": false,
      "inputs": [
        {
          "indexed": false,
          "internalType": "address",
          "name": "battleAddress",
          "type": "address"
        }
      ],
      "name": "ExitedFromBattle",
      "type": "event"
    },
    {
      "anonymous": false,
      "inputs": [
        {
          "indexed": false,
          "internalType": "uint8",
          "name": "version",
          "type": "uint8"
        }
      ],
      "name": "Initialized",
      "type": "event"
    },
    {
      "anonymous": false,
      "inputs": [
        {
          "indexed": false,
          "internalType": "address",
          "name": "battleAddress",
          "type": "address"
        },
        {
          "indexed": false,
          "internalType": "uint256",
          "name": "side",
          "type": "uint256"
        }
      ],
      "name": "JoinedBattle",
      "type": "event"
    },
    {
      "anonymous": false,
      "inputs": [
        {
          "indexed": false,
          "internalType": "uint64",
          "name": "position",
          "type": "uint64"
        },
        {
          "indexed": false,
          "internalType": "uint64",
          "name": "secretDestinationRegionId",
          "type": "uint64"
        },
        {
          "indexed": false,
          "internalType": "bytes32",
          "name": "secretDestinationPosition",
          "type": "bytes32"
        },
        {
          "indexed": false,
          "internalType": "uint256",
          "name": "beginTime",
          "type": "uint256"
        },
        {
          "indexed": false,
          "internalType": "uint256",
          "name": "endTime",
          "type": "uint256"
        },
        {
          "indexed": false,
          "internalType": "uint256",
          "name": "tokensToSpendOnAcceleration",
          "type": "uint256"
        }
      ],
      "name": "ManeuveringBegan",
      "type": "event"
    },
    {
      "anonymous": false,
      "inputs": [],
      "name": "SecretManeuverCancelled",
      "type": "event"
    },
    {
      "anonymous": false,
      "inputs": [
        {
          "indexed": false,
          "internalType": "uint64",
          "name": "stunBeginTime",
          "type": "uint64"
        },
        {
          "indexed": false,
          "internalType": "uint64",
          "name": "stunEndTime",
          "type": "uint64"
        }
      ],
      "name": "StunApplied",
      "type": "event"
    },
    {
      "anonymous": false,
      "inputs": [
        {
          "indexed": false,
          "internalType": "bytes32[]",
          "name": "unitTypeIds",
          "type": "bytes32[]"
        },
        {
          "indexed": false,
          "internalType": "uint256[]",
          "name": "unitsAmounts",
          "type": "uint256[]"
        }
      ],
      "name": "UnitsDemilitarized",
      "type": "event"
    },
    {
      "anonymous": false,
      "inputs": [
        {
          "indexed": false,
          "internalType": "address",
          "name": "settlementAddress",
          "type": "address"
        },
        {
          "indexed": false,
          "internalType": "uint64",
          "name": "position",
          "type": "uint64"
        }
      ],
      "name": "UpdatedPosition",
      "type": "event"
    },
    {
      "inputs": [
        {
          "internalType": "bytes32",
          "name": "",
          "type": "bytes32"
        }
      ],
      "name": "additionalUnitsBattleMultipliers",
      "outputs": [
        {
          "internalType": "uint256",
          "name": "",
          "type": "uint256"
        }
      ],
      "stateMutability": "view",
      "type": "function"
    },
    {
      "inputs": [
        {
          "internalType": "uint64",
          "name": "stunDuration",
          "type": "uint64"
        }
      ],
      "name": "applySelfStun",
      "outputs": [],
      "stateMutability": "nonpayable",
      "type": "function"
    },
    {
      "inputs": [],
      "name": "assetGroupId",
      "outputs": [
        {
          "internalType": "bytes32",
          "name": "",
          "type": "bytes32"
        }
      ],
      "stateMutability": "view",
      "type": "function"
    },
    {
      "inputs": [],
      "name": "assetTypeId",
      "outputs": [
        {
          "internalType": "bytes32",
          "name": "",
          "type": "bytes32"
        }
      ],
      "stateMutability": "view",
      "type": "function"
    },
    {
      "inputs": [],
      "name": "battle",
      "outputs": [
        {
          "internalType": "contract IBattle",
          "name": "",
          "type": "address"
        }
      ],
      "stateMutability": "view",
      "type": "function"
    },
    {
      "inputs": [
        {
          "internalType": "address",
          "name": "targetArmyAddress",
          "type": "address"
        },
        {
          "internalType": "bytes32[]",
          "name": "maxUnitTypeIdsToAttack",
          "type": "bytes32[]"
        },
        {
          "internalType": "uint256[]",
          "name": "maxUnitsToAttack",
          "type": "uint256[]"
        }
      ],
      "name": "beginBattle",
      "outputs": [],
      "stateMutability": "nonpayable",
      "type": "function"
    },
    {
      "inputs": [
        {
          "internalType": "uint64",
          "name": "position",
          "type": "uint64"
        },
        {
          "internalType": "uint256",
          "name": "foodToSpendOnAcceleration",
          "type": "uint256"
        }
      ],
      "name": "beginOpenManeuver",
      "outputs": [],
      "stateMutability": "nonpayable",
      "type": "function"
    },
    {
      "inputs": [
        {
          "internalType": "uint64",
          "name": "secretDestinationRegionId",
          "type": "uint64"
        },
        {
          "internalType": "bytes32",
          "name": "secretDestinationPosition",
          "type": "bytes32"
        }
      ],
      "name": "beginSecretManeuver",
      "outputs": [],
      "stateMutability": "nonpayable",
      "type": "function"
    },
    {
      "inputs": [
        {
          "internalType": "bytes32[]",
          "name": "unitTypeIds",
          "type": "bytes32[]"
        },
        {
          "internalType": "uint256[]",
          "name": "unitsAmounts",
          "type": "uint256[]"
        }
      ],
      "name": "burnUnits",
      "outputs": [],
      "stateMutability": "nonpayable",
      "type": "function"
    },
    {
      "inputs": [],
      "name": "cancelSecretManeuver",
      "outputs": [],
      "stateMutability": "nonpayable",
      "type": "function"
    },
    {
      "inputs": [],
      "name": "currentPosition",
      "outputs": [
        {
          "internalType": "uint64",
          "name": "",
          "type": "uint64"
        }
      ],
      "stateMutability": "view",
      "type": "function"
    },
    {
      "inputs": [
        {
          "internalType": "bytes32",
          "name": "unitTypeId",
          "type": "bytes32"
        },
        {
          "internalType": "uint256",
          "name": "unitBattleMultiplier",
          "type": "uint256"
        }
      ],
      "name": "decreaseUnitBattleMultiplier",
      "outputs": [],
      "stateMutability": "nonpayable",
      "type": "function"
    },
    {
      "inputs": [
        {
          "internalType": "bytes32[]",
          "name": "unitTypeIds",
          "type": "bytes32[]"
        },
        {
          "internalType": "uint256[]",
          "name": "unitsAmounts",
          "type": "uint256[]"
        }
      ],
      "name": "demilitarize",
      "outputs": [],
      "stateMutability": "nonpayable",
      "type": "function"
    },
    {
      "inputs": [],
      "name": "era",
      "outputs": [
        {
          "internalType": "contract IEra",
          "name": "",
          "type": "address"
        }
      ],
      "stateMutability": "view",
      "type": "function"
    },
    {
      "inputs": [],
      "name": "eraNumber",
      "outputs": [
        {
          "internalType": "uint256",
          "name": "",
          "type": "uint256"
        }
      ],
      "stateMutability": "view",
      "type": "function"
    },
    {
      "inputs": [],
      "name": "getCurrentPosition",
      "outputs": [
        {
          "internalType": "uint64",
          "name": "",
          "type": "uint64"
        }
      ],
      "stateMutability": "view",
      "type": "function"
    },
    {
      "inputs": [],
      "name": "getOwner",
      "outputs": [
        {
          "internalType": "address",
          "name": "",
          "type": "address"
        }
      ],
      "stateMutability": "view",
      "type": "function"
    },
    {
      "inputs": [],
      "name": "getTotalSiegeSupport",
      "outputs": [
        {
          "internalType": "uint256",
          "name": "",
          "type": "uint256"
        }
      ],
      "stateMutability": "view",
      "type": "function"
    },
    {
      "inputs": [
        {
          "internalType": "bytes32",
          "name": "unitTypeId",
          "type": "bytes32"
        },
        {
          "internalType": "uint256",
          "name": "unitBattleMultiplier",
          "type": "uint256"
        }
      ],
      "name": "increaseUnitBattleMultiplier",
      "outputs": [],
      "stateMutability": "nonpayable",
      "type": "function"
    },
    {
      "inputs": [
        {
          "internalType": "bytes",
          "name": "initParams",
          "type": "bytes"
        }
      ],
      "name": "init",
      "outputs": [],
      "stateMutability": "nonpayable",
      "type": "function"
    },
    {
      "inputs": [],
      "name": "isAtHomePosition",
      "outputs": [
        {
          "internalType": "bool",
          "name": "",
          "type": "bool"
        }
      ],
      "stateMutability": "view",
      "type": "function"
    },
    {
      "inputs": [],
      "name": "isManeuvering",
      "outputs": [
        {
          "internalType": "bool",
          "name": "",
          "type": "bool"
        }
      ],
      "stateMutability": "view",
      "type": "function"
    },
    {
      "inputs": [
        {
          "internalType": "address",
          "name": "battleAddress",
          "type": "address"
        },
        {
          "internalType": "uint256",
          "name": "side",
          "type": "uint256"
        }
      ],
      "name": "joinBattle",
      "outputs": [],
      "stateMutability": "nonpayable",
      "type": "function"
    },
    {
      "inputs": [
        {
          "internalType": "bytes32[]",
          "name": "unitTypeIds",
          "type": "bytes32[]"
        },
        {
          "internalType": "uint256[]",
          "name": "unitsAmounts",
          "type": "uint256[]"
        }
      ],
      "name": "liquidateUnits",
      "outputs": [],
      "stateMutability": "nonpayable",
      "type": "function"
    },
    {
      "inputs": [],
      "name": "maneuverInfo",
      "outputs": [
        {
          "internalType": "uint64",
          "name": "beginTime",
          "type": "uint64"
        },
        {
          "internalType": "uint64",
          "name": "endTime",
          "type": "uint64"
        },
        {
          "internalType": "uint64",
          "name": "destinationPosition",
          "type": "uint64"
        },
        {
          "internalType": "uint64",
          "name": "secretDestinationRegionId",
          "type": "uint64"
        },
        {
          "internalType": "bytes32",
          "name": "secretDestinationPosition",
          "type": "bytes32"
        }
      ],
      "stateMutability": "view",
      "type": "function"
    },
    {
      "inputs": [
        {
          "internalType": "bytes32[]",
          "name": "unitTypeIds",
          "type": "bytes32[]"
        },
        {
          "internalType": "bool[]",
          "name": "toAddIndication",
          "type": "bool[]"
        },
        {
          "internalType": "uint256[]",
          "name": "unitsAmounts",
          "type": "uint256[]"
        },
        {
          "internalType": "uint256",
          "name": "newRobberyMultiplier",
          "type": "uint256"
        }
      ],
      "name": "modifySiege",
      "outputs": [],
      "stateMutability": "nonpayable",
      "type": "function"
    },
    {
      "inputs": [],
      "name": "registry",
      "outputs": [
        {
          "internalType": "contract IRegistry",
          "name": "",
          "type": "address"
        }
      ],
      "stateMutability": "view",
      "type": "function"
    },
    {
      "inputs": [],
      "name": "relatedSettlement",
      "outputs": [
        {
          "internalType": "contract ISettlement",
          "name": "",
          "type": "address"
        }
      ],
      "stateMutability": "view",
      "type": "function"
    },
    {
      "inputs": [
        {
          "internalType": "uint64",
          "name": "destinationPosition",
          "type": "uint64"
        },
        {
          "internalType": "bytes32",
          "name": "revealKey",
          "type": "bytes32"
        },
        {
          "internalType": "uint256",
          "name": "woodToSpendOnAcceleration",
          "type": "uint256"
        }
      ],
      "name": "revealSecretManeuver",
      "outputs": [],
      "stateMutability": "nonpayable",
      "type": "function"
    },
    {
      "inputs": [],
      "name": "stunInfo",
      "outputs": [
        {
          "internalType": "uint64",
          "name": "beginTime",
          "type": "uint64"
        },
        {
          "internalType": "uint64",
          "name": "endTime",
          "type": "uint64"
        }
      ],
      "stateMutability": "view",
      "type": "function"
    },
    {
      "inputs": [
        {
          "internalType": "address",
          "name": "buildingAddress",
          "type": "address"
        },
        {
          "internalType": "uint256",
          "name": "pointsToSpend",
          "type": "uint256"
        }
      ],
      "name": "swapRobberyPointsForResourceFromBuildingTreasury",
      "outputs": [],
      "stateMutability": "nonpayable",
      "type": "function"
    },
    {
      "inputs": [],
      "name": "updateState",
      "outputs": [],
      "stateMutability": "nonpayable",
      "type": "function"
    },
    {
      "inputs": [],
      "name": "world",
      "outputs": [
        {
          "internalType": "contract IWorld",
          "name": "",
          "type": "address"
        }
      ],
      "stateMutability": "view",
      "type": "function"
    },
    {
      "inputs": [],
      "name": "worldAssetFactory",
      "outputs": [
        {
          "internalType": "contract IWorldAssetFactory",
          "name": "",
          "type": "address"
        }
      ],
      "stateMutability": "view",
      "type": "function"
    }
  ],
  "transactionHash": "0x5640853ace1bedb4584c99355a3939c254730ba9af6643244741518e582aea5a",
  "args": [],
  "numDeployments": 1,
  "solcInputHash": "2627c9fa14fa5cb6e37bf26f5785fa8b",
  "bytecode": "0x608060405234801561001057600080fd5b50615fef80620000216000396000f3fe608060405234801561001057600080fd5b50600436106101a65760003560e01c806384ba89e3116100ea57806384ba89e31461033c578063893d20e81461034457806389609e9f1461034c5780638e55bdc01461035f5780638ff54e351461038b5780639cba43f8146103a35780639f86bb66146103b6578063ab106026146103c9578063ab6a9acb146103dc578063b8c90347146103e4578063bc3b0c4b146103f7578063c45f1000146103ff578063c66353a014610418578063cbd6036914610420578063d534d63614610433578063d5bd7d571461044d578063ece56a1a1461046057600080fd5b8063027304b3146101ab5780630b4e99c3146101c0578063143e55e0146101db5780631abcf471146101f05780631d8557d7146102035780632242e6141461020b5780632f04106c1461021e57806330b67baa14610231578063394eeca814610239578063418f35cc1461025957806344e445451461026e5780634ddf47d414610281578063574f4125146102945780635fd5d3a7146102a7578063610bb6a0146102ba5780637b1039991461032c5780637d884c7414610334575b600080fd5b6101be6101b936600461547a565b610468565b005b6101c86109f8565b6040519081526020015b60405180910390f35b6101e3610a35565b6040516101d2919061551c565b6101be6101fe366004615545565b610ab9565b6101be610bce565b6101be610219366004615571565b6113f0565b6101be61022c366004615667565b61141f565b6101e36115fd565b6101c861024736600461571f565b60056020526000908152604090205481565b610261611607565b6040516101d29190615738565b6001546101e3906001600160a01b031681565b6101be61028f36600461574c565b6116ef565b6101be6102a2366004615571565b6118db565b6101be6102b53660046157f5565b611901565b6002546003546102f1916001600160401b0380821692600160401b8304821692600160801b8104831692600160c01b909104169085565b604080516001600160401b0396871681529486166020860152928516928401929092529092166060820152608081019190915260a0016101d2565b6101e361192c565b6101c8611973565b6101c86119b0565b6101e36119ed565b6101be61035a366004615667565b611a41565b60045461037d906001600160401b0380821691600160401b90041682565b6040516101d2929190615819565b610393611ea0565b60405190151581526020016101d2565b6101be6103b1366004615545565b611edf565b6101be6103c4366004615667565b6123b1565b6101be6103d7366004615833565b61265a565b6101c8612d69565b6101be6103f2366004615868565b613128565b6103936134dc565b6000546101e3906201000090046001600160a01b031681565b6101be613622565b6101be61042e3660046158ea565b613a04565b60005461026190600160b01b90046001600160401b031681565b6101be61045b3660046158ea565b613b63565b6101e3613fc8565b61047061400f565b610478614140565b610480610bce565b600454600160401b90046001600160401b0316156104b157604051631efa2fd160e31b815260040160405180910390fd5b6104b9611ea0565b156104d75760405163db0a291b60e01b815260040160405180910390fd5b60006104e1614277565b6000549091506001600160a01b036201000090910481169082160361051957604051632fd6e04f60e11b815260040160405180910390fd5b60008060005b8981101561059557600087878381811061053b5761053b615908565b905060200201351115610583578261055257600192505b88888281811061056457610564615908565b9050602002016020810190610579919061592c565b1561058357600191505b8061058d8161595f565b91505061051f565b508080156105ad57506001546001600160a01b031615155b156105cb5760405163671284a360e11b815260040160405180910390fd5b506000826001600160a01b0316632de7e9b06040518163ffffffff1660e01b8152600401602060405180830381865afa15801561060c573d6000803e3d6000fd5b505050506040513d601f19601f820116820180604052508101906106309190615978565b90506000816001600160a01b0316633eb233aa306040518263ffffffff1660e01b8152600401610660919061551c565b606060405180830381865afa15801561067d573d6000803e3d6000fd5b505050506040513d601f19601f820116820180604052508101906106a19190615995565b5050905060006106af61192c565b905060008461072957816001600160a01b0316632701e0d06040518163ffffffff1660e01b8152600401602060405180830381865afa1580156106f6573d6000803e3d6000fd5b505050506040513d601f19601f8201168201806040525081019061071a91906159c3565b61072490846159dc565b61078b565b816001600160a01b0316632701e0d06040518163ffffffff1660e01b8152600401602060405180830381865afa158015610767573d6000803e3d6000fd5b505050506040513d601f19601f8201168201806040525081019061078b91906159c3565b9050808711156107ae5760405163063545e760e01b815260040160405180910390fd5b841580156107bc5750828711155b156107da5760405163063545e760e01b815260040160405180910390fd5b836001600160a01b031663eacaef90308f8f8f8f8f8f8f6040518963ffffffff1660e01b8152600401610814989796959493929190615a21565b600060405180830381600087803b15801561082e57600080fd5b505af1158015610842573d6000803e3d6000fd5b5050505060008561085c576108578489615aac565b61085e565b875b90506000670de0b6b3a764000082856001600160a01b031663f20bebf46040518163ffffffff1660e01b8152600401602060405180830381865afa1580156108aa573d6000803e3d6000fd5b505050506040513d601f19601f820116820180604052508101906108ce91906159c3565b6108d89190615abf565b6108e29190615aec565b9050836001600160a01b031663781e0efe6040518163ffffffff1660e01b8152600401602060405180830381865afa158015610922573d6000803e3d6000fd5b505050506040513d601f19601f8201168201806040525081019061094691906159c3565b6109509082615aec565b905061095c42826142b3565b604051632e5d9f7f60e21b81526001600160a01b0387169063b9767dfc9061098890309060040161551c565b602060405180830381865afa1580156109a5573d6000803e3d6000fd5b505050506040513d601f19601f820116820180604052508101906109c99190615b00565b156109e75760405163c0df548d60e01b815260040160405180910390fd5b505050505050505050505050505050565b604080516020808252818301909252600091309183918291906020820181803683370190505090506020607a60208301853c602001519392505050565b6000610a3f6115fd565b6001600160a01b031663720a70bd610a55611973565b6040518263ffffffff1660e01b8152600401610a7391815260200190565b602060405180830381865afa158015610a90573d6000803e3d6000fd5b505050506040513d601f19601f82011682018060405250810190610ab49190615978565b905090565b610ac161400f565b610ac9614140565b610ad1610bce565b600454600160401b90046001600160401b031615610b0257604051631efa2fd160e31b815260040160405180910390fd5b610b0a614277565b6001600160a01b0316632de7e9b06040518163ffffffff1660e01b8152600401602060405180830381865afa158015610b47573d6000803e3d6000fd5b505050506040513d601f19601f82011682018060405250810190610b6b9190615978565b6001600160a01b0316631abcf47183836040518363ffffffff1660e01b8152600401610b98929190615b1d565b600060405180830381600087803b158015610bb257600080fd5b505af1158015610bc6573d6000803e3d6000fd5b505050505050565b6000610bd861192c565b6001549091506001600160a01b0316156110e957600160009054906101000a90046001600160a01b03166001600160a01b0316631852b5af6040518163ffffffff1660e01b8152600401602060405180830381865afa158015610c3f573d6000803e3d6000fd5b505050506040513d601f19601f82011682018060405250810190610c639190615b00565b158015610ce25750600160009054906101000a90046001600160a01b03166001600160a01b0316639d4095fe6040518163ffffffff1660e01b8152600401602060405180830381865afa158015610cbe573d6000803e3d6000fd5b505050506040513d601f19601f82011682018060405250810190610ce29190615b00565b15610d5057600160009054906101000a90046001600160a01b03166001600160a01b031663d1c986186040518163ffffffff1660e01b8152600401600060405180830381600087803b158015610d3757600080fd5b505af1158015610d4b573d6000803e3d6000fd5b505050505b600160009054906101000a90046001600160a01b03166001600160a01b0316631852b5af6040518163ffffffff1660e01b8152600401602060405180830381865afa158015610da3573d6000803e3d6000fd5b505050506040513d601f19601f82011682018060405250810190610dc79190615b00565b156110e9576001546040516339a88e0160e11b81526001600160a01b0390911690600090819083906373511c0290610e0390309060040161551c565b600060405180830381865afa158015610e20573d6000803e3d6000fd5b505050506040513d6000823e601f3d908101601f19168201604052610e489190810190615b91565b91509150306001600160a01b0316632f04106c856001600160a01b0316635a28acb06040518163ffffffff1660e01b8152600401600060405180830381865afa158015610e99573d6000803e3d6000fd5b505050506040513d6000823e601f3d908101601f19168201604052610ec19190810190615bd7565b836040518363ffffffff1660e01b8152600401610edf929190615c67565b600060405180830381600087803b158015610ef957600080fd5b505af1158015610f0d573d6000803e3d6000fd5b5050600180546001600160a01b031916905550506040805163383f9ac360e01b8152905160009182916001600160a01b0387169163383f9ac39160048083019260609291908290030181865afa158015610f6b573d6000803e3d6000fd5b505050506040513d601f19601f82011682018060405250810190610f8f9190615ce2565b5090925090506000610fa18284615d2f565b905060008561101157876001600160a01b031663b8daaaeb6040518163ffffffff1660e01b8152600401602060405180830381865afa158015610fe8573d6000803e3d6000fd5b505050506040513d601f19601f8201168201806040525081019061100c91906159c3565b611073565b876001600160a01b031663d13c422e6040518163ffffffff1660e01b8152600401602060405180830381865afa15801561104f573d6000803e3d6000fd5b505050506040513d601f19601f8201168201806040525081019061107391906159c3565b90506000670de0b6b3a7640000611093836001600160401b038716615abf565b61109d9190615aec565b90506110a983826142b3565b7ffebc8def56488478b478cd17f7881ec8fd12fce9906b0c458a4612ab4e338f79886040516110d8919061551c565b60405180910390a150505050505050505b6110f1614355565b80156111005750611100614386565b1561131f57600254600090611128906001600160401b0380821691600160401b900416615d56565b90506000600260000160089054906101000a90046001600160401b031690506000670de0b6b3a7640000846001600160a01b031663302c7c4a6040518163ffffffff1660e01b8152600401602060405180830381865afa158015611190573d6000803e3d6000fd5b505050506040513d601f19601f820116820180604052508101906111b491906159c3565b6111c7906001600160401b038616615abf565b6111d19190615aec565b600280546000805467ffffffffffffffff60b01b1916600160801b9092046001600160401b0316600160b01b029190911781556040805160a081018252828152602081018390529081018290526060810182905260800181905290819055600355905061123e82826142b3565b7f8a04a40db03cccace603b464ca2260cf52fca39a4fb28f1da32a7b7e19212c5f611267610a35565b6001600160a01b031663c4c31e85600060169054906101000a90046001600160401b03166040518263ffffffff1660e01b81526004016112a79190615738565b602060405180830381865afa1580156112c4573d6000803e3d6000fd5b505050506040513d601f19601f820116820180604052508101906112e89190615978565b600054604080516001600160a01b039093168352600160b01b9091046001600160401b031660208301520160405180910390a15050505b600454600160401b90046001600160401b0316156113ed5760006113416115fd565b6001600160a01b03166344d9bc5f6040518163ffffffff1660e01b8152600401602060405180830381865afa15801561137e573d6000803e3d6000fd5b505050506040513d601f19601f820116820180604052508101906113a291906159c3565b9050600081156113bb576113b6428361445a565b6113bd565b425b600454909150600160401b90046001600160401b031681106113ea57600480546001600160801b03191690555b50505b50565b6113f8614474565b60008281526005602052604081208054839290611416908490615aac565b90915550505050565b611427614474565b6000611431610a35565b905060005b83518110156115f75782818151811061145157611451615908565b6020026020010151600003156115e5576000826001600160a01b031663feae7dc386848151811061148457611484615908565b60200260200101516040518263ffffffff1660e01b81526004016114aa91815260200190565b602060405180830381865afa1580156114c7573d6000803e3d6000fd5b505050506040513d601f19601f820116820180604052508101906114eb9190615978565b90506000816001600160a01b03166370a08231306040518263ffffffff1660e01b815260040161151b919061551c565b602060405180830381865afa158015611538573d6000803e3d6000fd5b505050506040513d601f19601f8201168201806040525081019061155c91906159c3565b9050600085848151811061157257611572615908565b60200260200101519050818111156115875750805b604051630852cd8d60e31b8152600481018290526001600160a01b038416906342966c6890602401600060405180830381600087803b1580156115c957600080fd5b505af11580156115dd573d6000803e3d6000fd5b505050505050505b806115ef8161595f565b915050611436565b50505050565b6000610ab4614539565b6000806116126115fd565b6001600160a01b03166344d9bc5f6040518163ffffffff1660e01b8152600401602060405180830381865afa15801561164f573d6000803e3d6000fd5b505050506040513d601f19601f8201168201806040525081019061167391906159c3565b90506000811561168c57611687428361445a565b61168e565b425b9050611698614355565b80156116b65750600254600160401b90046001600160401b03168110155b156116d5575050600254600160801b90046001600160401b0316919050565b5050600054600160b01b90046001600160401b0316919050565b600054610100900460ff161580801561170f5750600054600160ff909116105b806117295750303b158015611729575060005460ff166001145b6117905760405162461bcd60e51b815260206004820152602e60248201527f496e697469616c697a61626c653a20636f6e747261637420697320616c72656160448201526d191e481a5b9a5d1a585b1a5e995960921b606482015260840160405180910390fd5b6000805460ff1916600117905580156117b3576000805461ff0019166101001790555b6000828060200190518101906117c99190615978565b905080600060026101000a8154816001600160a01b0302191690836001600160a01b03160217905550600060029054906101000a90046001600160a01b03166001600160a01b03166309218e916040518163ffffffff1660e01b8152600401602060405180830381865afa158015611845573d6000803e3d6000fd5b505050506040513d601f19601f820116820180604052508101906118699190615d76565b600060166101000a8154816001600160401b0302191690836001600160401b031602179055505080156118d7576000805461ff0019169055604051600181527f7f26b83ff96e1f2b6a682f133852f6798a09c465da95921460cefb3847402498906020015b60405180910390a15b5050565b6118e3614474565b600082815260056020526040812080548392906114169084906159dc565b61190961400f565b611911614140565b611919610bce565b6113ed42826001600160401b03166142b3565b60006119366115fd565b6001600160a01b0316637b1039996040518163ffffffff1660e01b8152600401602060405180830381865afa158015610a90573d6000803e3d6000fd5b604080516020808252818301909252600091309183918291906020820181803683370190505090506020609a60208301853c602001519392505050565b604080516020808252818301909252600091309183918291906020820181803683370190505090506020605a60208301853c602001519392505050565b60008060029054906101000a90046001600160a01b03166001600160a01b031663b5acd4566040518163ffffffff1660e01b8152600401602060405180830381865afa158015610a90573d6000803e3d6000fd5b611a49614474565b604051630bc1041b60e21b81523090632f04106c90611a6e9085908590600401615c67565b600060405180830381600087803b158015611a8857600080fd5b505af1158015611a9c573d6000803e3d6000fd5b505050506000611aaa614277565b90506000816001600160a01b031663e6c15c996040518163ffffffff1660e01b8152600401602060405180830381865afa158015611aec573d6000803e3d6000fd5b505050506040513d601f19601f82011682018060405250810190611b109190615978565b6001600160a01b031663c20c92506040518163ffffffff1660e01b8152600401602060405180830381865afa158015611b4d573d6000803e3d6000fd5b505050506040513d601f19601f82011682018060405250810190611b719190615978565b90506000611b7d61192c565b90506000611b89610a35565b9050836001600160a01b0316836001600160a01b031614610bc65760008060005b8851811015611d5b57846001600160a01b031663cbaad4418a8381518110611bd457611bd4615908565b60200260200101516040518263ffffffff1660e01b8152600401611bfa91815260200190565b602060405180830381865afa158015611c17573d6000803e3d6000fd5b505050506040513d601f19601f82011682018060405250810190611c3b91906159c3565b670de0b6b3a7640000898381518110611c5657611c56615908565b6020026020010151611c689190615aec565b611c729190615abf565b611c7c90846159dc565b9250846001600160a01b03166366fa9d248a8381518110611c9f57611c9f615908565b60200260200101516040518263ffffffff1660e01b8152600401611cc591815260200190565b602060405180830381865afa158015611ce2573d6000803e3d6000fd5b505050506040513d601f19601f82011682018060405250810190611d0691906159c3565b670de0b6b3a7640000898381518110611d2157611d21615908565b6020026020010151611d339190615aec565b611d3d9190615abf565b611d4790836159dc565b915080611d538161595f565b915050611baa565b508115611dbd57604051631fd4ad2560e11b8152600481018390526001600160a01b03871690633fa95a4a90602401600060405180830381600087803b158015611da457600080fd5b505af1158015611db8573d6000803e3d6000fd5b505050505b8015611e9657826001600160a01b031663cabb62f06040518163ffffffff1660e01b8152600401602060405180830381865afa158015611e01573d6000803e3d6000fd5b505050506040513d601f19601f82011682018060405250810190611e259190615978565b6001600160a01b03166340c10f1987611e4684670de0b6b3a7640000614576565b6040518363ffffffff1660e01b8152600401611e63929190615b1d565b600060405180830381600087803b158015611e7d57600080fd5b505af1158015611e91573d6000803e3d6000fd5b505050505b5050505050505050565b6000611eaa614355565b8015611ebb5750611eb9614386565b155b15611ec65750600190565b611ece61458d565b15611ed95750600190565b50600090565b611ee761400f565b611eef614140565b611ef7610bce565b604080518082019091526006815265626174746c6560d01b6020909101527f1d3e47c3991e843d528c0f9f043ad863de6aeee16578e4fc478e274804caf7e2611f3e6115fd565b6001600160a01b031663ebbe8034611f54611973565b856040518363ffffffff1660e01b8152600401611f72929190615d93565b602060405180830381865afa158015611f8f573d6000803e3d6000fd5b505050506040513d601f19601f82011682018060405250810190611fb391906159c3565b14611fd1576040516334fd54d360e11b815260040160405180910390fd5b336001600160a01b0383161461203857611fe9611ea0565b156120075760405163db0a291b60e01b815260040160405180910390fd5b600454600160401b90046001600160401b03161561203857604051631efa2fd160e31b815260040160405180910390fd5b6001546001600160a01b0316156120625760405163671284a360e11b815260040160405180910390fd5b61206b306145ae565b60000361208b57604051633f2820c560e11b815260040160405180910390fd5b8060011415801561209d575080600214155b156120bb57604051630c6a1c1960e01b815260040160405180910390fd5b6000829050806001600160a01b031663758461356040518163ffffffff1660e01b8152600401602060405180830381865afa1580156120fe573d6000803e3d6000fd5b505050506040513d601f19601f820116820180604052508101906121229190615b00565b61213f5760405163154ca56d60e31b815260040160405180910390fd5b600060169054906101000a90046001600160401b03166001600160401b0316816001600160a01b03166309218e916040518163ffffffff1660e01b8152600401602060405180830381865afa15801561219c573d6000803e3d6000fd5b505050506040513d601f19601f820116820180604052508101906121c09190615d76565b6001600160401b0316146121e757604051637bc2a38d60e11b815260040160405180910390fd5b600180546001600160a01b0319166001600160a01b038316178155821460006122108385614754565b6040516308f5803f60e41b8152901591506001600160a01b03841690638f5803f0906122429030908890600401615b1d565b600060405180830381600087803b15801561225c57600080fd5b505af1158015612270573d6000803e3d6000fd5b50505050600061227e61192c565b905082801561228b575081155b15612370576000816001600160a01b031663bc2143e76040518163ffffffff1660e01b8152600401602060405180830381865afa1580156122d0573d6000803e3d6000fd5b505050506040513d601f19601f820116820180604052508101906122f491906159c3565b9050816001600160a01b031663781e0efe6040518163ffffffff1660e01b8152600401602060405180830381865afa158015612334573d6000803e3d6000fd5b505050506040513d601f19601f8201168201806040525081019061235891906159c3565b6123629082615aec565b905061236e42826142b3565b505b7f47fe3458f42ceb5e6af6aa6b78401c3bf85a6d44e984b1a84ebf6546f6d8b76186866040516123a1929190615b1d565b60405180910390a1505050505050565b6123b961400f565b6123c1614140565b6123c9610bce565b600454600160401b90046001600160401b0316156123fa57604051631efa2fd160e31b815260040160405180910390fd5b6001546001600160a01b0316156124245760405163671284a360e11b815260040160405180910390fd5b600061242e610a35565b905060005b83518110156125c457600083828151811061245057612450615908565b602002602001015190508060001480612478575061247681670de0b6b3a764000061489a565b155b15612496576040516378b4befb60e01b815260040160405180910390fd5b6000836001600160a01b031663feae7dc38785815181106124b9576124b9615908565b60200260200101516040518263ffffffff1660e01b81526004016124df91815260200190565b602060405180830381865afa1580156124fc573d6000803e3d6000fd5b505050506040513d601f19601f820116820180604052508101906125209190615978565b6001600160a01b03166370a08231306040518263ffffffff1660e01b815260040161254b919061551c565b602060405180830381865afa158015612568573d6000803e3d6000fd5b505050506040513d601f19601f8201168201806040525081019061258c91906159c3565b9050818110156125af5760405163182d830b60e31b815260040160405180910390fd5b505080806125bc9061595f565b915050612433565b506040516389609e9f60e01b815230906389609e9f906125ea9086908690600401615c67565b600060405180830381600087803b15801561260457600080fd5b505af1158015612618573d6000803e3d6000fd5b505050507f2a64db6599c5382d2381d60bad93c206dab9f324daa5fda790e6b0ed1d9b13ab838360405161264d929190615c67565b60405180910390a1505050565b61266261400f565b61266a610bce565b61267261458d565b61268f576040516365266ce960e01b815260040160405180910390fd5b6003546040516001600160c01b031960c086901b1660208201526028810184905260480160405160208183030381529060405280519060200120146126e757604051637802828360e11b815260040160405180910390fd5b60006126f16115fd565b6001600160a01b031663f5f026a36040518163ffffffff1660e01b8152600401602060405180830381865afa15801561272e573d6000803e3d6000fd5b505050506040513d601f19601f820116820180604052508101906127529190615978565b6001600160a01b03166340adb9d5600060169054906101000a90046001600160401b0316866040518363ffffffff1660e01b8152600401612794929190615819565b602060405180830381865afa1580156127b1573d6000803e3d6000fd5b505050506040513d601f19601f820116820180604052508101906127d59190615d76565b905060006127e2826148ae565b6002549091506000906127ff9083906001600160401b03166159dc565b905083156128dd57600454600160401b90046001600160401b03161561283857604051631efa2fd160e31b815260040160405180910390fd5b6001546001600160a01b0316156128625760405163671284a360e11b815260040160405180910390fd5b600061286d84614938565b60025490915060009061288a9083906001600160401b03166159dc565b6002549091506000906128a79086906001600160401b03166159dc565b9050814210806128b75750804210155b156128d55760405163409313a960e01b815260040160405180910390fd5b505050612a24565b6001546001600160a01b0316156129e857600080600160009054906101000a90046001600160a01b03166001600160a01b031663383f9ac36040518163ffffffff1660e01b8152600401606060405180830381865afa158015612944573d6000803e3d6000fd5b505050506040513d601f19601f820116820180604052508101906129689190615ce2565b509092509050600061297a8284615d2f565b6001600160401b031690508381106129a55760405163409313a960e01b815260040160405180910390fd5b6002546001600160401b031684428211806129c05750804210155b156129de5760405163409313a960e01b815260040160405180910390fd5b5050505050612a24565b6002546001600160401b03168142821180612a035750804210155b15612a215760405163409313a960e01b815260040160405180910390fd5b50505b6000612a2e610a35565b6001600160a01b031663c4c31e85886040518263ffffffff1660e01b8152600401612a599190615738565b602060405180830381865afa158015612a76573d6000803e3d6000fd5b505050506040513d601f19601f82011682018060405250810190612a9a9190615978565b90506001600160a01b038116612ac357604051636bc6705b60e11b815260040160405180910390fd5b6000546001600160401b03600160b01b909104811690881603612af957604051632ea8b7d360e21b815260040160405180910390fd5b6000816001600160a01b031663e6c15c996040518163ffffffff1660e01b8152600401602060405180830381865afa158015612b39573d6000803e3d6000fd5b505050506040513d601f19601f82011682018060405250810190612b5d9190615978565b6001600160a01b031663b2fd89336040518163ffffffff1660e01b8152600401602060405180830381865afa158015612b9a573d6000803e3d6000fd5b505050506040513d601f19601f82011682018060405250810190612bbe9190615d76565b6002549091506001600160401b03808316600160c01b9092041614612bf657604051635a11cf6760e11b815260040160405180910390fd5b838615612c6c576000612c094286615aac565b60408051808201909152600a8152691315535091549352531360b21b60209091015290506000612c5b82898b7f6efa3da32b5b0a21cf9c6f5bc9edeb1d9e3a4b88cc5eb7b649f1e502941016596149e5565b9050612c678184615aac565b925050505b600254612c839082906001600160401b0316615d2f565b600260000160086101000a8154816001600160401b0302191690836001600160401b03160217905550600080516020615f9a83398151915289600260000160189054906101000a90046001600160401b0316600260010154600260000160009054906101000a90046001600160401b0316600260000160089054906101000a90046001600160401b03168c604051612d2096959493929190615daa565b60405180910390a15050600280546001600160801b0316600160801b6001600160401b0399909916989098026001600160c01b0316979097179096555050600060035550505050565b600080612d7461192c565b90506000612d80610a35565b90506000826001600160a01b0316635a28acb06040518163ffffffff1660e01b8152600401600060405180830381865afa158015612dc2573d6000803e3d6000fd5b505050506040513d6000823e601f3d908101601f19168201604052612dea9190810190615bd7565b9050600081516001600160401b03811115612e0757612e07615593565b604051908082528060200260200182016040528015612e30578160200160208202803683370190505b506001549091506001600160a01b031615801590612ec05750600160009054906101000a90046001600160a01b03166001600160a01b0316639d4095fe6040518163ffffffff1660e01b8152600401602060405180830381865afa158015612e9c573d6000803e3d6000fd5b505050506040513d601f19601f82011682018060405250810190612ec09190615b00565b15612f3e576001546040516339a88e0160e11b81526001600160a01b03909116906373511c0290612ef590309060040161551c565b600060405180830381865afa158015612f12573d6000803e3d6000fd5b505050506040513d6000823e601f3d908101601f19168201604052612f3a9190810190615b91565b9150505b6000805b835181101561311e576000848281518110612f5f57612f5f615908565b602002602001015190506000876001600160a01b03166335ba7989836040518263ffffffff1660e01b8152600401612f9991815260200190565b60c060405180830381865afa158015612fb6573d6000803e3d6000fd5b505050506040513d601f19601f82011682018060405250810190612fda9190615de5565b9050670de0b6b3a76400008160a00151868581518110612ffc57612ffc615908565b6020026020010151896001600160a01b031663feae7dc3866040518263ffffffff1660e01b815260040161303291815260200190565b602060405180830381865afa15801561304f573d6000803e3d6000fd5b505050506040513d601f19601f820116820180604052508101906130739190615978565b6001600160a01b03166370a08231306040518263ffffffff1660e01b815260040161309e919061551c565b602060405180830381865afa1580156130bb573d6000803e3d6000fd5b505050506040513d601f19601f820116820180604052508101906130df91906159c3565b6130e99190615aac565b6130f39190615abf565b6130fd9190615aec565b61310790856159dc565b9350505080806131169061595f565b915050612f42565b5095945050505050565b61313061400f565b613138614140565b613140610bce565b6000859050806001600160a01b0316631d8557d76040518163ffffffff1660e01b8152600401600060405180830381600087803b15801561318057600080fd5b505af1158015613194573d6000803e3d6000fd5b505050506000816001600160a01b031663418f35cc6040518163ffffffff1660e01b8152600401602060405180830381865afa1580156131d8573d6000803e3d6000fd5b505050506040513d601f19601f820116820180604052508101906131fc9190615d76565b60408051808201909152600481526361726d7960e01b60209091015290507f1dfa95949f0b18e5ee916f85d0296148ce2f94b82b74404d6a5d6e64ed9b8c5f6132436115fd565b6001600160a01b031663ebbe8034613259611973565b8a6040518363ffffffff1660e01b8152600401613277929190615d93565b602060405180830381865afa158015613294573d6000803e3d6000fd5b505050506040513d601f19601f820116820180604052508101906132b891906159c3565b146132d657604051631ca23ba960e01b815260040160405180910390fd5b6001600160a01b03871630036132ff5760405163dbfa9fe360e01b815260040160405180910390fd5b600454600160401b90046001600160401b03161561333057604051631efa2fd160e31b815260040160405180910390fd5b613338611ea0565b156133565760405163db0a291b60e01b815260040160405180910390fd5b6000546001600160401b03828116600160b01b909204161461338b576040516313b6cc3f60e11b815260040160405180910390fd5b6000613395613fc8565b6001600160a01b031663c19755fd6133ab6115fd565b6133b3611973565b60405180604001604052806006815260200165626174746c6560d01b8152508051906020012060405180604001604052806005815260200164424153494360d81b81525080519060200120308e8e8e8e8e60405160200161341996959493929190615e5e565b6040516020818303038152906040526040518663ffffffff1660e01b8152600401613448959493929190615eab565b6020604051808303816000875af1158015613467573d6000803e3d6000fd5b505050506040513d601f19601f8201168201806040525081019061348b9190615978565b604080516001600160a01b0380841682528b1660208201529192507f1ef6891675997a15544cae2164f91b54f110dde48492f8023f7d73eb16f6315391015b60405180910390a15050505050505050565b60006134e6614355565b80156134f557506134f5614386565b1561358e57600060029054906101000a90046001600160a01b03166001600160a01b03166309218e916040518163ffffffff1660e01b8152600401602060405180830381865afa15801561354d573d6000803e3d6000fd5b505050506040513d601f19601f820116820180604052508101906135719190615d76565b600254600160801b90046001600160401b03908116911614919050565b600060029054906101000a90046001600160a01b03166001600160a01b03166309218e916040518163ffffffff1660e01b8152600401602060405180830381865afa1580156135e1573d6000803e3d6000fd5b505050506040513d601f19601f820116820180604052508101906136059190615d76565b600054600160b01b90046001600160401b03908116911614919050565b61362a61400f565b613632614140565b61363a610bce565b61364261458d565b61365f576040516365266ce960e01b815260040160405180910390fd5b600454600160401b90046001600160401b03161561369057604051631efa2fd160e31b815260040160405180910390fd5b6001546001600160a01b0316156136ba5760405163671284a360e11b815260040160405180910390fd5b60006136c461192c565b905060006136d0610a35565b90506000826001600160a01b03166370a1859e6040518163ffffffff1660e01b8152600401602060405180830381865afa158015613712573d6000803e3d6000fd5b505050506040513d601f19601f8201168201806040525081019061373691906159c3565b600254909150600090670de0b6b3a764000090839061375e906001600160401b031642615aac565b6137689190615abf565b6137729190615aec565b905061377e42826142b3565b60028054600160401b600160c01b0316905560006003819055604080516305a28acb60e41b815290516001600160a01b03871691635a28acb091600480830192869291908290030181865afa1580156137db573d6000803e3d6000fd5b505050506040513d6000823e601f3d908101601f191682016040526138039190810190615bd7565b9050600081516001600160401b0381111561382057613820615593565b604051908082528060200260200182016040528015613849578160200160208202803683370190505b50905060005b825181101561397b57856001600160a01b031663feae7dc384838151811061387957613879615908565b60200260200101516040518263ffffffff1660e01b815260040161389f91815260200190565b602060405180830381865afa1580156138bc573d6000803e3d6000fd5b505050506040513d601f19601f820116820180604052508101906138e09190615978565b6001600160a01b03166370a08231306040518263ffffffff1660e01b815260040161390b919061551c565b602060405180830381865afa158015613928573d6000803e3d6000fd5b505050506040513d601f19601f8201168201806040525081019061394c91906159c3565b82828151811061395e5761395e615908565b6020908102919091010152806139738161595f565b91505061384f565b506040516389609e9f60e01b815230906389609e9f906139a19085908590600401615c67565b600060405180830381600087803b1580156139bb57600080fd5b505af11580156139cf573d6000803e3d6000fd5b50506040517f17f43c516bdaa870a5b1a2c84f0b47934166331cbe8b8cbbc4217cb5dcaefe2b925060009150a1505050505050565b613a0c61400f565b613a14614140565b613a1c610bce565b600454600160401b90046001600160401b031615613a4d57604051631efa2fd160e31b815260040160405180910390fd5b613a55611ea0565b15613a735760405163db0a291b60e01b815260040160405180910390fd5b6001546001600160a01b031615613a9d5760405163671284a360e11b815260040160405180910390fd5b613aa5614e9c565b15613ac357604051637d39eee560e11b815260040160405180910390fd5b613acc306145ae565b600003613aec5760405163340ead6160e01b815260040160405180910390fd5b600280546001600160401b03848116600160c01b8102600160401b600160c01b0390931642831617929092179283905560038490556040805160008082526020820194909452908101859052921660608301526080820181905260a0820152600080516020615f9a8339815191529060c0016118ce565b613b6b61400f565b613b73614140565b613b7b610bce565b600454600160401b90046001600160401b031615613bac57604051631efa2fd160e31b815260040160405180910390fd5b613bb4611ea0565b15613bd25760405163db0a291b60e01b815260040160405180910390fd5b6001546001600160a01b031615613bfc5760405163671284a360e11b815260040160405180910390fd5b613c04614e9c565b15613c2257604051637d39eee560e11b815260040160405180910390fd5b6000546001600160401b03808416600160b01b9092041603613c5757604051632ea8b7d360e21b815260040160405180910390fd5b6000613c61610a35565b6001600160a01b031663c4c31e85846040518263ffffffff1660e01b8152600401613c8c9190615738565b602060405180830381865afa158015613ca9573d6000803e3d6000fd5b505050506040513d601f19601f82011682018060405250810190613ccd9190615978565b90506001600160a01b038116151580613cf957604051636bc6705b60e11b815260040160405180910390fd5b6000613d04306145ae565b1590508015613d63576000546001600160a01b0384811662010000909204161480613d425760405163038eb4e560e51b815260040160405180910390fd5b8415613d615760405163a59c22a960e01b815260040160405180910390fd5b505b6000613d6d6115fd565b6001600160a01b031663f5f026a36040518163ffffffff1660e01b8152600401602060405180830381865afa158015613daa573d6000803e3d6000fd5b505050506040513d601f19601f82011682018060405250810190613dce9190615978565b6001600160a01b03166340adb9d5600060169054906101000a90046001600160401b0316886040518363ffffffff1660e01b8152600401613e10929190615819565b602060405180830381865afa158015613e2d573d6000803e3d6000fd5b505050506040513d601f19601f82011682018060405250810190613e519190615d76565b90506000613e5e826148ae565b9050808615613ede576000613e7284614938565b90506000613e808285615aac565b6040805180820190915260048152634641524d60e01b60209091015290506000613ecc82878c7f15e7d524175663fc8929751799c4e1a8d04fec20bebd7ac2f10532927c1b5c0d6149e5565b9050613ed88185615aac565b93505050505b6040518060a00160405280426001600160401b031681526020018242613f0491906159dc565b6001600160401b0390811682528a81166020808401919091526000604080850182905260609485018290528551600280549488015188840151978901519287166001600160801b031990961695909517600160401b9587168602176001600160801b0316600160801b978716979097026001600160c01b031696909617600160c01b9186169190910217948590556080909501516003559351600080516020615f9a833981519152946134ca948e9491938493828416939190920416908e90615daa565b6000613fd261192c565b6001600160a01b031663ece56a1a6040518163ffffffff1660e01b8152600401602060405180830381865afa158015610a90573d6000803e3d6000fd5b60006140196115fd565b6001600160a01b0316633c8ca83d6040518163ffffffff1660e01b8152600401602060405180830381865afa158015614056573d6000803e3d6000fd5b505050506040513d601f19601f8201168201806040525081019061407a91906159c3565b905060006140866115fd565b6001600160a01b03166344d9bc5f6040518163ffffffff1660e01b8152600401602060405180830381865afa1580156140c3573d6000803e3d6000fd5b505050506040513d601f19601f820116820180604052508101906140e791906159c3565b90508115806140f557508142105b156141135760405163a00eda6960e01b815260040160405180910390fd5b80158015906141225750804210155b156118d75760405163a00eda6960e01b815260040160405180910390fd5b600061414a6115fd565b600054604051631b0b969d60e01b81529192506201000090046001600160a01b031690631b0b969d9061418190339060040161551c565b602060405180830381865afa15801561419e573d6000803e3d6000fd5b505050506040513d601f19601f820116820180604052508101906141c29190615b00565b1580156141d85750336001600160a01b03821614155b8015614259575060006001600160a01b03821663ebbe80346141f8611973565b336040518363ffffffff1660e01b8152600401614216929190615d93565b602060405180830381865afa158015614233573d6000803e3d6000fd5b505050506040513d601f19601f8201168201806040525081019061425791906159c3565b145b156113ed57604051630d319e2360e41b815260040160405180910390fd5b6000614281610a35565b6001600160a01b031663c4c31e85614297611607565b6040518263ffffffff1660e01b8152600401610a739190615738565b806000036142bf575050565b60006142cb8284615d2f565b6004549091506001600160401b03600160401b909104811690821611156113ea57600480546001600160801b031916600160401b6001600160401b038481169190910267ffffffffffffffff1916919091179085161790556040517ff861d322fccc59c7a2d50d1d5a7e59edd351307a86833244abbb1b584dec69649061264d9085908490615819565b6002546000906001600160401b031615801590610ab4575050600254600160401b90046001600160401b0316151590565b6000806143916115fd565b6001600160a01b03166344d9bc5f6040518163ffffffff1660e01b8152600401602060405180830381865afa1580156143ce573d6000803e3d6000fd5b505050506040513d601f19601f820116820180604052508101906143f291906159c3565b90506000811561440b57614406428361445a565b61440d565b425b600254909150600160401b90046001600160401b0316158015906144435750600254600160401b90046001600160401b03168110155b156144515760019250505090565b60009250505090565b6000818310614469578161446b565b825b90505b92915050565b61447c6115fd565b6001600160a01b0316336001600160a01b031614158015614519575060006144a26115fd565b6001600160a01b031663ebbe80346144b8611973565b336040518363ffffffff1660e01b81526004016144d6929190615d93565b602060405180830381865afa1580156144f3573d6000803e3d6000fd5b505050506040513d601f19601f8201168201806040525081019061451791906159c3565b145b156145375760405163422656d160e01b815260040160405180910390fd5b565b604080516014808252818301909252600091309183918291906020820181803683370190505090506014602a60208301853c601401519392505050565b6000816145838185615aec565b61446b9190615abf565b6002546000906001600160401b031615801590610ab4575050600354151590565b6000806145b9610a35565b905060006145c561192c565b6001600160a01b0316635a28acb06040518163ffffffff1660e01b8152600401600060405180830381865afa158015614602573d6000803e3d6000fd5b505050506040513d6000823e601f3d908101601f1916820160405261462a9190810190615bd7565b90506000805b825181101561474b57836001600160a01b031663feae7dc384838151811061465a5761465a615908565b60200260200101516040518263ffffffff1660e01b815260040161468091815260200190565b602060405180830381865afa15801561469d573d6000803e3d6000fd5b505050506040513d601f19601f820116820180604052508101906146c19190615978565b6001600160a01b03166370a08231876040518263ffffffff1660e01b81526004016146ec919061551c565b602060405180830381865afa158015614709573d6000803e3d6000fd5b505050506040513d601f19601f8201168201806040525081019061472d91906159c3565b61473790836159dc565b9150806147438161595f565b915050614630565b50949350505050565b60008061475f61192c565b6001600160a01b0316635a28acb06040518163ffffffff1660e01b8152600401600060405180830381865afa15801561479c573d6000803e3d6000fd5b505050506040513d6000823e601f3d908101601f191682016040526147c49190810190615bd7565b905060005b815181101561488f5760008282815181106147e6576147e6615908565b602002602001015190506000866001600160a01b0316633856937987846040518363ffffffff1660e01b8152600401614829929190918252602082015260400190565b602060405180830381865afa158015614846573d6000803e3d6000fd5b505050506040513d601f19601f8201168201806040525081019061486a91906159c3565b111561487c576001935050505061446e565b50806148878161595f565b9150506147c9565b506000949350505050565b60006148a68284615f1e565b159392505050565b60006148b861192c565b6001600160a01b031663781e0efe6040518163ffffffff1660e01b8152600401602060405180830381865afa1580156148f5573d6000803e3d6000fd5b505050506040513d601f19601f8201168201806040525081019061491991906159c3565b61492583614650615f32565b6001600160401b031661446e9190615aec565b600061494261192c565b6001600160a01b031663781e0efe6040518163ffffffff1660e01b8152600401602060405180830381865afa15801561497f573d6000803e3d6000fd5b505050506040513d601f19601f820116820180604052508101906149a391906159c3565b6127106149c56149b7856305f5e100615f32565b6001600160401b031661506a565b6149d190614650615abf565b6149db9190615aec565b61446e9190615aec565b6000806149f06150da565b90506149fc8185615f1e565b614a069085615aac565b93506000614a148288615abf565b905080851115614a22578094505b6000614a2c614277565b90506000614a398261539c565b90506000826001600160a01b031663f10e38af6040518163ffffffff1660e01b8152600401602060405180830381865afa158015614a7b573d6000803e3d6000fd5b505050506040513d601f19601f82011682018060405250810190614a9f9190615978565b90508115614b2157806001600160a01b0316631d8557d76040518163ffffffff1660e01b8152600401600060405180830381600087803b158015614ae257600080fd5b505af1158015614af6573d6000803e3d6000fd5b50505050614b03816145ae565b15614b215760405163cdce805560e01b815260040160405180910390fd5b81614e8457604051631b973c5760e21b8152600481018890526000906001600160a01b03851690636e5cf15c90602401602060405180830381865afa158015614b6e573d6000803e3d6000fd5b505050506040513d601f19601f82011682018060405250810190614b929190615978565b9050806001600160a01b0316631d8557d76040518163ffffffff1660e01b8152600401600060405180830381600087803b158015614bcf57600080fd5b505af1158015614be3573d6000803e3d6000fd5b505050506000614e04614bf4610a35565b6001600160a01b031663912929df846001600160a01b03166304b10ac86040518163ffffffff1660e01b8152600401602060405180830381865afa158015614c40573d6000803e3d6000fd5b505050506040513d601f19601f82011682018060405250810190614c6491906159c3565b6040518263ffffffff1660e01b8152600401614c8291815260200190565b602060405180830381865afa158015614c9f573d6000803e3d6000fd5b505050506040513d601f19601f82011682018060405250810190614cc39190615978565b6001600160a01b031663eae33602846040518263ffffffff1660e01b8152600401614cee919061551c565b602060405180830381865afa158015614d0b573d6000803e3d6000fd5b505050506040513d601f19601f82011682018060405250810190614d2f91906159c3565b836001600160a01b0316633c084b8b856001600160a01b0316638545bc586040518163ffffffff1660e01b8152600401602060405180830381865afa158015614d7c573d6000803e3d6000fd5b505050506040513d601f19601f82011682018060405250810190614da091906159c3565b6040518263ffffffff1660e01b8152600401614dbe91815260200190565b602060405180830381865afa158015614ddb573d6000803e3d6000fd5b505050506040513d601f19601f82011682018060405250810190614dff91906159c3565b61445a565b905089811015614e27576040516386a8386760e01b815260040160405180910390fd5b604051632de344e160e21b8152600481018b90526001600160a01b0383169063b78d138490602401600060405180830381600087803b158015614e6957600080fd5b505af1158015614e7d573d6000803e3d6000fd5b5050505050505b614e8e8589615aec565b9a9950505050505050505050565b600080614ea7614277565b90506040518060400160405280600881526020016743554c544953545360c01b81525080519060200120816001600160a01b0316630b4e99c36040518163ffffffff1660e01b8152600401602060405180830381865afa158015614f0f573d6000803e3d6000fd5b505050506040513d601f19601f82011682018060405250810190614f3391906159c3565b03614f4057600091505090565b6000816001600160a01b0316632de7e9b06040518163ffffffff1660e01b8152600401602060405180830381865afa158015614f80573d6000803e3d6000fd5b505050506040513d601f19601f82011682018060405250810190614fa49190615978565b6001600160a01b031663417fbd1d306040518263ffffffff1660e01b8152600401614fcf919061551c565b600060405180830381865afa158015614fec573d6000803e3d6000fd5b505050506040513d6000823e601f3d908101601f191682016040526150149190810190615f5d565b905060005b815181101561506057600082828151811061503657615036615908565b6020026020010151111561504e576001935050505090565b806150588161595f565b915050615019565b5060009250505090565b600060038211156150cb5750806000615084600283615aec565b61508f9060016159dc565b90505b818110156150c5579050806002816150aa8186615aec565b6150b491906159dc565b6150be9190615aec565b9050615092565b50919050565b81156150d5575060015b919050565b6000806150e561192c565b905060006150f1610a35565b90506000826001600160a01b0316635a28acb06040518163ffffffff1660e01b8152600401600060405180830381865afa158015615133573d6000803e3d6000fd5b505050506040513d6000823e601f3d908101601f1916820160405261515b9190810190615bd7565b90506000805b8251811015615326576000846001600160a01b031663feae7dc385848151811061518d5761518d615908565b60200260200101516040518263ffffffff1660e01b81526004016151b391815260200190565b602060405180830381865afa1580156151d0573d6000803e3d6000fd5b505050506040513d601f19601f820116820180604052508101906151f49190615978565b6001600160a01b03166370a08231306040518263ffffffff1660e01b815260040161521f919061551c565b602060405180830381865afa15801561523c573d6000803e3d6000fd5b505050506040513d601f19601f8201168201806040525081019061526091906159c3565b9050856001600160a01b0316630c451c2085848151811061528357615283615908565b60200260200101516040518263ffffffff1660e01b81526004016152a991815260200190565b602060405180830381865afa1580156152c6573d6000803e3d6000fd5b505050506040513d601f19601f820116820180604052508101906152ea91906159c3565b6152fc670de0b6b3a764000083615aec565b6153069190615abf565b61531090846159dc565b925050808061531e9061595f565b915050615161565b50836001600160a01b031663beaa602d6040518163ffffffff1660e01b8152600401602060405180830381865afa158015615365573d6000803e3d6000fd5b505050506040513d601f19601f8201168201806040525081019061538991906159c3565b6153939082615abf565b94505050505090565b60006040518060400160405280600881526020016743554c544953545360c01b81525080519060200120826001600160a01b0316630b4e99c36040518163ffffffff1660e01b8152600401602060405180830381865afa158015615404573d6000803e3d6000fd5b505050506040513d601f19601f8201168201806040525081019061542891906159c3565b1492915050565b60008083601f84011261544157600080fd5b5081356001600160401b0381111561545857600080fd5b6020830191508360208260051b850101111561547357600080fd5b9250929050565b60008060008060008060006080888a03121561549557600080fd5b87356001600160401b03808211156154ac57600080fd5b6154b88b838c0161542f565b909950975060208a01359150808211156154d157600080fd5b6154dd8b838c0161542f565b909750955060408a01359150808211156154f657600080fd5b506155038a828b0161542f565b989b979a50959894979596606090950135949350505050565b6001600160a01b0391909116815260200190565b6001600160a01b03811681146113ed57600080fd5b6000806040838503121561555857600080fd5b823561556381615530565b946020939093013593505050565b6000806040838503121561558457600080fd5b50508035926020909101359150565b634e487b7160e01b600052604160045260246000fd5b604051601f8201601f191681016001600160401b03811182821017156155d1576155d1615593565b604052919050565b60006001600160401b038211156155f2576155f2615593565b5060051b60200190565b600082601f83011261560d57600080fd5b8135602061562261561d836155d9565b6155a9565b82815260059290921b8401810191818101908684111561564157600080fd5b8286015b8481101561565c5780358352918301918301615645565b509695505050505050565b6000806040838503121561567a57600080fd5b82356001600160401b038082111561569157600080fd5b818501915085601f8301126156a557600080fd5b813560206156b561561d836155d9565b82815260059290921b840181019181810190898411156156d457600080fd5b948201945b838610156156f2578535825294820194908201906156d9565b9650508601359250508082111561570857600080fd5b50615715858286016155fc565b9150509250929050565b60006020828403121561573157600080fd5b5035919050565b6001600160401b0391909116815260200190565b6000602080838503121561575f57600080fd5b82356001600160401b038082111561577657600080fd5b818501915085601f83011261578a57600080fd5b81358181111561579c5761579c615593565b6157ae601f8201601f191685016155a9565b915080825286848285010111156157c457600080fd5b8084840185840137600090820190930192909252509392505050565b6001600160401b03811681146113ed57600080fd5b60006020828403121561580757600080fd5b8135615812816157e0565b9392505050565b6001600160401b0392831681529116602082015260400190565b60008060006060848603121561584857600080fd5b8335615853816157e0565b95602085013595506040909401359392505050565b60008060008060006060868803121561588057600080fd5b853561588b81615530565b945060208601356001600160401b03808211156158a757600080fd5b6158b389838a0161542f565b909650945060408801359150808211156158cc57600080fd5b506158d98882890161542f565b969995985093965092949392505050565b600080604083850312156158fd57600080fd5b8235615563816157e0565b634e487b7160e01b600052603260045260246000fd5b80151581146113ed57600080fd5b60006020828403121561593e57600080fd5b81356158128161591e565b634e487b7160e01b600052601160045260246000fd5b60006001820161597157615971615949565b5060010190565b60006020828403121561598a57600080fd5b815161581281615530565b6000806000606084860312156159aa57600080fd5b8351925060208401519150604084015190509250925092565b6000602082840312156159d557600080fd5b5051919050565b8082018082111561446e5761446e615949565b81835260006001600160fb1b03831115615a0857600080fd5b8260051b80836020870137939093016020019392505050565b6001600160a01b038916815260a06020808301829052600091615a479084018a8c6159ef565b83810360408501528781528890820160005b89811015615a80578235615a6c8161591e565b151582529183019190830190600101615a59565b508481036060860152615a9481888a6159ef565b93505050508260808301529998505050505050505050565b8181038181111561446e5761446e615949565b808202811582820484141761446e5761446e615949565b634e487b7160e01b600052601260045260246000fd5b600082615afb57615afb615ad6565b500490565b600060208284031215615b1257600080fd5b81516158128161591e565b6001600160a01b03929092168252602082015260400190565b600082601f830112615b4757600080fd5b81516020615b5761561d836155d9565b82815260059290921b84018101918181019086841115615b7657600080fd5b8286015b8481101561565c5780518352918301918301615b7a565b60008060408385031215615ba457600080fd5b8251615baf8161591e565b60208401519092506001600160401b03811115615bcb57600080fd5b61571585828601615b36565b60006020808385031215615bea57600080fd5b82516001600160401b03811115615c0057600080fd5b8301601f81018513615c1157600080fd5b8051615c1f61561d826155d9565b81815260059190911b82018301908381019087831115615c3e57600080fd5b928401925b82841015615c5c57835182529284019290840190615c43565b979650505050505050565b604080825283519082018190526000906020906060840190828701845b82811015615ca057815184529284019290840190600101615c84565b5050508381038285015284518082528583019183019060005b81811015615cd557835183529284019291840191600101615cb9565b5090979650505050505050565b600080600060608486031215615cf757600080fd5b8351615d02816157e0565b6020850151909350615d13816157e0565b6040850151909250615d24816157e0565b809150509250925092565b6001600160401b03818116838216019080821115615d4f57615d4f615949565b5092915050565b6001600160401b03828116828216039080821115615d4f57615d4f615949565b600060208284031215615d8857600080fd5b8151615812816157e0565b9182526001600160a01b0316602082015260400190565b6001600160401b039687168152948616602086015260408501939093529084166060840152909216608082015260a081019190915260c00190565b600060c08284031215615df757600080fd5b60405160c081018181106001600160401b0382111715615e1957615e19615593565b8060405250825181526020830151602082015260408301516040820152606083015160608201526080830151608082015260a083015160a08201528091505092915050565b6001600160a01b03878116825286166020820152608060408201819052600090615e8b90830186886159ef565b8281036060840152615e9e8185876159ef565b9998505050505050505050565b60018060a01b038616815260006020868184015285604084015284606084015260a0608084015283518060a085015260005b81811015615ef95785810183015185820160c001528201615edd565b50600060c0828601015260c0601f19601f830116850101925050509695505050505050565b600082615f2d57615f2d615ad6565b500690565b6001600160401b03818116838216028082169190828114615f5557615f55615949565b505092915050565b600060208284031215615f6f57600080fd5b81516001600160401b03811115615f8557600080fd5b615f9184828501615b36565b94935050505056fedfeba1af9e54b35500726a561ed7ed92532779f5db4dc8b7ba5df57602e416c7a2646970667358221220861b2aea69c73a4f3f8702b7a21dcb8b46e0359f01c36d520c5290fbdca4e59d64736f6c63430008140033",
  "devdoc": {
    "events": {
      "BattleCreated(address,address)": {
        "params": {
          "battleAddress": "Created battle address",
          "targetArmyAddress": "Address of the attacked army"
        }
      },
      "ExitedFromBattle(address)": {
        "params": {
          "battleAddress": "Address of the battle army was in"
        }
      },
      "Initialized(uint8)": {
        "details": "Triggered when the contract has been initialized or reinitialized."
      },
      "JoinedBattle(address,uint256)": {
        "params": {
          "battleAddress": "Address of the battle army joined in",
          "side": "Side to which army joined (sideA = 1, sideB = 2)"
        }
      },
      "ManeuveringBegan(uint64,uint64,bytes32,uint256,uint256,uint256)": {
        "params": {
          "beginTime": "Time at which maneuver began",
          "endTime": "Time at which maneuver will end (0 if secret maneuver)",
          "position": "Position army is maneuvering to (0 if secret maneuver)",
          "secretDestinationPosition": "Secret destination position (not zero if secret maneuver)",
          "secretDestinationRegionId": "Secret destination regionId (not zero if secret maneuver)",
          "tokensToSpendOnAcceleration": "Amount of tokens to spend on acceleration (Food for open maneuver, Wood for secret maneuver)"
        }
      },
      "StunApplied(uint64,uint64)": {
        "params": {
          "stunBeginTime": "Stun begin time",
          "stunEndTime": "Stun end time"
        }
      },
      "UnitsDemilitarized(bytes32[],uint256[])": {
        "params": {
          "unitTypeIds": "Unit type ids demilitarized",
          "unitsAmounts": "Amount of units demilitarized"
        }
      },
      "UpdatedPosition(address,uint64)": {
        "params": {
          "position": "Position",
          "settlementAddress": "Address of the settlement where army currently staying on"
        }
      }
    },
    "kind": "dev",
    "methods": {
      "applySelfStun(uint64)": {
        "details": "Provides ability to self stun owned army",
        "params": {
          "stunDuration": "Stun duration"
        }
      },
      "assetGroupId()": {
        "details": "Reads data from proxy's storage",
        "returns": {
          "_0": "World asset group id"
        }
      },
      "assetTypeId()": {
        "details": "Reads data from proxy's storage",
        "returns": {
          "_0": "World asset type id"
        }
      },
      "beginBattle(address,bytes32[],uint256[])": {
        "details": "Creates IBattle and sets both armies in created battle",
        "params": {
          "armyAddress": "Address of the army this army will attack",
          "maxUnitTypeIdsToAttack": "Max unit type ids to attack",
          "maxUnitsToAttack": "Max units to attack"
        }
      },
      "beginOpenManeuver(uint64,uint256)": {
        "details": "Even though position can be artificial, army can move only to settlement",
        "params": {
          "foodToSpendOnAcceleration": "Amount of food army will take from current position settlements FARM in order to decrease total time army will take to get to destination position",
          "position": "Position of settlement to move to"
        }
      },
      "beginSecretManeuver(uint64,bytes32)": {
        "details": "Caller must be aware of the rules applied to revealing destination position otherwise army may be punished",
        "params": {
          "secretDestinationPosition": "Secret destination position",
          "secretDestinationRegionId": "Secret destination region id"
        }
      },
      "burnUnits(bytes32[],uint256[])": {
        "details": "Can only be called by world or world asset",
        "params": {
          "unitTypeIds": "Unit type ids for burning",
          "unitsAmounts": "Amount of units for burning for every unit type"
        }
      },
      "cancelSecretManeuver()": {
        "details": "Can be cancelled by army owner"
      },
      "decreaseUnitBattleMultiplier(bytes32,uint256)": {
        "details": "Can only be called by world or world asset",
        "params": {
          "unitBattleMultiplier": "Unit battle multiplier",
          "unitTypeId": "Unit type id"
        }
      },
      "demilitarize(bytes32[],uint256[])": {
        "details": "Even though demilitarization of 0 units may seem reasonable, it is disabled",
        "params": {
          "unitTypeIds": "Unit type ids for demilitarization",
          "unitsAmounts": "Amount of units to demilitarize"
        }
      },
      "era()": {
        "details": "Value is dereferenced from proxy storage and world"
      },
      "eraNumber()": {
        "details": "Reads data from proxy's storage",
        "returns": {
          "_0": "Era number"
        }
      },
      "getCurrentPosition()": {
        "details": "This method should be used to determine real army position",
        "returns": {
          "_0": "Position"
        }
      },
      "getOwner()": {
        "details": "Same as owner of the settlement to which this army belongs",
        "returns": {
          "_0": "Address of the owner of the army"
        }
      },
      "getTotalSiegeSupport()": {
        "details": "For every unit type placed in siege calculates sum of all of them",
        "returns": {
          "_0": "Total siege support of the army"
        }
      },
      "increaseUnitBattleMultiplier(bytes32,uint256)": {
        "details": "Can only be called by world or world asset",
        "params": {
          "unitBattleMultiplier": "Unit battle multiplier",
          "unitTypeId": "Unit type id"
        }
      },
      "init(bytes)": {
        "details": "World asset initializer",
        "params": {
          "initParams": "Encoded init params (every world asset has own knowledge how to extract data from it)"
        }
      },
      "isAtHomePosition()": {
        "details": "Takes into account if army maneuver is ended (by time)",
        "returns": {
          "_0": "Is army at home position"
        }
      },
      "isManeuvering()": {
        "details": "Takes into account if army maneuver is ended (by time)",
        "returns": {
          "_0": "Is maneuvering"
        }
      },
      "joinBattle(address,uint256)": {
        "details": "Maneuvering army is able to join battle only if caller is another army (drags it into battle)",
        "params": {
          "battleAddress": "Battle address army will join",
          "side": "Side of the battle army will join (sideA = 1, sideB = 2)"
        }
      },
      "liquidateUnits(bytes32[],uint256[])": {
        "details": "Can only be called by world or world asset",
        "params": {
          "unitTypeIds": "Unit type ids for liquidation",
          "unitsAmounts": "Amount of units for liquidation"
        }
      },
      "modifySiege(bytes32[],bool[],uint256[],uint256)": {
        "details": "Provides ability to atomically setup/re-setup siege",
        "params": {
          "newRobberyMultiplier": "New robbery multiplier",
          "toAddIndication": "Indication array whether to add units or to withdraw (add = true, withdraw = false)",
          "unitTypeIds": "Unit type ids",
          "unitsAmounts": "Amounts of units to add/withdraw"
        }
      },
      "registry()": {
        "details": "Value is dereferenced from world"
      },
      "revealSecretManeuver(uint64,bytes32,uint256)": {
        "details": "In order to successfully reveal 'secretDestinationPosition' - 'destination position' and 'revealKey' must be validValidity of verified by 'keccak256(abi.encodePacked(destinationPosition, revealKey)) == secretDestinationPosition'",
        "params": {
          "destinationPosition": "Destination position",
          "revealKey": "Reveal key",
          "woodToSpendOnAcceleration": "Wood to spend on acceleration"
        }
      },
      "swapRobberyPointsForResourceFromBuildingTreasury(address,uint256)": {
        "details": "Amount of points will be taken may be lesser if building does not have resources in its treasury",
        "params": {
          "buildingAddress": "Address of the building treasury of which will be robbed",
          "pointsToSpend": "Amount of points to spend for resources"
        }
      },
      "updateState()": {
        "details": "Called on every action which are based on army state and time"
      },
      "world()": {
        "details": "Value is dereferenced from proxy storage"
      },
      "worldAssetFactory()": {
        "details": "Value is dereferenced from registry"
      }
    },
    "stateVariables": {
      "additionalUnitsBattleMultipliers": {
        "details": "Updated when #increaseUnitBattleMultiplier or #decreaseUnitBattleMultiplier is called"
      },
      "battle": {
        "details": "If army is not in battle returns address(0). It does not take into account if battle is ended but army is not left the battle"
      },
      "currentPosition": {
        "details": "Updated when army updates position. It does not take into account if army is maneuveringTo proper query current position use #getCurrentPosition"
      },
      "maneuverInfo": {
        "details": "Updated when army begins maneuvering. It does not take into account if army is ended maneuver by time"
      },
      "relatedSettlement": {
        "details": "Immutable, initialized on the army creation"
      },
      "stunInfo": {
        "details": "Updated when army stun is applied"
      }
    },
    "version": 1
  },
  "userdoc": {
    "errors": {
      "ArmyCannotAccelerateManeuverFromCultistsSettlementWithNonZeroCultistsArmy()": [
        {
          "notice": "Thrown when attempting to use accelerate maneuver from cultists settlement with non zero cultists"
        }
      ],
      "ArmyCannotAttackAnotherArmyIfTheyAreNotOnSamePosition()": [
        {
          "notice": "Thrown when attempting to start battle by attacking army not on same position as current army"
        }
      ],
      "ArmyCannotAttackItself()": [
        {
          "notice": "Thrown when attempting to start battle by providing army address which is same as current army"
        }
      ],
      "ArmyCannotAttackNotCurrentEraArmy()": [
        {
          "notice": "Thrown when attempting to start battle by providing army address to attack which is not part of current era"
        }
      ],
      "ArmyCannotBesiegeOwnSettlement()": [
        {
          "notice": "Thrown when attempting to modify siege of own settlement"
        }
      ],
      "ArmyCannotJoinToBattleNotAtSamePosition()": [
        {
          "notice": "Thrown when attempting to join battle which is not at same position as current army"
        }
      ],
      "ArmyCannotJoinToBattleNotInLobbyPhase()": [
        {
          "notice": "Thrown when attempting to join battle while its not in lobby phase"
        }
      ],
      "ArmyCannotJoinToNotCurrentEraBattle()": [
        {
          "notice": "Thrown when attempting to join battle by providing invalid battle address"
        }
      ],
      "ArmyCannotManeuverToPositionWithoutSettlement()": [
        {
          "notice": "Thrown when attempting to maneuver to position without settlement"
        }
      ],
      "ArmyCannotManeuverToSamePosition()": [
        {
          "notice": "Thrown when attempting to begin maneuver to same position"
        }
      ],
      "ArmyCannotModifySiegeUnitsToLiquidatableState()": [
        {
          "notice": "Thrown when attempting to modify siege in result of which army will become liquidatable"
        }
      ],
      "ArmyCannotUseMoreResourcesForAccelerationThanBuildingTreasuryHas()": [
        {
          "notice": "Thrown when attempting to use more resources for acceleration than related building treasury has"
        }
      ],
      "ArmyIsInBattle()": [
        {
          "notice": "Thrown when attempting to call action which is blocked when army is in battle"
        }
      ],
      "ArmyIsInSiege()": [
        {
          "notice": "Thrown when attempting to call action which is blocked when army is in siege"
        }
      ],
      "ArmyIsManeuvering()": [
        {
          "notice": "Thrown when attempting to call action which is blocked when army is maneuvering"
        }
      ],
      "ArmyIsNotManeuveringSecretly()": [
        {
          "notice": "Thrown when attempting to reveal or cancel secret maneuver"
        }
      ],
      "ArmyIsStunned()": [
        {
          "notice": "Thrown when attempting to call action which is blocked when army is stunned"
        }
      ],
      "ArmyWithoutUnitsCannotAccelerate()": [
        {
          "notice": "Thrown when attempting to maneuver without units but with acceleration"
        }
      ],
      "ArmyWithoutUnitsCannotBeginSecretManeuver()": [
        {
          "notice": "Thrown when attempting to secretly maneuver without units"
        }
      ],
      "ArmyWithoutUnitsCannotJoinBattle()": [
        {
          "notice": "Thrown when attempting to join battle with army which has zero units in it"
        }
      ],
      "ArmyWithoutUnitsCannotManeuverToNotHomeSettlement()": [
        {
          "notice": "Thrown when attempting to maneuver without units to non-home position"
        }
      ],
      "NotEnoughUnitsForDemilitarization()": [
        {
          "notice": "Thrown when attempting to demilitarize more units than army currently have"
        }
      ],
      "OnlyActiveGame()": [
        {
          "notice": "Thrown when attempting to call action which can only be called in active game (started and not finished)"
        }
      ],
      "OnlyMightyCreator()": [
        {
          "notice": "Thrown when attempting to call action which can only be called by mighty creator"
        }
      ],
      "OnlyRulerOrWorldAssetFromSameEra()": [
        {
          "notice": "Thrown when attempting to call action which only possible to be called by ruler, world or world asset"
        }
      ],
      "OnlyWorldAssetFromSameEra()": [
        {
          "notice": "Thrown when attempting to call action which can only be called by world asset from same era"
        }
      ],
      "SecretManeuverRevealNotPossibleAtThisTime()": [
        {
          "notice": "Thrown when attempting to reveal secret maneuver at invalid time"
        }
      ],
      "SecretManeuverRevealNotPossibleToNotSpecifiedRegion()": [
        {
          "notice": "Thrown when attempting to reveal secret maneuver with valid reveal info but wrong region"
        }
      ],
      "WrongDemilitarizationInput()": [
        {
          "notice": "Thrown when attempting to demilitarize with invalid input"
        }
      ],
      "WrongJoinSide()": [
        {
          "notice": "Thrown when attempting to join battle by providing invalid side"
        }
      ],
      "WrongRobberyMultiplierSpecified()": [
        {
          "notice": "Thrown when attempting to modify siege by providing invalid robbery multiplier"
        }
      ],
      "WrongSecretManeuverRevealInfo()": [
        {
          "notice": "Thrown when attempting to reveal secret maneuver with invalid reveal info"
        }
      ]
    },
    "events": {
      "BattleCreated(address,address)": {
        "notice": "Emitted when #createBattle is called. Army which attacks another army will emit this event"
      },
      "ExitedFromBattle(address)": {
        "notice": "Emitted when #updateState is called (even though event can be emitted only on the next action related to the current army, de-facto army will exit battle when battle is ended)"
      },
      "JoinedBattle(address,uint256)": {
        "notice": "Emitted when army joins battle. At the battle creation both armies (attacker and attacked) will emit this event. Attacker army will be side A and at attacked army will be sideB"
      },
      "ManeuveringBegan(uint64,uint64,bytes32,uint256,uint256,uint256)": {
        "notice": "Emitted when #beginOpenManeuver or #beginSecretManeuver or #revealSecretManeuver is called"
      },
      "SecretManeuverCancelled()": {
        "notice": "Emitted when #cancelSecretManeuver is called"
      },
      "StunApplied(uint64,uint64)": {
        "notice": "Emitted when #_applyStun is called"
      },
      "UnitsDemilitarized(bytes32[],uint256[])": {
        "notice": "Emitted when #demilitarize is called"
      },
      "UpdatedPosition(address,uint64)": {
        "notice": "Emitted when #updatePosition is called (even though event can be emitted only on the next action related to the current army, de-facto army will update position based on 'maneuverInfo.endTime'"
      }
    },
    "kind": "user",
    "methods": {
      "additionalUnitsBattleMultipliers(bytes32)": {
        "notice": "Mapping containing additional unit battle multiplier"
      },
      "applySelfStun(uint64)": {
        "notice": "Applies army stun by settlement ruler"
      },
      "assetGroupId()": {
        "notice": "Returns world asset group id"
      },
      "assetTypeId()": {
        "notice": "Returns world asset type id"
      },
      "battle()": {
        "notice": "Battle in which army is on"
      },
      "beginBattle(address,bytes32[],uint256[])": {
        "notice": "Begins battle with another army if both are not in battle"
      },
      "beginOpenManeuver(uint64,uint256)": {
        "notice": "Begins open maneuver to specified position"
      },
      "beginSecretManeuver(uint64,bytes32)": {
        "notice": "Begins secret maneuver to secret position"
      },
      "burnUnits(bytes32[],uint256[])": {
        "notice": "Burns units from the army"
      },
      "cancelSecretManeuver()": {
        "notice": "Cancels secret maneuver"
      },
      "currentPosition()": {
        "notice": "Position where army currently stands on"
      },
      "decreaseUnitBattleMultiplier(bytes32,uint256)": {
        "notice": "Decreases unit battle multiplier"
      },
      "demilitarize(bytes32[],uint256[])": {
        "notice": "Demilitarizes part of the army. Demilitarization provides prosperity to the settlement army is currently staying on"
      },
      "era()": {
        "notice": "Era"
      },
      "eraNumber()": {
        "notice": "Returns era number"
      },
      "getCurrentPosition()": {
        "notice": "Calculates current position taking to the account #maneuverInfo"
      },
      "getOwner()": {
        "notice": "Return owner of the army"
      },
      "getTotalSiegeSupport()": {
        "notice": "Calculates total siege support of the army"
      },
      "increaseUnitBattleMultiplier(bytes32,uint256)": {
        "notice": "Increases unit battle multiplier"
      },
      "isAtHomePosition()": {
        "notice": "Calculates is army at home position"
      },
      "isManeuvering()": {
        "notice": "Calculates is army maneuvering (openly or secretly)"
      },
      "joinBattle(address,uint256)": {
        "notice": "Joins current army in battle to the provided side"
      },
      "liquidateUnits(bytes32[],uint256[])": {
        "notice": "Liquidates units from the army"
      },
      "maneuverInfo()": {
        "notice": "Maneuver info"
      },
      "modifySiege(bytes32[],bool[],uint256[],uint256)": {
        "notice": "Modifies army siege params"
      },
      "registry()": {
        "notice": "Registry"
      },
      "relatedSettlement()": {
        "notice": "Settlement address to which this army belongs"
      },
      "revealSecretManeuver(uint64,bytes32,uint256)": {
        "notice": "Reveals secret maneuver"
      },
      "stunInfo()": {
        "notice": "Stun info"
      },
      "swapRobberyPointsForResourceFromBuildingTreasury(address,uint256)": {
        "notice": "Swaps accumulated robbery points in siege for resource from building treasury"
      },
      "updateState()": {
        "notice": "Updates army state to the current block"
      },
      "world()": {
        "notice": "World"
      },
      "worldAssetFactory()": {
        "notice": "Returns world asset factory from registry"
      }
    },
    "version": 1
  },
  "storageLayout": {
    "storage": [
      {
        "astId": 119,
        "contract": "contracts/core/assets/army/Army.sol:Army",
        "label": "_initialized",
        "offset": 0,
        "slot": "0",
        "type": "t_uint8"
      },
      {
        "astId": 122,
        "contract": "contracts/core/assets/army/Army.sol:Army",
        "label": "_initializing",
        "offset": 1,
        "slot": "0",
        "type": "t_bool"
      },
      {
        "astId": 11806,
        "contract": "contracts/core/assets/army/Army.sol:Army",
        "label": "relatedSettlement",
        "offset": 2,
        "slot": "0",
        "type": "t_contract(ISettlement)25199"
      },
      {
        "astId": 11810,
        "contract": "contracts/core/assets/army/Army.sol:Army",
        "label": "currentPosition",
        "offset": 22,
        "slot": "0",
        "type": "t_uint64"
      },
      {
        "astId": 11815,
        "contract": "contracts/core/assets/army/Army.sol:Army",
        "label": "battle",
        "offset": 0,
        "slot": "1",
        "type": "t_contract(IBattle)17425"
      },
      {
        "astId": 11820,
        "contract": "contracts/core/assets/army/Army.sol:Army",
        "label": "maneuverInfo",
        "offset": 0,
        "slot": "2",
        "type": "t_struct(ManeuverInfo)14750_storage"
      },
      {
        "astId": 11825,
        "contract": "contracts/core/assets/army/Army.sol:Army",
        "label": "stunInfo",
        "offset": 0,
        "slot": "4",
        "type": "t_struct(StunInfo)14755_storage"
      },
      {
        "astId": 11831,
        "contract": "contracts/core/assets/army/Army.sol:Army",
        "label": "additionalUnitsBattleMultipliers",
        "offset": 0,
        "slot": "5",
        "type": "t_mapping(t_bytes32,t_uint256)"
      }
    ],
    "types": {
      "t_bool": {
        "encoding": "inplace",
        "label": "bool",
        "numberOfBytes": "1"
      },
      "t_bytes32": {
        "encoding": "inplace",
        "label": "bytes32",
        "numberOfBytes": "32"
      },
      "t_contract(IBattle)17425": {
        "encoding": "inplace",
        "label": "contract IBattle",
        "numberOfBytes": "20"
      },
      "t_contract(ISettlement)25199": {
        "encoding": "inplace",
        "label": "contract ISettlement",
        "numberOfBytes": "20"
      },
      "t_mapping(t_bytes32,t_uint256)": {
        "encoding": "mapping",
        "key": "t_bytes32",
        "label": "mapping(bytes32 => uint256)",
        "numberOfBytes": "32",
        "value": "t_uint256"
      },
      "t_struct(ManeuverInfo)14750_storage": {
        "encoding": "inplace",
        "label": "struct IArmy.ManeuverInfo",
        "members": [
          {
            "astId": 14741,
            "contract": "contracts/core/assets/army/Army.sol:Army",
            "label": "beginTime",
            "offset": 0,
            "slot": "0",
            "type": "t_uint64"
          },
          {
            "astId": 14743,
            "contract": "contracts/core/assets/army/Army.sol:Army",
            "label": "endTime",
            "offset": 8,
            "slot": "0",
            "type": "t_uint64"
          },
          {
            "astId": 14745,
            "contract": "contracts/core/assets/army/Army.sol:Army",
            "label": "destinationPosition",
            "offset": 16,
            "slot": "0",
            "type": "t_uint64"
          },
          {
            "astId": 14747,
            "contract": "contracts/core/assets/army/Army.sol:Army",
            "label": "secretDestinationRegionId",
            "offset": 24,
            "slot": "0",
            "type": "t_uint64"
          },
          {
            "astId": 14749,
            "contract": "contracts/core/assets/army/Army.sol:Army",
            "label": "secretDestinationPosition",
            "offset": 0,
            "slot": "1",
            "type": "t_bytes32"
          }
        ],
        "numberOfBytes": "64"
      },
      "t_struct(StunInfo)14755_storage": {
        "encoding": "inplace",
        "label": "struct IArmy.StunInfo",
        "members": [
          {
            "astId": 14752,
            "contract": "contracts/core/assets/army/Army.sol:Army",
            "label": "beginTime",
            "offset": 0,
            "slot": "0",
            "type": "t_uint64"
          },
          {
            "astId": 14754,
            "contract": "contracts/core/assets/army/Army.sol:Army",
            "label": "endTime",
            "offset": 8,
            "slot": "0",
            "type": "t_uint64"
          }
        ],
        "numberOfBytes": "32"
      },
      "t_uint256": {
        "encoding": "inplace",
        "label": "uint256",
        "numberOfBytes": "32"
      },
      "t_uint64": {
        "encoding": "inplace",
        "label": "uint64",
        "numberOfBytes": "8"
      },
      "t_uint8": {
        "encoding": "inplace",
        "label": "uint8",
        "numberOfBytes": "1"
      }
    }
  }
}