{
  "address": "0xF9741a1a0Aabc5543c441fd6E01BEa899bEC3c0c",
  "abi": [
    {
      "inputs": [],
      "name": "BattleCannotAcceptCultistsArmyWhenCultistsAmountChangedToLowerValueThanDesired",
      "type": "error"
    },
    {
      "inputs": [],
      "name": "BattleCannotBeCreatedByDesiringToAttackCultistsArmyWithoutUnits",
      "type": "error"
    },
    {
      "inputs": [],
      "name": "BattleCannotBeCreatedWhenArmyUnitsExceedDesiredAmountToAttack",
      "type": "error"
    },
    {
      "inputs": [],
      "name": "BattleCannotBeCreatedWhenAttackedArmyIsAlmostOnAnotherPosition",
      "type": "error"
    },
    {
      "inputs": [],
      "name": "BattleCannotBeCreatedWithArmiesHavingZeroUnits",
      "type": "error"
    },
    {
      "inputs": [],
      "name": "BattleCannotBeFinishedAtThisTime",
      "type": "error"
    },
    {
      "inputs": [],
      "name": "BattleCannotBeFinishedMoreThanOnce",
      "type": "error"
    },
    {
      "inputs": [],
      "name": "OnlyActiveGame",
      "type": "error"
    },
    {
      "inputs": [],
      "name": "OnlyMightyCreator",
      "type": "error"
    },
    {
      "inputs": [],
      "name": "OnlyWorldAssetFromSameEra",
      "type": "error"
    },
    {
      "anonymous": false,
      "inputs": [
        {
          "indexed": false,
          "internalType": "address",
          "name": "armyAddress",
          "type": "address"
        },
        {
          "indexed": false,
          "internalType": "uint256",
          "name": "side",
          "type": "uint256"
        }
      ],
      "name": "ArmyJoined",
      "type": "event"
    },
    {
      "anonymous": false,
      "inputs": [
        {
          "indexed": false,
          "internalType": "uint256",
          "name": "endTime",
          "type": "uint256"
        }
      ],
      "name": "BattleEnded",
      "type": "event"
    },
    {
      "anonymous": false,
      "inputs": [
        {
          "indexed": false,
          "internalType": "uint8",
          "name": "version",
          "type": "uint8"
        }
      ],
      "name": "Initialized",
      "type": "event"
    },
    {
      "inputs": [
        {
          "internalType": "address",
          "name": "armyAddress",
          "type": "address"
        },
        {
          "internalType": "uint256",
          "name": "side",
          "type": "uint256"
        }
      ],
      "name": "acceptArmyInBattle",
      "outputs": [],
      "stateMutability": "nonpayable",
      "type": "function"
    },
    {
      "inputs": [
        {
          "internalType": "address",
          "name": "",
          "type": "address"
        }
      ],
      "name": "armySide",
      "outputs": [
        {
          "internalType": "uint256",
          "name": "",
          "type": "uint256"
        }
      ],
      "stateMutability": "view",
      "type": "function"
    },
    {
      "inputs": [
        {
          "internalType": "address",
          "name": "",
          "type": "address"
        },
        {
          "internalType": "bytes32",
          "name": "",
          "type": "bytes32"
        }
      ],
      "name": "armyUnitsAdditionalMultipliers",
      "outputs": [
        {
          "internalType": "uint256",
          "name": "",
          "type": "uint256"
        }
      ],
      "stateMutability": "view",
      "type": "function"
    },
    {
      "inputs": [
        {
          "internalType": "address",
          "name": "",
          "type": "address"
        },
        {
          "internalType": "bytes32",
          "name": "",
          "type": "bytes32"
        }
      ],
      "name": "armyUnitsAmount",
      "outputs": [
        {
          "internalType": "uint256",
          "name": "",
          "type": "uint256"
        }
      ],
      "stateMutability": "view",
      "type": "function"
    },
    {
      "inputs": [],
      "name": "assetGroupId",
      "outputs": [
        {
          "internalType": "bytes32",
          "name": "",
          "type": "bytes32"
        }
      ],
      "stateMutability": "view",
      "type": "function"
    },
    {
      "inputs": [],
      "name": "assetTypeId",
      "outputs": [
        {
          "internalType": "bytes32",
          "name": "",
          "type": "bytes32"
        }
      ],
      "stateMutability": "view",
      "type": "function"
    },
    {
      "inputs": [],
      "name": "battleTimeInfo",
      "outputs": [
        {
          "internalType": "uint64",
          "name": "beginTime",
          "type": "uint64"
        },
        {
          "internalType": "uint64",
          "name": "duration",
          "type": "uint64"
        },
        {
          "internalType": "uint64",
          "name": "endTime",
          "type": "uint64"
        }
      ],
      "stateMutability": "view",
      "type": "function"
    },
    {
      "inputs": [],
      "name": "calculateAllCasualties",
      "outputs": [
        {
          "internalType": "uint256[]",
          "name": "",
          "type": "uint256[]"
        },
        {
          "internalType": "uint256[]",
          "name": "",
          "type": "uint256[]"
        },
        {
          "internalType": "uint256",
          "name": "",
          "type": "uint256"
        }
      ],
      "stateMutability": "view",
      "type": "function"
    },
    {
      "inputs": [
        {
          "internalType": "address",
          "name": "armyAddress",
          "type": "address"
        }
      ],
      "name": "calculateArmyCasualties",
      "outputs": [
        {
          "internalType": "bool",
          "name": "",
          "type": "bool"
        },
        {
          "internalType": "uint256[]",
          "name": "",
          "type": "uint256[]"
        }
      ],
      "stateMutability": "view",
      "type": "function"
    },
    {
      "inputs": [
        {
          "internalType": "uint256",
          "name": "globalMultiplier",
          "type": "uint256"
        },
        {
          "internalType": "uint256",
          "name": "baseBattleDuration",
          "type": "uint256"
        },
        {
          "internalType": "uint256",
          "name": "minimumBattleDuration",
          "type": "uint256"
        },
        {
          "internalType": "bool",
          "name": "isCultistsAttacked",
          "type": "bool"
        },
        {
          "internalType": "uint256",
          "name": "side1UnitsAmount",
          "type": "uint256"
        },
        {
          "internalType": "uint256",
          "name": "side2UnitsAmount",
          "type": "uint256"
        },
        {
          "internalType": "uint256",
          "name": "maxBattleDuration",
          "type": "uint256"
        }
      ],
      "name": "calculateBattleDuration",
      "outputs": [
        {
          "internalType": "uint64",
          "name": "",
          "type": "uint64"
        }
      ],
      "stateMutability": "view",
      "type": "function"
    },
    {
      "inputs": [],
      "name": "calculateStage1Casualties",
      "outputs": [
        {
          "internalType": "uint256[]",
          "name": "_side1Casualties",
          "type": "uint256[]"
        },
        {
          "internalType": "uint256[]",
          "name": "_side2Casualties",
          "type": "uint256[]"
        },
        {
          "internalType": "bytes",
          "name": "stageParams",
          "type": "bytes"
        }
      ],
      "stateMutability": "view",
      "type": "function"
    },
    {
      "inputs": [
        {
          "internalType": "uint256[]",
          "name": "stage1Side1Casualties",
          "type": "uint256[]"
        },
        {
          "internalType": "uint256[]",
          "name": "stage1Side2Casualties",
          "type": "uint256[]"
        }
      ],
      "name": "calculateStage2Casualties",
      "outputs": [
        {
          "internalType": "uint256[]",
          "name": "_side1Casualties",
          "type": "uint256[]"
        },
        {
          "internalType": "uint256[]",
          "name": "_side2Casualties",
          "type": "uint256[]"
        },
        {
          "internalType": "bytes",
          "name": "stageParams",
          "type": "bytes"
        }
      ],
      "stateMutability": "view",
      "type": "function"
    },
    {
      "inputs": [],
      "name": "canEndBattle",
      "outputs": [
        {
          "internalType": "bool",
          "name": "",
          "type": "bool"
        }
      ],
      "stateMutability": "view",
      "type": "function"
    },
    {
      "inputs": [
        {
          "internalType": "uint256",
          "name": "",
          "type": "uint256"
        },
        {
          "internalType": "bytes32",
          "name": "",
          "type": "bytes32"
        }
      ],
      "name": "casualties",
      "outputs": [
        {
          "internalType": "uint256",
          "name": "",
          "type": "uint256"
        }
      ],
      "stateMutability": "view",
      "type": "function"
    },
    {
      "inputs": [],
      "name": "endBattle",
      "outputs": [],
      "stateMutability": "nonpayable",
      "type": "function"
    },
    {
      "inputs": [],
      "name": "era",
      "outputs": [
        {
          "internalType": "contract IEra",
          "name": "",
          "type": "address"
        }
      ],
      "stateMutability": "view",
      "type": "function"
    },
    {
      "inputs": [],
      "name": "eraNumber",
      "outputs": [
        {
          "internalType": "uint256",
          "name": "",
          "type": "uint256"
        }
      ],
      "stateMutability": "view",
      "type": "function"
    },
    {
      "inputs": [
        {
          "internalType": "bool",
          "name": "isCultistsAttacked",
          "type": "bool"
        },
        {
          "internalType": "uint256",
          "name": "maxBattleDuration",
          "type": "uint256"
        },
        {
          "internalType": "uint256",
          "name": "side1UnitsAmount",
          "type": "uint256"
        },
        {
          "internalType": "uint256",
          "name": "side2UnitsAmount",
          "type": "uint256"
        }
      ],
      "name": "getBattleDuration",
      "outputs": [
        {
          "internalType": "uint64",
          "name": "",
          "type": "uint64"
        }
      ],
      "stateMutability": "view",
      "type": "function"
    },
    {
      "inputs": [
        {
          "internalType": "bytes",
          "name": "initParams",
          "type": "bytes"
        }
      ],
      "name": "init",
      "outputs": [],
      "stateMutability": "nonpayable",
      "type": "function"
    },
    {
      "inputs": [],
      "name": "isEndedBattle",
      "outputs": [
        {
          "internalType": "bool",
          "name": "",
          "type": "bool"
        }
      ],
      "stateMutability": "view",
      "type": "function"
    },
    {
      "inputs": [],
      "name": "isLobbyTime",
      "outputs": [
        {
          "internalType": "bool",
          "name": "",
          "type": "bool"
        }
      ],
      "stateMutability": "view",
      "type": "function"
    },
    {
      "inputs": [],
      "name": "position",
      "outputs": [
        {
          "internalType": "uint64",
          "name": "",
          "type": "uint64"
        }
      ],
      "stateMutability": "view",
      "type": "function"
    },
    {
      "inputs": [],
      "name": "registry",
      "outputs": [
        {
          "internalType": "contract IRegistry",
          "name": "",
          "type": "address"
        }
      ],
      "stateMutability": "view",
      "type": "function"
    },
    {
      "inputs": [
        {
          "internalType": "uint256",
          "name": "",
          "type": "uint256"
        },
        {
          "internalType": "bytes32",
          "name": "",
          "type": "bytes32"
        }
      ],
      "name": "sideUnitsAmount",
      "outputs": [
        {
          "internalType": "uint256",
          "name": "",
          "type": "uint256"
        }
      ],
      "stateMutability": "view",
      "type": "function"
    },
    {
      "inputs": [],
      "name": "winningSide",
      "outputs": [
        {
          "internalType": "uint256",
          "name": "",
          "type": "uint256"
        }
      ],
      "stateMutability": "view",
      "type": "function"
    },
    {
      "inputs": [],
      "name": "world",
      "outputs": [
        {
          "internalType": "contract IWorld",
          "name": "",
          "type": "address"
        }
      ],
      "stateMutability": "view",
      "type": "function"
    },
    {
      "inputs": [],
      "name": "worldAssetFactory",
      "outputs": [
        {
          "internalType": "contract IWorldAssetFactory",
          "name": "",
          "type": "address"
        }
      ],
      "stateMutability": "view",
      "type": "function"
    }
  ],
  "transactionHash": "0x4967778e99b1edc6aad635c05c867ad72b4744126fd702ec92c46de9845a4688",
  "args": [],
  "numDeployments": 1,
  "solcInputHash": "2627c9fa14fa5cb6e37bf26f5785fa8b",
  "bytecode": "0x608060405234801561001057600080fd5b50613753806100206000396000f3fe608060405234801561001057600080fd5b50600436106101595760003560e01c80637b103999116100c95780637b103999146102e65780637d884c74146102ee57806384ba89e3146102f65780638dc82a4a146102fe5780638f5803f014610329578063971e03cc1461033c5780639d4095fe14610353578063bb713ee81461035b578063bc68eb4914610372578063d1c9861814610385578063ece56a1a1461038d578063ee260fbb14610395578063f4f67fc1146103c0578063fbf06338146103e057600080fd5b8063057dc9951461015e57806309218e911461018e5780630b4e99c3146101a1578063143e55e0146101b7578063143ef9ac146101cc5780631852b5af146101f757806330b67baa1461020f578063383f9ac314610217578063385693791461026a5780634ddf47d41461029557806371b95cb1146102aa57806373511c02146102bd57806375846135146102de575b600080fd5b61017161016c366004612ebe565b6103e9565b6040516001600160401b0390911681526020015b60405180910390f35b600354610171906001600160401b031681565b6101a96104fb565b604051908152602001610185565b6101bf610538565b6040516101859190612f18565b6101a96101da366004612f44565b600560209081526000928352604080842090915290825290205481565b6101ff6105bc565b6040519015158152602001610185565b6101bf6105d4565b600954610240906001600160401b0380821691600160401b8104821691600160801b9091041683565b604080516001600160401b0394851681529284166020840152921691810191909152606001610185565b6101a9610278366004612f70565b600460209081526000928352604080842090915290825290205481565b6102a86102a3366004612fd8565b6105de565b005b6101716102b836600461306c565b610b22565b6102d06102cb3660046130a5565b610c79565b6040516101859291906130fd565b6101ff610f1c565b6101bf610fef565b6101a9611036565b6101a9611073565b6101a961030c366004612f70565b600760209081526000928352604080842090915290825290205481565b6102a8610337366004612f44565b6110b0565b6103446114ff565b60405161018593929190613118565b6101ff611b16565b610363611be8565b60405161018593929190613188565b61034461038036600461324c565b611d98565b6102a8612300565b6101bf612636565b6101a96103a3366004612f44565b600660209081526000928352604080842090915290825290205481565b6101a96103ce3660046130a5565b60086020526000908152604090205481565b6101a9600a5481565b60008315806103f6575082155b156104145760405163e12ddd0b60e01b815260040160405180910390fd5b600061042089896132db565b9050856104bc578385101580156104405750600161043e85876132db565b115b156104725784846104528360026132ef565b6001600160401b0316610465919061331a565b61046f91906132db565b90505b848411801561048a5750600161048886866132db565b115b156104bc57838561049c8360026132ef565b6001600160401b03166104af919061331a565b6104b991906132db565b90505b82158015906104d35750806001600160401b031683105b156104db5750815b86816001600160401b031610156104ef5750855b98975050505050505050565b604080516020808252818301909252600091309183918291906020820181803683370190505090506020607a60208301853c602001519392505050565b60006105426105d4565b6001600160a01b031663720a70bd610558611036565b6040518263ffffffff1660e01b815260040161057691815260200190565b602060405180830381865afa158015610593573d6000803e3d6000fd5b505050506040513d601f19601f820116820180604052508101906105b79190613331565b905090565b600954600160801b90046001600160401b0316151590565b60006105b761267d565b600054610100900460ff16158080156105fe5750600054600160ff909116105b806106185750303b158015610618575060005460ff166001145b61067f5760405162461bcd60e51b815260206004820152602e60248201527f496e697469616c697a61626c653a20636f6e747261637420697320616c72656160448201526d191e481a5b9a5d1a585b1a5e995960921b606482015260840160405180910390fd5b6000805460ff1916600117905580156106a2576000805461ff0019166101001790555b600080600080858060200190518101906106bc91906133a9565b935093509350935060008490506000849050816001600160a01b031663418f35cc6040518163ffffffff1660e01b8152600401602060405180830381865afa15801561070c573d6000803e3d6000fd5b505050506040513d601f19601f82011682018060405250810190610730919061349f565b6003805467ffffffffffffffff199081166001600160401b03938416179091556009805490911642909216919091179055600061076c866126ba565b9050806107a15761077e8686866127b3565b1561079c57604051634f55a85360e11b815260040160405180910390fd5b61089b565b6000805b86518110156108775760008782815181106107c2576107c26134ba565b6020026020010151905060008783815181106107e0576107e06134ba565b602002602001015190506001600001898481518110610801576108016134ba565b602090810291909101810151825460018101845560009384529190922001558751600290899085908110610837576108376134ba565b6020908102919091018101518254600181018455600093845291909220015561086081856134d0565b93505050808061086f906134e3565b9150506107a5565b50806000036108995760405163a7998b9760e01b815260040160405180910390fd5b505b6000826001600160a01b031663610bb6a06040518163ffffffff1660e01b815260040160a060405180830381865afa1580156108db573d6000803e3d6000fd5b505050506040513d601f19601f820116820180604052508101906108ff91906134fc565b505060095491935060009250506001600160401b0390811690831611156109ca57600954610936906001600160401b03168361355a565b6001600160401b03169050610949610fef565b6001600160a01b031663d6dd04996040518163ffffffff1660e01b8152600401602060405180830381865afa158015610986573d6000803e3d6000fd5b505050506040513d601f19601f820116820180604052508101906109aa9190613581565b8110156109ca5760405163f9df86ef60e01b815260040160405180910390fd5b6109e183826109d88c61290b565b6102b88c61290b565b600980546001600160401b0392909216600160401b0267ffffffffffffffff60401b19909216919091179055604051631397487f60e31b81526001600160a01b03861690639cba43f890610a3c90309060019060040161359a565b600060405180830381600087803b158015610a5657600080fd5b505af1158015610a6a573d6000803e3d6000fd5b5050604051631397487f60e31b81526001600160a01b0387169250639cba43f89150610a9d90309060029060040161359a565b600060405180830381600087803b158015610ab757600080fd5b505af1158015610acb573d6000803e3d6000fd5b505050505050505050505050508015610b1e576000805461ff0019169055604051600181527f7f26b83ff96e1f2b6a682f133852f6798a09c465da95921460cefb38474024989060200160405180910390a15b5050565b600080610b2d610fef565b6001600160a01b031663781e0efe6040518163ffffffff1660e01b8152600401602060405180830381865afa158015610b6a573d6000803e3d6000fd5b505050506040513d601f19601f82011682018060405250810190610b8e9190613581565b90506000610b9a610fef565b6001600160a01b031663fe9135f06040518163ffffffff1660e01b8152600401602060405180830381865afa158015610bd7573d6000803e3d6000fd5b505050506040513d601f19601f82011682018060405250810190610bfb9190613581565b90506000610c07610fef565b6001600160a01b031663d6dd04996040518163ffffffff1660e01b8152600401602060405180830381865afa158015610c44573d6000803e3d6000fd5b505050506040513d601f19601f82011682018060405250810190610c689190613581565b90506104ef8383838b8a8a8d6103e9565b6001600160a01b03811660009081526008602052604081205460609082610c9e610fef565b6001600160a01b0316635a28acb06040518163ffffffff1660e01b8152600401600060405180830381865afa158015610cdb573d6000803e3d6000fd5b505050506040513d6000823e601f3d908101601f19168201604052610d0391908101906135b3565b9050600081516001600160401b03811115610d2057610d20612f92565b604051908082528060200260200182016040528015610d49578160200160208202803683370190505b50600a54909150831460005b8351811015610f10576000848281518110610d7257610d726134ba565b60209081029190910181015160008881526004835260408082208383528452808220546001600160a01b038e16835260058552818320848452909452902054909250811580610dbf575080155b15610dcc57505050610efe565b600082610de183670de0b6b3a764000061331a565b610deb91906132db565b90506000600760008b815260200190815260200160002060008681526020019081526020016000205490506000600660008f6001600160a01b03166001600160a01b03168152602001908152602001600020600087815260200190815260200160002054670de0b6b3a7640000610e6291906134d0565b9050600081610e71858561331a565b610e7b91906132db565b905080600003610e915750505050505050610efe565b6000610ea582670de0b6b3a7640000612ab2565b905089610ed6576000610ec083670de0b6b3a7640000612ad2565b905080871015610ed05781610ed2565b805b9150505b808b8a81518110610ee957610ee96134ba565b60200260200101818152505050505050505050505b80610f08816134e3565b915050610d55565b50969095509350505050565b600080610f276105d4565b6001600160a01b03166344d9bc5f6040518163ffffffff1660e01b8152600401602060405180830381865afa158015610f64573d6000803e3d6000fd5b505050506040513d601f19601f82011682018060405250810190610f889190613581565b905060008115610fa157610f9c4283612b02565b610fa3565b425b600954909150600090610fc8906001600160401b03600160401b8204811691166135e7565b6009546001600160401b039182169250168210801590610fe757508082105b935050505090565b6000610ff96105d4565b6001600160a01b0316637b1039996040518163ffffffff1660e01b8152600401602060405180830381865afa158015610593573d6000803e3d6000fd5b604080516020808252818301909252600091309183918291906020820181803683370190505090506020609a60208301853c602001519392505050565b604080516020808252818301909252600091309183918291906020820181803683370190505090506020605a60208301853c602001519392505050565b6110b8612b18565b60006110c2610fef565b6001600160a01b0316635a28acb06040518163ffffffff1660e01b8152600401600060405180830381865afa1580156110ff573d6000803e3d6000fd5b505050506040513d6000823e601f3d908101601f1916820160405261112791908101906135b3565b90506000611134846126ba565b90506000816111435782611192565b600180546040805160208084028201810190925282815292919083018282801561118c57602002820191906000526020600020905b815481526020019060010190808311611178575b50505050505b905060005b81518110156114105760008282815181106111b4576111b46134ba565b6020026020010151905060006111c8610538565b6001600160a01b031663feae7dc3836040518263ffffffff1660e01b81526004016111f591815260200190565b602060405180830381865afa158015611212573d6000803e3d6000fd5b505050506040513d601f19601f820116820180604052508101906112369190613331565b6001600160a01b03166370a08231896040518263ffffffff1660e01b81526004016112619190612f18565b602060405180830381865afa15801561127e573d6000803e3d6000fd5b505050506040513d601f19601f820116820180604052508101906112a29190613581565b90508085156112f35760006001800185815481106112c2576112c26134ba565b90600052602060002001549050808310156112f05760405163da4cfa9760e01b815260040160405180910390fd5b90505b604051630729dd9560e31b8152600481018490526000906001600160a01b038b169063394eeca890602401602060405180830381865afa15801561133b573d6000803e3d6000fd5b505050506040513d601f19601f8201168201806040525081019061135f9190613581565b90506000670de0b6b3a764000061137683826134d0565b611380908561331a565b61138a91906132db565b60008b81526004602090815260408083208984529091528120805492935083929091906113b89084906134d0565b90915550506001600160a01b038b166000818152600560209081526040808320898452825280832094909455918152600682528281209681529590529093209290925550819050611408816134e3565b915050611197565b5060008085600114611423576001611426565b60025b60ff16905060005b85518110156114935760008281526004602052604081208751829089908590811061145b5761145b6134ba565b602002602001015181526020019081526020016000205411156114815760019250611493565b8061148b816134e3565b91505061142e565b506001600160a01b038716600090815260086020526040902086905581156114bd576114bd612be4565b7ff6a9086f0e560818b9fc087387152503d2864daffa4c3387be717f065c1e0f2287876040516114ee92919061359a565b60405180910390a150505050505050565b6060806060600061150e610fef565b6001600160a01b0316635a28acb06040518163ffffffff1660e01b8152600401600060405180830381865afa15801561154b573d6000803e3d6000fd5b505050506040513d6000823e601f3d908101601f1916820160405261157391908101906135b3565b905080516001600160401b0381111561158e5761158e612f92565b6040519080825280602002602001820160405280156115b7578160200160208202803683370190505b50935080516001600160401b038111156115d3576115d3612f92565b6040519080825280602002602001820160405280156115fc578160200160208202803683370190505b50925060008060008060005b85518110156117e0576000868281518110611625576116256134ba565b602002602001015190506000611639610fef565b6001600160a01b03166335ba7989836040518263ffffffff1660e01b815260040161166691815260200190565b60c060405180830381865afa158015611683573d6000803e3d6000fd5b505050506040513d601f19601f820116820180604052508101906116a79190613607565b805160008481526000805160206136de83398151915260205260409020549192506116d19161331a565b6116e390670de0b6b3a764000061331a565b6116ed90886134d0565b815160008481526000805160206136fe83398151915260205260409020549198506117179161331a565b61172990670de0b6b3a764000061331a565b61173390876134d0565b60208083015160008581526000805160206136de8339815191529092526040909120549197506117629161331a565b61177490670de0b6b3a764000061331a565b61177e90866134d0565b60208083015160008581526000805160206136fe8339815191529092526040909120549196506117ad9161331a565b6117bf90670de0b6b3a764000061331a565b6117c990856134d0565b9350505080806117d8906134e3565b915050611608565b506040805160208101869052908101849052606081018390526080810182905260a00160408051808303601f190181529190526009549096506000906119159085908590600160401b90046001600160401b031661183c610fef565b6001600160a01b031663781e0efe6040518163ffffffff1660e01b8152600401602060405180830381865afa158015611879573d6000803e3d6000fd5b505050506040513d601f19601f8201168201806040525081019061189d9190613581565b6118a5610fef565b6001600160a01b031663fe9135f06040518163ffffffff1660e01b8152600401602060405180830381865afa1580156118e2573d6000803e3d6000fd5b505050506040513d601f19601f820116820180604052508101906119069190613581565b61191091906132db565b612d49565b60095490915060009061193e9087908590600160401b90046001600160401b031661183c610fef565b905060005b8751811015611b09576000888281518110611960576119606134ba565b60209081029190910181015160008181526000805160206136de8339815191529092526040822054909250670de0b6b3a7640000906119a090879061331a565b6119aa91906132db565b60008381526000805160206136de8339815191526020526040902054909150811115611a115760008281526000805160206136de83398151915260205260409020548d518e9085908110611a0057611a006134ba565b602002602001018181525050611a31565b808d8481518110611a2457611a246134ba565b6020026020010181815250505b60008281526000805160206136fe8339815191526020526040812054670de0b6b3a764000090611a6290879061331a565b611a6c91906132db565b60008481526000805160206136fe8339815191526020526040902054909150811115611ad35760008381526000805160206136fe83398151915260205260409020548d518e9086908110611ac257611ac26134ba565b602002602001018181525050611af3565b808d8581518110611ae657611ae66134ba565b6020026020010181815250505b5050508080611b01906134e3565b915050611943565b5050505050505050909192565b600080611b216105d4565b6001600160a01b03166344d9bc5f6040518163ffffffff1660e01b8152600401602060405180830381865afa158015611b5e573d6000803e3d6000fd5b505050506040513d601f19601f82011682018060405250810190611b829190613581565b905060008115611b9b57611b964283612b02565b611b9d565b425b6009549091506001600160401b031615801590611be15750600954611bd4906001600160401b03600160401b8204811691166135e7565b6001600160401b03168110155b9250505090565b606080600080600080611bf96114ff565b9250925092506000806000611c0e8686611d98565b9250925092506000611c208583612d8a565b9050600087516001600160401b03811115611c3d57611c3d612f92565b604051908082528060200260200182016040528015611c66578160200160208202803683370190505b509050600087516001600160401b03811115611c8457611c84612f92565b604051908082528060200260200182016040528015611cad578160200160208202803683370190505b50905060005b8951811015611d8557868181518110611cce57611cce6134ba565b60200260200101518a8281518110611ce857611ce86134ba565b6020026020010151611cfa91906134d0565b838281518110611d0c57611d0c6134ba565b602002602001018181525050858181518110611d2a57611d2a6134ba565b6020026020010151898281518110611d4457611d446134ba565b6020026020010151611d5691906134d0565b828281518110611d6857611d686134ba565b602090810291909101015280611d7d816134e3565b915050611cb3565b50909b909a509098509650505050505050565b60608060606000611da7610fef565b6001600160a01b0316635a28acb06040518163ffffffff1660e01b8152600401600060405180830381865afa158015611de4573d6000803e3d6000fd5b505050506040513d6000823e601f3d908101601f19168201604052611e0c91908101906135b3565b905080516001600160401b03811115611e2757611e27612f92565b604051908082528060200260200182016040528015611e50578160200160208202803683370190505b50935080516001600160401b03811115611e6c57611e6c612f92565b604051908082528060200260200182016040528015611e95578160200160208202803683370190505b50925060008060008060005b85518110156120a3576000868281518110611ebe57611ebe6134ba565b602002602001015190506000611ed2610fef565b6001600160a01b03166335ba7989836040518263ffffffff1660e01b8152600401611eff91815260200190565b60c060405180830381865afa158015611f1c573d6000803e3d6000fd5b505050506040513d601f19601f82011682018060405250810190611f409190613607565b905060008d8481518110611f5657611f566134ba565b60209081029190910181015160008581526000805160206136de833981519152909252604090912054611f899190613680565b905060008d8581518110611f9f57611f9f6134ba565b60209081029190910181015160008681526000805160206136fe833981519152909252604090912054611fd29190613680565b9050826040015182611fe4919061331a565b611ff690670de0b6b3a764000061331a565b612000908a6134d0565b9850826040015181612012919061331a565b61202490670de0b6b3a764000061331a565b61202e90896134d0565b9750826060015182612040919061331a565b61205290670de0b6b3a764000061331a565b61205c90886134d0565b965082606001518161206e919061331a565b61208090670de0b6b3a764000061331a565b61208a90876134d0565b955050505050808061209b906134e3565b915050611ea1565b506040805160208101869052908101849052606081018390526080810182905260a001604051602081830303815290604052955081600014806120e4575080155b156120f35750505050506122f9565b6009546000906121199085908590600160401b90046001600160401b031661183c610fef565b6009549091506000906121429087908590600160401b90046001600160401b031661183c610fef565b905060005b87518110156122f0576000888281518110612164576121646134ba565b6020026020010151905060008e8381518110612182576121826134ba565b60209081029190910181015160008481526000805160206136de8339815191529092526040909120546121b59190613680565b90506000670de0b6b3a76400006121cc878461331a565b6121d691906132db565b905081811061220357818e85815181106121f2576121f26134ba565b602002602001018181525050612223565b808e8581518110612216576122166134ba565b6020026020010181815250505b505060008d8381518110612239576122396134ba565b60209081029190910181015160008481526000805160206136fe83398151915290925260409091205461226c9190613680565b90506000670de0b6b3a7640000612283868461331a565b61228d91906132db565b90508181106122ba57818d85815181106122a9576122a96134ba565b6020026020010181815250506122da565b808d85815181106122cd576122cd6134ba565b6020026020010181815250505b50505080806122e8906134e3565b915050612147565b50505050505050505b9250925092565b612308611b16565b61232557604051630355dc2160e61b815260040160405180910390fd5b61232d6105bc565b1561234b57604051637f56dbbd60e01b815260040160405180910390fd5b60095461236a906001600160401b03600160401b8204811691166135e7565b6009805467ffffffffffffffff60801b1916600160801b6001600160401b0393841681029190911791829055604051910490911681527f6e89b8a2a3c481f57d678455f59f42429cb60be86708621a7d8a371ca5da3a049060200160405180910390a160006123d7610538565b60035460405163c4c31e8560e01b81526001600160401b0390911660048201526001600160a01b03919091169063c4c31e8590602401602060405180830381865afa15801561242a573d6000803e3d6000fd5b505050506040513d601f19601f8201168201806040525081019061244e9190613331565b90506000816001600160a01b0316630b4e99c36040518163ffffffff1660e01b8152600401602060405180830381865afa158015612490573d6000803e3d6000fd5b505050506040513d601f19601f820116820180604052508101906124b49190613581565b60408051808201909152600881526743554c544953545360c01b60209091015290507f9720b703263248cc672c2dcf2bd34d367a3fd48b1bcd07ae36199e513e33ff108101610b1e576000826001600160a01b031663f10e38af6040518163ffffffff1660e01b8152600401602060405180830381865afa15801561253d573d6000803e3d6000fd5b505050506040513d601f19601f820116820180604052508101906125619190613331565b9050306001600160a01b0316816001600160a01b03166344e445456040518163ffffffff1660e01b8152600401602060405180830381865afa1580156125ab573d6000803e3d6000fd5b505050506040513d601f19601f820116820180604052508101906125cf9190613331565b6001600160a01b03160361263157806001600160a01b0316631d8557d76040518163ffffffff1660e01b8152600401600060405180830381600087803b15801561261857600080fd5b505af115801561262c573d6000803e3d6000fd5b505050505b505050565b6000612640610fef565b6001600160a01b031663ece56a1a6040518163ffffffff1660e01b8152600401602060405180830381865afa158015610593573d6000803e3d6000fd5b604080516014808252818301909252600091309183918291906020820181803683370190505090506014602a60208301853c601401519392505050565b600080826001600160a01b031663c45f10006040518163ffffffff1660e01b8152600401602060405180830381865afa1580156126fb573d6000803e3d6000fd5b505050506040513d601f19601f8201168201806040525081019061271f9190613331565b90506040518060400160405280600881526020016743554c544953545360c01b81525080519060200120816001600160a01b0316630b4e99c36040518163ffffffff1660e01b8152600401602060405180830381865afa158015612787573d6000803e3d6000fd5b505050506040513d601f19601f820116820180604052508101906127ab9190613581565b149392505050565b6000805b83518110156128fe5760006127ca610538565b6001600160a01b031663feae7dc38684815181106127ea576127ea6134ba565b60200260200101516040518263ffffffff1660e01b815260040161281091815260200190565b602060405180830381865afa15801561282d573d6000803e3d6000fd5b505050506040513d601f19601f820116820180604052508101906128519190613331565b6001600160a01b03166370a08231876040518263ffffffff1660e01b815260040161287c9190612f18565b602060405180830381865afa158015612899573d6000803e3d6000fd5b505050506040513d601f19601f820116820180604052508101906128bd9190613581565b90508382815181106128d1576128d16134ba565b60200260200101518111156128eb57600192505050612904565b50806128f6816134e3565b9150506127b7565b50600090505b9392505050565b600080612916610fef565b6001600160a01b0316635a28acb06040518163ffffffff1660e01b8152600401600060405180830381865afa158015612953573d6000803e3d6000fd5b505050506040513d6000823e601f3d908101601f1916820160405261297b91908101906135b3565b90506000805b8251811015612aaa57600083828151811061299e5761299e6134ba565b602002602001015190506129b0610538565b6001600160a01b031663feae7dc3826040518263ffffffff1660e01b81526004016129dd91815260200190565b602060405180830381865afa1580156129fa573d6000803e3d6000fd5b505050506040513d601f19601f82011682018060405250810190612a1e9190613331565b6001600160a01b03166370a08231876040518263ffffffff1660e01b8152600401612a499190612f18565b602060405180830381865afa158015612a66573d6000803e3d6000fd5b505050506040513d601f19601f82011682018060405250810190612a8a9190613581565b612a9490846134d0565b9250508080612aa2906134e3565b915050612981565b509392505050565b600081612abf81856132db565b612ac9919061331a565b90505b92915050565b600080612adf8484612ab2565b9050612aeb8385613693565b15612ac957612afa83826134d0565b949350505050565b6000818310612b115781612ac9565b5090919050565b612b206105d4565b6001600160a01b0316336001600160a01b031614158015612bc457506000612b466105d4565b6001600160a01b031663ebbe8034612b5c611036565b6040516001600160e01b031960e084901b1681526004810191909152336024820152604401602060405180830381865afa158015612b9e573d6000803e3d6000fd5b505050506040513d601f19601f82011682018060405250810190612bc29190613581565b145b15612be25760405163422656d160e01b815260040160405180910390fd5b565b6000806000612bf1611be8565b9250925092506000612c01610fef565b6001600160a01b0316635a28acb06040518163ffffffff1660e01b8152600401600060405180830381865afa158015612c3e573d6000803e3d6000fd5b505050506040513d6000823e601f3d908101601f19168201604052612c6691908101906135b3565b905060005b8151811015612d40576000828281518110612c8857612c886134ba565b60200260200101519050858281518110612ca457612ca46134ba565b60209081029190910181015160008381527fb39221ace053465ec3453ce2b36430bd138b997ecea25c1043da0c366812b8289092526040909120558451859083908110612cf357612cf36134ba565b60209081029190910181015160009283527fb7c774451310d1be4108bc180d1b52823cb0ee0274a6c0081bcaf94f115fb96d90915260409091205580612d38816134e3565b915050612c6b565b5050600a555050565b60008082612d57858861331a565b612d6191906132db565b905084612d7682670de0b6b3a764000061331a565b612d8091906132db565b9695505050505050565b600080600080600086806020019051810190612da691906136a7565b935093509350935060008060008089806020019051810190612dc891906136a7565b93509350935093506000808789670de0b6b3a7640000612de8919061331a565b612df291906132db565b9050600087612e098c670de0b6b3a764000061331a565b612e1391906132db565b9050600085118015612e255750600084115b15612e7d5784612e3d87670de0b6b3a764000061331a565b612e4791906132db565b612e5190836134d0565b915083612e6688670de0b6b3a764000061331a565b612e7091906132db565b612e7a90826134d0565b90505b80821115612e8a57600292505b80821015612e9757600192505b50909c9b505050505050505050505050565b80358015158114612eb957600080fd5b919050565b600080600080600080600060e0888a031215612ed957600080fd5b873596506020880135955060408801359450612ef760608901612ea9565b9699959850939660808101359560a0820135955060c0909101359350915050565b6001600160a01b0391909116815260200190565b6001600160a01b0381168114612f4157600080fd5b50565b60008060408385031215612f5757600080fd5b8235612f6281612f2c565b946020939093013593505050565b60008060408385031215612f8357600080fd5b50508035926020909101359150565b634e487b7160e01b600052604160045260246000fd5b604051601f8201601f191681016001600160401b0381118282101715612fd057612fd0612f92565b604052919050565b60006020808385031215612feb57600080fd5b82356001600160401b038082111561300257600080fd5b818501915085601f83011261301657600080fd5b81358181111561302857613028612f92565b61303a601f8201601f19168501612fa8565b9150808252868482850101111561305057600080fd5b8084840185840137600090820190930192909252509392505050565b6000806000806080858703121561308257600080fd5b61308b85612ea9565b966020860135965060408601359560600135945092505050565b6000602082840312156130b757600080fd5b8135612ac981612f2c565b600081518084526020808501945080840160005b838110156130f2578151875295820195908201906001016130d6565b509495945050505050565b8215158152604060208201526000612afa60408301846130c2565b60608152600061312b60608301866130c2565b60208382038185015261313e82876130c2565b91508382036040850152845180835260005b8181101561316b578681018301518482018401528201613150565b506000838201830152601f01601f19169091010195945050505050565b60608152600061319b60608301866130c2565b82810360208401526131ad81866130c2565b915050826040830152949350505050565b60006001600160401b038211156131d7576131d7612f92565b5060051b60200190565b600082601f8301126131f257600080fd5b81356020613207613202836131be565b612fa8565b82815260059290921b8401810191818101908684111561322657600080fd5b8286015b84811015613241578035835291830191830161322a565b509695505050505050565b6000806040838503121561325f57600080fd5b82356001600160401b038082111561327657600080fd5b613282868387016131e1565b9350602085013591508082111561329857600080fd5b506132a5858286016131e1565b9150509250929050565b634e487b7160e01b600052601260045260246000fd5b634e487b7160e01b600052601160045260246000fd5b6000826132ea576132ea6132af565b500490565b6001600160401b03818116838216028082169190828114613312576133126132c5565b505092915050565b8082028115828204841417612acc57612acc6132c5565b60006020828403121561334357600080fd5b8151612ac981612f2c565b600082601f83011261335f57600080fd5b8151602061336f613202836131be565b82815260059290921b8401810191818101908684111561338e57600080fd5b8286015b848110156132415780518352918301918301613392565b600080600080608085870312156133bf57600080fd5b84516133ca81612f2c565b809450506020808601516133dd81612f2c565b60408701519094506001600160401b03808211156133fa57600080fd5b61340689838a0161334e565b9450606088015191508082111561341c57600080fd5b508601601f8101881361342e57600080fd5b805161343c613202826131be565b81815260059190911b8201830190838101908a83111561345b57600080fd5b928401925b8284101561347957835182529284019290840190613460565b979a9699509497505050505050565b80516001600160401b0381168114612eb957600080fd5b6000602082840312156134b157600080fd5b612ac982613488565b634e487b7160e01b600052603260045260246000fd5b80820180821115612acc57612acc6132c5565b6000600182016134f5576134f56132c5565b5060010190565b600080600080600060a0868803121561351457600080fd5b61351d86613488565b945061352b60208701613488565b935061353960408701613488565b925061354760608701613488565b9150608086015190509295509295909350565b6001600160401b0382811682821603908082111561357a5761357a6132c5565b5092915050565b60006020828403121561359357600080fd5b5051919050565b6001600160a01b03929092168252602082015260400190565b6000602082840312156135c557600080fd5b81516001600160401b038111156135db57600080fd5b612afa8482850161334e565b6001600160401b0381811683821601908082111561357a5761357a6132c5565b600060c0828403121561361957600080fd5b60405160c081018181106001600160401b038211171561363b5761363b612f92565b8060405250825181526020830151602082015260408301516040820152606083015160608201526080830151608082015260a083015160a08201528091505092915050565b81810381811115612acc57612acc6132c5565b6000826136a2576136a26132af565b500690565b600080600080608085870312156136bd57600080fd5b50508251602084015160408501516060909501519196909550909250905056feabd6e7cb50984ff9c2f3e18a2660c3353dadf4e3291deeb275dae2cd1e44fe0591da3fd0782e51c6b3986e9e672fd566868e71f3dbc2d6c2cd6fbb3e361af2a7a2646970667358221220642a4f2b3ecbb6b0e921fb34579c7a06b8889226580497b5594cdb1b08bd09ce64736f6c63430008140033",
  "devdoc": {
    "events": {
      "ArmyJoined(address,uint256)": {
        "params": {
          "armyAddress": "Address of the joined army",
          "side": "Side to which army is joined (sideA = 1, sideB = 2)"
        }
      },
      "BattleEnded(uint256)": {
        "params": {
          "endTime": "Time at which battle is ended"
        }
      },
      "Initialized(uint8)": {
        "details": "Triggered when the contract has been initialized or reinitialized."
      }
    },
    "kind": "dev",
    "methods": {
      "acceptArmyInBattle(address,uint256)": {
        "details": "Even though function is opened, it can only be called by world asset",
        "params": {
          "armyAddress": "Army address",
          "side": "Side to which army will join"
        }
      },
      "assetGroupId()": {
        "details": "Reads data from proxy's storage",
        "returns": {
          "_0": "World asset group id"
        }
      },
      "assetTypeId()": {
        "details": "Reads data from proxy's storage",
        "returns": {
          "_0": "World asset type id"
        }
      },
      "calculateAllCasualties()": {
        "details": "Uses values from battles' sideUnitsAmount in order to calculate casualties (can be executed while battle is still not fully formed)",
        "returns": {
          "_0": "Side A casualties",
          "_1": "Side A casualties",
          "_2": "Winning side (0 - both sides lost, 1 - side A Won, 2 - side B Won"
        }
      },
      "calculateArmyCasualties(address)": {
        "details": "Provides valid results only for ended battle",
        "params": {
          "armyAddress": "Address of army presented in battle"
        },
        "returns": {
          "_0": "Is army won",
          "_1": "Amount of casualties for related unit types"
        }
      },
      "calculateBattleDuration(uint256,uint256,uint256,bool,uint256,uint256,uint256)": {
        "details": "globalMultiplier, baseBattleDuration parameters from registry",
        "params": {
          "baseBattleDuration": "Base battle duration (from registry)",
          "globalMultiplier": "Global multiplier (from registry)",
          "isCultistsAttacked": "Is cultists attacked",
          "maxBattleDuration": "Max allowed battle duration",
          "minBattleDuration": "Minimum battle duration (from registry)",
          "units1": "Amount of units from attacker army",
          "units2": "Amount of units from attacked army"
        },
        "returns": {
          "_0": "Battle duration"
        }
      },
      "calculateStage1Casualties()": {
        "details": "Uses values from battles' sideUnitsAmount in order to calculate casualties (can be executed while battle is still not fully formed)",
        "returns": {
          "_side1Casualties": "Side A casualties",
          "_side2Casualties": "Side B casualties",
          "stageParams": "Stage params (encoded abi.encode(sideAOffense, sideBOffense, sideADefence, sideBDefence))"
        }
      },
      "calculateStage2Casualties(uint256[],uint256[])": {
        "details": "Uses values from battles' sideUnitsAmount in order to calculate casualties (can be executed while battle is still not fully formed)",
        "params": {
          "stage1SideACasualties": "Stage 1 side A casualties",
          "stage1SideBCasualties": "Stage 1 side B casualties"
        },
        "returns": {
          "_side1Casualties": "Side A casualties",
          "_side2Casualties": "Side B casualties",
          "stageParams": "Stage params (encoded abi.encode(sideAOffense, sideBOffense, sideADefence, sideBDefence))"
        }
      },
      "canEndBattle()": {
        "details": "Checks if endTime is set and current block.timestamp > beginTime + duration",
        "returns": {
          "_0": "Can battle be ended"
        }
      },
      "endBattle()": {
        "details": "Sets end time"
      },
      "era()": {
        "details": "Value is dereferenced from proxy storage and world"
      },
      "eraNumber()": {
        "details": "Reads data from proxy's storage",
        "returns": {
          "_0": "Era number"
        }
      },
      "getBattleDuration(bool,uint256,uint256,uint256)": {
        "details": "Returns same value as #calculateBattlesDuration but without the need to provide all parameters",
        "params": {
          "isCultistsAttacked": "Is cultists attacked",
          "maxBattleDuration": "Max allowed battle duration",
          "sideAUnitsAmount": "Side A units amount",
          "sideBUnitsAmount": "Side B units amount"
        },
        "returns": {
          "_0": "Battle duration"
        }
      },
      "init(bytes)": {
        "details": "World asset initializer",
        "params": {
          "initParams": "Encoded init params (every world asset has own knowledge how to extract data from it)"
        }
      },
      "isEndedBattle()": {
        "details": "Checks if endTime is not zero",
        "returns": {
          "_0": "Is ended battle"
        }
      },
      "isLobbyTime()": {
        "details": "Calculates if lobby is opened",
        "returns": {
          "_0": "Is lobby is opened"
        }
      },
      "registry()": {
        "details": "Value is dereferenced from world"
      },
      "world()": {
        "details": "Value is dereferenced from proxy storage"
      },
      "worldAssetFactory()": {
        "details": "Value is dereferenced from registry"
      }
    },
    "stateVariables": {
      "armySide": {
        "details": "Updated when #acceptArmyInBattle is called",
        "params": {
          "armyAddress": "Army address"
        },
        "return": "Side of specified army (sideA = 1, sideB = 2)",
        "returns": {
          "_0": "Side of specified army (sideA = 1, sideB = 2)"
        }
      },
      "armyUnitsAdditionalMultipliers": {
        "details": "Updated when army joins battle",
        "params": {
          "armyAddress": "Army address",
          "unitTypeId": "Unit type id"
        },
        "return": "Unit amount multiplier",
        "returns": {
          "_0": "Unit amount multiplier"
        }
      },
      "armyUnitsAmount": {
        "details": "Updated when army joins battle",
        "params": {
          "armyAddress": "Army address",
          "unitTypeId": "Unit type id"
        },
        "return": "Amount of units by army address and unit type",
        "returns": {
          "_0": "Amount of units by army address and unit type"
        }
      },
      "battleTimeInfo": {
        "details": "Updated when battle initialized, first armies joined and ended (#initBattle, #acceptArmyInBattle, #endBattle)",
        "returns": {
          "beginTime": "Time when battle is began",
          "duration": "Battle duration, initialized when first two armies joined",
          "endTime": "Time when battle is ended"
        }
      },
      "battleWithCultistsInitiationInfo": {
        "details": "Specifies amount of cultists to draw into the battle if battle is initiated by attacking them"
      },
      "casualties": {
        "details": "Updated when #acceptArmyInBattle is called",
        "params": {
          "side": "Side of which query casualties amount (sideA = 1, sideB = 2)",
          "unitTypeId": "Unit type id"
        },
        "return": "Amount of casualties by side and unit type",
        "returns": {
          "_0": "Amount of casualties by side and unit type"
        }
      },
      "position": {
        "details": "Immutable, initialized on the battle creation"
      },
      "sideUnitsAmount": {
        "details": "Updated when army joins side",
        "params": {
          "side": "Side of which query units amount (sideA = 1, sideB = 2)",
          "unitTypeId": "Unit type id"
        },
        "return": "Amount of units by specified side and unit type",
        "returns": {
          "_0": "Amount of units by specified side and unit type"
        }
      },
      "winningSide": {
        "details": "Updated when #endBattle is called",
        "return": "Winning side (no winner = 0, sideA = 1, sideB = 2)",
        "returns": {
          "_0": "Winning side (no winner = 0, sideA = 1, sideB = 2)"
        }
      }
    },
    "version": 1
  },
  "userdoc": {
    "errors": {
      "BattleCannotAcceptCultistsArmyWhenCultistsAmountChangedToLowerValueThanDesired()": [
        {
          "notice": "Thrown when attempting to accept cultists army to the battle but their amount got smaller than desired to attack"
        }
      ],
      "BattleCannotBeCreatedByDesiringToAttackCultistsArmyWithoutUnits()": [
        {
          "notice": "Thrown when attempting to begin battle by attacking cultists army with desire to draw zero units to the battle"
        }
      ],
      "BattleCannotBeCreatedWhenArmyUnitsExceedDesiredAmountToAttack()": [
        {
          "notice": "Thrown when attempting to begin battle by attacking army with MAX amount of units to attack, but their value increased to more than MAX"
        }
      ],
      "BattleCannotBeCreatedWhenAttackedArmyIsAlmostOnAnotherPosition()": [
        {
          "notice": "Thrown when attempting to start battle by attacking army when maneuver duration left less than minimum battle duration"
        }
      ],
      "BattleCannotBeCreatedWithArmiesHavingZeroUnits()": [
        {
          "notice": "Thrown when attempting to begin battle with armies either of which has zero units"
        }
      ],
      "BattleCannotBeFinishedAtThisTime()": [
        {
          "notice": "Thrown when attempting to finish battle while time for it has not yet come"
        }
      ],
      "BattleCannotBeFinishedMoreThanOnce()": [
        {
          "notice": "Thrown when attempting to finish battle when it is already finished"
        }
      ],
      "OnlyActiveGame()": [
        {
          "notice": "Thrown when attempting to call action which can only be called in active game (started and not finished)"
        }
      ],
      "OnlyMightyCreator()": [
        {
          "notice": "Thrown when attempting to call action which can only be called by mighty creator"
        }
      ],
      "OnlyWorldAssetFromSameEra()": [
        {
          "notice": "Thrown when attempting to call action which can only be called by world asset from same era"
        }
      ]
    },
    "events": {
      "ArmyJoined(address,uint256)": {
        "notice": "Emitted when army joined battle"
      },
      "BattleEnded(uint256)": {
        "notice": "Emitted when #endBattle is called"
      }
    },
    "kind": "user",
    "methods": {
      "acceptArmyInBattle(address,uint256)": {
        "notice": "Accepts army in battle"
      },
      "armySide(address)": {
        "notice": "Mapping that contains side at which joined army is on"
      },
      "armyUnitsAdditionalMultipliers(address,bytes32)": {
        "notice": "Mapping that contains unit multiplier by army address and unit type"
      },
      "armyUnitsAmount(address,bytes32)": {
        "notice": "Mapping that contains amount of units by army address and unit type"
      },
      "assetGroupId()": {
        "notice": "Returns world asset group id"
      },
      "assetTypeId()": {
        "notice": "Returns world asset type id"
      },
      "battleTimeInfo()": {
        "notice": "Battle time info"
      },
      "calculateAllCasualties()": {
        "notice": "Calculates casualties for all battle stages"
      },
      "calculateArmyCasualties(address)": {
        "notice": "Calculates casualties for specified army"
      },
      "calculateBattleDuration(uint256,uint256,uint256,bool,uint256,uint256,uint256)": {
        "notice": "Calculates battle duration based on specified parameters"
      },
      "calculateStage1Casualties()": {
        "notice": "Calculates casualties for first battle stage"
      },
      "calculateStage2Casualties(uint256[],uint256[])": {
        "notice": "Calculates casualties for second battle stage (based on casualties from first battle stage)"
      },
      "canEndBattle()": {
        "notice": "Calculates if battle can be ended"
      },
      "casualties(uint256,bytes32)": {
        "notice": "Mapping that contains amount of casualties"
      },
      "endBattle()": {
        "notice": "Ends battle"
      },
      "era()": {
        "notice": "Era"
      },
      "eraNumber()": {
        "notice": "Returns era number"
      },
      "getBattleDuration(bool,uint256,uint256,uint256)": {
        "notice": "Calculates battle duration"
      },
      "isEndedBattle()": {
        "notice": "Calculates if battle is ended"
      },
      "isLobbyTime()": {
        "notice": "Calculates if lobby is opened"
      },
      "position()": {
        "notice": "Position at which battle is being held"
      },
      "registry()": {
        "notice": "Registry"
      },
      "sideUnitsAmount(uint256,bytes32)": {
        "notice": "Mapping that contains units amount by side and unit type"
      },
      "winningSide()": {
        "notice": "Winning side"
      },
      "world()": {
        "notice": "World"
      },
      "worldAssetFactory()": {
        "notice": "Returns world asset factory from registry"
      }
    },
    "version": 1
  },
  "storageLayout": {
    "storage": [
      {
        "astId": 119,
        "contract": "contracts/core/assets/battle/Battle.sol:Battle",
        "label": "_initialized",
        "offset": 0,
        "slot": "0",
        "type": "t_uint8"
      },
      {
        "astId": 122,
        "contract": "contracts/core/assets/battle/Battle.sol:Battle",
        "label": "_initializing",
        "offset": 1,
        "slot": "0",
        "type": "t_bool"
      },
      {
        "astId": 15136,
        "contract": "contracts/core/assets/battle/Battle.sol:Battle",
        "label": "battleWithCultistsInitiationInfo",
        "offset": 0,
        "slot": "1",
        "type": "t_struct(BattleWithCultistsInitiationInfo)15132_storage"
      },
      {
        "astId": 15140,
        "contract": "contracts/core/assets/battle/Battle.sol:Battle",
        "label": "position",
        "offset": 0,
        "slot": "3",
        "type": "t_uint64"
      },
      {
        "astId": 15148,
        "contract": "contracts/core/assets/battle/Battle.sol:Battle",
        "label": "sideUnitsAmount",
        "offset": 0,
        "slot": "4",
        "type": "t_mapping(t_uint256,t_mapping(t_bytes32,t_uint256))"
      },
      {
        "astId": 15156,
        "contract": "contracts/core/assets/battle/Battle.sol:Battle",
        "label": "armyUnitsAmount",
        "offset": 0,
        "slot": "5",
        "type": "t_mapping(t_address,t_mapping(t_bytes32,t_uint256))"
      },
      {
        "astId": 15164,
        "contract": "contracts/core/assets/battle/Battle.sol:Battle",
        "label": "armyUnitsAdditionalMultipliers",
        "offset": 0,
        "slot": "6",
        "type": "t_mapping(t_address,t_mapping(t_bytes32,t_uint256))"
      },
      {
        "astId": 15172,
        "contract": "contracts/core/assets/battle/Battle.sol:Battle",
        "label": "casualties",
        "offset": 0,
        "slot": "7",
        "type": "t_mapping(t_uint256,t_mapping(t_bytes32,t_uint256))"
      },
      {
        "astId": 15178,
        "contract": "contracts/core/assets/battle/Battle.sol:Battle",
        "label": "armySide",
        "offset": 0,
        "slot": "8",
        "type": "t_mapping(t_address,t_uint256)"
      },
      {
        "astId": 15183,
        "contract": "contracts/core/assets/battle/Battle.sol:Battle",
        "label": "battleTimeInfo",
        "offset": 0,
        "slot": "9",
        "type": "t_struct(BattleTimeInfo)17204_storage"
      },
      {
        "astId": 15187,
        "contract": "contracts/core/assets/battle/Battle.sol:Battle",
        "label": "winningSide",
        "offset": 0,
        "slot": "10",
        "type": "t_uint256"
      }
    ],
    "types": {
      "t_address": {
        "encoding": "inplace",
        "label": "address",
        "numberOfBytes": "20"
      },
      "t_array(t_bytes32)dyn_storage": {
        "base": "t_bytes32",
        "encoding": "dynamic_array",
        "label": "bytes32[]",
        "numberOfBytes": "32"
      },
      "t_array(t_uint256)dyn_storage": {
        "base": "t_uint256",
        "encoding": "dynamic_array",
        "label": "uint256[]",
        "numberOfBytes": "32"
      },
      "t_bool": {
        "encoding": "inplace",
        "label": "bool",
        "numberOfBytes": "1"
      },
      "t_bytes32": {
        "encoding": "inplace",
        "label": "bytes32",
        "numberOfBytes": "32"
      },
      "t_mapping(t_address,t_mapping(t_bytes32,t_uint256))": {
        "encoding": "mapping",
        "key": "t_address",
        "label": "mapping(address => mapping(bytes32 => uint256))",
        "numberOfBytes": "32",
        "value": "t_mapping(t_bytes32,t_uint256)"
      },
      "t_mapping(t_address,t_uint256)": {
        "encoding": "mapping",
        "key": "t_address",
        "label": "mapping(address => uint256)",
        "numberOfBytes": "32",
        "value": "t_uint256"
      },
      "t_mapping(t_bytes32,t_uint256)": {
        "encoding": "mapping",
        "key": "t_bytes32",
        "label": "mapping(bytes32 => uint256)",
        "numberOfBytes": "32",
        "value": "t_uint256"
      },
      "t_mapping(t_uint256,t_mapping(t_bytes32,t_uint256))": {
        "encoding": "mapping",
        "key": "t_uint256",
        "label": "mapping(uint256 => mapping(bytes32 => uint256))",
        "numberOfBytes": "32",
        "value": "t_mapping(t_bytes32,t_uint256)"
      },
      "t_struct(BattleTimeInfo)17204_storage": {
        "encoding": "inplace",
        "label": "struct IBattle.BattleTimeInfo",
        "members": [
          {
            "astId": 17199,
            "contract": "contracts/core/assets/battle/Battle.sol:Battle",
            "label": "beginTime",
            "offset": 0,
            "slot": "0",
            "type": "t_uint64"
          },
          {
            "astId": 17201,
            "contract": "contracts/core/assets/battle/Battle.sol:Battle",
            "label": "duration",
            "offset": 8,
            "slot": "0",
            "type": "t_uint64"
          },
          {
            "astId": 17203,
            "contract": "contracts/core/assets/battle/Battle.sol:Battle",
            "label": "endTime",
            "offset": 16,
            "slot": "0",
            "type": "t_uint64"
          }
        ],
        "numberOfBytes": "32"
      },
      "t_struct(BattleWithCultistsInitiationInfo)15132_storage": {
        "encoding": "inplace",
        "label": "struct Battle.BattleWithCultistsInitiationInfo",
        "members": [
          {
            "astId": 15128,
            "contract": "contracts/core/assets/battle/Battle.sol:Battle",
            "label": "maxUnitTypeIdsToAttack",
            "offset": 0,
            "slot": "0",
            "type": "t_array(t_bytes32)dyn_storage"
          },
          {
            "astId": 15131,
            "contract": "contracts/core/assets/battle/Battle.sol:Battle",
            "label": "maxUnitsToAttack",
            "offset": 0,
            "slot": "1",
            "type": "t_array(t_uint256)dyn_storage"
          }
        ],
        "numberOfBytes": "64"
      },
      "t_uint256": {
        "encoding": "inplace",
        "label": "uint256",
        "numberOfBytes": "32"
      },
      "t_uint64": {
        "encoding": "inplace",
        "label": "uint64",
        "numberOfBytes": "8"
      },
      "t_uint8": {
        "encoding": "inplace",
        "label": "uint8",
        "numberOfBytes": "1"
      }
    }
  }
}