{
  "address": "0xA69c29b0932E76010E4B280555a18905aFeBd3A1",
  "abi": [
    {
      "inputs": [
        {
          "internalType": "address",
          "name": "worldAddress_",
          "type": "address"
        },
        {
          "internalType": "string",
          "name": "uri_",
          "type": "string"
        }
      ],
      "stateMutability": "nonpayable",
      "type": "constructor"
    },
    {
      "inputs": [],
      "name": "CannotTransferDistributionSharesToBuildingOfSameBuildingType",
      "type": "error"
    },
    {
      "inputs": [],
      "name": "OnlyWorldAssetFromSameEra",
      "type": "error"
    },
    {
      "anonymous": false,
      "inputs": [
        {
          "indexed": true,
          "internalType": "address",
          "name": "account",
          "type": "address"
        },
        {
          "indexed": true,
          "internalType": "address",
          "name": "operator",
          "type": "address"
        },
        {
          "indexed": false,
          "internalType": "bool",
          "name": "approved",
          "type": "bool"
        }
      ],
      "name": "ApprovalForAll",
      "type": "event"
    },
    {
      "anonymous": false,
      "inputs": [
        {
          "indexed": true,
          "internalType": "address",
          "name": "previousOwner",
          "type": "address"
        },
        {
          "indexed": true,
          "internalType": "address",
          "name": "newOwner",
          "type": "address"
        }
      ],
      "name": "OwnershipTransferred",
      "type": "event"
    },
    {
      "anonymous": false,
      "inputs": [
        {
          "indexed": true,
          "internalType": "address",
          "name": "operator",
          "type": "address"
        },
        {
          "indexed": true,
          "internalType": "address",
          "name": "from",
          "type": "address"
        },
        {
          "indexed": true,
          "internalType": "address",
          "name": "to",
          "type": "address"
        },
        {
          "indexed": false,
          "internalType": "uint256[]",
          "name": "ids",
          "type": "uint256[]"
        },
        {
          "indexed": false,
          "internalType": "uint256[]",
          "name": "values",
          "type": "uint256[]"
        }
      ],
      "name": "TransferBatch",
      "type": "event"
    },
    {
      "anonymous": false,
      "inputs": [
        {
          "indexed": true,
          "internalType": "address",
          "name": "operator",
          "type": "address"
        },
        {
          "indexed": true,
          "internalType": "address",
          "name": "from",
          "type": "address"
        },
        {
          "indexed": true,
          "internalType": "address",
          "name": "to",
          "type": "address"
        },
        {
          "indexed": false,
          "internalType": "uint256",
          "name": "id",
          "type": "uint256"
        },
        {
          "indexed": false,
          "internalType": "uint256",
          "name": "value",
          "type": "uint256"
        }
      ],
      "name": "TransferSingle",
      "type": "event"
    },
    {
      "anonymous": false,
      "inputs": [
        {
          "indexed": false,
          "internalType": "string",
          "name": "value",
          "type": "string"
        },
        {
          "indexed": true,
          "internalType": "uint256",
          "name": "id",
          "type": "uint256"
        }
      ],
      "name": "URI",
      "type": "event"
    },
    {
      "inputs": [
        {
          "internalType": "address",
          "name": "account",
          "type": "address"
        },
        {
          "internalType": "uint256",
          "name": "id",
          "type": "uint256"
        }
      ],
      "name": "balanceOf",
      "outputs": [
        {
          "internalType": "uint256",
          "name": "",
          "type": "uint256"
        }
      ],
      "stateMutability": "view",
      "type": "function"
    },
    {
      "inputs": [
        {
          "internalType": "address[]",
          "name": "accounts",
          "type": "address[]"
        },
        {
          "internalType": "uint256[]",
          "name": "ids",
          "type": "uint256[]"
        }
      ],
      "name": "balanceOfBatch",
      "outputs": [
        {
          "internalType": "uint256[]",
          "name": "",
          "type": "uint256[]"
        }
      ],
      "stateMutability": "view",
      "type": "function"
    },
    {
      "inputs": [
        {
          "internalType": "uint256",
          "name": "",
          "type": "uint256"
        }
      ],
      "name": "distributionIdToBuildingAddress",
      "outputs": [
        {
          "internalType": "address",
          "name": "",
          "type": "address"
        }
      ],
      "stateMutability": "view",
      "type": "function"
    },
    {
      "inputs": [
        {
          "internalType": "uint256",
          "name": "distributionId",
          "type": "uint256"
        }
      ],
      "name": "getDistributionReceivers",
      "outputs": [
        {
          "internalType": "address[]",
          "name": "",
          "type": "address[]"
        }
      ],
      "stateMutability": "view",
      "type": "function"
    },
    {
      "inputs": [],
      "name": "getItemsPerNft",
      "outputs": [
        {
          "internalType": "uint256",
          "name": "",
          "type": "uint256"
        }
      ],
      "stateMutability": "pure",
      "type": "function"
    },
    {
      "inputs": [
        {
          "internalType": "address",
          "name": "account",
          "type": "address"
        },
        {
          "internalType": "address",
          "name": "operator",
          "type": "address"
        }
      ],
      "name": "isApprovedForAll",
      "outputs": [
        {
          "internalType": "bool",
          "name": "",
          "type": "bool"
        }
      ],
      "stateMutability": "view",
      "type": "function"
    },
    {
      "inputs": [],
      "name": "lastDistributionId",
      "outputs": [
        {
          "internalType": "uint256",
          "name": "",
          "type": "uint256"
        }
      ],
      "stateMutability": "view",
      "type": "function"
    },
    {
      "inputs": [
        {
          "internalType": "address",
          "name": "to",
          "type": "address"
        }
      ],
      "name": "mint",
      "outputs": [
        {
          "internalType": "uint256",
          "name": "",
          "type": "uint256"
        }
      ],
      "stateMutability": "nonpayable",
      "type": "function"
    },
    {
      "inputs": [],
      "name": "owner",
      "outputs": [
        {
          "internalType": "address",
          "name": "",
          "type": "address"
        }
      ],
      "stateMutability": "view",
      "type": "function"
    },
    {
      "inputs": [],
      "name": "renounceOwnership",
      "outputs": [],
      "stateMutability": "nonpayable",
      "type": "function"
    },
    {
      "inputs": [
        {
          "internalType": "address",
          "name": "from",
          "type": "address"
        },
        {
          "internalType": "address",
          "name": "to",
          "type": "address"
        },
        {
          "internalType": "uint256[]",
          "name": "ids",
          "type": "uint256[]"
        },
        {
          "internalType": "uint256[]",
          "name": "amounts",
          "type": "uint256[]"
        },
        {
          "internalType": "bytes",
          "name": "data",
          "type": "bytes"
        }
      ],
      "name": "safeBatchTransferFrom",
      "outputs": [],
      "stateMutability": "nonpayable",
      "type": "function"
    },
    {
      "inputs": [
        {
          "internalType": "address",
          "name": "from",
          "type": "address"
        },
        {
          "internalType": "address",
          "name": "to",
          "type": "address"
        },
        {
          "internalType": "uint256",
          "name": "id",
          "type": "uint256"
        },
        {
          "internalType": "uint256",
          "name": "amount",
          "type": "uint256"
        },
        {
          "internalType": "bytes",
          "name": "data",
          "type": "bytes"
        }
      ],
      "name": "safeTransferFrom",
      "outputs": [],
      "stateMutability": "nonpayable",
      "type": "function"
    },
    {
      "inputs": [
        {
          "internalType": "address",
          "name": "operator",
          "type": "address"
        },
        {
          "internalType": "bool",
          "name": "approved",
          "type": "bool"
        }
      ],
      "name": "setApprovalForAll",
      "outputs": [],
      "stateMutability": "nonpayable",
      "type": "function"
    },
    {
      "inputs": [
        {
          "internalType": "bytes4",
          "name": "interfaceId",
          "type": "bytes4"
        }
      ],
      "name": "supportsInterface",
      "outputs": [
        {
          "internalType": "bool",
          "name": "",
          "type": "bool"
        }
      ],
      "stateMutability": "view",
      "type": "function"
    },
    {
      "inputs": [
        {
          "internalType": "address",
          "name": "newOwner",
          "type": "address"
        }
      ],
      "name": "transferOwnership",
      "outputs": [],
      "stateMutability": "nonpayable",
      "type": "function"
    },
    {
      "inputs": [
        {
          "internalType": "string",
          "name": "_newUri",
          "type": "string"
        }
      ],
      "name": "updateURI",
      "outputs": [],
      "stateMutability": "nonpayable",
      "type": "function"
    },
    {
      "inputs": [
        {
          "internalType": "uint256",
          "name": "",
          "type": "uint256"
        }
      ],
      "name": "uri",
      "outputs": [
        {
          "internalType": "string",
          "name": "",
          "type": "string"
        }
      ],
      "stateMutability": "view",
      "type": "function"
    },
    {
      "inputs": [],
      "name": "world",
      "outputs": [
        {
          "internalType": "contract IWorld",
          "name": "",
          "type": "address"
        }
      ],
      "stateMutability": "view",
      "type": "function"
    }
  ],
  "transactionHash": "0xfb446acf52667b820d6a167f0bf4211532ba5790a57484967e64938f6644cc17",
  "args": [
    "0x020D98a7597C8F1C9345d2a6d60965f11AcE0248",
    "https://mithraeum.io"
  ],
  "numDeployments": 1,
  "solcInputHash": "2627c9fa14fa5cb6e37bf26f5785fa8b",
  "bytecode": "0x60806040523480156200001157600080fd5b50604051620024d1380380620024d18339810160408190526200003491620000ed565b80620000408162000073565b506200004c3362000085565b50600580546001600160a01b0319166001600160a01b03929092169190911790556200033e565b600262000081828262000272565b5050565b600380546001600160a01b038381166001600160a01b0319831681179093556040519116919082907f8be0079c531659141344cd1fd0a4f28419497f9722a3daafe3b4186f6b6457e090600090a35050565b634e487b7160e01b600052604160045260246000fd5b600080604083850312156200010157600080fd5b82516001600160a01b03811681146200011957600080fd5b602084810151919350906001600160401b03808211156200013957600080fd5b818601915086601f8301126200014e57600080fd5b815181811115620001635762000163620000d7565b604051601f8201601f19908116603f011681019083821181831017156200018e576200018e620000d7565b816040528281528986848701011115620001a757600080fd5b600093505b82841015620001cb5784840186015181850187015292850192620001ac565b60008684830101528096505050505050509250929050565b600181811c90821680620001f857607f821691505b6020821081036200021957634e487b7160e01b600052602260045260246000fd5b50919050565b601f8211156200026d57600081815260208120601f850160051c81016020861015620002485750805b601f850160051c820191505b81811015620002695782815560010162000254565b5050505b505050565b81516001600160401b038111156200028e576200028e620000d7565b620002a6816200029f8454620001e3565b846200021f565b602080601f831160018114620002de5760008415620002c55750858301515b600019600386901b1c1916600185901b17855562000269565b600085815260208120601f198616915b828110156200030f57888601518255948401946001909101908401620002ee565b50858210156200032e5787850151600019600388901b60f8161c191681555b5050505050600190811b01905550565b612183806200034e6000396000f3fe608060405234801561001057600080fd5b50600436106100e55760003560e01c8062fdd58e146100ea57806301ffc9a71461011057806302705c2e146101335780630e89341c1461013a5780632eb2c2d61461015a57806330b67baa1461016f5780634e1273f41461018f57806361a5d38c146101af5780636a627842146101cf578063715018a6146101e25780637ba41d34146101ea5780638da5cb5b146101f3578063a22cb46514610204578063c30f4a5a14610217578063c99f4f891461022a578063e985e9c514610253578063f242432a1461028f578063f2fde38b146102a2575b600080fd5b6100fd6100f836600461171d565b6102b5565b6040519081526020015b60405180910390f35b61012361011e36600461175d565b61034e565b6040519015158152602001610107565b60646100fd565b61014d61014836600461177a565b61039e565b60405161010791906117d9565b61016d61016836600461193f565b610432565b005b600554610182906001600160a01b031681565b60405161010791906119e8565b6101a261019d3660046119fc565b61047e565b6040516101079190611b01565b6101c26101bd36600461177a565b6105a7565b6040516101079190611b14565b6100fd6101dd366004611b61565b6105c1565b61016d610625565b6100fd60075481565b6003546001600160a01b0316610182565b61016d610212366004611b7c565b610639565b61016d610225366004611bb8565b610648565b61018261023836600461177a565b6006602052600090815260409020546001600160a01b031681565b610123610261366004611c08565b6001600160a01b03918216600090815260016020908152604080832093909416825291909152205460ff1690565b61016d61029d366004611c3b565b61065c565b61016d6102b0366004611b61565b6106a1565b60006001600160a01b0383166103255760405162461bcd60e51b815260206004820152602a60248201527f455243313135353a2061646472657373207a65726f206973206e6f742061207660448201526930b634b21037bbb732b960b11b60648201526084015b60405180910390fd5b506000818152602081815260408083206001600160a01b03861684529091529020545b92915050565b60006001600160e01b03198216636cdb3d1360e11b148061037f57506001600160e01b031982166303a24d0760e21b145b8061034857506301ffc9a760e01b6001600160e01b0319831614610348565b6060600280546103ad90611c9f565b80601f01602080910402602001604051908101604052809291908181526020018280546103d990611c9f565b80156104265780601f106103fb57610100808354040283529160200191610426565b820191906000526020600020905b81548152906001019060200180831161040957829003601f168201915b50505050509050919050565b6001600160a01b03851633148061044e575061044e8533610261565b61046a5760405162461bcd60e51b815260040161031c90611cd9565b6104778585858585610717565b5050505050565b606081518351146104e35760405162461bcd60e51b815260206004820152602960248201527f455243313135353a206163636f756e747320616e6420696473206c656e677468604482015268040dad2e6dac2e8c6d60bb1b606482015260840161031c565b600083516001600160401b038111156104fe576104fe6117ec565b604051908082528060200260200182016040528015610527578160200160208202803683370190505b50905060005b845181101561059f5761057285828151811061054b5761054b611d28565b602002602001015185838151811061056557610565611d28565b60200260200101516102b5565b82828151811061058457610584611d28565b602090810291909101015261059881611d54565b905061052d565b509392505050565b600081815260046020526040902060609061034890610910565b60006105cb610924565b600060075460016105dc9190611d6d565b90506105fa8382606460405180602001604052806000815250610a1f565b6007819055600081815260066020526040902080546001600160a01b0319163317905590505b919050565b61062d610b51565b6106376000610bab565b565b610644338383610bfd565b5050565b610650610b51565b61065981610cdd565b50565b6001600160a01b03851633148061067857506106788533610261565b6106945760405162461bcd60e51b815260040161031c90611cd9565b6104778585858585610ce9565b6106a9610b51565b6001600160a01b03811661070e5760405162461bcd60e51b815260206004820152602660248201527f4f776e61626c653a206e6577206f776e657220697320746865207a65726f206160448201526564647265737360d01b606482015260840161031c565b61065981610bab565b81518351146107795760405162461bcd60e51b815260206004820152602860248201527f455243313135353a2069647320616e6420616d6f756e7473206c656e677468206044820152670dad2e6dac2e8c6d60c31b606482015260840161031c565b6001600160a01b03841661079f5760405162461bcd60e51b815260040161031c90611d80565b336107ae818787878787610e2f565b60005b84518110156108945760008582815181106107ce576107ce611d28565b6020026020010151905060008583815181106107ec576107ec611d28565b602090810291909101810151600084815280835260408082206001600160a01b038e16835290935291909120549091508181101561083c5760405162461bcd60e51b815260040161031c90611dc5565b6000838152602081815260408083206001600160a01b038e8116855292528083208585039055908b16825281208054849290610879908490611d6d565b925050819055505050508061088d90611d54565b90506107b1565b50846001600160a01b0316866001600160a01b0316826001600160a01b03167f4a39dc06d4c0dbc64b70af90fd698a233a518aa5d07e595d983b8c0526c8f7fb87876040516108e4929190611e0f565b60405180910390a46108fa818787878787611161565b6109088187878787876112de565b505050505050565b6060600061091d83611439565b9392505050565b6000336001600160a01b0316637d884c746040518163ffffffff1660e01b8152600401602060405180830381865afa158015610964573d6000803e3d6000fd5b505050506040513d601f19601f820116820180604052508101906109889190611e3d565b600554604051633aefa00d60e21b81529192506000916001600160a01b039091169063ebbe8034906109c09085903390600401611e56565b602060405180830381865afa1580156109dd573d6000803e3d6000fd5b505050506040513d601f19601f82011682018060405250810190610a019190611e3d565b036106595760405163422656d160e01b815260040160405180910390fd5b6001600160a01b038416610a7f5760405162461bcd60e51b815260206004820152602160248201527f455243313135353a206d696e7420746f20746865207a65726f206164647265736044820152607360f81b606482015260840161031c565b336000610a8b85611494565b90506000610a9885611494565b9050610aa983600089858589610e2f565b6000868152602081815260408083206001600160a01b038b16845290915281208054879290610ad9908490611d6d565b909155505060408051878152602081018790526001600160a01b03808a1692600092918716917fc3d58168c5ae7397731d063d5bbf3d657854427343f4c083240f7aacaa2d0f62910160405180910390a4610b3983600089858589611161565b610b48836000898989896114df565b50505050505050565b6003546001600160a01b031633146106375760405162461bcd60e51b815260206004820181905260248201527f4f776e61626c653a2063616c6c6572206973206e6f7420746865206f776e6572604482015260640161031c565b600380546001600160a01b038381166001600160a01b0319831681179093556040519116919082907f8be0079c531659141344cd1fd0a4f28419497f9722a3daafe3b4186f6b6457e090600090a35050565b816001600160a01b0316836001600160a01b031603610c705760405162461bcd60e51b815260206004820152602960248201527f455243313135353a2073657474696e6720617070726f76616c20737461747573604482015268103337b91039b2b63360b91b606482015260840161031c565b6001600160a01b03838116600081815260016020908152604080832094871680845294825291829020805460ff191686151590811790915591519182527f17307eab39ab6107e8899845ad3d59bd9653f200f220920489ca2b5937696c31910160405180910390a3505050565b60026106448282611eb8565b6001600160a01b038416610d0f5760405162461bcd60e51b815260040161031c90611d80565b336000610d1b85611494565b90506000610d2885611494565b9050610d38838989858589610e2f565b6000868152602081815260408083206001600160a01b038c16845290915290205485811015610d795760405162461bcd60e51b815260040161031c90611dc5565b6000878152602081815260408083206001600160a01b038d8116855292528083208985039055908a16825281208054889290610db6908490611d6d565b909155505060408051888152602081018890526001600160a01b03808b16928c821692918816917fc3d58168c5ae7397731d063d5bbf3d657854427343f4c083240f7aacaa2d0f62910160405180910390a4610e16848a8a86868a611161565b610e24848a8a8a8a8a6114df565b505050505050505050565b60005b8351811015610b4857600060066000868481518110610e5357610e53611d28565b6020908102919091018101518252810191909152604001600020546001600160a01b0316905080610e84575061114f565b60008190506000826001600160a01b0316637d884c746040518163ffffffff1660e01b8152600401602060405180830381865afa158015610ec9573d6000803e3d6000fd5b505050506040513d601f19601f82011682018060405250810190610eed9190611e3d565b60408051808201825260088152676275696c64696e6760c01b6020909101526005549051633aefa00d60e21b81529192507f010b6fd4eff8a0ca8c7925f2d29e6173e90462d56ae99e39fa817c79f4028518916001600160a01b039091169063ebbe803490610f629085908d90600401611e56565b602060405180830381865afa158015610f7f573d6000803e3d6000fd5b505050506040513d601f19601f82011682018060405250810190610fa39190611e3d565b1480156110715750816001600160a01b031663e05ab4986040518163ffffffff1660e01b8152600401602060405180830381865afa158015610fe9573d6000803e3d6000fd5b505050506040513d601f19601f8201168201806040525081019061100d9190611e3d565b886001600160a01b031663e05ab4986040518163ffffffff1660e01b8152600401602060405180830381865afa15801561104b573d6000803e3d6000fd5b505050506040513d601f19601f8201168201806040525081019061106f9190611e3d565b145b1561108f5760405163cbb2164760e01b815260040160405180910390fd5b604051631ede8aff60e21b81526001600160a01b03831690637b7a2bfc906110bb908c906004016119e8565b600060405180830381600087803b1580156110d557600080fd5b505af11580156110e9573d6000803e3d6000fd5b5050604051631ede8aff60e21b81526001600160a01b0385169250637b7a2bfc9150611119908b906004016119e8565b600060405180830381600087803b15801561113357600080fd5b505af1158015611147573d6000803e3d6000fd5b505050505050505b8061115981611d54565b915050610e32565b60005b8351811015610b485760006004600086848151811061118557611185611d28565b60200260200101518152602001908152602001600020905060006001600160a01b0316876001600160a01b0316141580156111d357506111d18786848151811061056557610565611d28565b155b156111e4576111e2818861159a565b505b6111ee81876115af565b5060006006600087858151811061120757611207611d28565b6020908102919091018101518252810191909152604001600020546001600160a01b0316905080156112c957806001600160a01b031663152d9483898988878151811061125657611256611d28565b60209081029190910101516040516001600160e01b031960e086901b1681526001600160a01b0393841660048201529290911660248301526044820152606401600060405180830381600087803b1580156112b057600080fd5b505af11580156112c4573d6000803e3d6000fd5b505050505b505080806112d690611d54565b915050611164565b6001600160a01b0384163b156109085760405163bc197c8160e01b81526001600160a01b0385169063bc197c81906113229089908990889088908890600401611f77565b6020604051808303816000875af192505050801561135d575060408051601f3d908101601f1916820190925261135a91810190611fd5565b60015b61140957611369611ff2565b806308c379a0036113a2575061137d61200e565b8061138857506113a4565b8060405162461bcd60e51b815260040161031c91906117d9565b505b60405162461bcd60e51b815260206004820152603460248201527f455243313135353a207472616e7366657220746f206e6f6e20455243313135356044820152732932b1b2b4bb32b91034b6b83632b6b2b73a32b960611b606482015260840161031c565b6001600160e01b0319811663bc197c8160e01b14610b485760405162461bcd60e51b815260040161031c90612097565b60608160000180548060200260200160405190810160405280929190818152602001828054801561042657602002820191906000526020600020905b8154815260200190600101908083116114755750505050509050919050565b604080516001808252818301909252606091600091906020808301908036833701905050905082816000815181106114ce576114ce611d28565b602090810291909101015292915050565b6001600160a01b0384163b156109085760405163f23a6e6160e01b81526001600160a01b0385169063f23a6e619061152390899089908890889088906004016120df565b6020604051808303816000875af192505050801561155e575060408051601f3d908101601f1916820190925261155b91810190611fd5565b60015b61156a57611369611ff2565b6001600160e01b0319811663f23a6e6160e01b14610b485760405162461bcd60e51b815260040161031c90612097565b600061091d836001600160a01b0384166115c4565b600061091d836001600160a01b0384166116b7565b600081815260018301602052604081205480156116ad5760006115e8600183612124565b85549091506000906115fc90600190612124565b905081811461166157600086600001828154811061161c5761161c611d28565b906000526020600020015490508087600001848154811061163f5761163f611d28565b6000918252602080832090910192909255918252600188019052604090208390555b855486908061167257611672612137565b600190038181906000526020600020016000905590558560010160008681526020019081526020016000206000905560019350505050610348565b6000915050610348565b60008181526001830160205260408120546116fe57508154600181810184556000848152602080822090930184905584548482528286019093526040902091909155610348565b506000610348565b80356001600160a01b038116811461062057600080fd5b6000806040838503121561173057600080fd5b61173983611706565b946020939093013593505050565b6001600160e01b03198116811461065957600080fd5b60006020828403121561176f57600080fd5b813561091d81611747565b60006020828403121561178c57600080fd5b5035919050565b6000815180845260005b818110156117b95760208185018101518683018201520161179d565b506000602082860101526020601f19601f83011685010191505092915050565b60208152600061091d6020830184611793565b634e487b7160e01b600052604160045260246000fd5b601f8201601f191681016001600160401b0381118282101715611827576118276117ec565b6040525050565b60006001600160401b03821115611847576118476117ec565b5060051b60200190565b600082601f83011261186257600080fd5b8135602061186f8261182e565b60405161187c8282611802565b83815260059390931b850182019282810191508684111561189c57600080fd5b8286015b848110156118b757803583529183019183016118a0565b509695505050505050565b60006001600160401b038311156118db576118db6117ec565b6040516118f2601f8501601f191660200182611802565b80915083815284848401111561190757600080fd5b83836020830137600060208583010152509392505050565b600082601f83011261193057600080fd5b61091d838335602085016118c2565b600080600080600060a0868803121561195757600080fd5b61196086611706565b945061196e60208701611706565b935060408601356001600160401b038082111561198a57600080fd5b61199689838a01611851565b945060608801359150808211156119ac57600080fd5b6119b889838a01611851565b935060808801359150808211156119ce57600080fd5b506119db8882890161191f565b9150509295509295909350565b6001600160a01b0391909116815260200190565b60008060408385031215611a0f57600080fd5b82356001600160401b0380821115611a2657600080fd5b818501915085601f830112611a3a57600080fd5b81356020611a478261182e565b604051611a548282611802565b83815260059390931b8501820192828101915089841115611a7457600080fd5b948201945b83861015611a9957611a8a86611706565b82529482019490820190611a79565b96505086013592505080821115611aaf57600080fd5b50611abc85828601611851565b9150509250929050565b600081518084526020808501945080840160005b83811015611af657815187529582019590820190600101611ada565b509495945050505050565b60208152600061091d6020830184611ac6565b6020808252825182820181905260009190848201906040850190845b81811015611b555783516001600160a01b031683529284019291840191600101611b30565b50909695505050505050565b600060208284031215611b7357600080fd5b61091d82611706565b60008060408385031215611b8f57600080fd5b611b9883611706565b915060208301358015158114611bad57600080fd5b809150509250929050565b600060208284031215611bca57600080fd5b81356001600160401b03811115611be057600080fd5b8201601f81018413611bf157600080fd5b611c00848235602084016118c2565b949350505050565b60008060408385031215611c1b57600080fd5b611c2483611706565b9150611c3260208401611706565b90509250929050565b600080600080600060a08688031215611c5357600080fd5b611c5c86611706565b9450611c6a60208701611706565b9350604086013592506060860135915060808601356001600160401b03811115611c9357600080fd5b6119db8882890161191f565b600181811c90821680611cb357607f821691505b602082108103611cd357634e487b7160e01b600052602260045260246000fd5b50919050565b6020808252602f908201527f455243313135353a2063616c6c6572206973206e6f7420746f6b656e206f776e60408201526e195c881b9bdc88185c1c1c9bdd9959608a1b606082015260800190565b634e487b7160e01b600052603260045260246000fd5b634e487b7160e01b600052601160045260246000fd5b600060018201611d6657611d66611d3e565b5060010190565b8082018082111561034857610348611d3e565b60208082526025908201527f455243313135353a207472616e7366657220746f20746865207a65726f206164604082015264647265737360d81b606082015260800190565b6020808252602a908201527f455243313135353a20696e73756666696369656e742062616c616e636520666f60408201526939103a3930b739b332b960b11b606082015260800190565b604081526000611e226040830185611ac6565b8281036020840152611e348185611ac6565b95945050505050565b600060208284031215611e4f57600080fd5b5051919050565b9182526001600160a01b0316602082015260400190565b601f821115611eb357600081815260208120601f850160051c81016020861015611e945750805b601f850160051c820191505b8181101561090857828155600101611ea0565b505050565b81516001600160401b03811115611ed157611ed16117ec565b611ee581611edf8454611c9f565b84611e6d565b602080601f831160018114611f1a5760008415611f025750858301515b600019600386901b1c1916600185901b178555610908565b600085815260208120601f198616915b82811015611f4957888601518255948401946001909101908401611f2a565b5085821015611f675787850151600019600388901b60f8161c191681555b5050505050600190811b01905550565b6001600160a01b0386811682528516602082015260a060408201819052600090611fa390830186611ac6565b8281036060840152611fb58186611ac6565b90508281036080840152611fc98185611793565b98975050505050505050565b600060208284031215611fe757600080fd5b815161091d81611747565b600060033d111561200b5760046000803e5060005160e01c5b90565b600060443d101561201c5790565b6040516003193d81016004833e81513d6001600160401b03816024840111818411171561204b57505050505090565b82850191508151818111156120635750505050505090565b843d870101602082850101111561207d5750505050505090565b61208c60208286010187611802565b509095945050505050565b60208082526028908201527f455243313135353a204552433131353552656365697665722072656a656374656040820152676420746f6b656e7360c01b606082015260800190565b6001600160a01b03868116825285166020820152604081018490526060810183905260a06080820181905260009061211990830184611793565b979650505050505050565b8181038181111561034857610348611d3e565b634e487b7160e01b600052603160045260246000fdfea2646970667358221220150f31a3240ec3c953be3bf17a74ead532e5eeb6146db868a88fab8c25fce92564736f6c63430008140033",
  "devdoc": {
    "events": {
      "ApprovalForAll(address,address,bool)": {
        "details": "Emitted when `account` grants or revokes permission to `operator` to transfer their tokens, according to `approved`."
      },
      "TransferBatch(address,address,address,uint256[],uint256[])": {
        "details": "Equivalent to multiple {TransferSingle} events, where `operator`, `from` and `to` are the same for all transfers."
      },
      "TransferSingle(address,address,address,uint256,uint256)": {
        "details": "Emitted when `value` tokens of token type `id` are transferred from `from` to `to` by `operator`."
      },
      "URI(string,uint256)": {
        "details": "Emitted when the URI for token type `id` changes to `value`, if it is a non-programmatic URI. If an {URI} event was emitted for `id`, the standard https://eips.ethereum.org/EIPS/eip-1155#metadata-extensions[guarantees] that `value` will equal the value returned by {IERC1155MetadataURI-uri}."
      }
    },
    "kind": "dev",
    "methods": {
      "balanceOf(address,uint256)": {
        "details": "See {IERC1155-balanceOf}. Requirements: - `account` cannot be the zero address."
      },
      "balanceOfBatch(address[],uint256[])": {
        "details": "See {IERC1155-balanceOfBatch}. Requirements: - `accounts` and `ids` must have the same length."
      },
      "getDistributionReceivers(uint256)": {
        "details": "@param distributionId Distribution id",
        "returns": {
          "_0": "An array of receivers"
        }
      },
      "getItemsPerNft()": {
        "details": "Used to determine percent holdings",
        "returns": {
          "_0": "Items per nft"
        }
      },
      "isApprovedForAll(address,address)": {
        "details": "See {IERC1155-isApprovedForAll}."
      },
      "mint(address)": {
        "details": "Can be called only by world asset from active era",
        "params": {
          "to": "An address which will receive new nft"
        },
        "returns": {
          "_0": "Newly minted distribution id"
        }
      },
      "owner()": {
        "details": "Returns the address of the current owner."
      },
      "renounceOwnership()": {
        "details": "Leaves the contract without owner. It will not be possible to call `onlyOwner` functions anymore. Can only be called by the current owner. NOTE: Renouncing ownership will leave the contract without an owner, thereby removing any functionality that is only available to the owner."
      },
      "safeBatchTransferFrom(address,address,uint256[],uint256[],bytes)": {
        "details": "See {IERC1155-safeBatchTransferFrom}."
      },
      "safeTransferFrom(address,address,uint256,uint256,bytes)": {
        "details": "See {IERC1155-safeTransferFrom}."
      },
      "setApprovalForAll(address,bool)": {
        "details": "See {IERC1155-setApprovalForAll}."
      },
      "supportsInterface(bytes4)": {
        "details": "See {IERC165-supportsInterface}."
      },
      "transferOwnership(address)": {
        "details": "Transfers ownership of the contract to a new account (`newOwner`). Can only be called by the current owner."
      },
      "updateURI(string)": {
        "details": "Only owner can modify token uri"
      },
      "uri(uint256)": {
        "details": "See {IERC1155MetadataURI-uri}. This implementation returns the same URI for *all* token types. It relies on the token type ID substitution mechanism https://eips.ethereum.org/EIPS/eip-1155#metadata[defined in the EIP]. Clients calling this function must replace the `\\{id\\}` substring with the actual token type ID."
      }
    },
    "stateVariables": {
      "distributionIdToBuildingAddress": {
        "details": "Updated when #mint is called"
      },
      "distributionReceivers": {
        "details": "Contains set of holders for specified nft id"
      },
      "lastDistributionId": {
        "details": "Updated when #mint is called"
      },
      "world": {
        "details": "Immutable, initialized on creation"
      }
    },
    "version": 1
  },
  "userdoc": {
    "errors": {
      "CannotTransferDistributionSharesToBuildingOfSameBuildingType()": [
        {
          "notice": "Thrown when attempting to transfer distribution shares of building to building with equal building types (ex. farm to farm)"
        }
      ],
      "OnlyWorldAssetFromSameEra()": [
        {
          "notice": "Thrown when attempting to call method by not world asset from same era"
        }
      ]
    },
    "kind": "user",
    "methods": {
      "distributionIdToBuildingAddress(uint256)": {
        "notice": "Mapping containing distribution id to assigned building address"
      },
      "getDistributionReceivers(uint256)": {
        "notice": "Returns set of receivers as an array"
      },
      "getItemsPerNft()": {
        "notice": "Returns items per nft"
      },
      "lastDistributionId()": {
        "notice": "Last nft token id"
      },
      "mint(address)": {
        "notice": "Mints new distribution Nft to specified address"
      },
      "updateURI(string)": {
        "notice": "Updates token uri"
      },
      "world()": {
        "notice": "World"
      }
    },
    "version": 1
  },
  "storageLayout": {
    "storage": [
      {
        "astId": 329,
        "contract": "contracts/core/distributions/Distributions.sol:Distributions",
        "label": "_balances",
        "offset": 0,
        "slot": "0",
        "type": "t_mapping(t_uint256,t_mapping(t_address,t_uint256))"
      },
      {
        "astId": 335,
        "contract": "contracts/core/distributions/Distributions.sol:Distributions",
        "label": "_operatorApprovals",
        "offset": 0,
        "slot": "1",
        "type": "t_mapping(t_address,t_mapping(t_address,t_bool))"
      },
      {
        "astId": 337,
        "contract": "contracts/core/distributions/Distributions.sol:Distributions",
        "label": "_uri",
        "offset": 0,
        "slot": "2",
        "type": "t_string_storage"
      },
      {
        "astId": 7,
        "contract": "contracts/core/distributions/Distributions.sol:Distributions",
        "label": "_owner",
        "offset": 0,
        "slot": "3",
        "type": "t_address"
      },
      {
        "astId": 34401,
        "contract": "contracts/core/distributions/Distributions.sol:Distributions",
        "label": "distributionReceivers",
        "offset": 0,
        "slot": "4",
        "type": "t_mapping(t_uint256,t_struct(AddressSet)5997_storage)"
      },
      {
        "astId": 34406,
        "contract": "contracts/core/distributions/Distributions.sol:Distributions",
        "label": "world",
        "offset": 0,
        "slot": "5",
        "type": "t_contract(IWorld)8441"
      },
      {
        "astId": 34412,
        "contract": "contracts/core/distributions/Distributions.sol:Distributions",
        "label": "distributionIdToBuildingAddress",
        "offset": 0,
        "slot": "6",
        "type": "t_mapping(t_uint256,t_address)"
      },
      {
        "astId": 34416,
        "contract": "contracts/core/distributions/Distributions.sol:Distributions",
        "label": "lastDistributionId",
        "offset": 0,
        "slot": "7",
        "type": "t_uint256"
      }
    ],
    "types": {
      "t_address": {
        "encoding": "inplace",
        "label": "address",
        "numberOfBytes": "20"
      },
      "t_array(t_bytes32)dyn_storage": {
        "base": "t_bytes32",
        "encoding": "dynamic_array",
        "label": "bytes32[]",
        "numberOfBytes": "32"
      },
      "t_bool": {
        "encoding": "inplace",
        "label": "bool",
        "numberOfBytes": "1"
      },
      "t_bytes32": {
        "encoding": "inplace",
        "label": "bytes32",
        "numberOfBytes": "32"
      },
      "t_contract(IWorld)8441": {
        "encoding": "inplace",
        "label": "contract IWorld",
        "numberOfBytes": "20"
      },
      "t_mapping(t_address,t_bool)": {
        "encoding": "mapping",
        "key": "t_address",
        "label": "mapping(address => bool)",
        "numberOfBytes": "32",
        "value": "t_bool"
      },
      "t_mapping(t_address,t_mapping(t_address,t_bool))": {
        "encoding": "mapping",
        "key": "t_address",
        "label": "mapping(address => mapping(address => bool))",
        "numberOfBytes": "32",
        "value": "t_mapping(t_address,t_bool)"
      },
      "t_mapping(t_address,t_uint256)": {
        "encoding": "mapping",
        "key": "t_address",
        "label": "mapping(address => uint256)",
        "numberOfBytes": "32",
        "value": "t_uint256"
      },
      "t_mapping(t_bytes32,t_uint256)": {
        "encoding": "mapping",
        "key": "t_bytes32",
        "label": "mapping(bytes32 => uint256)",
        "numberOfBytes": "32",
        "value": "t_uint256"
      },
      "t_mapping(t_uint256,t_address)": {
        "encoding": "mapping",
        "key": "t_uint256",
        "label": "mapping(uint256 => address)",
        "numberOfBytes": "32",
        "value": "t_address"
      },
      "t_mapping(t_uint256,t_mapping(t_address,t_uint256))": {
        "encoding": "mapping",
        "key": "t_uint256",
        "label": "mapping(uint256 => mapping(address => uint256))",
        "numberOfBytes": "32",
        "value": "t_mapping(t_address,t_uint256)"
      },
      "t_mapping(t_uint256,t_struct(AddressSet)5997_storage)": {
        "encoding": "mapping",
        "key": "t_uint256",
        "label": "mapping(uint256 => struct EnumerableSet.AddressSet)",
        "numberOfBytes": "32",
        "value": "t_struct(AddressSet)5997_storage"
      },
      "t_string_storage": {
        "encoding": "bytes",
        "label": "string",
        "numberOfBytes": "32"
      },
      "t_struct(AddressSet)5997_storage": {
        "encoding": "inplace",
        "label": "struct EnumerableSet.AddressSet",
        "members": [
          {
            "astId": 5996,
            "contract": "contracts/core/distributions/Distributions.sol:Distributions",
            "label": "_inner",
            "offset": 0,
            "slot": "0",
            "type": "t_struct(Set)5696_storage"
          }
        ],
        "numberOfBytes": "64"
      },
      "t_struct(Set)5696_storage": {
        "encoding": "inplace",
        "label": "struct EnumerableSet.Set",
        "members": [
          {
            "astId": 5691,
            "contract": "contracts/core/distributions/Distributions.sol:Distributions",
            "label": "_values",
            "offset": 0,
            "slot": "0",
            "type": "t_array(t_bytes32)dyn_storage"
          },
          {
            "astId": 5695,
            "contract": "contracts/core/distributions/Distributions.sol:Distributions",
            "label": "_indexes",
            "offset": 0,
            "slot": "1",
            "type": "t_mapping(t_bytes32,t_uint256)"
          }
        ],
        "numberOfBytes": "64"
      },
      "t_uint256": {
        "encoding": "inplace",
        "label": "uint256",
        "numberOfBytes": "32"
      }
    }
  }
}