{
  "address": "0xF40B411c206AcC0bd6E6e04256Be3F8b3F1Fdc90",
  "abi": [
    {
      "inputs": [],
      "name": "EraCannotActivateNotIncludedRegion",
      "type": "error"
    },
    {
      "inputs": [],
      "name": "EraCannotActivateRegionMoreThanOnce",
      "type": "error"
    },
    {
      "inputs": [],
      "name": "OnlyActiveGame",
      "type": "error"
    },
    {
      "inputs": [],
      "name": "OnlyMightyCreator",
      "type": "error"
    },
    {
      "inputs": [],
      "name": "OnlyWorldAssetFromSameEra",
      "type": "error"
    },
    {
      "inputs": [],
      "name": "UserSettlementCannotBeCreatedIfBannerNftIdIsAlreadyTakenByAnotherSettlement",
      "type": "error"
    },
    {
      "inputs": [],
      "name": "UserSettlementCannotBeCreatedInInactiveEra",
      "type": "error"
    },
    {
      "inputs": [],
      "name": "UserSettlementCannotBeCreatedInRegionWithMaximumAllowedSettlements",
      "type": "error"
    },
    {
      "inputs": [],
      "name": "UserSettlementCannotBeCreatedOnPositionWhichIsNotConnectedToAnotherSettlement",
      "type": "error"
    },
    {
      "inputs": [],
      "name": "UserSettlementCannotBeCreatedOnPositionWhichIsToCloseToAnotherSettlement",
      "type": "error"
    },
    {
      "inputs": [],
      "name": "UserSettlementCannotBeCreatedOnPositionWithAnotherSettlement",
      "type": "error"
    },
    {
      "inputs": [],
      "name": "UserSettlementCannotBeRestoredFromInactiveEra",
      "type": "error"
    },
    {
      "inputs": [],
      "name": "UserSettlementCannotBeRestoredIfItsRotten",
      "type": "error"
    },
    {
      "anonymous": false,
      "inputs": [
        {
          "indexed": false,
          "internalType": "uint8",
          "name": "version",
          "type": "uint8"
        }
      ],
      "name": "Initialized",
      "type": "event"
    },
    {
      "anonymous": false,
      "inputs": [
        {
          "indexed": false,
          "internalType": "address",
          "name": "prosperityAddress",
          "type": "address"
        }
      ],
      "name": "ProsperityCreated",
      "type": "event"
    },
    {
      "anonymous": false,
      "inputs": [
        {
          "indexed": false,
          "internalType": "address",
          "name": "regionAddress",
          "type": "address"
        },
        {
          "indexed": false,
          "internalType": "uint256",
          "name": "regionId",
          "type": "uint256"
        }
      ],
      "name": "RegionActivated",
      "type": "event"
    },
    {
      "anonymous": false,
      "inputs": [
        {
          "indexed": false,
          "internalType": "address",
          "name": "resourceAddress",
          "type": "address"
        },
        {
          "indexed": false,
          "internalType": "bytes32",
          "name": "resourceTypeId",
          "type": "bytes32"
        }
      ],
      "name": "ResourceCreated",
      "type": "event"
    },
    {
      "anonymous": false,
      "inputs": [
        {
          "indexed": false,
          "internalType": "address",
          "name": "settlementAddress",
          "type": "address"
        },
        {
          "indexed": false,
          "internalType": "bytes32",
          "name": "assetTypeId",
          "type": "bytes32"
        },
        {
          "indexed": false,
          "internalType": "address",
          "name": "regionAddress",
          "type": "address"
        },
        {
          "indexed": false,
          "internalType": "uint64",
          "name": "position",
          "type": "uint64"
        },
        {
          "indexed": false,
          "internalType": "uint256",
          "name": "bannerId",
          "type": "uint256"
        }
      ],
      "name": "SettlementCreated",
      "type": "event"
    },
    {
      "anonymous": false,
      "inputs": [
        {
          "indexed": false,
          "internalType": "address",
          "name": "settlementAddress",
          "type": "address"
        },
        {
          "indexed": false,
          "internalType": "uint64",
          "name": "position",
          "type": "uint64"
        }
      ],
      "name": "SettlementRestored",
      "type": "event"
    },
    {
      "anonymous": false,
      "inputs": [
        {
          "indexed": false,
          "internalType": "address",
          "name": "tileCapturingSystemAddress",
          "type": "address"
        }
      ],
      "name": "TileCapturingSystemCreated",
      "type": "event"
    },
    {
      "anonymous": false,
      "inputs": [
        {
          "indexed": false,
          "internalType": "uint256",
          "name": "newTotalCultists",
          "type": "uint256"
        }
      ],
      "name": "TotalCultistsChanged",
      "type": "event"
    },
    {
      "anonymous": false,
      "inputs": [
        {
          "indexed": false,
          "internalType": "address",
          "name": "unitsAddress",
          "type": "address"
        },
        {
          "indexed": false,
          "internalType": "bytes32",
          "name": "unitTypeId",
          "type": "bytes32"
        }
      ],
      "name": "UnitsCreated",
      "type": "event"
    },
    {
      "anonymous": false,
      "inputs": [
        {
          "indexed": false,
          "internalType": "address",
          "name": "workersAddress",
          "type": "address"
        }
      ],
      "name": "WorkersCreated",
      "type": "event"
    },
    {
      "inputs": [
        {
          "internalType": "uint64",
          "name": "regionId",
          "type": "uint64"
        }
      ],
      "name": "activateRegion",
      "outputs": [],
      "stateMutability": "nonpayable",
      "type": "function"
    },
    {
      "inputs": [],
      "name": "assetGroupId",
      "outputs": [
        {
          "internalType": "bytes32",
          "name": "",
          "type": "bytes32"
        }
      ],
      "stateMutability": "view",
      "type": "function"
    },
    {
      "inputs": [],
      "name": "assetTypeId",
      "outputs": [
        {
          "internalType": "bytes32",
          "name": "",
          "type": "bytes32"
        }
      ],
      "stateMutability": "view",
      "type": "function"
    },
    {
      "inputs": [
        {
          "internalType": "uint256",
          "name": "bannerId",
          "type": "uint256"
        },
        {
          "internalType": "uint64",
          "name": "position",
          "type": "uint64"
        },
        {
          "internalType": "uint64",
          "name": "regionId",
          "type": "uint64"
        },
        {
          "internalType": "bytes32",
          "name": "assetTypeId",
          "type": "bytes32"
        }
      ],
      "name": "createSettlementByType",
      "outputs": [
        {
          "internalType": "address",
          "name": "",
          "type": "address"
        }
      ],
      "stateMutability": "nonpayable",
      "type": "function"
    },
    {
      "inputs": [
        {
          "internalType": "uint64",
          "name": "position",
          "type": "uint64"
        },
        {
          "internalType": "uint64",
          "name": "regionId",
          "type": "uint64"
        },
        {
          "internalType": "uint256",
          "name": "bannerId",
          "type": "uint256"
        }
      ],
      "name": "createUserSettlement",
      "outputs": [
        {
          "internalType": "address",
          "name": "",
          "type": "address"
        }
      ],
      "stateMutability": "nonpayable",
      "type": "function"
    },
    {
      "inputs": [],
      "name": "creationTime",
      "outputs": [
        {
          "internalType": "uint256",
          "name": "",
          "type": "uint256"
        }
      ],
      "stateMutability": "view",
      "type": "function"
    },
    {
      "inputs": [
        {
          "internalType": "uint256",
          "name": "value",
          "type": "uint256"
        }
      ],
      "name": "decreaseTotalCultists",
      "outputs": [],
      "stateMutability": "nonpayable",
      "type": "function"
    },
    {
      "inputs": [],
      "name": "era",
      "outputs": [
        {
          "internalType": "contract IEra",
          "name": "",
          "type": "address"
        }
      ],
      "stateMutability": "view",
      "type": "function"
    },
    {
      "inputs": [],
      "name": "eraNumber",
      "outputs": [
        {
          "internalType": "uint256",
          "name": "",
          "type": "uint256"
        }
      ],
      "stateMutability": "view",
      "type": "function"
    },
    {
      "inputs": [
        {
          "internalType": "uint256",
          "name": "value",
          "type": "uint256"
        }
      ],
      "name": "increaseTotalCultists",
      "outputs": [],
      "stateMutability": "nonpayable",
      "type": "function"
    },
    {
      "inputs": [
        {
          "internalType": "bytes",
          "name": "initParams",
          "type": "bytes"
        }
      ],
      "name": "init",
      "outputs": [],
      "stateMutability": "nonpayable",
      "type": "function"
    },
    {
      "inputs": [],
      "name": "prosperity",
      "outputs": [
        {
          "internalType": "contract IProsperity",
          "name": "",
          "type": "address"
        }
      ],
      "stateMutability": "view",
      "type": "function"
    },
    {
      "inputs": [
        {
          "internalType": "uint64",
          "name": "",
          "type": "uint64"
        }
      ],
      "name": "regions",
      "outputs": [
        {
          "internalType": "contract IRegion",
          "name": "",
          "type": "address"
        }
      ],
      "stateMutability": "view",
      "type": "function"
    },
    {
      "inputs": [],
      "name": "registry",
      "outputs": [
        {
          "internalType": "contract IRegistry",
          "name": "",
          "type": "address"
        }
      ],
      "stateMutability": "view",
      "type": "function"
    },
    {
      "inputs": [
        {
          "internalType": "bytes32",
          "name": "",
          "type": "bytes32"
        }
      ],
      "name": "resources",
      "outputs": [
        {
          "internalType": "contract IResource",
          "name": "",
          "type": "address"
        }
      ],
      "stateMutability": "view",
      "type": "function"
    },
    {
      "inputs": [
        {
          "internalType": "uint64",
          "name": "position",
          "type": "uint64"
        }
      ],
      "name": "restoreUserSettlement",
      "outputs": [],
      "stateMutability": "nonpayable",
      "type": "function"
    },
    {
      "inputs": [
        {
          "internalType": "uint256",
          "name": "",
          "type": "uint256"
        }
      ],
      "name": "settlementByBannerId",
      "outputs": [
        {
          "internalType": "contract ISettlement",
          "name": "",
          "type": "address"
        }
      ],
      "stateMutability": "view",
      "type": "function"
    },
    {
      "inputs": [
        {
          "internalType": "uint64",
          "name": "",
          "type": "uint64"
        }
      ],
      "name": "settlementByPosition",
      "outputs": [
        {
          "internalType": "contract ISettlement",
          "name": "",
          "type": "address"
        }
      ],
      "stateMutability": "view",
      "type": "function"
    },
    {
      "inputs": [],
      "name": "tileCapturingSystem",
      "outputs": [
        {
          "internalType": "contract ITileCapturingSystem",
          "name": "",
          "type": "address"
        }
      ],
      "stateMutability": "view",
      "type": "function"
    },
    {
      "inputs": [],
      "name": "totalCultists",
      "outputs": [
        {
          "internalType": "uint256",
          "name": "",
          "type": "uint256"
        }
      ],
      "stateMutability": "view",
      "type": "function"
    },
    {
      "inputs": [
        {
          "internalType": "bytes32",
          "name": "",
          "type": "bytes32"
        }
      ],
      "name": "units",
      "outputs": [
        {
          "internalType": "contract IUnits",
          "name": "",
          "type": "address"
        }
      ],
      "stateMutability": "view",
      "type": "function"
    },
    {
      "inputs": [],
      "name": "workers",
      "outputs": [
        {
          "internalType": "contract IWorkers",
          "name": "",
          "type": "address"
        }
      ],
      "stateMutability": "view",
      "type": "function"
    },
    {
      "inputs": [],
      "name": "world",
      "outputs": [
        {
          "internalType": "contract IWorld",
          "name": "",
          "type": "address"
        }
      ],
      "stateMutability": "view",
      "type": "function"
    },
    {
      "inputs": [],
      "name": "worldAssetFactory",
      "outputs": [
        {
          "internalType": "contract IWorldAssetFactory",
          "name": "",
          "type": "address"
        }
      ],
      "stateMutability": "view",
      "type": "function"
    }
  ],
  "transactionHash": "0x13a38ba387e2ee87b6aa2c92b787e35a8cab5aa2c91984f0eb452e4e91e2018d",
  "args": [],
  "numDeployments": 1,
  "solcInputHash": "2627c9fa14fa5cb6e37bf26f5785fa8b",
  "bytecode": "0x608060405234801561001057600080fd5b50612aa8806100206000396000f3fe608060405234801561001057600080fd5b50600436106101385760003560e01c8063c096b3f7116100b3578063c096b3f714610217578063c4c31e851461022a578063c5375e9914610253578063c91b95661461027c578063cabb62f01461028f578063d653a66a146102a2578063d6ea8dc3146102b5578063d8270dce146102c8578063ebe63ec8146102d1578063ece56a1a146102fa578063fcc814b014610302578063feae7dc31461030b57600080fd5b80630b4e99c31461013d578063143e55e01461015857806329dfc8a51461016d5780632c4613dc1461018257806330b67baa146101955780634ddf47d41461019d578063558c31ce146101b05780637b103999146101c35780637d884c74146101cb57806384ba89e3146101d35780638b68214d146101db578063912929df146101ee575b600080fd5b610145610334565b6040519081526020015b60405180910390f35b610160610371565b60405161014f91906123c9565b61018061017b3660046123f5565b6103f5565b005b600a54610160906001600160a01b031681565b610160610709565b6101806101ab366004612486565b610713565b6101806101be366004612505565b610bb2565b610160610c0a565b610145610c51565b610145610c8e565b6101806101e93660046123f5565b610ccb565b6101606101fc366004612505565b6008602052600090815260409020546001600160a01b031681565b610180610225366004612505565b6110eb565b6101606102383660046123f5565b6002602052600090815260409020546001600160a01b031681565b6101606102613660046123f5565b6001602052600090815260409020546001600160a01b031681565b600754610160906001600160a01b031681565b600654610160906001600160a01b031681565b6101606102b036600461251e565b611105565b6101606102c336600461255f565b61159a565b61014560055481565b6101606102df366004612505565b6003602052600090815260409020546001600160a01b031681565b610160611818565b61014560045481565b610160610319366004612505565b6009602052600090815260409020546001600160a01b031681565b604080516020808252818301909252600091309183918291906020820181803683370190505090506020607a60208301853c602001519392505050565b600061037b610709565b6001600160a01b031663720a70bd610391610c51565b6040518263ffffffff1660e01b81526004016103af91815260200190565b602060405180830381865afa1580156103cc573d6000803e3d6000fd5b505050506040513d601f19601f820116820180604052508101906103f091906125bc565b905090565b6001600160401b0381166000908152600160205260409020546001600160a01b03161561043557604051637de3a75b60e11b815260040160405180910390fd5b61043d610709565b6001600160a01b031663f5f026a36040518163ffffffff1660e01b8152600401602060405180830381865afa15801561047a573d6000803e3d6000fd5b505050506040513d601f19601f8201168201806040525081019061049e91906125bc565b6001600160a01b03166365668c5a826040518263ffffffff1660e01b81526004016104c991906125d9565b602060405180830381865afa1580156104e6573d6000803e3d6000fd5b505050506040513d601f19601f8201168201806040525081019061050a9190612602565b61052757604051633a3887a560e11b815260040160405180910390fd5b6000610531611818565b6001600160a01b031663c19755fd610547610709565b61054f610c51565b60408051808201825260068152653932b3b4b7b760d11b602091820152815180830183526005815264424153494360d81b9082015290517f04fa4af4920f7d24ca3096947bd17e47d5f138126bc597199d0ce383188e700991600080516020612a53833981519152916105c4918a91016125d9565b6040516020818303038152906040526040518663ffffffff1660e01b81526004016105f395949392919061266d565b6020604051808303816000875af1158015610612573d6000803e3d6000fd5b505050506040513d601f19601f8201168201806040525081019061063691906125bc565b6001600160401b0383166000908152600160205260409081902080546001600160a01b0319166001600160a01b0384161790555190915081907f6d7eaafe6ca1a9953fcf80e67d9581b2adcb02d91c66c17c46d39211f06113cd9061069e90839086906126ab565b60405180910390a160405163d99d7d8160e01b81526001600160a01b0382169063d99d7d81906106d29086906004016125d9565b600060405180830381600087803b1580156106ec57600080fd5b505af1158015610700573d6000803e3d6000fd5b50505050505050565b60006103f061185f565b600054610100900460ff16158080156107335750600054600160ff909116105b8061074d5750303b15801561074d575060005460ff166001145b6107b45760405162461bcd60e51b815260206004820152602e60248201527f496e697469616c697a61626c653a20636f6e747261637420697320616c72656160448201526d191e481a5b9a5d1a585b1a5e995960921b606482015260840160405180910390fd5b6000805460ff1916600117905580156107d7576000805461ff0019166101001790555b4260055581516000906107f390840160209081019085016126cd565b905060006107ff610c0a565b6001600160a01b0316631dae21526040518163ffffffff1660e01b8152600401600060405180830381865afa15801561083c573d6000803e3d6000fd5b505050506040513d6000823e601f3d908101601f191682016040526108649190810190612838565b905060005b815181101561091957600082828151811061088657610886612880565b60200260200101519050600061089c828661189c565b604083810180516000908152600860205282902080546001600160a01b0319166001600160a01b0385161790555190519192507f9a7fe77d7d31a53bbf7b5d5b007916243804ad2717e5e2b6f15144f79912ace5916108fc918491612896565b60405180910390a150508080610911906128c5565b915050610869565b506000610924610c0a565b6001600160a01b031663426851b96040518163ffffffff1660e01b8152600401600060405180830381865afa158015610961573d6000803e3d6000fd5b505050506040513d6000823e601f3d908101601f191682016040526109899190810190612838565b905060005b8151811015610a3e5760008282815181106109ab576109ab612880565b6020026020010151905060006109c182876119bd565b604083810180516000908152600960205282902080546001600160a01b0319166001600160a01b0385161790555190519192507f3357c42a52a37cd452e72fa6d0719b00d055e010acc1cf9aca4bb79fd67e67de91610a21918491612896565b60405180910390a150508080610a36906128c5565b91505061098e565b506000610a4a84611a60565b600680546001600160a01b0319166001600160a01b0383161790556040519091507f9b4b02a4fc86363400ab2364e8dbd2162514be797103e84323447d8a647733c290610a989083906123c9565b60405180910390a16000610aab85611b5a565b600780546001600160a01b0319166001600160a01b0383161790556040519091507f1ab63186faee6524e01201749c3f482f2a221e9dcd660ac3c5c7c44026d097c890610af99083906123c9565b60405180910390a16000610b0c86611c14565b600a80546001600160a01b0319166001600160a01b0383161790556040519091507fb6bd208619a1c452a6c23bc255ecdbed68b60dcd586bb350d42cdacd4847014f90610b5a9083906123c9565b60405180910390a15050505050508015610bae576000805461ff0019169055604051600181527f7f26b83ff96e1f2b6a682f133852f6798a09c465da95921460cefb38474024989060200160405180910390a15b5050565b610bba611cd7565b8060046000828254610bcc91906128de565b90915550506004546040519081527f4900a9dc1c09a36a7cf858b3f2b1c047f0bf4f44ad5cd4427e80ca26b11ae0929060200160405180910390a150565b6000610c14610709565b6001600160a01b0316637b1039996040518163ffffffff1660e01b8152600401602060405180830381865afa1580156103cc573d6000803e3d6000fd5b604080516020808252818301909252600091309183918291906020820181803683370190505090506020609a60208301853c602001519392505050565b604080516020808252818301909252600091309183918291906020820181803683370190505090506020605a60208301853c602001519392505050565b610cd3611da3565b610cdb610709565b6001600160a01b031663704f63a16040518163ffffffff1660e01b8152600401602060405180830381865afa158015610d18573d6000803e3d6000fd5b505050506040513d601f19601f82011682018060405250810190610d3c91906126cd565b610d44610c51565b14610d6257604051631c2c6b6b60e01b815260040160405180910390fd5b6000610d6c610709565b6001600160a01b031663a8d66c756040518163ffffffff1660e01b8152600401602060405180830381865afa158015610da9573d6000803e3d6000fd5b505050506040513d601f19601f82011682018060405250810190610dcd91906125bc565b90506000816001600160a01b031663c4c31e85846040518263ffffffff1660e01b8152600401610dfd91906125d9565b602060405180830381865afa158015610e1a573d6000803e3d6000fd5b505050506040513d601f19601f82011682018060405250810190610e3e91906125bc565b9050806001600160a01b031663977a2d136040518163ffffffff1660e01b81526004016020604051808303816000875af1158015610e80573d6000803e3d6000fd5b505050506040513d601f19601f82011682018060405250810190610ea49190612602565b15610ec257604051631e7b0a4160e21b815260040160405180910390fd5b6000816001600160a01b031663d63a68ec6040518163ffffffff1660e01b8152600401602060405180830381865afa158015610f02573d6000803e3d6000fd5b505050506040513d601f19601f82011682018060405250810190610f2691906126cd565b9050600080610f33610709565b6001600160a01b031663f5f026a36040518163ffffffff1660e01b8152600401602060405180830381865afa158015610f70573d6000803e3d6000fd5b505050506040513d601f19601f82011682018060405250810190610f9491906125bc565b6001600160a01b0316630915dd5d876040518263ffffffff1660e01b8152600401610fbf91906125d9565b6040805180830381865afa158015610fdb573d6000803e3d6000fd5b505050506040513d601f19601f82011682018060405250810190610fff91906128f1565b6040805180820182526005815264424153494360d81b6020909101525163d6ea8dc360e01b81529193509150600090309063d6ea8dc3906110589087908b908890600080516020612a5383398151915290600401612926565b6020604051808303816000875af1158015611077573d6000803e3d6000fd5b505050506040513d601f19601f8201168201806040525081019061109b91906125bc565b90506110a986826000611ed4565b7f44cb97c4dc5db5966a23b37c4ed419b794425ecfc2b8c32576a0291071c598e581886040516110da9291906126ab565b60405180910390a150505050505050565b6110f3611cd7565b8060046000828254610bcc919061294b565b600061110f611cd7565b6000611119610709565b6001600160a01b031663f5f026a36040518163ffffffff1660e01b8152600401602060405180830381865afa158015611156573d6000803e3d6000fd5b505050506040513d601f19601f8201168201806040525081019061117a91906125bc565b90506000611186610709565b6001600160a01b031663a8d66c756040518163ffffffff1660e01b8152600401602060405180830381865afa1580156111c3573d6000803e3d6000fd5b505050506040513d601f19601f820116820180604052508101906111e791906125bc565b60405163c4c31e8560e01b81529091506000906001600160a01b0383169063c4c31e8590611219908a906004016125d9565b602060405180830381865afa158015611236573d6000803e3d6000fd5b505050506040513d601f19601f8201168201806040525081019061125a91906125bc565b6001600160a01b0316146112815760405163045342fb60e41b815260040160405180910390fd5b61128e82828860026120b0565b156112ac57604051636d558f3560e01b815260040160405180910390fd5b604051631d7cc7d960e31b8152600481018590526000906001600160a01b0383169063ebe63ec890602401602060405180830381865afa1580156112f4573d6000803e3d6000fd5b505050506040513d601f19601f8201168201806040525081019061131891906125bc565b6001600160a01b03161461133e5760405162af8e8960e31b815260040160405180910390fd5b611346610709565b6001600160a01b031663704f63a16040518163ffffffff1660e01b8152600401602060405180830381865afa158015611383573d6000803e3d6000fd5b505050506040513d601f19601f820116820180604052508101906113a791906126cd565b6113af610c51565b146113cd576040516364ac20a960e11b815260040160405180910390fd5b6113d5610c0a565b6001600160a01b031663205a7ec86040518163ffffffff1660e01b8152600401602060405180830381865afa158015611412573d6000803e3d6000fd5b505050506040513d601f19601f8201168201806040525081019061143691906126cd565b604051631373443d60e31b81526001600160a01b03831690639b9a21e8906114629089906004016125d9565b602060405180830381865afa15801561147f573d6000803e3d6000fd5b505050506040513d601f19601f820116820180604052508101906114a391906126cd565b036114c1576040516307e7dd6760e21b815260040160405180910390fd5b6114ce82828860036120f5565b6114eb576040516309f10f5960e41b815260040160405180910390fd5b6040805180820182526005815264424153494360d81b6020909101525163d6ea8dc360e01b8152600090309063d6ea8dc39061153f9088908b908b90600080516020612a5383398151915290600401612926565b6020604051808303816000875af115801561155e573d6000803e3d6000fd5b505050506040513d601f19601f8201168201806040525081019061158291906125bc565b905061159082826001611ed4565b9695505050505050565b60006115a4611cd7565b6001600160401b0383166000908152600160205260408120546001600160a01b0316906115cf611818565b6001600160a01b031663c19755fd6115e5610709565b6115ed610c51565b604080518082018252600a8152691cd95d1d1b195b595b9d60b21b60209182015281519081018d90526001600160a01b038816918101919091526001600160401b038b1660608201527f6522b1ac0c0c078f1fcc696b9cf72c59bb3624b7d2a9d82059b2f3832fd9973d9089906080016040516020818303038152906040526040518663ffffffff1660e01b815260040161168c95949392919061266d565b6020604051808303816000875af11580156116ab573d6000803e3d6000fd5b505050506040513d601f19601f820116820180604052508101906116cf91906125bc565b905060006116db610709565b6001600160a01b031663a8d66c756040518163ffffffff1660e01b8152600401602060405180830381865afa158015611718573d6000803e3d6000fd5b505050506040513d601f19601f8201168201806040525081019061173c91906125bc565b90506117488183612252565b600a5460405163e06ca91760e01b81526001600160a01b039091169063e06ca91790611778908a906004016125d9565b600060405180830381600087803b15801561179257600080fd5b505af11580156117a6573d6000803e3d6000fd5b5050604080516001600160a01b038681168252602082018a90528716818301526001600160401b038b166060820152608081018c905290517ff8953a2f0dae968b2f4e3bcece7df1227a8b512f046aa66b1dbaadb0efbc994093509081900360a0019150a1509150505b949350505050565b6000611822610c0a565b6001600160a01b031663ece56a1a6040518163ffffffff1660e01b8152600401602060405180830381865afa1580156103cc573d6000803e3d6000fd5b604080516014808252818301909252600091309183918291906020820181803683370190505090506014602a60208301853c601401519392505050565b60006118a6611818565b6001600160a01b031663c19755fd6118bc610709565b60408051808201825260088152677265736f7572636560c01b602091820152815180830183526005815264424153494360d81b9082015287518882015189840151935189947fb61e407d61f27eefb9ebf3cf25f5c7560bafafe518410eb7c781777da1102bd394600080516020612a53833981519152946119429490939092910161295e565b6040516020818303038152906040526040518663ffffffff1660e01b815260040161197195949392919061266d565b6020604051808303816000875af1158015611990573d6000803e3d6000fd5b505050506040513d601f19601f820116820180604052508101906119b491906125bc565b90505b92915050565b60006119c7611818565b6001600160a01b031663c19755fd6119dd610709565b604080518082018252600580825264756e69747360d81b6020928301528251808401845290815264424153494360d81b9082015287518882015189840151935189947f6ee7504b8b6b1f686066063d6ddcc2e2631964acb479aaf6090f46afb98a581d94600080516020612a53833981519152946119429490939092910161295e565b6000611a6a611818565b6001600160a01b031663c19755fd611a80610709565b6040805180820182526007815266776f726b65727360c81b602091820152815180830183526005815264424153494360d81b90820152815160008152908101918290526001600160e01b031960e085901b16909152611b17919086907f091da8adcebb1cfee436688986f1a45b70fee77307dce9107a667995c2bfe23b90600080516020612a53833981519152906024810161266d565b6020604051808303816000875af1158015611b36573d6000803e3d6000fd5b505050506040513d601f19601f820116820180604052508101906119b791906125bc565b6000611b64611818565b6001600160a01b031663c19755fd611b7a610709565b604080518082018252600a81526970726f7370657269747960b01b602091820152815180830183526005815264424153494360d81b90820152815160008152908101918290526001600160e01b031960e085901b16909152611b17919086907f439eae5fe478429877da2477496a018c34aba9e736ace861a831c827eb739eb690600080516020612a53833981519152906024810161266d565b6000611c1e611818565b6001600160a01b031663c19755fd611c34610709565b604080518082018252601381527274696c65436170747572696e6753797374656d60681b602091820152815180830183526005815264424153494360d81b90820152815160008152908101918290526001600160e01b031960e085901b16909152611b17919086907f2d3acee8aac5846cb4dc645ddf7d7a4910a84a276e67b6e320c4180488acad4190600080516020612a53833981519152906024810161266d565b611cdf610709565b6001600160a01b0316336001600160a01b031614158015611d8357506000611d05610709565b6001600160a01b031663ebbe8034611d1b610c51565b6040516001600160e01b031960e084901b1681526004810191909152336024820152604401602060405180830381865afa158015611d5d573d6000803e3d6000fd5b505050506040513d601f19601f82011682018060405250810190611d8191906126cd565b145b15611da15760405163422656d160e01b815260040160405180910390fd5b565b6000611dad610709565b6001600160a01b0316633c8ca83d6040518163ffffffff1660e01b8152600401602060405180830381865afa158015611dea573d6000803e3d6000fd5b505050506040513d601f19601f82011682018060405250810190611e0e91906126cd565b90506000611e1a610709565b6001600160a01b03166344d9bc5f6040518163ffffffff1660e01b8152600401602060405180830381865afa158015611e57573d6000803e3d6000fd5b505050506040513d601f19601f82011682018060405250810190611e7b91906126cd565b9050811580611e8957508142105b15611ea75760405163a00eda6960e01b815260040160405180910390fd5b8015801590611eb65750804210155b15610bae5760405163a00eda6960e01b815260040160405180910390fd5b60008290506000816001600160a01b031663d63a68ec6040518163ffffffff1660e01b8152600401602060405180830381865afa158015611f19573d6000803e3d6000fd5b505050506040513d601f19601f82011682018060405250810190611f3d91906126cd565b90506000826001600160a01b031663e6c15c996040518163ffffffff1660e01b8152600401602060405180830381865afa158015611f7f573d6000803e3d6000fd5b505050506040513d601f19601f82011682018060405250810190611fa391906125bc565b6001600160a01b031663b2fd89336040518163ffffffff1660e01b8152600401602060405180830381865afa158015611fe0573d6000803e3d6000fd5b505050506040513d601f19601f820116820180604052508101906120049190612994565b6000838152600360205260409081902080546001600160a01b0319166001600160a01b038981169182179092559151600162fcc98d60e01b03198152600481018690526001600160401b0384166024820152604481019290925286151560648301529192509087169063ff03367390608401600060405180830381600087803b15801561209057600080fd5b505af11580156120a4573d6000803e3d6000fd5b50505050505050505050565b600060015b8281116120e9576120c8868686846120f5565b156120d7576001915050611810565b806120e1816128c5565b9150506120b5565b50600095945050505050565b604051630585cac160e41b81526001600160401b038316600482015260248101829052600090819081906001600160a01b0388169063585cac1090604401600060405180830381865afa158015612150573d6000803e3d6000fd5b505050506040513d6000823e601f3d908101601f1916820160405261217891908101906129b1565b9150915060005b818110156122445760006001600160a01b0316876001600160a01b031663c4c31e858584815181106121b3576121b3612880565b60200260200101516040518263ffffffff1660e01b81526004016121d791906125d9565b602060405180830381865afa1580156121f4573d6000803e3d6000fd5b505050506040513d601f19601f8201168201806040525081019061221891906125bc565b6001600160a01b0316146122325760019350505050611810565b8061223c816128c5565b91505061217f565b506000979650505050505050565b60008190506000816001600160a01b03166309218e916040518163ffffffff1660e01b8152600401602060405180830381865afa158015612297573d6000803e3d6000fd5b505050506040513d601f19601f820116820180604052508101906122bb9190612994565b6001600160401b038116600090815260026020526040902080546001600160a01b0319166001600160a01b03851617905590506122f6610709565b6001600160a01b031663a8d66c756040518163ffffffff1660e01b8152600401602060405180830381865afa158015612333573d6000803e3d6000fd5b505050506040513d601f19601f8201168201806040525081019061235791906125bc565b60405163dc39f80960e01b81526001600160401b03831660048201526001600160a01b038581166024830152919091169063dc39f80990604401600060405180830381600087803b1580156123ab57600080fd5b505af11580156123bf573d6000803e3d6000fd5b5050505050505050565b6001600160a01b0391909116815260200190565b6001600160401b03811681146123f257600080fd5b50565b60006020828403121561240757600080fd5b8135612412816123dd565b9392505050565b634e487b7160e01b600052604160045260246000fd5b604051601f8201601f191681016001600160401b038111828210171561245757612457612419565b604052919050565b60006001600160401b0382111561247857612478612419565b50601f01601f191660200190565b60006020828403121561249857600080fd5b81356001600160401b038111156124ae57600080fd5b8201601f810184136124bf57600080fd5b80356124d26124cd8261245f565b61242f565b8181528560208385010111156124e757600080fd5b81602084016020830137600091810160200191909152949350505050565b60006020828403121561251757600080fd5b5035919050565b60008060006060848603121561253357600080fd5b833561253e816123dd565b9250602084013561254e816123dd565b929592945050506040919091013590565b6000806000806080858703121561257557600080fd5b843593506020850135612587816123dd565b92506040850135612597816123dd565b9396929550929360600135925050565b6001600160a01b03811681146123f257600080fd5b6000602082840312156125ce57600080fd5b8151612412816125a7565b6001600160401b0391909116815260200190565b805180151581146125fd57600080fd5b919050565b60006020828403121561261457600080fd5b6119b4826125ed565b60005b83811015612638578181015183820152602001612620565b50506000910152565b6000815180845261265981602086016020860161261d565b601f01601f19169290920160200192915050565b60018060a01b038616815284602082015283604082015282606082015260a0608082015260006126a060a0830184612641565b979650505050505050565b6001600160a01b039290921682526001600160401b0316602082015260400190565b6000602082840312156126df57600080fd5b5051919050565b60006001600160401b038211156126ff576126ff612419565b5060051b60200190565b600082601f83011261271a57600080fd5b81516127286124cd8261245f565b81815284602083860101111561273d57600080fd5b61181082602083016020870161261d565b600061275c6124cd846126e6565b8381529050602080820190600585901b84018681111561277b57600080fd5b845b8181101561282d5780516001600160401b038082111561279d5760008081fd5b8188019150606080838c0312156127b45760008081fd5b604080519182019183831181841017156127d0576127d0612419565b918152835191838311156127e45760008081fd5b6127f08d848701612709565b8152878501519250838311156128065760008081fd5b6128128d848701612709565b8189015293810151908401525050845292820192820161277d565b505050509392505050565b60006020828403121561284a57600080fd5b81516001600160401b0381111561286057600080fd5b8201601f8101841361287157600080fd5b6118108482516020840161274e565b634e487b7160e01b600052603260045260246000fd5b6001600160a01b03929092168252602082015260400190565b634e487b7160e01b600052601160045260246000fd5b6000600182016128d7576128d76128af565b5060010190565b818103818111156119b7576119b76128af565b6000806040838503121561290457600080fd5b825161290f816123dd565b915061291d602084016125ed565b90509250929050565b9384526001600160401b03928316602085015291166040830152606082015260800190565b808201808211156119b7576119b76128af565b6060815260006129716060830186612641565b82810360208401526129838186612641565b915050826040830152949350505050565b6000602082840312156129a657600080fd5b8151612412816123dd565b600080604083850312156129c457600080fd5b82516001600160401b038111156129da57600080fd5b8301601f810185136129eb57600080fd5b805160206129fb6124cd836126e6565b82815260059290921b83018101918181019088841115612a1a57600080fd5b938201935b83851015612a41578451612a32816123dd565b82529382019390820190612a1f565b96909101519597959650505050505056fedc0ae866100b2876ab26eb62a50ca2cd083944f439e6d78aab2fc402e669e9eea26469706673582212203a96f4237f1532feb3a78b25da58c5a5e4d72a0c9e4679367b8cafa4d55b6b0364736f6c63430008140033",
  "devdoc": {
    "events": {
      "Initialized(uint8)": {
        "details": "Triggered when the contract has been initialized or reinitialized."
      },
      "ProsperityCreated(address)": {
        "params": {
          "prosperityAddress": "Prosperity address"
        }
      },
      "RegionActivated(address,uint256)": {
        "params": {
          "regionAddress": "Region address",
          "regionId": "Region id"
        }
      },
      "ResourceCreated(address,bytes32)": {
        "params": {
          "resourceAddress": "Resource address",
          "resourceTypeId": "Resource type id"
        }
      },
      "SettlementCreated(address,bytes32,address,uint64,uint256)": {
        "params": {
          "assetTypeId": "Asset type id",
          "bannerId": "Banner id",
          "position": "Position",
          "regionAddress": "Address of the region where settlement is created",
          "settlementAddress": "Created settlement address"
        }
      },
      "SettlementRestored(address,uint64)": {
        "params": {
          "position": "Position",
          "settlementAddress": "Settlement address"
        }
      },
      "TileCapturingSystemCreated(address)": {
        "params": {
          "tileCapturingSystemAddress": "Tile capturing system address"
        }
      },
      "TotalCultistsChanged(uint256)": {
        "params": {
          "newTotalCultists": "New total cultists"
        }
      },
      "UnitsCreated(address,bytes32)": {
        "params": {
          "unitTypeId": "Unit type id",
          "unitsAddress": "Units address"
        }
      },
      "WorkersCreated(address)": {
        "params": {
          "workersAddress": "Workers address"
        }
      }
    },
    "kind": "dev",
    "methods": {
      "activateRegion(uint64)": {
        "details": "Even though function is opened, it can be called only by mightyCreator",
        "params": {
          "regionId": "Region id"
        }
      },
      "assetGroupId()": {
        "details": "Reads data from proxy's storage",
        "returns": {
          "_0": "World asset group id"
        }
      },
      "assetTypeId()": {
        "details": "Reads data from proxy's storage",
        "returns": {
          "_0": "World asset type id"
        }
      },
      "createSettlementByType(uint256,uint64,uint64,bytes32)": {
        "details": "Even though function is opened, it can be called only by world asset",
        "params": {
          "assetTypeId": "Asset type id",
          "bannerId": "Banners token id which will represent to which settlement will be attached to",
          "position": "Position",
          "regionId": "Region id to which position belongs"
        }
      },
      "createUserSettlement(uint64,uint64,uint256)": {
        "details": "Even though function is opened, it can be called only by world asset",
        "params": {
          "bannerId": "Banners token id which will represent to which settlement will be attached to",
          "position": "Position",
          "regionId": "Region id to which position belongs"
        },
        "returns": {
          "_0": "Settlement address"
        }
      },
      "decreaseTotalCultists(uint256)": {
        "details": "Even though function is opened, it can only be called by world asset",
        "params": {
          "value": "Amount of cultists burned"
        }
      },
      "era()": {
        "details": "Value is dereferenced from proxy storage and world"
      },
      "eraNumber()": {
        "details": "Reads data from proxy's storage",
        "returns": {
          "_0": "Era number"
        }
      },
      "increaseTotalCultists(uint256)": {
        "details": "Even though function is opened, it can only be called by world asset",
        "params": {
          "value": "Amount of cultists minted"
        }
      },
      "init(bytes)": {
        "details": "World asset initializer",
        "params": {
          "initParams": "Encoded init params (every world asset has own knowledge how to extract data from it)"
        }
      },
      "registry()": {
        "details": "Value is dereferenced from world"
      },
      "restoreUserSettlement(uint64)": {
        "details": "Any address can restore user settlement",
        "params": {
          "position": "Position"
        }
      },
      "world()": {
        "details": "Value is dereferenced from proxy storage"
      },
      "worldAssetFactory()": {
        "details": "Value is dereferenced from registry"
      }
    },
    "stateVariables": {
      "creationTime": {
        "details": "Immutable, initialized on creation"
      },
      "prosperity": {
        "details": "Updated when #setProsperityContract is called"
      },
      "regions": {
        "details": "Updated when #activateRegion is called"
      },
      "resources": {
        "details": "Updated when #addResource is called"
      },
      "settlementByBannerId": {
        "details": "Updated when #addUserSettlement is called"
      },
      "settlementByPosition": {
        "details": "Updated when new settlement is created"
      },
      "tileCapturingSystem": {
        "details": "Updated when #setTileCapturingSystemContract is called"
      },
      "totalCultists": {
        "details": "Updated when #increaseTotalCultists or #decreaseTotalCultists is called"
      },
      "units": {
        "details": "Updated when #addUnit is called"
      },
      "workers": {
        "details": "Updated when #setWorkersContract is called"
      }
    },
    "version": 1
  },
  "userdoc": {
    "errors": {
      "EraCannotActivateNotIncludedRegion()": [
        {
          "notice": "Thrown when attempting to activate region which is not included to the game"
        }
      ],
      "EraCannotActivateRegionMoreThanOnce()": [
        {
          "notice": "Thrown when attempting to activate region more than once"
        }
      ],
      "OnlyActiveGame()": [
        {
          "notice": "Thrown when attempting to call action which can only be called in active game (started and not finished)"
        }
      ],
      "OnlyMightyCreator()": [
        {
          "notice": "Thrown when attempting to call action which can only be called by mighty creator"
        }
      ],
      "OnlyWorldAssetFromSameEra()": [
        {
          "notice": "Thrown when attempting to call action which can only be called by world asset from same era"
        }
      ],
      "UserSettlementCannotBeCreatedIfBannerNftIdIsAlreadyTakenByAnotherSettlement()": [
        {
          "notice": "Thrown when attempting to create user settlement with banner nft id which is already taken by another settlement"
        }
      ],
      "UserSettlementCannotBeCreatedInInactiveEra()": [
        {
          "notice": "Thrown when attempting to create user settlement in inactive era"
        }
      ],
      "UserSettlementCannotBeCreatedInRegionWithMaximumAllowedSettlements()": [
        {
          "notice": "Thrown when attempting to create user settlement in region which already has maximum amount of allowed settlement"
        }
      ],
      "UserSettlementCannotBeCreatedOnPositionWhichIsNotConnectedToAnotherSettlement()": [
        {
          "notice": "Thrown when attempting to create user settlement on position which is not connected to another settlement"
        }
      ],
      "UserSettlementCannotBeCreatedOnPositionWhichIsToCloseToAnotherSettlement()": [
        {
          "notice": "Thrown when attempting to create user settlement on position which is to close to another settlement"
        }
      ],
      "UserSettlementCannotBeCreatedOnPositionWithAnotherSettlement()": [
        {
          "notice": "Thrown when attempting to create user settlement on position with another settlement"
        }
      ],
      "UserSettlementCannotBeRestoredFromInactiveEra()": [
        {
          "notice": "Thrown when attempting to restore user settlement from inactive era"
        }
      ],
      "UserSettlementCannotBeRestoredIfItsRotten()": [
        {
          "notice": "Thrown when attempting to restore user settlement if it is rotten"
        }
      ]
    },
    "events": {
      "ProsperityCreated(address)": {
        "notice": "Emitted when era prosperity is created"
      },
      "RegionActivated(address,uint256)": {
        "notice": "Emitted when #activateRegion is called"
      },
      "ResourceCreated(address,bytes32)": {
        "notice": "Emitted when era resource is created"
      },
      "SettlementCreated(address,bytes32,address,uint64,uint256)": {
        "notice": "Emitted when #newAssetSettlement is called"
      },
      "SettlementRestored(address,uint64)": {
        "notice": "Emitted when #restoreUserSettlement is called"
      },
      "TileCapturingSystemCreated(address)": {
        "notice": "Emitted when era tile capturing system is created"
      },
      "TotalCultistsChanged(uint256)": {
        "notice": "Emitted when #increaseTotalCultists or #decreaseTotalCultists is called"
      },
      "UnitsCreated(address,bytes32)": {
        "notice": "Emitted when era units is created"
      },
      "WorkersCreated(address)": {
        "notice": "Emitted when era workers is created"
      }
    },
    "kind": "user",
    "methods": {
      "activateRegion(uint64)": {
        "notice": "Activates region"
      },
      "assetGroupId()": {
        "notice": "Returns world asset group id"
      },
      "assetTypeId()": {
        "notice": "Returns world asset type id"
      },
      "createSettlementByType(uint256,uint64,uint64,bytes32)": {
        "notice": "Creates settlement by type"
      },
      "createUserSettlement(uint64,uint64,uint256)": {
        "notice": "Creates user settlement"
      },
      "creationTime()": {
        "notice": "Era creation time"
      },
      "decreaseTotalCultists(uint256)": {
        "notice": "Decreases total cultists"
      },
      "era()": {
        "notice": "Era"
      },
      "eraNumber()": {
        "notice": "Returns era number"
      },
      "increaseTotalCultists(uint256)": {
        "notice": "Increases total cultists"
      },
      "prosperity()": {
        "notice": "Prosperity token"
      },
      "regions(uint64)": {
        "notice": "Mapping containing activated regions by provided region id"
      },
      "registry()": {
        "notice": "Registry"
      },
      "resources(bytes32)": {
        "notice": "Mapping containing game resources by resource type id"
      },
      "restoreUserSettlement(uint64)": {
        "notice": "Restores settlement from previous era by provided position"
      },
      "settlementByBannerId(uint256)": {
        "notice": "Mapping containing settlement address by provided banner id"
      },
      "settlementByPosition(uint64)": {
        "notice": "Mapping containing settlement by provided position"
      },
      "tileCapturingSystem()": {
        "notice": "Tile capturing system"
      },
      "totalCultists()": {
        "notice": "Total cultists"
      },
      "units(bytes32)": {
        "notice": "Mapping containing units by unit type id"
      },
      "workers()": {
        "notice": "Workers token"
      },
      "world()": {
        "notice": "World"
      },
      "worldAssetFactory()": {
        "notice": "Returns world asset factory from registry"
      }
    },
    "version": 1
  },
  "storageLayout": {
    "storage": [
      {
        "astId": 119,
        "contract": "contracts/core/assets/era/Era.sol:Era",
        "label": "_initialized",
        "offset": 0,
        "slot": "0",
        "type": "t_uint8"
      },
      {
        "astId": 122,
        "contract": "contracts/core/assets/era/Era.sol:Era",
        "label": "_initializing",
        "offset": 1,
        "slot": "0",
        "type": "t_bool"
      },
      {
        "astId": 22129,
        "contract": "contracts/core/assets/era/Era.sol:Era",
        "label": "regions",
        "offset": 0,
        "slot": "1",
        "type": "t_mapping(t_uint64,t_contract(IRegion)23522)"
      },
      {
        "astId": 22136,
        "contract": "contracts/core/assets/era/Era.sol:Era",
        "label": "settlementByPosition",
        "offset": 0,
        "slot": "2",
        "type": "t_mapping(t_uint64,t_contract(ISettlement)25199)"
      },
      {
        "astId": 22143,
        "contract": "contracts/core/assets/era/Era.sol:Era",
        "label": "settlementByBannerId",
        "offset": 0,
        "slot": "3",
        "type": "t_mapping(t_uint256,t_contract(ISettlement)25199)"
      },
      {
        "astId": 22147,
        "contract": "contracts/core/assets/era/Era.sol:Era",
        "label": "totalCultists",
        "offset": 0,
        "slot": "4",
        "type": "t_uint256"
      },
      {
        "astId": 22151,
        "contract": "contracts/core/assets/era/Era.sol:Era",
        "label": "creationTime",
        "offset": 0,
        "slot": "5",
        "type": "t_uint256"
      },
      {
        "astId": 22156,
        "contract": "contracts/core/assets/era/Era.sol:Era",
        "label": "workers",
        "offset": 0,
        "slot": "6",
        "type": "t_contract(IWorkers)31570"
      },
      {
        "astId": 22161,
        "contract": "contracts/core/assets/era/Era.sol:Era",
        "label": "prosperity",
        "offset": 0,
        "slot": "7",
        "type": "t_contract(IProsperity)29751"
      },
      {
        "astId": 22168,
        "contract": "contracts/core/assets/era/Era.sol:Era",
        "label": "resources",
        "offset": 0,
        "slot": "8",
        "type": "t_mapping(t_bytes32,t_contract(IResource)30039)"
      },
      {
        "astId": 22175,
        "contract": "contracts/core/assets/era/Era.sol:Era",
        "label": "units",
        "offset": 0,
        "slot": "9",
        "type": "t_mapping(t_bytes32,t_contract(IUnits)31057)"
      },
      {
        "astId": 22180,
        "contract": "contracts/core/assets/era/Era.sol:Era",
        "label": "tileCapturingSystem",
        "offset": 0,
        "slot": "10",
        "type": "t_contract(ITileCapturingSystem)28563"
      }
    ],
    "types": {
      "t_bool": {
        "encoding": "inplace",
        "label": "bool",
        "numberOfBytes": "1"
      },
      "t_bytes32": {
        "encoding": "inplace",
        "label": "bytes32",
        "numberOfBytes": "32"
      },
      "t_contract(IProsperity)29751": {
        "encoding": "inplace",
        "label": "contract IProsperity",
        "numberOfBytes": "20"
      },
      "t_contract(IRegion)23522": {
        "encoding": "inplace",
        "label": "contract IRegion",
        "numberOfBytes": "20"
      },
      "t_contract(IResource)30039": {
        "encoding": "inplace",
        "label": "contract IResource",
        "numberOfBytes": "20"
      },
      "t_contract(ISettlement)25199": {
        "encoding": "inplace",
        "label": "contract ISettlement",
        "numberOfBytes": "20"
      },
      "t_contract(ITileCapturingSystem)28563": {
        "encoding": "inplace",
        "label": "contract ITileCapturingSystem",
        "numberOfBytes": "20"
      },
      "t_contract(IUnits)31057": {
        "encoding": "inplace",
        "label": "contract IUnits",
        "numberOfBytes": "20"
      },
      "t_contract(IWorkers)31570": {
        "encoding": "inplace",
        "label": "contract IWorkers",
        "numberOfBytes": "20"
      },
      "t_mapping(t_bytes32,t_contract(IResource)30039)": {
        "encoding": "mapping",
        "key": "t_bytes32",
        "label": "mapping(bytes32 => contract IResource)",
        "numberOfBytes": "32",
        "value": "t_contract(IResource)30039"
      },
      "t_mapping(t_bytes32,t_contract(IUnits)31057)": {
        "encoding": "mapping",
        "key": "t_bytes32",
        "label": "mapping(bytes32 => contract IUnits)",
        "numberOfBytes": "32",
        "value": "t_contract(IUnits)31057"
      },
      "t_mapping(t_uint256,t_contract(ISettlement)25199)": {
        "encoding": "mapping",
        "key": "t_uint256",
        "label": "mapping(uint256 => contract ISettlement)",
        "numberOfBytes": "32",
        "value": "t_contract(ISettlement)25199"
      },
      "t_mapping(t_uint64,t_contract(IRegion)23522)": {
        "encoding": "mapping",
        "key": "t_uint64",
        "label": "mapping(uint64 => contract IRegion)",
        "numberOfBytes": "32",
        "value": "t_contract(IRegion)23522"
      },
      "t_mapping(t_uint64,t_contract(ISettlement)25199)": {
        "encoding": "mapping",
        "key": "t_uint64",
        "label": "mapping(uint64 => contract ISettlement)",
        "numberOfBytes": "32",
        "value": "t_contract(ISettlement)25199"
      },
      "t_uint256": {
        "encoding": "inplace",
        "label": "uint256",
        "numberOfBytes": "32"
      },
      "t_uint64": {
        "encoding": "inplace",
        "label": "uint64",
        "numberOfBytes": "8"
      },
      "t_uint8": {
        "encoding": "inplace",
        "label": "uint8",
        "numberOfBytes": "1"
      }
    }
  }
}