{
  "address": "0xCb21552DeBc1b59d17607C3eC659cF8EA6236e85",
  "abi": [
    {
      "inputs": [],
      "name": "CannotIncludeAlreadyIncludedRegion",
      "type": "error"
    },
    {
      "inputs": [],
      "name": "CannotIncludeRegionDueToInsufficientUserSettlementsCountInNeighboringRegion",
      "type": "error"
    },
    {
      "inputs": [],
      "name": "CannotIncludeRegionDueToInsufficientValueSent",
      "type": "error"
    },
    {
      "inputs": [],
      "name": "CannotIncludeRegionWithInvalidRegionInclusionProofProvided",
      "type": "error"
    },
    {
      "inputs": [],
      "name": "FirstRegionCanOnlyBeIncludedByMightyCreator",
      "type": "error"
    },
    {
      "inputs": [],
      "name": "InvalidNeighborDirectionSpecified",
      "type": "error"
    },
    {
      "inputs": [],
      "name": "InvalidTileBonusConfiguration",
      "type": "error"
    },
    {
      "inputs": [],
      "name": "OnlyActiveGame",
      "type": "error"
    },
    {
      "inputs": [],
      "name": "ReentrantCall",
      "type": "error"
    },
    {
      "anonymous": false,
      "inputs": [
        {
          "indexed": false,
          "internalType": "uint8",
          "name": "version",
          "type": "uint8"
        }
      ],
      "name": "Initialized",
      "type": "event"
    },
    {
      "anonymous": false,
      "inputs": [
        {
          "indexed": false,
          "internalType": "uint64",
          "name": "regionId",
          "type": "uint64"
        }
      ],
      "name": "RegionIncluded",
      "type": "event"
    },
    {
      "inputs": [
        {
          "internalType": "uint64",
          "name": "position1",
          "type": "uint64"
        },
        {
          "internalType": "uint64",
          "name": "position2",
          "type": "uint64"
        }
      ],
      "name": "getDistanceBetweenPositions",
      "outputs": [
        {
          "internalType": "uint64",
          "name": "",
          "type": "uint64"
        }
      ],
      "stateMutability": "pure",
      "type": "function"
    },
    {
      "inputs": [
        {
          "internalType": "uint64",
          "name": "position",
          "type": "uint64"
        }
      ],
      "name": "getRegionIdByPosition",
      "outputs": [
        {
          "internalType": "uint64",
          "name": "",
          "type": "uint64"
        },
        {
          "internalType": "bool",
          "name": "",
          "type": "bool"
        }
      ],
      "stateMutability": "view",
      "type": "function"
    },
    {
      "inputs": [
        {
          "internalType": "uint64",
          "name": "regionId",
          "type": "uint64"
        }
      ],
      "name": "getRegionOwner",
      "outputs": [
        {
          "internalType": "address",
          "name": "",
          "type": "address"
        }
      ],
      "stateMutability": "view",
      "type": "function"
    },
    {
      "inputs": [
        {
          "internalType": "uint64",
          "name": "regionId",
          "type": "uint64"
        }
      ],
      "name": "getRegionTier",
      "outputs": [
        {
          "internalType": "uint256",
          "name": "",
          "type": "uint256"
        }
      ],
      "stateMutability": "view",
      "type": "function"
    },
    {
      "inputs": [],
      "name": "getRegionsCount",
      "outputs": [
        {
          "internalType": "uint256",
          "name": "",
          "type": "uint256"
        }
      ],
      "stateMutability": "view",
      "type": "function"
    },
    {
      "inputs": [
        {
          "internalType": "uint64",
          "name": "position",
          "type": "uint64"
        },
        {
          "internalType": "uint256",
          "name": "radius",
          "type": "uint256"
        }
      ],
      "name": "getRingPositions",
      "outputs": [
        {
          "internalType": "uint64[]",
          "name": "",
          "type": "uint64[]"
        },
        {
          "internalType": "uint256",
          "name": "",
          "type": "uint256"
        }
      ],
      "stateMutability": "pure",
      "type": "function"
    },
    {
      "inputs": [
        {
          "internalType": "bytes32",
          "name": "tileBonusesSeed",
          "type": "bytes32"
        },
        {
          "internalType": "uint256",
          "name": "chanceForTileWithBonus",
          "type": "uint256"
        },
        {
          "internalType": "uint64",
          "name": "position",
          "type": "uint64"
        }
      ],
      "name": "getTileBonus",
      "outputs": [
        {
          "components": [
            {
              "internalType": "enum IGeography.TileBonusType",
              "name": "tileBonusType",
              "type": "uint8"
            },
            {
              "internalType": "uint8",
              "name": "tileBonusVariation",
              "type": "uint8"
            }
          ],
          "internalType": "struct IGeography.TileBonus",
          "name": "",
          "type": "tuple"
        }
      ],
      "stateMutability": "pure",
      "type": "function"
    },
    {
      "inputs": [
        {
          "internalType": "uint64",
          "name": "newRegionPosition",
          "type": "uint64"
        },
        {
          "internalType": "uint64",
          "name": "neighborRegionPosition",
          "type": "uint64"
        }
      ],
      "name": "includeRegion",
      "outputs": [],
      "stateMutability": "payable",
      "type": "function"
    },
    {
      "inputs": [
        {
          "internalType": "address",
          "name": "worldAddress",
          "type": "address"
        }
      ],
      "name": "init",
      "outputs": [],
      "stateMutability": "nonpayable",
      "type": "function"
    },
    {
      "inputs": [
        {
          "internalType": "uint64",
          "name": "regionId",
          "type": "uint64"
        }
      ],
      "name": "isRegionIncluded",
      "outputs": [
        {
          "internalType": "bool",
          "name": "",
          "type": "bool"
        }
      ],
      "stateMutability": "view",
      "type": "function"
    },
    {
      "inputs": [],
      "name": "world",
      "outputs": [
        {
          "internalType": "contract IWorld",
          "name": "",
          "type": "address"
        }
      ],
      "stateMutability": "view",
      "type": "function"
    }
  ],
  "transactionHash": "0x3674c94aececc9ab85bfef0dd1f127fbe7751f40491fd279006bdb274fa5cba2",
  "args": [],
  "numDeployments": 1,
  "solcInputHash": "2627c9fa14fa5cb6e37bf26f5785fa8b",
  "bytecode": "0x608060405234801561001057600080fd5b50615573806100206000396000f3fe60806040526004361061008c5760003560e01c80630915dd5d1461009157806319ab453c146100d557806330b67baa146100f757806340adb9d514610135578063585cac101461016257806365668c5a1461019057806366b9e256146101c0578063a4911a2c146101ee578063d1331b0714610201578063e114c8d91461022e578063f791a01f1461024c575b600080fd5b34801561009d57600080fd5b506100b16100ac366004614f6b565b61026c565b604080516001600160401b0390931683529015156020830152015b60405180910390f35b3480156100e157600080fd5b506100f56100f0366004614f9d565b61035f565b005b34801561010357600080fd5b5060005461011d906201000090046001600160a01b031681565b6040516001600160a01b0390911681526020016100cc565b34801561014157600080fd5b50610155610150366004614fba565b610477565b6040516100cc9190614ff3565b34801561016e57600080fd5b5061018261017d366004615007565b6104c3565b6040516100cc929190615033565b34801561019c57600080fd5b506101b06101ab366004614f6b565b6105f4565b60405190151581526020016100cc565b3480156101cc57600080fd5b506101e06101db366004614f6b565b610611565b6040519081526020016100cc565b6100f56101fc366004614fba565b610646565b34801561020d57600080fd5b5061022161021c366004615084565b6110b8565b6040516100cc91906150bd565b34801561023a57600080fd5b506003546001600160401b03166101e0565b34801561025857600080fd5b5061011d610267366004614f6b565b6114ed565b60008060008060029054906101000a90046001600160a01b0316905061035584826001600160a01b031663879d62ed6040518163ffffffff1660e01b8152600401602060405180830381865afa1580156102ca573d6000803e3d6000fd5b505050506040513d601f19601f820116820180604052508101906102ee91906150f9565b836001600160a01b03166348524fe56040518163ffffffff1660e01b8152600401602060405180830381865afa15801561032c573d6000803e3d6000fd5b505050506040513d601f19601f820116820180604052508101906103509190615116565b6115d1565b9250925050915091565b600054610100900460ff161580801561037f5750600054600160ff909116105b806103995750303b158015610399575060005460ff166001145b6104015760405162461bcd60e51b815260206004820152602e60248201527f496e697469616c697a61626c653a20636f6e747261637420697320616c72656160448201526d191e481a5b9a5d1a585b1a5e995960921b60648201526084015b60405180910390fd5b6000805460ff191660011790558015610424576000805461ff0019166101001790555b61042d826116d9565b8015610473576000805461ff0019169055604051600181527f7f26b83ff96e1f2b6a682f133852f6798a09c465da95921460cefb38474024989060200160405180910390a15b5050565b6000806104838461176e565b905060006104908461176e565b9050600061049d836117a4565b905060006104aa836117a4565b90506104b682826117e9565b9450505050505b92915050565b60606000806104d3846006615145565b6001600160401b038111156104ea576104ea61515c565b604051908082528060200260200182016040528015610513578160200160208202803683370190505b50905060006105218661176e565b905060005b8581101561054d57610539826004611892565b91508061054581615172565b915050610526565b506000805b60068110156105e65760005b878110156105d35761056f84611a5c565b156105b55761057d84611aae565b85848151811061058f5761058f61518b565b6001600160401b0390921660209283029190910190910152826105b181615172565b9350505b6105bf8483611892565b9350806105cb81615172565b91505061055e565b50806105de81615172565b915050610552565b509196919550909350505050565b6001600160401b0316600090815260016020526040902054151590565b6001600160401b03811660009081526002602052604081205480156106365792915050565b61063f83611ad1565b9392505050565b600054600160b01b900460ff161515600103610675576040516306fda65d60e31b815260040160405180910390fd5b6000805460ff60b01b1916600160b01b1790556003546001600160401b031615801561078a5750600060029054906101000a90046001600160a01b03166001600160a01b0316637b1039996040518163ffffffff1660e01b8152600401602060405180830381865afa1580156106ef573d6000803e3d6000fd5b505050506040513d601f19601f8201168201806040525081019061071391906151a1565b6001600160a01b031663271530506040518163ffffffff1660e01b8152600401602060405180830381865afa158015610750573d6000803e3d6000fd5b505050506040513d601f19601f8201168201806040525081019061077491906151a1565b6001600160a01b0316336001600160a01b031614155b156107a857604051632163e23560e11b815260040160405180910390fd5b6000806107b48461026c565b91509150806107d65760405163cdbbe49960e01b815260040160405180910390fd5b6107df826105f4565b156107fd5760405163241c925160e01b815260040160405180910390fd5b6003546001600160401b031615610ae75760008061081a8561026c565b915091508061083c5760405163cdbbe49960e01b815260040160405180910390fd5b610845826105f4565b6108625760405163cdbbe49960e01b815260040160405180910390fd5b61086c8686611c20565b6108895760405163cdbbe49960e01b815260040160405180910390fd5b600060029054906101000a90046001600160a01b03166001600160a01b0316637b1039996040518163ffffffff1660e01b8152600401602060405180830381865afa1580156108dc573d6000803e3d6000fd5b505050506040513d601f19601f8201168201806040525081019061090091906151a1565b6001600160a01b031663271530506040518163ffffffff1660e01b8152600401602060405180830381865afa15801561093d573d6000803e3d6000fd5b505050506040513d601f19601f8201168201806040525081019061096191906151a1565b6001600160a01b0316336001600160a01b031614610ae457610981611c40565b6001600160a01b031663dcc6b96e6040518163ffffffff1660e01b8152600401602060405180830381865afa1580156109be573d6000803e3d6000fd5b505050506040513d601f19601f820116820180604052508101906109e29190615116565b600060029054906101000a90046001600160a01b03166001600160a01b031663a8d66c756040518163ffffffff1660e01b8152600401602060405180830381865afa158015610a35573d6000803e3d6000fd5b505050506040513d601f19601f82011682018060405250810190610a5991906151a1565b6001600160a01b0316639b9a21e8846040518263ffffffff1660e01b8152600401610a849190614ff3565b602060405180830381865afa158015610aa1573d6000803e3d6000fd5b505050506040513d601f19601f82011682018060405250810190610ac59190615116565b1015610ae457604051631d5c302560e11b815260040160405180910390fd5b50505b6003546001600160401b031615610ebe576000610b0383611ad1565b90508060026000856001600160401b03166001600160401b031681526020019081526020016000208190555060008060029054906101000a90046001600160a01b03166001600160a01b0316637b1039996040518163ffffffff1660e01b8152600401602060405180830381865afa158015610b83573d6000803e3d6000fd5b505050506040513d601f19601f82011682018060405250810190610ba791906151a1565b6001600160a01b031663c80134be836040518263ffffffff1660e01b8152600401610bd491815260200190565b602060405180830381865afa158015610bf1573d6000803e3d6000fd5b505050506040513d601f19601f82011682018060405250810190610c159190615116565b905060008060029054906101000a90046001600160a01b03166001600160a01b03166316229bef6040518163ffffffff1660e01b8152600401602060405180830381865afa158015610c6b573d6000803e3d6000fd5b505050506040513d601f19601f82011682018060405250810190610c8f91906151a1565b90506001600160a01b038116610dd35781341015610cc05760405163f31a030b60e01b815260040160405180910390fd5b6000823411610cd0576000610cda565b610cda83346151be565b90508015610cec57610cec3382611cbd565b610dcd600060029054906101000a90046001600160a01b03166001600160a01b0316637b1039996040518163ffffffff1660e01b8152600401602060405180830381865afa158015610d42573d6000803e3d6000fd5b505050506040513d601f19601f82011682018060405250810190610d6691906151a1565b6001600160a01b031663271530506040518163ffffffff1660e01b8152600401602060405180830381865afa158015610da3573d6000803e3d6000fd5b505050506040513d601f19601f82011682018060405250810190610dc791906151a1565b84611cbd565b50610eb6565b610eb68133600060029054906101000a90046001600160a01b03166001600160a01b0316637b1039996040518163ffffffff1660e01b8152600401602060405180830381865afa158015610e2b573d6000803e3d6000fd5b505050506040513d601f19601f82011682018060405250810190610e4f91906151a1565b6001600160a01b031663271530506040518163ffffffff1660e01b8152600401602060405180830381865afa158015610e8c573d6000803e3d6000fd5b505050506040513d601f19601f82011682018060405250810190610eb091906151a1565b85611dd8565b505050610f41565b610ec6611c40565b6001600160a01b0316636795d4a06040518163ffffffff1660e01b8152600401602060405180830381865afa158015610f03573d6000803e3d6000fd5b505050506040513d601f19601f82011682018060405250810190610f279190615116565b6001600160401b0383166000908152600260205260409020555b600380546001600160401b0316906000610f5a836151d1565b82546101009290920a6001600160401b03818102199093169183160217909155600354848216600090815260016020908152604080832093909416909255548251635d733b9560e11b81529251620100009091046001600160a01b0316935063bae6772a9260048082019392918290030181865afa158015610fe0573d6000803e3d6000fd5b505050506040513d601f19601f8201168201806040525081019061100491906151a1565b6040516340c10f1960e01b81523360048201526001600160401b03841660248201526001600160a01b0391909116906340c10f1990604401600060405180830381600087803b15801561105657600080fd5b505af115801561106a573d6000803e3d6000fd5b505050507fb2cc3f25ef34290401da8b961a928db2654d8a579f363c28f2d0ac9d3fc6e01d8260405161109d9190614ff3565b60405180910390a150506000805460ff60b01b191690555050565b6040805180820190915260008082526020820152600082856040516020016110e19291906151f7565b60408051601f1981840301815291905280516020909101209050600061110f670de0b6b3a76400008361522a565b9050848111156111365750506040805180820190915260008082526020820152905061063f565b670de0b6b3a76400008260405160200161115291815260200190565b6040516020818303038152906040528051906020012060001c611175919061522a565b60408051600a808252610160820190925291925060009190602082016101408036833701905050905067016345785d8a0000816000815181106111ba576111ba61518b565b60200260200101818152505066f8b0a10e470000816001815181106111e1576111e161518b565b60200260200101818152505067013fbe85edc90000816002815181106112095761120961518b565b60200260200101818152505066d529ae9e860000816003815181106112305761123061518b565b60200260200101818152505066f8b0a10e470000816004815181106112575761125761518b565b60200260200101818152505066b1a2bc2ec500008160058151811061127e5761127e61518b565b60200260200101818152505066d529ae9e860000816006815181106112a5576112a561518b565b60200260200101818152505066b1a2bc2ec50000816007815181106112cc576112cc61518b565b60200260200101818152505066f8b0a10e470000816008815181106112f3576112f361518b565b60200260200101818152505066b1a2bc2ec500008160098151811061131a5761131a61518b565b6020026020010181815250506000805b82518160ff1610156113af576000838260ff168151811061134d5761134d61518b565b602002602001015183611360919061523e565b905082851015801561137157508085105b1561139b5750604080518082019091526001815260ff9091166020820152945061063f9350505050565b9150806113a781615251565b91505061132a565b50604080516003808252608082019092526000916020820160608036833701905050905067025bf6196bd10000816000815181106113ef576113ef61518b565b60200260200101818152505067016345785d8a0000816001815181106114175761141761518b565b60200260200101818152505066d529ae9e8600008160028151811061143e5761143e61518b565b60200260200101818152505060005b81518160ff1610156114d3576000828260ff16815181106114705761147061518b565b602002602001015184611483919061523e565b905083861015801561149457508086105b156114bf5750604080518082019091526002815260ff9091166020820152955061063f945050505050565b9250806114cb81615251565b91505061144d565b5060405163497e68f360e11b815260040160405180910390fd5b60008060029054906101000a90046001600160a01b03166001600160a01b031663bae6772a6040518163ffffffff1660e01b8152600401602060405180830381865afa158015611541573d6000803e3d6000fd5b505050506040513d601f19601f8201168201806040525081019061156591906151a1565b6001600160a01b0316636352211e836040518263ffffffff1660e01b81526004016115909190614ff3565b602060405180830381865afa1580156115ad573d6000803e3d6000fd5b505050506040513d601f19601f820116820180604052508101906104bd91906151a1565b60008060006115df8661176e565b905060006115ec826117a4565b905060006115f987611e38565b9050600061160688611e50565b90506000611616848a8585611e7d565b90506000611627828a8c8787611f0e565b9050611633818b611ff0565b61164957600080975097505050505050506116d1565b84518151600091600791820b910b1480156116715750856020015160070b826020015160070b145b905080158015611687575061168587612073565b155b1561169f5760008098509850505050505050506116d1565b60006116af87858e8e8a8a612100565b90506116c26116bd826125b7565b611aae565b60019950995050505050505050505b935093915050565b600054610100900460ff166117445760405162461bcd60e51b815260206004820152602b60248201527f496e697469616c697a61626c653a20636f6e7472616374206973206e6f74206960448201526a6e697469616c697a696e6760a81b60648201526084016103f8565b600080546001600160a01b03909216620100000262010000600160b01b0319909216919091179055565b611776614f3c565b506040805180820190915263ffffffff828116600790810b8352602093841c909116900b9181019190915290565b6117ac614f3c565b815160006117bb600283615270565b84602001516117ca91906152ae565b60408051808201909152600793840b8152920b60208301525092915050565b600080836020015184600001516117ff906152db565b61180991906152ae565b9050600083602001518460000151611820906152db565b61182a91906152ae565b9050600261184361183b83856152ae565b60070b6125eb565b61185a8660200151886020015161183b91906152ae565b8651885161186b9161183b916152ae565b611875919061523e565b61187f919061523e565b6118899190615301565b95945050505050565b61189a614f3c565b825160208401516001821660070b1560008590036118e35760405180604001604052808460070b81526020016001846118d391906152ae565b60070b81525093505050506104bd565b8460010361194d57801561191c5760405180604001604052808460016119099190615315565b60070b81526020016118d36001856152ae565b60405180604001604052808460016119349190615315565b60070b81526020018360070b81525093505050506104bd565b8460020361199e5780156119735760405180604001604052808460016119349190615315565b604051806040016040528084600161198b9190615315565b60070b81526020016118d3846001615315565b846003036119c75760405180604001604052808460070b81526020018360016118d39190615315565b84600403611a055780156119ed57604051806040016040528060018561193491906152ae565b604051806040016040528060018561198b91906152ae565b84600503611a43578015611a2b57604051806040016040528060018561190991906152ae565b604051806040016040528060018561193491906152ae565b60405163444dc91f60e11b815260040160405180910390fd5b600080826000015160070b12158015611a7f5750815163ffffffff60079190910b125b8015611a9357506000826020015160070b12155b80156104bd5750506020015163ffffffff60079190910b1290565b60008160000151602083602001516001600160401b0316901b6104bd9190615342565b60008082600060029054906101000a90046001600160a01b03166001600160a01b0316638544dbda6040518163ffffffff1660e01b8152600401602060405180830381865afa158015611b28573d6000803e3d6000fd5b505050506040513d601f19601f82011682018060405250810190611b4c9190615116565b604051602001611b5d9291906151f7565b60408051601f19818403018152919052805160209091012090506000611b8b670de0b6b3a76400008361522a565b90506000670de0b6b3a7640000611ba0611c40565b6001600160a01b0316636795d4a06040518163ffffffff1660e01b8152600401602060405180830381865afa158015611bdd573d6000803e3d6000fd5b505050506040513d601f19601f82011682018060405250810190611c019190615116565b611c0b9084615145565b611c159190615301565b61188990600161523e565b6000611c2c8383610477565b6001600160401b0316600114905092915050565b60008060029054906101000a90046001600160a01b03166001600160a01b0316637b1039996040518163ffffffff1660e01b8152600401602060405180830381865afa158015611c94573d6000803e3d6000fd5b505050506040513d601f19601f82011682018060405250810190611cb891906151a1565b905090565b80471015611d0d5760405162461bcd60e51b815260206004820152601d60248201527f416464726573733a20696e73756666696369656e742062616c616e636500000060448201526064016103f8565b6000826001600160a01b03168260405160006040518083038185875af1925050503d8060008114611d5a576040519150601f19603f3d011682016040523d82523d6000602084013e611d5f565b606091505b5050905080611dd35760405162461bcd60e51b815260206004820152603a60248201527f416464726573733a20756e61626c6520746f2073656e642076616c75652c20726044820152791958da5c1a595b9d081b585e481a185d99481c995d995c9d195960321b60648201526084016103f8565b505050565b604080516001600160a01b0385811660248301528416604482015260648082018490528251808303909101815260849091019091526020810180516001600160e01b03166323b872dd60e01b179052611e32908590612602565b50505050565b6000611e45826003615369565b6104bd906002615342565b6000611e5d826001615342565b611e68836003615369565b611e729190615369565b6104bd906001615342565b611e85614f3c565b84516000908390611e969086615394565b8760200151611ea59190615315565b611eaf91906153b4565b90506000611ebe8287876126d4565b90506000604051806040016040528083600001518a60000151611ee191906152ae565b60070b815260200183602001518a60200151611efd91906152ae565b60070b905298975050505050505050565b611f16614f3c565b85516020808801516040805160c094851b818501529190931b6028820152603080820189905283518083039091018152605090910190925281519101206000611f67670de0b6b3a76400008361522a565b90506000670de0b6b3a7640000611f876001600160401b03871684615145565b611f919190615301565b90506000611fa08289896126d4565b9050604051806040016040528082600001518c60000151611fc19190615315565b60070b815260200182602001518c60200151611fdd9190615315565b60070b90529a9950505050505050505050565b600080611ffc846125b7565b9050600083612010600163ffffffff6152ae565b61201a91906152ae565b90508360070b826000015160070b1215801561204057508060070b826000015160070b13155b801561205657508360070b826020015160070b12155b80156118895750602090910151600791820b910b13159392505050565b6000806120a88360000151610c8061208b9190615394565b60070b8460200151610c806120a09190615394565b60070b6127b8565b905061682481126120bc5750600092915050565b82516120e3906120ce90611388615394565b60070b84602001516113886120a09190615394565b90506132c881126120f75750600092915050565b50600192915050565b612108614f3c565b6040805160128082526102608201909252600091816020015b612129614f3c565b8152602001906001900390816121215790505090508561214988826128be565b8260008151811061215c5761215c61518b565b6020026020010181905250612171888261291e565b826001815181106121845761218461518b565b60200260200101819052506121998882612955565b826002815181106121ac576121ac61518b565b60200260200101819052506121c1888261299f565b826003815181106121d4576121d461518b565b60200260200101819052506121e988826129df565b826004815181106121fc576121fc61518b565b60200260200101819052506122118882612a15565b826005815181106122245761222461518b565b6020026020010181905250612253826000815181106122455761224561518b565b6020026020010151826128be565b826006815181106122665761226661518b565b6020026020010181905250612287826001815181106122455761224561518b565b8260078151811061229a5761229a61518b565b60200260200101819052506122c9826001815181106122bb576122bb61518b565b60200260200101518261291e565b826008815181106122dc576122dc61518b565b602002602001018190525061230b826001815181106122fd576122fd61518b565b602002602001015182612955565b8260098151811061231e5761231e61518b565b602002602001018190525061233f826002815181106122fd576122fd61518b565b82600a815181106123525761235261518b565b6020026020010181905250612381826002815181106123735761237361518b565b60200260200101518261299f565b82600b815181106123945761239461518b565b60200260200101819052506123b5826003815181106123735761237361518b565b82600c815181106123c8576123c861518b565b60200260200101819052506123e9826004815181106123735761237361518b565b82600d815181106123fc576123fc61518b565b602002602001018190525061242b8260048151811061241d5761241d61518b565b6020026020010151826129df565b82600e8151811061243e5761243e61518b565b602002602001018190525061245f8260058151811061241d5761241d61518b565b82600f815181106124725761247261518b565b60200260200101819052506124a1826005815181106124935761249361518b565b602002602001015182612a15565b826010815181106124b4576124b461518b565b60200260200101819052506124d5826005815181106122455761224561518b565b826011815181106124e8576124e861518b565b6020026020010181905250600061250289888a8989611f0e565b905060006125108b836117e9565b905060005b60128110156125a75760008582815181106125325761253261518b565b60200260200101519050600061254b828c8e8d8d611f0e565b9050612557818d611ff0565b612562575050612595565b600061256e8f836117e9565b9050846001600160401b0316816001600160401b03161015612591578195508094505b5050505b8061259f81615172565b915050612515565b50909a9950505050505050505050565b6125bf614f3c565b8151600060026125d260018416846152ae565b6125dc9190615270565b84602001516117ca9190615315565b6000808212156125fe57816000036104bd565b5090565b6000612657826040518060400160405280602081526020017f5361666545524332303a206c6f772d6c6576656c2063616c6c206661696c6564815250856001600160a01b0316612a529092919063ffffffff16565b805190915015611dd3578080602001905181019061267591906153d6565b611dd35760405162461bcd60e51b815260206004820152602a60248201527f5361666545524332303a204552433230206f7065726174696f6e20646964206e6044820152691bdd081cdd58d8d9595960b21b60648201526084016103f8565b6126dc614f3c565b60006126e9846002615369565b90506000836126f88688615342565b61270291906153f8565b9050600061271160018661541e565b61271b8489615342565b61272591906153f8565b905060006127338784615369565b905060006127418884615369565b90506000816127508685615342565b61275a91906152ae565b905060006127688584615342565b86612774866002615369565b61277e9190615342565b612788908d6152ae565b61279291906152ae565b60408051808201909152600793840b8152920b6020830152509998505050505050505050565b6000806127cb601085901d60ff16612a69565b905060006127ec6127e760ff601087901d16600885901d61543e565b612a69565b905060006128076127e760ff601088901d811690861661543e565b905061ffff8616955061ffff85169450600061282287613b65565b9050600061285982612839600887901d8b8b613ba5565b612854600887901d61284e620100008e61545e565b8c613ba5565b613bff565b9050600061289c8361287b60ff88168c612876620100008e61545e565b613ba5565b61285460ff881661288f620100008f61545e565b612876620100008f61545e565b90506128b16128aa89613b65565b8383613bff565b9998505050505050505050565b6128c6614f3c565b60006128d3836002615394565b84516128df9190615315565b6128ea906001615315565b905060008385602001516128fe91906152ae565b60408051808201909152600793840b8152920b6020830152509392505050565b612926614f3c565b8251600090612936908490615315565b9050600083856020015161294a9190615315565b6128fe906001615315565b61295d614f3c565b600061296a836001615315565b845161297691906152ae565b90506000612985846002615394565b612990906001615315565b85602001516128fe9190615315565b6129a7614f3c565b60006129b4836002615394565b6129bf906001615315565b84516129cb91906152ae565b905060008385602001516128fe9190615315565b6129e7614f3c565b82516000906129f79084906152ae565b90506000612a06846001615315565b85602001516128fe91906152ae565b612a1d614f3c565b8251600090612a2d908490615315565b612a38906001615315565b90506000612a47846002615394565b612a06906001615315565b6060612a618484600085613c22565b949350505050565b60ff166000607f82136132ed57603f8213612eb557601f8213612c9e57600f8213612b965760078213612b165760038213612ada5760018213612ac05781600003612ab757506197a0919050565b5061a089919050565b81600203612ad1575061895b919050565b50615b5a919050565b60058213612afc5781600403612af35750615a0f919050565b50610f83919050565b81600603612b0d575061830d919050565b50610dc9919050565b600b8213612b5a5760098213612b405781600803612b37575061c95f919050565b50615f60919050565b81600a03612b515750616035919050565b506135c2919050565b600d8213612b7c5781600c03612b73575061c2e9919050565b5061e907919050565b81600e03612b8d57506107e1919050565b5061e18c919050565b60178213612c1e5760138213612be25760118213612bc85781601003612bbf5750618c24919050565b50612467919050565b81601203612bd9575061671e919050565b50611e45919050565b60158213612c045781601403612bfb575061458e919050565b50618e08919050565b81601603612c155750610863919050565b50616325919050565b601b8213612c625760198213612c485781601803612c3f57506125f0919050565b5061f015919050565b81601a03612c59575061150a919050565b50610a17919050565b601d8213612c845781601c03612c7b57506117be919050565b5061be06919050565b81601e03612c955750610694919050565b506194f7919050565b602f8213612dad5760278213612d2d5760238213612cf25760218213612cd85781602003612ccf575061f778919050565b506178ea919050565b81602203612ce9575061ea4b919050565b50614b00919050565b60258213612d135781602403612d0a5750601a919050565b50611ac5919050565b81602603612d24575061c53e919050565b50613e5e919050565b602b8213612d715760298213612d575781602803612d4e5750615efc919050565b5061fcdb919050565b81602a03612d68575061dbcb919050565b5061cb75919050565b602d8213612d935781602c03612d8a5750617523919050565b5061230b919050565b81602e03612da45750610b20919050565b50612039919050565b60378213612e355760338213612df95760318213612ddf5781603003612dd657506139b1919050565b5061b121919050565b81603203612df05750612158919050565b506158ed919050565b60358213612e1b5781603403612e12575061ed95919050565b50619538919050565b81603603612e2c5750613857919050565b506157ae919050565b603b8213612e795760398213612e5f5781603803612e56575061ae14919050565b5061147d919050565b81603a03612e705750617d88919050565b506188ab919050565b603d8213612e9b5781603c03612e92575061aba8919050565b5061a844919050565b81603e03612eac57506144af919050565b5061af4a919050565b605f82136130d557604f8213612fcd5760478213612f4d5760438213612f115760418213612ef75781604003612eee5750614aa5919050565b5061a547919050565b81604203612f085750614786919050565b5061868b919050565b60458213612f335781604403612f2a5750618b30919050565b5061301b919050565b81604603612f445750611ba6919050565b5061a64d919050565b604b8213612f915760498213612f775781604803612f6e5750614d92919050565b5061929e919050565b81604a03612f885750619ee7919050565b5061e753919050565b604d8213612fb35781604c03612faa575061536f919050565b50616fe5919050565b81604e03612fc4575061e57a919050565b50617a3c919050565b6057821361305557605382136130195760518213612fff5781605003612ff65750613cd3919050565b5061d385919050565b8160520361301057506185e6919050565b5061e6dc919050565b6055821361303b5781605403613032575061dc69919050565b5061695c919050565b8160560361304c5750615c29919050565b50612937919050565b605b8213613099576059821361307f5781605803613076575061372e919050565b50612ef5919050565b81605a03613090575061f528919050565b506128f4919050565b605d82136130bb5781605c036130b2575061f466919050565b5061668f919050565b81605e036130cc5750618f36919050565b50613641919050565b606f82136131e557606782136131655760638213613129576061821361310f57816060036131065750614119919050565b5061193f919050565b816062036131205750613fa1919050565b5061a101919050565b6065821361314b578160640361314257506101d8919050565b5061d850919050565b8160660361315c5750615049919050565b506149d1919050565b606b82136131a9576069821361318f5781606803613186575061d14c919050565b50614c84919050565b81606a036131a057506184bb919050565b5061bbd0919050565b606d82136131cb5781606c036131c2575061d059919050565b50615912919050565b81606e036131dc57506112a9919050565b5061a9c8919050565b6077821361326d57607382136132315760718213613217578160700361320e575061c8c4919050565b5061c487919050565b816072036132285750618782919050565b50618274919050565b60758213613253578160740361324a57506174bc919050565b5061bc9f919050565b816076036132645750619f56919050565b506156a4919050565b607b82136132b15760798213613297578160780361328e575061a464919050565b5061646d919050565b81607a036132a85750616dc6919050565b5061c6ad919050565b607d82136132d35781607c036132ca575061adba919050565b5061ba03919050565b81607e036132e45750610340919050565b50614034919050565b60bf821361372d57609f821361351557608f821361340d576087821361338d57608382136133515760818213613337578160800361332e57506134d9919050565b5061d9e2919050565b81608203613348575061e2fa919050565b5061fa7c919050565b60858213613373578160840361336a5750617c7b919050565b50617b05919050565b8160860361338457506105ca919050565b5061ca26919050565b608b82136133d157608982136133b757816088036133ae5750612693919050565b50619376919050565b81608a036133c8575061767e919050565b50617eff919050565b608d82136133f35781608c036133ea575061ff52919050565b50615255919050565b81608e0361340457506155d4919050565b5061d4cf919050565b609782136134955760938213613459576091821361343f5781609003613436575061cfce919050565b5061ce3b919050565b816092036134505750613be3919050565b5061e32f919050565b6095821361347b57816094036134725750612f10919050565b5061103a919050565b8160960361348c5750613a11919050565b506111b6919050565b609b82136134d957609982136134bf57816098036134b6575061b6bd919050565b5061bd1c919050565b81609a036134d05750611c2a919050565b50612adf919050565b609d82136134fb5781609c036134f2575061dfb7919050565b5061b7aa919050565b81609e0361350c575061aad5919050565b5061d577919050565b60af82136136255760a782136135a55760a382136135695760a1821361354f578160a00361354657506177f8919050565b5061f898919050565b8160a2036135605750619802919050565b5061022c919050565b60a5821361358b578160a4036135825750612c9a919050565b50619aa3919050565b8160a60361359c575061a346919050565b506146dd919050565b60ab82136135e95760a982136135cf578160a8036135c6575061dd99919050565b50619965919050565b8160aa036135e0575061659b919050565b50619ba7919050565b60ad821361360b578160ac03613602575061a72b919050565b50612bac919050565b8160ae0361361c575061ac09919050565b50610981919050565b60b782136136ad5760b382136136715760b18213613657578160b00361364e5750618116919050565b50611627919050565b8160b20361366857506127fd919050565b5061fd13919050565b60b58213613693578160b40361368a5750611362919050565b5061626c919050565b8160b6036136a45750616c6e919050565b50616e4f919050565b60bb82136136f15760b982136136d7578160b8036136ce5750614f71919050565b506171e0919050565b8160ba036136e8575061e0e8919050565b5061e8b2919050565b60bd8213613713578160bc0361370a575061b2b9919050565b5061b970919050565b8160be036137245750617068919050565b506168da919050565b60df821361394d5760cf82136138455760c782136137c55760c382136137895760c1821361376f578160c003613766575061daf6919050565b5061f661919050565b8160c20361378057506161e4919050565b5061e4fb919050565b60c582136137ab578160c4036137a2575061fb22919050565b506122f2919050565b8160c6036137bc575061f2c1919050565b5061c1ee919050565b60cb82136138095760c982136137ef578160c8036137e6575061eed2919050565b5061d290919050565b8160ca03613800575061900c919050565b50610cbf919050565b60cd821361382b578160cc03613822575061bfb3919050565b5061b3a2919050565b8160ce0361383c575061a2f1919050565b5061f151919050565b60d782136138cd5760d382136138915760d18213613877578160d00361386e5750615133919050565b50613391919050565b8160d20361388857506191eb919050565b5061ebf9919050565b60d582136138b3578160d4036138aa575061f90e919050565b50610eef919050565b8160d6036138c4575061ef6b919050565b50616b31919050565b60db82136139115760d982136138f7578160d8036138ee57506131c0919050565b5061c0d6919050565b8160da03613908575061d61f919050565b50611fb5919050565b60dd8213613933578160dc0361392a575061b5c7919050565b5061c76a919050565b8160de036139445750616a9d919050565b50619db8919050565b60ef8213613a5d5760e782136139dd5760e382136139a15760e18213613987578160e00361397e575061b854919050565b506154cc919050565b8160e203613998575061ccb0919050565b5061b073919050565b60e582136139c3578160e4036139ba5750617379919050565b50617932919050565b8160e6036139d4575061322d919050565b50612d7f919050565b60eb8213613a215760e98213613a07578160e8036139fe5750617f04919050565b50610496919050565b8160ea03613a1857506196fe919050565b5061fe8a919050565b60ed8213613a43578160ec03613a3a5750618aec919050565b5061eccd919050565b8160ee03613a54575061cd5d919050565b50615dde919050565b60f78213613ae55760f38213613aa95760f18213613a8f578160f003613a86575061de72919050565b50617243919050565b8160f203613aa0575061431d919050565b50611d18919050565b60f58213613acb578160f403613ac25750611848919050565b506148f3919050565b8160f603613adc575061f38d919050565b50618d80919050565b60fb8213613b295760f98213613b0f578160f803613b0657506180c3919050565b5061c34e919050565b8160fa03613b205750614e42919050565b506142d7919050565b60fd8213613b4b578160fc03613b42575061d73d919050565b50613d9c919050565b8160fe03613b5c5750619cb4919050565b5061b497919050565b600080613b75600884901d613d53565b9050600c81901d610fff82166008613b8d838361545e565b613b9a9060ff881661547e565b611889911d8361543e565b6000600384169350600084600116600003613bc1575082613bcd565b613bca846154ae565b90505b60006002861215613bdf575082613beb565b613be8846154ae565b90505b613bf5818361543e565b9695505050505050565b6000600c613c0d848461545e565b613c17908661547e565b612a61911d8461543e565b606082471015613c835760405162461bcd60e51b815260206004820152602660248201527f416464726573733a20696e73756666696369656e742062616c616e636520666f6044820152651c8818d85b1b60d21b60648201526084016103f8565b6001600160a01b0385163b613cda5760405162461bcd60e51b815260206004820152601d60248201527f416464726573733a2063616c6c20746f206e6f6e2d636f6e747261637400000060448201526064016103f8565b600080866001600160a01b03168587604051613cf691906154ee565b60006040518083038185875af1925050503d8060008114613d33576040519150601f19603f3d011682016040523d82523d6000602084013e613d38565b606091505b5091509150613d48828286614f03565b979650505050505050565b6000607f821361462957603f82136141b157601f8213613f7957600f8213613e655760078213613de55760038213613db55760018213613da55781600003613d9d57506000919050565b506000919050565b81600203613d9d57506000919050565b60058213613dcd5781600403613d9d57506000919050565b81600603613ddd57506000919050565b506001919050565b600b8213613e295760098213613e0f5781600803613e065750611001919050565b50611002919050565b81600a03613e205750612003919050565b50613003919050565b600d8213613e4b5781600c03613e425750613004919050565b50614006919050565b81600e03613e5c5750616007919050565b50617009919050565b60178213613ef15760138213613eb15760118213613e975781601003613e8e575061900a919050565b5061a00c919050565b81601203613ea8575061c00e919050565b5061e011919050565b60158213613ed55781601403613ecb575062011013919050565b5062013016919050565b81601603613ee7575062016019919050565b506201901d919050565b601b8213613f395760198213613f1d5781601803613f1357506201d020919050565b5062020024919050565b81601a03613f2f575062024028919050565b506202802d919050565b601d8213613f5d5781601c03613f5357506202d031919050565b5062031036919050565b81601e03613f6f57506203603c919050565b506203c041919050565b602f821361409957602782136140115760238213613fd15760218213613fb55781602003613fab575062041047919050565b506204704d919050565b81602203613fc757506204d054919050565b506205405b919050565b60258213613ff55781602403613feb57506205b062919050565b5062062069919050565b81602603614007575062069071919050565b5062071079919050565b602b8213614059576029821361403d5781602803614033575062079082919050565b506208208b919050565b81602a0361404f57506208b094919050565b506209409e919050565b602d821361407d5781602c0361407357506209e0a7919050565b50620a70b2919050565b81602e0361408f5750620b20bc919050565b50620bc0c7919050565b6037821361412957603382136140e957603182136140cd57816030036140c35750620c70d3919050565b50620d30de919050565b816032036140df5750620de0ea919050565b50620ea0f7919050565b6035821361410d57816034036141035750620f7103919050565b5062103111919050565b8160360361411f57506211111e919050565b506211e12c919050565b603b82136141715760398213614155578160380361414b57506212c13a919050565b506213a149919050565b81603a03614167575062149158919050565b5062158167919050565b603d82136141955781603c0361418b575062167176919050565b5062176186919050565b81603e036141a7575062186197919050565b50621971a8919050565b605f82136143f157604f82136142d95760478213614251576043821361421157604182136141f557816040036141eb5750621a81b9919050565b50621b91ca919050565b816042036142075750621ca1dc919050565b50621dc1ee919050565b60458213614235578160440361422b5750621ee200919050565b5062200213919050565b81604603614247575062213226919050565b506222623a919050565b604b8213614299576049821361427d578160480361427357506223a24d919050565b506224d261919050565b81604a0361428f575062261276919050565b506227628b919050565b604d82136142bd5781604c036142b357506228b2a0919050565b50622a02b5919050565b81604e036142cf5750622b52cb919050565b50622cb2e1919050565b605782136143695760538213614329576051821361430d57816050036143035750622e12f7919050565b50622f730e919050565b8160520361431f57506230e325919050565b506232533c919050565b6055821361434d578160540361434357506233c353919050565b506235336b919050565b8160560361435f57506236b383919050565b506238339b919050565b605b82136143b15760598213614395578160580361438b57506239b3b4919050565b50623b43cd919050565b81605a036143a75750623cd3e6919050565b50623e63ff919050565b605d82136143d55781605c036143cb5750623ff419919050565b5062419432919050565b81605e036143e757506243244c919050565b506244c467919050565b606f821361451157606782136144895760638213614449576061821361442d5781606003614423575062467481919050565b506248149c919050565b8160620361443f57506249c4b7919050565b50624b74d2919050565b6065821361446d57816064036144635750624d24ed919050565b50624ed509919050565b8160660361447f575062509524919050565b5062524540919050565b606b82136144d157606982136144b557816068036144ab57506254055c919050565b506255c578919050565b81606a036144c7575062578595919050565b50625955b1919050565b606d82136144f55781606c036144eb5750625b15ce919050565b50625ce5eb919050565b81606e036145075750625eb607919050565b5062607624919050565b607782136145a157607382136145615760718213614545578160700361453b575062624642919050565b506264265f919050565b8160720361455757506265f67c919050565b506267c69a919050565b60758213614585578160740361457b57506269a6b7919050565b50626b76d5919050565b816076036145975750626d56f2919050565b50626f2710919050565b607b82136145e957607982136145cd57816078036145c357506271072e919050565b506272e74c919050565b81607a036145df57506274c76a919050565b506276a788919050565b607d821361460d5781607c036146035750627887a6919050565b50627a67c4919050565b81607e0361461f5750627c47e2919050565b50627e2800919050565b60bf8213614aa957609f821361487157608f821361475957608782136146d157608382136146915760818213614675578160800361466b57506280081d919050565b506281d83b919050565b8160820361468757506283b859919050565b5062859877919050565b608582136146b557816084036146ab575062877895919050565b50628958b3919050565b816086036146c75750628b38d1919050565b50628d18ef919050565b608b821361471957608982136146fd57816088036146f35750628ef90d919050565b506290d92a919050565b81608a0361470f57506292a948919050565b5062948965919050565b608d821361473d5781608c03614733575062965983919050565b50629839a0919050565b81608e0361474f5750629a09bd919050565b50629bd9db919050565b609782136147e957609382136147a9576091821361478d57816090036147835750629db9f8919050565b50629f8a14919050565b8160920361479f575062a14a31919050565b5062a31a4e919050565b609582136147cd57816094036147c3575062a4ea6a919050565b5062a6aa87919050565b816096036147df575062a87aa3919050565b5062aa3abf919050565b609b82136148315760998213614815578160980361480b575062abfadb919050565b5062adbaf6919050565b81609a03614827575062af6b12919050565b5062b12b2d919050565b609d82136148555781609c0361484b575062b2db48919050565b5062b48b63919050565b81609e03614867575062b63b7e919050565b5062b7eb98919050565b60af82136149915760a782136149095760a382136148c95760a182136148ad578160a0036148a3575062b98bb3919050565b5062bb3bcd919050565b8160a2036148bf575062bcdbe6919050565b5062be6c00919050565b60a582136148ed578160a4036148e3575062c00c19919050565b5062c19c32919050565b8160a6036148ff575062c32c4b919050565b5062c4bc64919050565b60ab82136149515760a98213614935578160a80361492b575062c64c7c919050565b5062c7cc94919050565b8160aa03614947575062c94cac919050565b5062caccc3919050565b60ad8213614975578160ac0361496b575062cc3cda919050565b5062cdacf1919050565b8160ae03614987575062cf1d08919050565b5062d08d1e919050565b60b78213614a215760b382136149e15760b182136149c5578160b0036149bb575062d1ed34919050565b5062d34d4a919050565b8160b2036149d7575062d4ad5f919050565b5062d5fd74919050565b60b58213614a05578160b4036149fb575062d74d89919050565b5062d89d9e919050565b8160b603614a17575062d9edb2919050565b5062db2dc5919050565b60bb8213614a695760b98213614a4d578160b803614a43575062dc5dd9919050565b5062dd9dec919050565b8160ba03614a5f575062decdff919050565b5062dffe11919050565b60bd8213614a8d578160bc03614a83575062e11e23919050565b5062e23e35919050565b8160be03614a9f575062e35e46919050565b5062e46e58919050565b60df8213614ce95760cf8213614bd15760c78213614b495760c38213614b095760c18213614aed578160c003614ae3575062e58e68919050565b5062e68e79919050565b8160c203614aff575062e79e89919050565b5062e89e98919050565b60c58213614b2d578160c403614b23575062e98ea7919050565b5062ea7eb6919050565b8160c603614b3f575062eb6ec5919050565b5062ec5ed3919050565b60cb8213614b915760c98213614b75578160c803614b6b575062ed3ee1919050565b5062ee1eee919050565b8160ca03614b87575062eeeefc919050565b5062efcf08919050565b60cd8213614bb5578160cc03614bab575062f08f15919050565b5062f15f21919050565b8160ce03614bc7575062f21f2c919050565b5062f2cf38919050565b60d78213614c615760d38213614c215760d18213614c05578160d003614bfb575062f38f43919050565b5062f43f4d919050565b8160d203614c17575062f4df58919050565b5062f58f61919050565b60d58213614c45578160d403614c3b575062f61f6b919050565b5062f6bf74919050565b8160d603614c57575062f74f7d919050565b5062f7df86919050565b60db8213614ca95760d98213614c8d578160d803614c83575062f86f8e919050565b5062f8ef96919050565b8160da03614c9f575062f96f9d919050565b5062f9dfa4919050565b60dd8213614ccd578160dc03614cc3575062fa4fab919050565b5062fabfb2919050565b8160de03614cdf575062fb2fb8919050565b5062fb8fbe919050565b60ef8213614e095760e78213614d815760e38213614d415760e18213614d25578160e003614d1b575062fbefc3919050565b5062fc3fc9919050565b8160e203614d37575062fc9fce919050565b5062fcefd2919050565b60e58213614d65578160e403614d5b575062fd2fd7919050565b5062fd7fdb919050565b8160e603614d77575062fdbfdf919050565b5062fdffe2919050565b60eb8213614dc95760e98213614dad578160e803614da3575062fe2fe6919050565b5062fe6fe9919050565b8160ea03614dbf575062fe9fec919050565b5062fecfee919050565b60ed8213614ded578160ec03614de3575062feeff1919050565b5062ff1ff3919050565b8160ee03614dff575062ff3ff5919050565b5062ff5ff6919050565b60f78213614e995760f38213614e595760f18213614e3d578160f003614e33575062ff6ff8919050565b5062ff8ff9919050565b8160f203614e4f575062ff9ffb919050565b5062ffbffc919050565b60f58213614e7d578160f403614e73575062ffcffc919050565b5062ffcffd919050565b8160f603614e8f575062ffdffe919050565b5062ffeffe919050565b60fb8213614ed75760f98213614ec5578160f803614ebb575062ffefff919050565b5062ffffff919050565b8160fa03614ebb575062ffffff919050565b60fd8213614ef1578160fc03614ebb575062ffffff919050565b8160fe03614ebb575062ffffff919050565b60608315614f1257508161063f565b825115614f225782518084602001fd5b8160405162461bcd60e51b81526004016103f8919061550a565b604080518082019091526000808252602082015290565b6001600160401b0381168114614f6857600080fd5b50565b600060208284031215614f7d57600080fd5b813561063f81614f53565b6001600160a01b0381168114614f6857600080fd5b600060208284031215614faf57600080fd5b813561063f81614f88565b60008060408385031215614fcd57600080fd5b8235614fd881614f53565b91506020830135614fe881614f53565b809150509250929050565b6001600160401b0391909116815260200190565b6000806040838503121561501a57600080fd5b823561502581614f53565b946020939093013593505050565b604080825283519082018190526000906020906060840190828701845b828110156150755781516001600160401b031684529284019290840190600101615050565b50505092019290925292915050565b60008060006060848603121561509957600080fd5b833592506020840135915060408401356150b281614f53565b809150509250925092565b81516040820190600381106150e257634e487b7160e01b600052602160045260246000fd5b8083525060ff602084015116602083015292915050565b60006020828403121561510b57600080fd5b815161063f81614f53565b60006020828403121561512857600080fd5b5051919050565b634e487b7160e01b600052601160045260246000fd5b80820281158282048414176104bd576104bd61512f565b634e487b7160e01b600052604160045260246000fd5b6000600182016151845761518461512f565b5060010190565b634e487b7160e01b600052603260045260246000fd5b6000602082840312156151b357600080fd5b815161063f81614f88565b818103818111156104bd576104bd61512f565b60006001600160401b038083168181036151ed576151ed61512f565b6001019392505050565b60c09290921b6001600160c01b0319168252600882015260280190565b634e487b7160e01b600052601260045260246000fd5b60008261523957615239615214565b500690565b808201808211156104bd576104bd61512f565b600060ff821660ff81036152675761526761512f565b60010192915050565b60008160070b8360070b8061528757615287615214565b60016001603f1b03198214600019821416156152a5576152a561512f565b90059392505050565b600782810b9082900b0360016001603f1b0319811260016001603f1b03821317156104bd576104bd61512f565b60008160070b60016001603f1b031981036152f8576152f861512f565b60000392915050565b60008261531057615310615214565b500490565b600781810b9083900b0160016001603f1b03811360016001603f1b0319821217156104bd576104bd61512f565b6001600160401b038181168382160190808211156153625761536261512f565b5092915050565b6001600160401b0381811683821602808216919082811461538c5761538c61512f565b505092915050565b60008260070b8260070b028060070b91508082146153625761536261512f565b60008260070b806153c7576153c7615214565b808360070b0791505092915050565b6000602082840312156153e857600080fd5b8151801515811461063f57600080fd5b60006001600160401b038084168061541257615412615214565b92169190910492915050565b6001600160401b038281168282160390808211156153625761536261512f565b808201828112600083128015821682158216171561538c5761538c61512f565b81810360008312801583831316838312821617156153625761536261512f565b80820260008212600160ff1b8414161561549a5761549a61512f565b81810583148215176104bd576104bd61512f565b6000600160ff1b82016154c3576154c361512f565b5060000390565b60005b838110156154e55781810151838201526020016154cd565b50506000910152565b600082516155008184602087016154ca565b9190910192915050565b60208152600082518060208401526155298160408501602087016154ca565b601f01601f1916919091016040019291505056fea2646970667358221220c902f2d6e7701aca2aa78dd4080e6b8fad63f0f3310cf1818439d9d5a11c8c7a64736f6c63430008140033",
  "devdoc": {
    "events": {
      "Initialized(uint8)": {
        "details": "Triggered when the contract has been initialized or reinitialized."
      },
      "RegionIncluded(uint64)": {
        "params": {
          "regionId": "Region id"
        }
      }
    },
    "kind": "dev",
    "methods": {
      "getDistanceBetweenPositions(uint64,uint64)": {
        "params": {
          "distance": "Distance",
          "position1": "First position",
          "position2": "Second position"
        }
      },
      "getRegionIdByPosition(uint64)": {
        "params": {
          "position": "Provided position"
        },
        "returns": {
          "_0": "Region id",
          "_1": "Is position exist (may not exist due to region cavities)"
        }
      },
      "getRegionOwner(uint64)": {
        "details": "Updated when #includeRegion is called",
        "params": {
          "regionId": "Region id"
        },
        "returns": {
          "_0": "Region owner"
        }
      },
      "getRegionTier(uint64)": {
        "details": "Updated when #includeRegion is called",
        "params": {
          "regionId": "Region id"
        },
        "returns": {
          "_0": "Region tier"
        }
      },
      "getRegionsCount()": {
        "details": "Updated when #includeRegion is called",
        "returns": {
          "_0": "Regions count"
        }
      },
      "getRingPositions(uint64,uint256)": {
        "params": {
          "position": "Position",
          "radius": "Ring radius"
        },
        "returns": {
          "_0": "Ring positions",
          "_1": "Ring positions length (array is initialized 6 * radius, however not all values should be used)"
        }
      },
      "getTileBonus(bytes32,uint256,uint64)": {
        "params": {
          "chanceForTileWithBonus": "Chance for tile with bonus (in 1e18 precision)",
          "position": "Position",
          "tileBonusesSeed": "Tile bonuses seed"
        },
        "returns": {
          "_0": "Tile bonus struct"
        }
      },
      "includeRegion(uint64,uint64)": {
        "details": "In case if there is more than zero regions in the game caller must provide two neighboring positions: first for new region, second of already existing regionIn case if zero included regions -> second param is ignored",
        "params": {
          "neighborRegionPosition": "Neighbor region position",
          "newRegionPosition": "New region position"
        }
      },
      "init(address)": {
        "details": "Called by address which created current instance",
        "params": {
          "worldAddress": "World address"
        }
      },
      "isRegionIncluded(uint64)": {
        "details": "Used to determine whether region can be activated or not",
        "params": {
          "regionId": "Region id"
        },
        "returns": {
          "_0": "Is region included"
        }
      }
    },
    "stateVariables": {
      "includedRegions": {
        "details": "Values are stored each time region is included and used in #isRegionIncluded"
      },
      "regionTiers": {
        "details": "Values are stored each time region is included and used in #getRegionTier in order to persists tiers between eras"
      },
      "regionsCount": {
        "details": "Value is accessible via #getRegionsCount"
      }
    },
    "version": 1
  },
  "userdoc": {
    "errors": {
      "CannotIncludeAlreadyIncludedRegion()": [
        {
          "notice": "Thrown when attempting to include already included region"
        }
      ],
      "CannotIncludeRegionDueToInsufficientUserSettlementsCountInNeighboringRegion()": [
        {
          "notice": "Thrown when attempting to include region with insufficient amount of user settlements in neighboring region"
        }
      ],
      "CannotIncludeRegionDueToInsufficientValueSent()": [
        {
          "notice": "Thrown when attempting to include region with insufficient value sent (only if world.erc20ForRegionInclusion == address(0), which is equivalent of native token)"
        }
      ],
      "CannotIncludeRegionWithInvalidRegionInclusionProofProvided()": [
        {
          "notice": "Thrown when attempting to include region by providing invalid region inclusion proof"
        }
      ],
      "FirstRegionCanOnlyBeIncludedByMightyCreator()": [
        {
          "notice": "Thrown when attempting to include first region by non mighty creator address"
        }
      ],
      "InvalidNeighborDirectionSpecified()": [
        {
          "notice": "Thrown when attempting to _getNeighborPosition with invalid neighbor direction. It should not be thrown ever, if it does this will indicate logic error"
        }
      ],
      "InvalidTileBonusConfiguration()": [
        {
          "notice": "Thrown when attempting to calculate tile bonus. It should not be thrown ever, if it does this will indicate logic error"
        }
      ],
      "OnlyActiveGame()": [
        {
          "notice": "Thrown when attempting to call action which can only be called in active game (started and not finished)"
        }
      ],
      "ReentrantCall()": [
        {
          "notice": "Thrown when attempting to call function via reentrancy"
        }
      ]
    },
    "events": {
      "RegionIncluded(uint64)": {
        "notice": "Emitted when #includeRegion is called"
      }
    },
    "kind": "user",
    "methods": {
      "getDistanceBetweenPositions(uint64,uint64)": {
        "notice": "Calculates distance between positions"
      },
      "getRegionIdByPosition(uint64)": {
        "notice": "Returns region id by position"
      },
      "getRegionOwner(uint64)": {
        "notice": "Returns region owner"
      },
      "getRegionTier(uint64)": {
        "notice": "Returns region tier"
      },
      "getRegionsCount()": {
        "notice": "Returns created regions count"
      },
      "getRingPositions(uint64,uint256)": {
        "notice": "Calculates all ring positions by provided position and radius"
      },
      "getTileBonus(bytes32,uint256,uint64)": {
        "notice": "Returns tile bonus by provided position"
      },
      "includeRegion(uint64,uint64)": {
        "notice": "Includes new region to the game"
      },
      "init(address)": {
        "notice": "Proxy initializer"
      },
      "isRegionIncluded(uint64)": {
        "notice": "Checks if region is included to the game"
      },
      "world()": {
        "notice": "World"
      }
    },
    "version": 1
  },
  "storageLayout": {
    "storage": [
      {
        "astId": 119,
        "contract": "contracts/core/geography/Geography.sol:Geography",
        "label": "_initialized",
        "offset": 0,
        "slot": "0",
        "type": "t_uint8"
      },
      {
        "astId": 122,
        "contract": "contracts/core/geography/Geography.sol:Geography",
        "label": "_initializing",
        "offset": 1,
        "slot": "0",
        "type": "t_bool"
      },
      {
        "astId": 10743,
        "contract": "contracts/core/geography/Geography.sol:Geography",
        "label": "world",
        "offset": 2,
        "slot": "0",
        "type": "t_contract(IWorld)8441"
      },
      {
        "astId": 48381,
        "contract": "contracts/core/geography/Geography.sol:Geography",
        "label": "_status",
        "offset": 22,
        "slot": "0",
        "type": "t_bool"
      },
      {
        "astId": 34824,
        "contract": "contracts/core/geography/Geography.sol:Geography",
        "label": "includedRegions",
        "offset": 0,
        "slot": "1",
        "type": "t_mapping(t_uint64,t_uint256)"
      },
      {
        "astId": 34829,
        "contract": "contracts/core/geography/Geography.sol:Geography",
        "label": "regionTiers",
        "offset": 0,
        "slot": "2",
        "type": "t_mapping(t_uint64,t_uint256)"
      },
      {
        "astId": 34832,
        "contract": "contracts/core/geography/Geography.sol:Geography",
        "label": "regionsCount",
        "offset": 0,
        "slot": "3",
        "type": "t_uint64"
      }
    ],
    "types": {
      "t_bool": {
        "encoding": "inplace",
        "label": "bool",
        "numberOfBytes": "1"
      },
      "t_contract(IWorld)8441": {
        "encoding": "inplace",
        "label": "contract IWorld",
        "numberOfBytes": "20"
      },
      "t_mapping(t_uint64,t_uint256)": {
        "encoding": "mapping",
        "key": "t_uint64",
        "label": "mapping(uint64 => uint256)",
        "numberOfBytes": "32",
        "value": "t_uint256"
      },
      "t_uint256": {
        "encoding": "inplace",
        "label": "uint256",
        "numberOfBytes": "32"
      },
      "t_uint64": {
        "encoding": "inplace",
        "label": "uint64",
        "numberOfBytes": "8"
      },
      "t_uint8": {
        "encoding": "inplace",
        "label": "uint8",
        "numberOfBytes": "1"
      }
    }
  }
}