{
  "address": "0x72BaE0d4D35e23C1EeFF3644210fec8Bf2676Ff9",
  "abi": [
    {
      "inputs": [],
      "name": "BuildingCannotBeUpgradedWhileUpgradeIsOnCooldown",
      "type": "error"
    },
    {
      "inputs": [],
      "name": "CannotTransferProducingResourceFromBuilding",
      "type": "error"
    },
    {
      "inputs": [],
      "name": "DistributionResetNotAllowedWhenTreasuryThresholdNotMet",
      "type": "error"
    },
    {
      "inputs": [],
      "name": "OnlyActiveGame",
      "type": "error"
    },
    {
      "inputs": [],
      "name": "OnlyDistributions",
      "type": "error"
    },
    {
      "inputs": [],
      "name": "OnlyMightyCreator",
      "type": "error"
    },
    {
      "inputs": [],
      "name": "OnlyRulerOrWorldAssetFromSameEra",
      "type": "error"
    },
    {
      "inputs": [],
      "name": "OnlySettlementOwner",
      "type": "error"
    },
    {
      "inputs": [],
      "name": "OnlyWorldAssetFromSameEra",
      "type": "error"
    },
    {
      "anonymous": false,
      "inputs": [
        {
          "indexed": false,
          "internalType": "uint256",
          "name": "newAdditionalWorkersCapacityMultiplier",
          "type": "uint256"
        }
      ],
      "name": "AdvancedProductionAdditionalWorkersCapacityMultiplierUpdated",
      "type": "event"
    },
    {
      "anonymous": false,
      "inputs": [
        {
          "indexed": false,
          "internalType": "uint256",
          "name": "newAdvancedProductionLevel",
          "type": "uint256"
        },
        {
          "indexed": false,
          "internalType": "uint256",
          "name": "newAdvancedProductionCoefficient",
          "type": "uint256"
        }
      ],
      "name": "AdvancedProductionUpgraded",
      "type": "event"
    },
    {
      "anonymous": false,
      "inputs": [
        {
          "indexed": false,
          "internalType": "uint256",
          "name": "newBasicProductionLevel",
          "type": "uint256"
        },
        {
          "indexed": false,
          "internalType": "uint256",
          "name": "newBasicProductionCoefficient",
          "type": "uint256"
        }
      ],
      "name": "BasicProductionUpgraded",
      "type": "event"
    },
    {
      "anonymous": false,
      "inputs": [
        {
          "indexed": false,
          "internalType": "bytes32",
          "name": "resourceTypeId",
          "type": "bytes32"
        },
        {
          "indexed": false,
          "internalType": "address",
          "name": "holder",
          "type": "address"
        },
        {
          "indexed": false,
          "internalType": "uint256",
          "name": "amount",
          "type": "uint256"
        }
      ],
      "name": "DistributedToShareHolder",
      "type": "event"
    },
    {
      "anonymous": false,
      "inputs": [
        {
          "indexed": false,
          "internalType": "uint256",
          "name": "newDistributionId",
          "type": "uint256"
        }
      ],
      "name": "DistributionCreated",
      "type": "event"
    },
    {
      "anonymous": false,
      "inputs": [
        {
          "indexed": false,
          "internalType": "uint8",
          "name": "version",
          "type": "uint8"
        }
      ],
      "name": "Initialized",
      "type": "event"
    },
    {
      "anonymous": false,
      "inputs": [
        {
          "indexed": false,
          "internalType": "address",
          "name": "distributionNftHolder",
          "type": "address"
        },
        {
          "indexed": false,
          "internalType": "uint256",
          "name": "newDebt",
          "type": "uint256"
        }
      ],
      "name": "ProducedResourceDebtUpdated",
      "type": "event"
    },
    {
      "anonymous": false,
      "inputs": [
        {
          "indexed": false,
          "internalType": "uint256",
          "name": "lastUpdateStateTime",
          "type": "uint256"
        },
        {
          "indexed": false,
          "internalType": "uint256",
          "name": "lastUpdateStateRegionTime",
          "type": "uint256"
        },
        {
          "indexed": false,
          "internalType": "uint256",
          "name": "readyToBeDistributed",
          "type": "uint256"
        },
        {
          "indexed": false,
          "internalType": "uint256",
          "name": "totalDebt",
          "type": "uint256"
        }
      ],
      "name": "ProductionInfoUpdated",
      "type": "event"
    },
    {
      "inputs": [],
      "name": "advancedProduction",
      "outputs": [
        {
          "internalType": "uint256",
          "name": "level",
          "type": "uint256"
        },
        {
          "internalType": "uint256",
          "name": "coefficient",
          "type": "uint256"
        },
        {
          "internalType": "uint256",
          "name": "additionalWorkersCapacityMultiplier",
          "type": "uint256"
        },
        {
          "internalType": "uint256",
          "name": "toBeProducedTicks",
          "type": "uint256"
        }
      ],
      "stateMutability": "view",
      "type": "function"
    },
    {
      "inputs": [],
      "name": "assetGroupId",
      "outputs": [
        {
          "internalType": "bytes32",
          "name": "",
          "type": "bytes32"
        }
      ],
      "stateMutability": "view",
      "type": "function"
    },
    {
      "inputs": [],
      "name": "assetTypeId",
      "outputs": [
        {
          "internalType": "bytes32",
          "name": "",
          "type": "bytes32"
        }
      ],
      "stateMutability": "view",
      "type": "function"
    },
    {
      "inputs": [],
      "name": "basicProduction",
      "outputs": [
        {
          "internalType": "uint256",
          "name": "level",
          "type": "uint256"
        },
        {
          "internalType": "uint256",
          "name": "coefficient",
          "type": "uint256"
        }
      ],
      "stateMutability": "view",
      "type": "function"
    },
    {
      "inputs": [],
      "name": "buildingTypeId",
      "outputs": [
        {
          "internalType": "bytes32",
          "name": "",
          "type": "bytes32"
        }
      ],
      "stateMutability": "view",
      "type": "function"
    },
    {
      "inputs": [
        {
          "internalType": "uint256",
          "name": "burnAmount",
          "type": "uint256"
        }
      ],
      "name": "burnTreasury",
      "outputs": [],
      "stateMutability": "nonpayable",
      "type": "function"
    },
    {
      "inputs": [
        {
          "internalType": "uint256",
          "name": "capacityAmount",
          "type": "uint256"
        }
      ],
      "name": "decreaseAdditionalWorkersCapacityMultiplier",
      "outputs": [],
      "stateMutability": "nonpayable",
      "type": "function"
    },
    {
      "inputs": [],
      "name": "distributeToAllShareholders",
      "outputs": [],
      "stateMutability": "nonpayable",
      "type": "function"
    },
    {
      "inputs": [
        {
          "internalType": "address",
          "name": "holder",
          "type": "address"
        }
      ],
      "name": "distributeToSingleShareholder",
      "outputs": [],
      "stateMutability": "nonpayable",
      "type": "function"
    },
    {
      "inputs": [],
      "name": "distributionId",
      "outputs": [
        {
          "internalType": "uint256",
          "name": "",
          "type": "uint256"
        }
      ],
      "stateMutability": "view",
      "type": "function"
    },
    {
      "inputs": [],
      "name": "era",
      "outputs": [
        {
          "internalType": "contract IEra",
          "name": "",
          "type": "address"
        }
      ],
      "stateMutability": "view",
      "type": "function"
    },
    {
      "inputs": [],
      "name": "eraNumber",
      "outputs": [
        {
          "internalType": "uint256",
          "name": "",
          "type": "uint256"
        }
      ],
      "stateMutability": "view",
      "type": "function"
    },
    {
      "inputs": [],
      "name": "getAdditionalWorkersFromAdditionalWorkersCapacityMultiplier",
      "outputs": [
        {
          "internalType": "uint256",
          "name": "",
          "type": "uint256"
        }
      ],
      "stateMutability": "view",
      "type": "function"
    },
    {
      "inputs": [
        {
          "internalType": "uint256",
          "name": "level",
          "type": "uint256"
        }
      ],
      "name": "getAdvancedUpgradeCooldownDuration",
      "outputs": [
        {
          "internalType": "uint256",
          "name": "",
          "type": "uint256"
        }
      ],
      "stateMutability": "view",
      "type": "function"
    },
    {
      "inputs": [],
      "name": "getAssignedWorkers",
      "outputs": [
        {
          "internalType": "uint256",
          "name": "",
          "type": "uint256"
        }
      ],
      "stateMutability": "view",
      "type": "function"
    },
    {
      "inputs": [],
      "name": "getAvailableForAdvancedProductionWorkersCapacity",
      "outputs": [
        {
          "internalType": "uint256",
          "name": "",
          "type": "uint256"
        }
      ],
      "stateMutability": "view",
      "type": "function"
    },
    {
      "inputs": [
        {
          "internalType": "uint256",
          "name": "level",
          "type": "uint256"
        }
      ],
      "name": "getBasicUpgradeCooldownDuration",
      "outputs": [
        {
          "internalType": "uint256",
          "name": "",
          "type": "uint256"
        }
      ],
      "stateMutability": "view",
      "type": "function"
    },
    {
      "inputs": [
        {
          "internalType": "uint256",
          "name": "level",
          "type": "uint256"
        }
      ],
      "name": "getBuildingCoefficient",
      "outputs": [
        {
          "internalType": "uint256",
          "name": "",
          "type": "uint256"
        }
      ],
      "stateMutability": "pure",
      "type": "function"
    },
    {
      "inputs": [],
      "name": "getBuildingLevel",
      "outputs": [
        {
          "internalType": "uint256",
          "name": "",
          "type": "uint256"
        }
      ],
      "stateMutability": "view",
      "type": "function"
    },
    {
      "inputs": [],
      "name": "getConfig",
      "outputs": [
        {
          "components": [
            {
              "internalType": "bytes32",
              "name": "resourceTypeId",
              "type": "bytes32"
            },
            {
              "internalType": "uint256",
              "name": "amountPerTick",
              "type": "uint256"
            },
            {
              "internalType": "bool",
              "name": "isProducing",
              "type": "bool"
            }
          ],
          "internalType": "struct IBuilding.ProductionConfigItem[]",
          "name": "",
          "type": "tuple[]"
        }
      ],
      "stateMutability": "pure",
      "type": "function"
    },
    {
      "inputs": [
        {
          "internalType": "uint256",
          "name": "level",
          "type": "uint256"
        }
      ],
      "name": "getMaxTreasuryByLevel",
      "outputs": [
        {
          "internalType": "uint256",
          "name": "",
          "type": "uint256"
        }
      ],
      "stateMutability": "view",
      "type": "function"
    },
    {
      "inputs": [],
      "name": "getProducingResourceTypeId",
      "outputs": [
        {
          "internalType": "bytes32",
          "name": "",
          "type": "bytes32"
        }
      ],
      "stateMutability": "view",
      "type": "function"
    },
    {
      "inputs": [
        {
          "internalType": "uint256",
          "name": "timestamp",
          "type": "uint256"
        }
      ],
      "name": "getProductionResult",
      "outputs": [
        {
          "components": [
            {
              "internalType": "bytes32",
              "name": "resourceTypeId",
              "type": "bytes32"
            },
            {
              "internalType": "uint256",
              "name": "balanceDelta",
              "type": "uint256"
            },
            {
              "internalType": "bool",
              "name": "isProduced",
              "type": "bool"
            }
          ],
          "internalType": "struct IBuilding.ProductionResultItem[]",
          "name": "",
          "type": "tuple[]"
        }
      ],
      "stateMutability": "view",
      "type": "function"
    },
    {
      "inputs": [
        {
          "internalType": "bytes32",
          "name": "resourceTypeId",
          "type": "bytes32"
        },
        {
          "internalType": "uint256",
          "name": "timestamp",
          "type": "uint256"
        }
      ],
      "name": "getResourcesAmount",
      "outputs": [
        {
          "internalType": "uint256",
          "name": "",
          "type": "uint256"
        }
      ],
      "stateMutability": "view",
      "type": "function"
    },
    {
      "inputs": [
        {
          "internalType": "uint256",
          "name": "timestamp",
          "type": "uint256"
        }
      ],
      "name": "getTreasuryAmount",
      "outputs": [
        {
          "internalType": "uint256",
          "name": "",
          "type": "uint256"
        }
      ],
      "stateMutability": "view",
      "type": "function"
    },
    {
      "inputs": [
        {
          "internalType": "uint256",
          "name": "level",
          "type": "uint256"
        }
      ],
      "name": "getUpgradePrice",
      "outputs": [
        {
          "internalType": "uint256",
          "name": "",
          "type": "uint256"
        }
      ],
      "stateMutability": "view",
      "type": "function"
    },
    {
      "inputs": [],
      "name": "getWorkersCapacity",
      "outputs": [
        {
          "internalType": "uint256",
          "name": "",
          "type": "uint256"
        }
      ],
      "stateMutability": "view",
      "type": "function"
    },
    {
      "inputs": [],
      "name": "givenProsperityAmount",
      "outputs": [
        {
          "internalType": "uint256",
          "name": "",
          "type": "uint256"
        }
      ],
      "stateMutability": "view",
      "type": "function"
    },
    {
      "inputs": [],
      "name": "handleProductionResourcesChanged",
      "outputs": [],
      "stateMutability": "nonpayable",
      "type": "function"
    },
    {
      "inputs": [
        {
          "internalType": "uint256",
          "name": "capacityAmount",
          "type": "uint256"
        }
      ],
      "name": "increaseAdditionalWorkersCapacityMultiplier",
      "outputs": [],
      "stateMutability": "nonpayable",
      "type": "function"
    },
    {
      "inputs": [
        {
          "internalType": "bytes",
          "name": "initParams",
          "type": "bytes"
        }
      ],
      "name": "init",
      "outputs": [],
      "stateMutability": "nonpayable",
      "type": "function"
    },
    {
      "inputs": [
        {
          "internalType": "bytes32",
          "name": "resourceTypeId",
          "type": "bytes32"
        }
      ],
      "name": "isResourceAcceptable",
      "outputs": [
        {
          "internalType": "bool",
          "name": "",
          "type": "bool"
        }
      ],
      "stateMutability": "view",
      "type": "function"
    },
    {
      "inputs": [
        {
          "internalType": "address",
          "name": "operator",
          "type": "address"
        },
        {
          "internalType": "address",
          "name": "from",
          "type": "address"
        },
        {
          "internalType": "uint256[]",
          "name": "ids",
          "type": "uint256[]"
        },
        {
          "internalType": "uint256[]",
          "name": "values",
          "type": "uint256[]"
        },
        {
          "internalType": "bytes",
          "name": "data",
          "type": "bytes"
        }
      ],
      "name": "onERC1155BatchReceived",
      "outputs": [
        {
          "internalType": "bytes4",
          "name": "",
          "type": "bytes4"
        }
      ],
      "stateMutability": "nonpayable",
      "type": "function"
    },
    {
      "inputs": [
        {
          "internalType": "address",
          "name": "operator",
          "type": "address"
        },
        {
          "internalType": "address",
          "name": "from",
          "type": "address"
        },
        {
          "internalType": "uint256",
          "name": "id",
          "type": "uint256"
        },
        {
          "internalType": "uint256",
          "name": "value",
          "type": "uint256"
        },
        {
          "internalType": "bytes",
          "name": "data",
          "type": "bytes"
        }
      ],
      "name": "onERC1155Received",
      "outputs": [
        {
          "internalType": "bytes4",
          "name": "",
          "type": "bytes4"
        }
      ],
      "stateMutability": "nonpayable",
      "type": "function"
    },
    {
      "inputs": [
        {
          "internalType": "address",
          "name": "",
          "type": "address"
        }
      ],
      "name": "producedResourceDebt",
      "outputs": [
        {
          "internalType": "uint256",
          "name": "",
          "type": "uint256"
        }
      ],
      "stateMutability": "view",
      "type": "function"
    },
    {
      "inputs": [],
      "name": "productionInfo",
      "outputs": [
        {
          "internalType": "uint256",
          "name": "lastUpdateStateTime",
          "type": "uint256"
        },
        {
          "internalType": "uint256",
          "name": "lastUpdateStateRegionTime",
          "type": "uint256"
        },
        {
          "internalType": "uint256",
          "name": "readyToBeDistributed",
          "type": "uint256"
        },
        {
          "internalType": "uint256",
          "name": "totalDebt",
          "type": "uint256"
        }
      ],
      "stateMutability": "view",
      "type": "function"
    },
    {
      "inputs": [],
      "name": "registry",
      "outputs": [
        {
          "internalType": "contract IRegistry",
          "name": "",
          "type": "address"
        }
      ],
      "stateMutability": "view",
      "type": "function"
    },
    {
      "inputs": [],
      "name": "relatedSettlement",
      "outputs": [
        {
          "internalType": "contract ISettlement",
          "name": "",
          "type": "address"
        }
      ],
      "stateMutability": "view",
      "type": "function"
    },
    {
      "inputs": [
        {
          "internalType": "address",
          "name": "workersReceiverAddress",
          "type": "address"
        },
        {
          "internalType": "uint256",
          "name": "workersAmount",
          "type": "uint256"
        },
        {
          "internalType": "address",
          "name": "resourcesReceiverAddress",
          "type": "address"
        },
        {
          "internalType": "bytes32[]",
          "name": "resourceTypeIds",
          "type": "bytes32[]"
        },
        {
          "internalType": "uint256[]",
          "name": "resourcesAmounts",
          "type": "uint256[]"
        }
      ],
      "name": "removeResourcesAndWorkers",
      "outputs": [],
      "stateMutability": "nonpayable",
      "type": "function"
    },
    {
      "inputs": [],
      "name": "resetDistribution",
      "outputs": [],
      "stateMutability": "nonpayable",
      "type": "function"
    },
    {
      "inputs": [
        {
          "internalType": "address",
          "name": "stealerSettlementAddress",
          "type": "address"
        },
        {
          "internalType": "uint256",
          "name": "amount",
          "type": "uint256"
        }
      ],
      "name": "stealTreasury",
      "outputs": [
        {
          "internalType": "uint256",
          "name": "",
          "type": "uint256"
        },
        {
          "internalType": "uint256",
          "name": "",
          "type": "uint256"
        }
      ],
      "stateMutability": "nonpayable",
      "type": "function"
    },
    {
      "inputs": [
        {
          "internalType": "bytes4",
          "name": "interfaceId",
          "type": "bytes4"
        }
      ],
      "name": "supportsInterface",
      "outputs": [
        {
          "internalType": "bool",
          "name": "",
          "type": "bool"
        }
      ],
      "stateMutability": "view",
      "type": "function"
    },
    {
      "inputs": [
        {
          "internalType": "address",
          "name": "from",
          "type": "address"
        },
        {
          "internalType": "address",
          "name": "to",
          "type": "address"
        },
        {
          "internalType": "uint256",
          "name": "amount",
          "type": "uint256"
        }
      ],
      "name": "updateDebtsAccordingToNewDistributionsAmounts",
      "outputs": [],
      "stateMutability": "nonpayable",
      "type": "function"
    },
    {
      "inputs": [],
      "name": "updateState",
      "outputs": [],
      "stateMutability": "nonpayable",
      "type": "function"
    },
    {
      "inputs": [
        {
          "internalType": "address",
          "name": "resourcesOwner",
          "type": "address"
        }
      ],
      "name": "upgradeAdvancedProduction",
      "outputs": [],
      "stateMutability": "nonpayable",
      "type": "function"
    },
    {
      "inputs": [
        {
          "internalType": "address",
          "name": "resourcesOwner",
          "type": "address"
        }
      ],
      "name": "upgradeBasicProduction",
      "outputs": [],
      "stateMutability": "nonpayable",
      "type": "function"
    },
    {
      "inputs": [],
      "name": "upgradeCooldownEndTime",
      "outputs": [
        {
          "internalType": "uint256",
          "name": "",
          "type": "uint256"
        }
      ],
      "stateMutability": "view",
      "type": "function"
    },
    {
      "inputs": [],
      "name": "world",
      "outputs": [
        {
          "internalType": "contract IWorld",
          "name": "",
          "type": "address"
        }
      ],
      "stateMutability": "view",
      "type": "function"
    },
    {
      "inputs": [],
      "name": "worldAssetFactory",
      "outputs": [
        {
          "internalType": "contract IWorldAssetFactory",
          "name": "",
          "type": "address"
        }
      ],
      "stateMutability": "view",
      "type": "function"
    }
  ],
  "transactionHash": "0x5dbccec0898555d5ac3124e26d563da7d2423c88a2685dc095334214e96761e5",
  "args": [],
  "numDeployments": 1,
  "solcInputHash": "2627c9fa14fa5cb6e37bf26f5785fa8b",
  "bytecode": "0x608060405234801561001057600080fd5b5061570380620000216000396000f3fe608060405234801561001057600080fd5b506004361061026a5760003560e01c80638545bc5811610152578063c724a016116100c9578063c724a0161461052e578063c9c0df611461054e578063d26aaf9314610557578063d2bc7d851461055f578063e05ab49814610567578063e145c3ad14610570578063e8d4d46d14610578578063e91bde761461058b578063eb3585341461059e578063ece56a1a146105b1578063f23a6e61146105b9578063f2477b5b146105d9578063ffaf29a0146105e157600080fd5b80638545bc58146104355780638a6bbad31461043d5780638ae52a38146104535780638beab87e1461045b578063900918721461047b57806391ab778d1461048e578063ad36624414610497578063ae6fd51d1461049f578063b78d1384146104b2578063bc197c81146104c5578063c3f909d414610500578063c45f10001461051557600080fd5b80633c084b8b116101e65780633c084b8b1461037157806343e77f4614610384578063486a42d5146103975780634ddf47d4146103a0578063589ae400146103b35780635ed697b7146103db57806365e6f4ce146103ef5780637abdf949146103f75780637b1039991461040a5780637b7a2bfc146104125780637d884c741461042557806384ba89e31461042d57600080fd5b8062d4fbf81461026f57806301288b521461029557806301ffc9a7146102aa57806304b10ac8146102cd5780630b4e99c3146102d5578063143e55e0146102dd57806314dff0e8146102f2578063152d9483146103285780631d8557d71461033b5780631e9738d1146103435780631fb91f391461035657806330b67baa14610369575b600080fd5b61028261027d366004614e7f565b6105ef565b6040519081526020015b60405180910390f35b6102a86102a3366004614ef4565b610676565b005b6102bd6102b8366004614f92565b6106ac565b604051901515815260200161028c565b6102826106e1565b61028261075d565b6102e561079a565b60405161028c9190614fbc565b6004546005546006546007546103089392919084565b60408051948552602085019390935291830152606082015260800161028c565b6102a8610336366004614fd0565b61081e565b6102a861097a565b610282610351366004615011565b610d2c565b6102a8610364366004615033565b6110a7565b6102e5611586565b61028261037f366004614e7f565b611590565b6102a8610392366004614e7f565b6115c4565b61028260095481565b6102a86103ae366004615096565b611625565b6103c66103c136600461512a565b611871565b6040805192835260208301919091520161028c565b6102826103e9366004614e7f565b50600090565b6102a8611c46565b610282610405366004614e7f565b61206f565b6102e56120cd565b6102a8610420366004615033565b612114565b610282612420565b61028261245d565b61028261249a565b600a54600b54600c54600d546103089392919084565b6102826124ac565b61046e610469366004614e7f565b612583565b60405161028c9190615156565b6102bd610489366004614e7f565b6129b9565b61028260085481565b610282612a1c565b6102a86104ad366004614e7f565b612aa3565b6102a86104c0366004614e7f565b612b51565b6104e76104d33660046151fb565b63bc197c8160e01b98975050505050505050565b6040516001600160e01b0319909116815260200161028c565b610508612c3d565b60405161028c91906152b9565b6000546102e5906201000090046001600160a01b031681565b61028261053c366004615033565b600f6020526000908152604090205481565b610282600e5481565b610282612db2565b6102a8612dce565b61028260015481565b6102a8612e0d565b6102a8610586366004615033565b612e22565b610282610599366004614e7f565b6132f3565b6102826105ac366004614e7f565b613379565b6102e561338c565b6104e76105c7366004615311565b63f23a6e6160e01b9695505050505050565b6102826133d3565b6002546003546103c6919082565b60006105f96120cd565b6001600160a01b031663781e0efe6040518163ffffffff1660e01b8152600401602060405180830381865afa158015610636573d6000803e3d6000fd5b505050506040513d601f19601f8201168201806040525081019061065a919061538c565b610666836154606153bb565b61067091906153d2565b92915050565b61067e613467565b610686613598565b85156106965761069687876136da565b6106a384848785856137b3565b50505050505050565b60006001600160e01b03198216630271189760e51b148061067057506301ffc9a760e01b6001600160e01b0319831614610670565b6000806106ec612c3d565b905060005b81518110156107545781818151811061070c5761070c6153f4565b602002602001015160400151156107425781818151811061072f5761072f6153f4565b6020026020010151600001519250505090565b8061074c8161540a565b9150506106f1565b50600092915050565b604080516020808252818301909252600091309183918291906020820181803683370190505090506020607a60208301853c602001519392505050565b60006107a4611586565b6001600160a01b031663720a70bd6107ba612420565b6040518263ffffffff1660e01b81526004016107d891815260200190565b602060405180830381865afa1580156107f5573d6000803e3d6000fd5b505050506040513d601f19601f820116820180604052508101906108199190615423565b905090565b610826613813565b6000610830611586565b6001600160a01b031663e4e940f06040518163ffffffff1660e01b8152600401602060405180830381865afa15801561086d573d6000803e3d6000fd5b505050506040513d601f19601f820116820180604052508101906108919190615423565b6001600160a01b03166302705c2e6040518163ffffffff1660e01b8152600401602060405180830381865afa1580156108ce573d6000803e3d6000fd5b505050506040513d601f19601f820116820180604052508101906108f2919061538c565b600c546109009084906153bb565b61090a91906153d2565b90508060000361091a5750505050565b6001600160a01b0384166000908152600f6020526040902054610949908590610944908490615440565b6138a4565b6001600160a01b0383166000908152600f6020526040902054610973908490610944908490615453565b505b505050565b600060029054906101000a90046001600160a01b03166001600160a01b031663e6c15c996040518163ffffffff1660e01b8152600401602060405180830381865afa1580156109cd573d6000803e3d6000fd5b505050506040513d601f19601f820116820180604052508101906109f19190615423565b6001600160a01b0316631d8557d76040518163ffffffff1660e01b8152600401600060405180830381600087803b158015610a2b57600080fd5b505af1158015610a3f573d6000803e3d6000fd5b505050506000610a4d6138f1565b905080600a6000015403610a5e5750565b6000610a6982612583565b9050610b5f82600060029054906101000a90046001600160a01b03166001600160a01b031663e6c15c996040518163ffffffff1660e01b8152600401602060405180830381865afa158015610ac2573d6000803e3d6000fd5b505050506040513d601f19601f82011682018060405250810190610ae69190615423565b6001600160a01b03166325fc9289856040518263ffffffff1660e01b8152600401610b1391815260200190565b602060405180830381865afa158015610b30573d6000803e3d6000fd5b505050506040513d601f19601f82011682018060405250810190610b54919061538c565b600c54600d546139f9565b60005b8151811015610d1f57818181518110610b7d57610b7d6153f4565b60200260200101516020015160000315610d0d57818181518110610ba357610ba36153f4565b60200260200101516040015115610bfd57610bf8828281518110610bc957610bc96153f4565b602002602001015160000151838381518110610be757610be76153f4565b602002602001015160200151613a5b565b610d0d565b610c0561079a565b6001600160a01b031663912929df838381518110610c2557610c256153f4565b6020026020010151600001516040518263ffffffff1660e01b8152600401610c4f91815260200190565b602060405180830381865afa158015610c6c573d6000803e3d6000fd5b505050506040513d601f19601f82011682018060405250810190610c909190615423565b6001600160a01b03166342966c68838381518110610cb057610cb06153f4565b6020026020010151602001516040518263ffffffff1660e01b8152600401610cda91815260200190565b600060405180830381600087803b158015610cf457600080fd5b505af1158015610d08573d6000803e3d6000fd5b505050505b80610d178161540a565b915050610b62565b50610d28613e9d565b5050565b600080610d3883612583565b905060005b815181101561109c5784828281518110610d5957610d596153f4565b6020026020010151600001510361108a57818181518110610d7c57610d7c6153f4565b60200260200101516040015115610f77576000610d9a61037f61249a565b905080600003610db05760009350505050610670565b6000670de0b6b3a7640000610dc36120cd565b6001600160a01b0316636f3426da6040518163ffffffff1660e01b8152600401602060405180830381865afa158015610e00573d6000803e3d6000fd5b505050506040513d601f19601f82011682018060405250810190610e24919061538c565b858581518110610e3657610e366153f4565b602002602001015160200151610e4c91906153bb565b610e5691906153d2565b90506000610e6261079a565b6001600160a01b031663912929df610e786106e1565b6040518263ffffffff1660e01b8152600401610e9691815260200190565b602060405180830381865afa158015610eb3573d6000803e3d6000fd5b505050506040513d601f19601f82011682018060405250810190610ed79190615423565b6001600160a01b031663eae33602306040518263ffffffff1660e01b8152600401610f029190614fbc565b602060405180830381865afa158015610f1f573d6000803e3d6000fd5b505050506040513d601f19601f82011682018060405250810190610f43919061538c565b9050828110610f585794506106709350505050565b610f6b610f658284615453565b84614279565b95505050505050610670565b818181518110610f8957610f896153f4565b602002602001015160200151610f9d61079a565b6001600160a01b031663912929df876040518263ffffffff1660e01b8152600401610fca91815260200190565b602060405180830381865afa158015610fe7573d6000803e3d6000fd5b505050506040513d601f19601f8201168201806040525081019061100b9190615423565b6001600160a01b031663eae33602306040518263ffffffff1660e01b81526004016110369190614fbc565b602060405180830381865afa158015611053573d6000803e3d6000fd5b505050506040513d601f19601f82011682018060405250810190611077919061538c565b6110819190615440565b92505050610670565b806110948161540a565b915050610d3d565b506000949350505050565b6110af613467565b6110b7613598565b6110bf61097a565b6008544210156110e25760405163aa4aed7160e01b815260040160405180910390fd5b60006110ec61249a565b905060006110f98261206f565b60408051808201909152600481526315d3d3d160e21b60209091015290507f5f3d3bfd5b61198148275c178146c21eec5c5ab7e81758f3c651754ae3f1ed426001600160a01b0384166112205761114e61079a565b6001600160a01b031663912929df826040518263ffffffff1660e01b815260040161117b91815260200190565b602060405180830381865afa158015611198573d6000803e3d6000fd5b505050506040513d601f19601f820116820180604052508101906111bc9190615423565b6001600160a01b03166379cc679033846040518363ffffffff1660e01b81526004016111e9929190615466565b600060405180830381600087803b15801561120357600080fd5b505af1158015611217573d6000803e3d6000fd5b5050505061135f565b600061122a61079a565b6001600160a01b031663912929df836040518263ffffffff1660e01b815260040161125791815260200190565b602060405180830381865afa158015611274573d6000803e3d6000fd5b505050506040513d601f19601f820116820180604052508101906112989190615423565b60405163dd8aaa4f60e01b81529091506001600160a01b0382169063dd8aaa4f906112cb9088903390889060040161547f565b600060405180830381600087803b1580156112e557600080fd5b505af11580156112f9573d6000803e3d6000fd5b505060405163079cc67960e41b81526001600160a01b03841692506379cc6790915061132b9088908790600401615466565b600060405180830381600087803b15801561134557600080fd5b505af1158015611359573d6000803e3d6000fd5b50505050505b600060029054906101000a90046001600160a01b03166001600160a01b031663e6c15c996040518163ffffffff1660e01b8152600401602060405180830381865afa1580156113b2573d6000803e3d6000fd5b505050506040513d601f19601f820116820180604052508101906113d69190615423565b6000546001600160a01b0391821691635053c2999162010000900416670de0b6b3a7640000856114046120cd565b6001600160a01b0316637496fc52876040518263ffffffff1660e01b815260040161143191815260200190565b602060405180830381865afa15801561144e573d6000803e3d6000fd5b505050506040513d601f19601f82011682018060405250810190611472919061538c565b61147c91906153bb565b61148691906153d2565b6040518363ffffffff1660e01b81526004016114a3929190615466565b600060405180830381600087803b1580156114bd57600080fd5b505af11580156114d1573d6000803e3d6000fd5b505050506114de836105ef565b6114e89042615453565b6008556003546000906114fa856132f3565b611508610599876001615453565b6115129190615440565b61151c9190615453565b600254909150600090611530906001615453565b600383905560028190559050611544613e9d565b60408051828152602081018490527fa933a9f591d9b53ffc6316451d228c163207767426d4097ffa9434c2efa4f6ba91015b60405180910390a1505050505050565b6000610819614291565b6000600261159d836132f3565b6115a79190615587565b6115b290600a6153bb565b61067090670de0b6b3a76400006153bb565b6115cc6142ce565b6115d461097a565b6006546000906115e5908390615440565b60068190556040518181529091507fa5b080ca657305a05e233a1bdfe1cb5a92588bd94928658051cf6ea8d91ae4b1906020015b60405180910390a15050565b600054610100900460ff16158080156116455750600054600160ff909116105b8061165f5750303b15801561165f575060005460ff166001145b6116c65760405162461bcd60e51b815260206004820152602e60248201527f496e697469616c697a61626c653a20636f6e747261637420697320616c72656160448201526d191e481a5b9a5d1a585b1a5e995960921b606482015260840160405180910390fd5b6000805460ff1916600117905580156116e9576000805461ff0019166101001790555b600080838060200190518101906117009190615596565b6000805462010000600160b01b031916620100006001600160a01b038581168202929092179283905560018481556002819055600381905560048181556005919091556040805163e6c15c9960e01b81529051969850949650611825954295929094049092169263e6c15c99928281019260209291908290030181865afa15801561178f573d6000803e3d6000fd5b505050506040513d601f19601f820116820180604052508101906117b39190615423565b6040516325fc928960e01b81524260048201526001600160a01b0391909116906325fc928990602401602060405180830381865afa1580156117f9573d6000803e3d6000fd5b505050506040513d601f19601f8201168201806040525081019061181d919061538c565b6000806139f9565b61182d614391565b50508015610d28576000805461ff0019169055604051600181527f7f26b83ff96e1f2b6a682f133852f6798a09c465da95921460cefb384740249890602001611619565b60008061187c6142ce565b61188461097a565b600061188e61079a565b6001600160a01b031663912929df6118a46106e1565b6040518263ffffffff1660e01b81526004016118c291815260200190565b602060405180830381865afa1580156118df573d6000803e3d6000fd5b505050506040513d601f19601f820116820180604052508101906119039190615423565b9050600061198761191561037f61249a565b6040516375719b0160e11b81526001600160a01b0385169063eae3360290611941903090600401614fbc565b602060405180830381865afa15801561195e573d6000803e3d6000fd5b505050506040513d601f19601f82011682018060405250810190611982919061538c565b614279565b90508060000361199f57600080935093505050611c3f565b6119a98186614279565b600154604051631b973c5760e21b815291965087916000916001600160a01b03841691636e5cf15c916119e29160040190815260200190565b602060405180830381865afa1580156119ff573d6000803e3d6000fd5b505050506040513d601f19601f82011682018060405250810190611a239190615423565b9050806001600160a01b0316631d8557d76040518163ffffffff1660e01b8152600401600060405180830381600087803b158015611a6057600080fd5b505af1158015611a74573d6000803e3d6000fd5b505050506000816001600160a01b0316633c084b8b836001600160a01b0316638545bc586040518163ffffffff1660e01b8152600401602060405180830381865afa158015611ac7573d6000803e3d6000fd5b505050506040513d601f19601f82011682018060405250810190611aeb919061538c565b6040518263ffffffff1660e01b8152600401611b0991815260200190565b602060405180830381865afa158015611b26573d6000803e3d6000fd5b505050506040513d601f19601f82011682018060405250810190611b4a919061538c565b90506000611b7e82876001600160a01b031663eae33602866040518263ffffffff1660e01b81526004016119419190614fbc565b90506000611b8c8284615440565b90506000611b9a828c614279565b90506000611ba8828d615440565b90508115611c235760405163a9059cbb60e01b81526001600160a01b038a169063a9059cbb90611bde9089908690600401615466565b6020604051808303816000875af1158015611bfd573d6000803e3d6000fd5b505050506040513d601f19601f82011682018060405250810190611c2191906155c4565b505b8015611c3257611c3281612b51565b9099509750505050505050505b9250929050565b611c4e61097a565b600c546000611c5b6106e1565b90506000611c6761079a565b6001600160a01b031663912929df836040518263ffffffff1660e01b8152600401611c9491815260200190565b602060405180830381865afa158015611cb1573d6000803e3d6000fd5b505050506040513d601f19601f82011682018060405250810190611cd59190615423565b90506000611ce1611586565b6001600160a01b031663e4e940f06040518163ffffffff1660e01b8152600401602060405180830381865afa158015611d1e573d6000803e3d6000fd5b505050506040513d601f19601f82011682018060405250810190611d429190615423565b90506000816001600160a01b03166302705c2e6040518163ffffffff1660e01b8152600401602060405180830381865afa158015611d84573d6000803e3d6000fd5b505050506040513d601f19601f82011682018060405250810190611da8919061538c565b9050846000611db5611586565b6001600160a01b031663e4e940f06040518163ffffffff1660e01b8152600401602060405180830381865afa158015611df2573d6000803e3d6000fd5b505050506040513d601f19601f82011682018060405250810190611e169190615423565b6001600160a01b03166361a5d38c600e546040518263ffffffff1660e01b8152600401611e4591815260200190565b600060405180830381865afa158015611e62573d6000803e3d6000fd5b505050506040513d6000823e601f3d908101601f19168201604052611e8a91908101906155e6565b905060005b815181101561205b576000828281518110611eac57611eac6153f4565b6020908102919091018101516001600160a01b038082166000908152600f909352604080842054600e549151627eeac760e11b8152939550939289928b169162fdd58e91611efe918891600401615466565b602060405180830381865afa158015611f1b573d6000803e3d6000fd5b505050506040513d601f19601f82011682018060405250810190611f3f919061538c565b611f49908d6153bb565b611f5391906153d2565b90506000828211611f65576000611f6f565b611f6f8383615440565b90508215611f8257611f828460006138a4565b611f8c8184615453565b611f969088615440565b965080600003611fa95750505050612049565b6040516340c10f1960e01b81526001600160a01b038b16906340c10f1990611fd79087908590600401615466565b600060405180830381600087803b158015611ff157600080fd5b505af1158015612005573d6000803e3d6000fd5b505050507f4e4307e8da7cc13a61821561768c6b298d5d9ee55985f18cb747099e3f9fa8758b858360405161203c93929190615697565b60405180910390a1505050505b806120538161540a565b915050611e8f565b50600a54600b546106a391908460006139f9565b60008061207b83611590565b9050600061208d61037f856001615453565b90506000606461209e84604b6153bb565b6120a891906153d2565b905060006120b68284615440565b90506120c36006826153d2565b9695505050505050565b60006120d7611586565b6001600160a01b0316637b1039996040518163ffffffff1660e01b8152600401602060405180830381865afa1580156107f5573d6000803e3d6000fd5b61211c61097a565b6000612126611586565b6001600160a01b031663e4e940f06040518163ffffffff1660e01b8152600401602060405180830381865afa158015612163573d6000803e3d6000fd5b505050506040513d601f19601f820116820180604052508101906121879190615423565b600e54604051627eeac760e11b81529192506000916001600160a01b0384169162fdd58e916121ba918791600401615466565b602060405180830381865afa1580156121d7573d6000803e3d6000fd5b505050506040513d601f19601f820116820180604052508101906121fb919061538c565b90508060000361220a57505050565b6001600160a01b038084166000908152600f602090815260408083205481516301382e1760e11b8152915190948716926302705c2e92600480820193918290030181865afa158015612260573d6000803e3d6000fd5b505050506040513d601f19601f82011682018060405250810190612284919061538c565b600c546122929085906153bb565b61229c91906153d2565b905060008282116122ae5760006122b8565b6122b88383615440565b9050806000036122ca57505050505050565b6122d8866109448386615453565b600a54600b54600c54600d546122fb939291906122f6908690615453565b6139f9565b60006123056106e1565b905061230f61079a565b6001600160a01b031663912929df826040518263ffffffff1660e01b815260040161233c91815260200190565b602060405180830381865afa158015612359573d6000803e3d6000fd5b505050506040513d601f19601f8201168201806040525081019061237d9190615423565b6001600160a01b03166340c10f1988846040518363ffffffff1660e01b81526004016123aa929190615466565b600060405180830381600087803b1580156123c457600080fd5b505af11580156123d8573d6000803e3d6000fd5b505050507f4e4307e8da7cc13a61821561768c6b298d5d9ee55985f18cb747099e3f9fa87581888460405161240f93929190615697565b60405180910390a150505050505050565b604080516020808252818301909252600091309183918291906020820181803683370190505090506020609a60208301853c602001519392505050565b604080516020808252818301909252600091309183918291906020820181803683370190505090506020605a60208301853c602001519392505050565b60045460025460009161081991615453565b60006124b661079a565b6001600160a01b031663cabb62f06040518163ffffffff1660e01b8152600401602060405180830381865afa1580156124f3573d6000803e3d6000fd5b505050506040513d601f19601f820116820180604052508101906125179190615423565b6001600160a01b03166370a08231306040518263ffffffff1660e01b81526004016125429190614fbc565b602060405180830381865afa15801561255f573d6000803e3d6000fd5b505050506040513d601f19601f82011682018060405250810190610819919061538c565b606081600003612591574291505b600061259b611586565b6001600160a01b0316633c8ca83d6040518163ffffffff1660e01b8152600401602060405180830381865afa1580156125d8573d6000803e3d6000fd5b505050506040513d601f19601f820116820180604052508101906125fc919061538c565b90508083101561260a578092505b6000612614611586565b6001600160a01b03166344d9bc5f6040518163ffffffff1660e01b8152600401602060405180830381865afa158015612651573d6000803e3d6000fd5b505050506040513d601f19601f82011682018060405250810190612675919061538c565b9050801561268a576126878482614279565b93505b6000612694612c3d565b9050600081516001600160401b038111156126b1576126b1615050565b6040519080825280602002602001820160405280156126fc57816020015b60408051606081018252600080825260208083018290529282015282526000199092019101816126cf5790505b50905060005b8251811015612793576040518060600160405280848381518110612728576127286153f4565b602002602001015160000151815260200160008152602001848381518110612752576127526153f4565b6020026020010151604001511515815250828281518110612775576127756153f4565b6020026020010181905250808061278b9061540a565b915050612702565b50600a54600b54858210156127a9575084905060005b8188116127bc5750909695505050505050565b60008060029054906101000a90046001600160a01b03166001600160a01b031663e6c15c996040518163ffffffff1660e01b8152600401602060405180830381865afa158015612810573d6000803e3d6000fd5b505050506040513d601f19601f820116820180604052508101906128349190615423565b6001600160a01b03166325fc92898a6040518263ffffffff1660e01b815260040161286191815260200190565b602060405180830381865afa15801561287e573d6000803e3d6000fd5b505050506040513d601f19601f820116820180604052508101906128a2919061538c565b905060006128b08383614518565b905060006128c484846004600301546145df565b905060005b87518110156129a957818882815181106128e5576128e56153f4565b6020026020010151602001516128fb91906153bb565b87828151811061290d5761290d6153f4565b6020026020010151602001818152505086818151811061292f5761292f6153f4565b602002602001015160400151156129975782888281518110612953576129536153f4565b60200260200101516020015161296991906153bb565b87828151811061297b5761297b6153f4565b60200260200101516020018181516129939190615453565b9052505b806129a18161540a565b9150506128c9565b50949a9950505050505050505050565b6000806129c4612c3d565b905060005b8151811015612a1257838282815181106129e5576129e56153f4565b60200260200101516000015103612a00575060019392505050565b80612a0a8161540a565b9150506129c9565b5060009392505050565b6000612a266120cd565b6001600160a01b031663250c3a106001546040518263ffffffff1660e01b8152600401612a5591815260200190565b602060405180830381865afa158015612a72573d6000803e3d6000fd5b505050506040513d601f19601f82011682018060405250810190612a96919061538c565b60055461081991906153bb565b612aab6142ce565b612ab361097a565b600654600090612ac4908390615453565b60068190556040518181529091507fa5b080ca657305a05e233a1bdfe1cb5a92588bd94928658051cf6ea8d91ae4b19060200160405180910390a16000612b09612db2565b90506000612b156124ac565b905081811115610973576000612b2b8383615440565b600054909150612b4a906201000090046001600160a01b0316826136da565b5050505050565b612b596142ce565b6000612b6361079a565b6001600160a01b031663912929df612b796106e1565b6040518263ffffffff1660e01b8152600401612b9791815260200190565b602060405180830381865afa158015612bb4573d6000803e3d6000fd5b505050506040513d601f19601f82011682018060405250810190612bd89190615423565b604051630852cd8d60e31b8152600481018490529091506001600160a01b038216906342966c6890602401600060405180830381600087803b158015612c1d57600080fd5b505af1158015612c31573d6000803e3d6000fd5b50505050610d28613e9d565b604080516002808252606082810190935260009190816020015b6040805160608101825260008082526020808301829052928201528252600019909201910181612c575750506040805160a0810190915260046060820152631193d3d160e21b60808201527f2f6f5a261d6f4514c3f09a834720fe583c82f2ee4758ce9a45fbd67428e9f93d815290915060208101612710612ce462015180678ac7230489e800006153d2565b612cee91906153d2565b81526020016000151581525081600081518110612d0d57612d0d6153f4565b6020908102919091018101919091526040805160a08101909152600460608201526315d3d3d160e21b60808201527f5f3d3bfd5b61198148275c178146c21eec5c5ab7e81758f3c651754ae3f1ed428152908101612710612d7962015180678ac7230489e800006153d2565b612d8391906153d2565b81526020016001151581525081600181518110612da257612da26153f4565b6020908102919091010152919050565b6000612dbc6133d3565b612dc4612a1c565b6108199190615440565b612dd66146b9565b612dde614753565b612dfb57604051630b7395e560e21b815260040160405180910390fd5b612e03611c46565b612e0b614391565b565b612e15613e9d565b612e1d6148f8565b600755565b612e2a613467565b612e32613598565b612e3a61097a565b600854421015612e5d5760405163aa4aed7160e01b815260040160405180910390fd5b6000612e6761249a565b90506000612e748261206f565b6040805180820190915260038152624f524560e81b60209091015290507f9db51ceeef36d28f4a713ba944bdadb00e988c5676c92710eaf0e194efb4cb556001600160a01b038416612f9a57612ec861079a565b6001600160a01b031663912929df826040518263ffffffff1660e01b8152600401612ef591815260200190565b602060405180830381865afa158015612f12573d6000803e3d6000fd5b505050506040513d601f19601f82011682018060405250810190612f369190615423565b6001600160a01b03166379cc679033846040518363ffffffff1660e01b8152600401612f63929190615466565b600060405180830381600087803b158015612f7d57600080fd5b505af1158015612f91573d6000803e3d6000fd5b505050506130d9565b6000612fa461079a565b6001600160a01b031663912929df836040518263ffffffff1660e01b8152600401612fd191815260200190565b602060405180830381865afa158015612fee573d6000803e3d6000fd5b505050506040513d601f19601f820116820180604052508101906130129190615423565b60405163dd8aaa4f60e01b81529091506001600160a01b0382169063dd8aaa4f906130459088903390889060040161547f565b600060405180830381600087803b15801561305f57600080fd5b505af1158015613073573d6000803e3d6000fd5b505060405163079cc67960e41b81526001600160a01b03841692506379cc679091506130a59088908790600401615466565b600060405180830381600087803b1580156130bf57600080fd5b505af11580156130d3573d6000803e3d6000fd5b50505050505b600060029054906101000a90046001600160a01b03166001600160a01b031663e6c15c996040518163ffffffff1660e01b8152600401602060405180830381865afa15801561312c573d6000803e3d6000fd5b505050506040513d601f19601f820116820180604052508101906131509190615423565b6000546001600160a01b0391821691635053c2999162010000900416670de0b6b3a76400008561317e6120cd565b6001600160a01b0316637496fc52876040518263ffffffff1660e01b81526004016131ab91815260200190565b602060405180830381865afa1580156131c8573d6000803e3d6000fd5b505050506040513d601f19601f820116820180604052508101906131ec919061538c565b6131f691906153bb565b61320091906153d2565b6040518363ffffffff1660e01b815260040161321d929190615466565b600060405180830381600087803b15801561323757600080fd5b505af115801561324b573d6000803e3d6000fd5b50505050613257600090565b6132619042615453565b600855600554600090613273856132f3565b613281610599876001615453565b61328b9190615440565b6132959190615453565b6004549091506000906132a9906001615453565b6005839055600481905590506132bd613e9d565b60408051828152602081018490527fd8f5076bf9515e2fc9ee2b3472c1f34b0474833710bcd006c2b502e6c659c9fd9101611576565b600060058161330282856153d2565b9050600061331083836153bb565b61331a9086615440565b905060008360028461332d816001615453565b61333791906153bb565b61334191906153d2565b61334b91906153bb565b9050600061335a846001615453565b61336490846153bb565b61336e9083615453565b979650505050505050565b60006106706133866106e1565b83610d2c565b60006133966120cd565b6001600160a01b031663ece56a1a6040518163ffffffff1660e01b8152600401602060405180830381865afa1580156107f5573d6000803e3d6000fd5b6000806134246004600201546133e76120cd565b6001600160a01b0316637a893af56040518163ffffffff1660e01b8152600401602060405180830381865afa15801561195e573d6000803e3d6000fd5b90506000613430612a1c565b9050613460670de0b6b3a764000061344884846153bb565b61345291906153d2565b670de0b6b3a7640000614a95565b9250505090565b6000613471611586565b6001600160a01b0316633c8ca83d6040518163ffffffff1660e01b8152600401602060405180830381865afa1580156134ae573d6000803e3d6000fd5b505050506040513d601f19601f820116820180604052508101906134d2919061538c565b905060006134de611586565b6001600160a01b03166344d9bc5f6040518163ffffffff1660e01b8152600401602060405180830381865afa15801561351b573d6000803e3d6000fd5b505050506040513d601f19601f8201168201806040525081019061353f919061538c565b905081158061354d57508142105b1561356b5760405163a00eda6960e01b815260040160405180910390fd5b801580159061357a5750804210155b15610d285760405163a00eda6960e01b815260040160405180910390fd5b600054604051631b0b969d60e01b8152620100009091046001600160a01b031690631b0b969d906135cd903390600401614fbc565b602060405180830381865afa1580156135ea573d6000803e3d6000fd5b505050506040513d601f19601f8201168201806040525081019061360e91906155c4565b158015613634575061361e611586565b6001600160a01b0316336001600160a01b031614155b80156136bc57506000613645611586565b6001600160a01b031663ebbe803461365b612420565b336040518363ffffffff1660e01b81526004016136799291906156b6565b602060405180830381865afa158015613696573d6000803e3d6000fd5b505050506040513d601f19601f820116820180604052508101906136ba919061538c565b145b15612e0b57604051630d319e2360e41b815260040160405180910390fd5b6136e261079a565b6001600160a01b031663cabb62f06040518163ffffffff1660e01b8152600401602060405180830381865afa15801561371f573d6000803e3d6000fd5b505050506040513d601f19601f820116820180604052508101906137439190615423565b6001600160a01b031663a9059cbb83836040518363ffffffff1660e01b8152600401613770929190615466565b6020604051808303816000875af115801561378f573d6000803e3d6000fd5b505050506040513d601f19601f8201168201806040525081019061097591906155c4565b60005b8481101561380b576137f98686838181106137d3576137d36153f4565b90506020020135858585858181106137ed576137ed6153f4565b90506020020135614aac565b806138038161540a565b9150506137b6565b505050505050565b3361381c611586565b6001600160a01b031663e4e940f06040518163ffffffff1660e01b8152600401602060405180830381865afa158015613859573d6000803e3d6000fd5b505050506040513d601f19601f8201168201806040525081019061387d9190615423565b6001600160a01b031614612e0b57604051638f857a2960e01b815260040160405180910390fd5b6001600160a01b0382166000908152600f602052604090819020829055517fdcea61563ab9f107db39d481e10a7eda8e255efb99c1bf6c57f2b2e5a8a6f90e906116199084908490615466565b6000806138fc611586565b6001600160a01b0316633c8ca83d6040518163ffffffff1660e01b8152600401602060405180830381865afa158015613939573d6000803e3d6000fd5b505050506040513d601f19601f8201168201806040525081019061395d919061538c565b90506000613969611586565b6001600160a01b03166344d9bc5f6040518163ffffffff1660e01b8152600401602060405180830381865afa1580156139a6573d6000803e3d6000fd5b505050506040513d601f19601f820116820180604052508101906139ca919061538c565b905042828110156139d85750815b816000036139e7579392505050565b6139f18183614279565b935050505090565b600a849055600b839055600c829055600d8190556040805185815260208101859052908101839052606081018290527f0975f780ca30f886d7a3b13619106b83bfcd25cf1d64d5c2dd20e3546c4badf59060800160405180910390a150505050565b80600003613a67575050565b6000670de0b6b3a7640000613a7a6120cd565b6001600160a01b0316636f3426da6040518163ffffffff1660e01b8152600401602060405180830381865afa158015613ab7573d6000803e3d6000fd5b505050506040513d601f19601f82011682018060405250810190613adb919061538c565b613ae590846153bb565b613aef91906153d2565b90506000613afb61079a565b6001600160a01b031663912929df856040518263ffffffff1660e01b8152600401613b2891815260200190565b602060405180830381865afa158015613b45573d6000803e3d6000fd5b505050506040513d601f19601f82011682018060405250810190613b699190615423565b6001600160a01b031663eae33602306040518263ffffffff1660e01b8152600401613b949190614fbc565b602060405180830381865afa158015613bb1573d6000803e3d6000fd5b505050506040513d601f19601f82011682018060405250810190613bd5919061538c565b90506000613be461037f61249a565b9050808210613bf65760009250613c14565b613c008282615440565b831115613c1457613c118282615440565b92505b8215613cfe57613c2261079a565b6001600160a01b031663912929df866040518263ffffffff1660e01b8152600401613c4f91815260200190565b602060405180830381865afa158015613c6c573d6000803e3d6000fd5b505050506040513d601f19601f82011682018060405250810190613c909190615423565b6001600160a01b03166340c10f1930856040518363ffffffff1660e01b8152600401613cbd929190615466565b600060405180830381600087803b158015613cd757600080fd5b505af1158015613ceb573d6000803e3d6000fd5b505050508284613cfb9190615440565b93505b8315612b4a57600060029054906101000a90046001600160a01b03166001600160a01b031663e6c15c996040518163ffffffff1660e01b8152600401602060405180830381865afa158015613d57573d6000803e3d6000fd5b505050506040513d601f19601f82011682018060405250810190613d7b9190615423565b6000546001600160a01b039182169163e85b89d99162010000900416670de0b6b3a764000087613da96120cd565b6001600160a01b0316637496fc528b6040518263ffffffff1660e01b8152600401613dd691815260200190565b602060405180830381865afa158015613df3573d6000803e3d6000fd5b505050506040513d601f19601f82011682018060405250810190613e17919061538c565b613e2191906153bb565b613e2b91906153d2565b6040518363ffffffff1660e01b8152600401613e48929190615466565b600060405180830381600087803b158015613e6257600080fd5b505af1158015613e76573d6000803e3d6000fd5b5050600a54600b54600c54612b4a945091925090613e95908890615453565b600d546139f9565b6000613ea761249a565b90506000613eb4826132f3565b90506000613ec061079a565b6001600160a01b031663912929df613ed66106e1565b6040518263ffffffff1660e01b8152600401613ef491815260200190565b602060405180830381865afa158015613f11573d6000803e3d6000fd5b505050506040513d601f19601f82011682018060405250810190613f359190615423565b6001600160a01b031663eae33602306040518263ffffffff1660e01b8152600401613f609190614fbc565b602060405180830381865afa158015613f7d573d6000803e3d6000fd5b505050506040513d601f19601f82011682018060405250810190613fa1919061538c565b6009549091506000613fb16120cd565b6001600160a01b031663e1b5c3ef613fc76106e1565b6040518263ffffffff1660e01b8152600401613fe591815260200190565b602060405180830381865afa158015614002573d6000803e3d6000fd5b505050506040513d601f19601f82011682018060405250810190614026919061538c565b90506000670de0b6b3a76400008561403e84876153bb565b61404891906153d2565b61405291906153d2565b90506000670de0b6b3a7640000868461406a8a611590565b61407491906153bb565b61407e91906153d2565b61408891906153d2565b905060006140968284614279565b6009819055905080851115614188576140ad61079a565b6001600160a01b031663c91b95666040518163ffffffff1660e01b8152600401602060405180830381865afa1580156140ea573d6000803e3d6000fd5b505050506040513d601f19601f8201168201806040525081019061410e9190615423565b6000546001600160a01b03918216916379cc679091620100009004166141348489615440565b6040518363ffffffff1660e01b8152600401614151929190615466565b600060405180830381600087803b15801561416b57600080fd5b505af115801561417f573d6000803e3d6000fd5b5050505061426f565b8085101561426f5761419861079a565b6001600160a01b031663c91b95666040518163ffffffff1660e01b8152600401602060405180830381865afa1580156141d5573d6000803e3d6000fd5b505050506040513d601f19601f820116820180604052508101906141f99190615423565b6000546001600160a01b03918216916340c10f19916201000090041661421f8885615440565b6040518363ffffffff1660e01b815260040161423c929190615466565b600060405180830381600087803b15801561425657600080fd5b505af115801561426a573d6000803e3d6000fd5b505050505b5050505050505050565b6000818310614288578161428a565b825b9392505050565b604080516014808252818301909252600091309183918291906020820181803683370190505090506014602a60208301853c601401519392505050565b6142d6611586565b6001600160a01b0316336001600160a01b031614158015614373575060006142fc611586565b6001600160a01b031663ebbe8034614312612420565b336040518363ffffffff1660e01b81526004016143309291906156b6565b602060405180830381865afa15801561434d573d6000803e3d6000fd5b505050506040513d601f19601f82011682018060405250810190614371919061538c565b145b15612e0b5760405163422656d160e01b815260040160405180910390fd5b614399611586565b6001600160a01b031663e4e940f06040518163ffffffff1660e01b8152600401602060405180830381865afa1580156143d6573d6000803e3d6000fd5b505050506040513d601f19601f820116820180604052508101906143fa9190615423565b6001600160a01b0316636a627842600060029054906101000a90046001600160a01b03166001600160a01b031663b5acd4566040518163ffffffff1660e01b8152600401602060405180830381865afa15801561445b573d6000803e3d6000fd5b505050506040513d601f19601f8201168201806040525081019061447f9190615423565b6040518263ffffffff1660e01b815260040161449b9190614fbc565b6020604051808303816000875af11580156144ba573d6000803e3d6000fd5b505050506040513d601f19601f820116820180604052508101906144de919061538c565b600e8190556040519081527f21685fff63336d20fb2b74ff6a44da978e162f9199732816249248bad82657239060200160405180910390a1565b6000806145258484615440565b905060006145316120cd565b6001600160a01b031663657f17fd6040518163ffffffff1660e01b8152600401602060405180830381865afa15801561456e573d6000803e3d6000fd5b505050506040513d601f19601f82011682018060405250810190614592919061538c565b6145a490670de0b6b3a76400006153d2565b6145ae90836153d2565b9050670de0b6b3a7640000816145c2614c58565b6145cc91906153bb565b6145d691906153d2565b95945050505050565b60008383116145f05750600061428a565b60006145fc8585615440565b90506000614608614ded565b905060006146146120cd565b6001600160a01b031663657f17fd6040518163ffffffff1660e01b8152600401602060405180830381865afa158015614651573d6000803e3d6000fd5b505050506040513d601f19601f82011682018060405250810190614675919061538c565b61468790670de0b6b3a76400006153d2565b61469190846153d2565b905061336e670de0b6b3a76400006146a984846153bb565b6146b391906153d2565b86614279565b60005460408051635ad66a2b60e11b8152905133926201000090046001600160a01b03169163b5acd4569160048083019260209291908290030181865afa158015614708573d6000803e3d6000fd5b505050506040513d601f19601f8201168201806040525081019061472c9190615423565b6001600160a01b031614612e0b57604051639807ee1760e01b815260040160405180910390fd5b60008061476161037f61249a565b9050600061476d6106e1565b90508061477d5760009250505090565b6000670de0b6b3a76400006147906120cd565b6001600160a01b03166368e35ca06040518163ffffffff1660e01b8152600401602060405180830381865afa1580156147cd573d6000803e3d6000fd5b505050506040513d601f19601f820116820180604052508101906147f1919061538c565b6147fb90856153bb565b61480591906153d2565b9050600061481161079a565b6001600160a01b031663912929df846040518263ffffffff1660e01b815260040161483e91815260200190565b602060405180830381865afa15801561485b573d6000803e3d6000fd5b505050506040513d601f19601f8201168201806040525081019061487f9190615423565b6001600160a01b03166370a08231306040518263ffffffff1660e01b81526004016148aa9190614fbc565b602060405180830381865afa1580156148c7573d6000803e3d6000fd5b505050506040513d601f19601f820116820180604052508101906148eb919061538c565b9190911115949350505050565b600080614903612c3d565b905060001960005b8251811015614a8e57828181518110614926576149266153f4565b602002602001015160400151614a7c57600061494061079a565b6001600160a01b031663912929df858481518110614960576149606153f4565b6020026020010151600001516040518263ffffffff1660e01b815260040161498a91815260200190565b602060405180830381865afa1580156149a7573d6000803e3d6000fd5b505050506040513d601f19601f820116820180604052508101906149cb9190615423565b6001600160a01b031663eae33602306040518263ffffffff1660e01b81526004016149f69190614fbc565b602060405180830381865afa158015614a13573d6000803e3d6000fd5b505050506040513d601f19601f82011682018060405250810190614a37919061538c565b905080600003614a4c57600094505050505090565b614a78848381518110614a6157614a616153f4565b60200260200101516020015182610f6591906153d2565b9250505b80614a868161540a565b91505061490b565b5092915050565b600081614aa281856153d2565b61428a91906153bb565b614ab461097a565b614abc6106e1565b8303614adb57604051632dbfd57b60e01b815260040160405180910390fd5b6000614ae561079a565b6001600160a01b031663912929df856040518263ffffffff1660e01b8152600401614b1291815260200190565b602060405180830381865afa158015614b2f573d6000803e3d6000fd5b505050506040513d601f19601f82011682018060405250810190614b539190615423565b90506000816001600160a01b03166370a08231306040518263ffffffff1660e01b8152600401614b839190614fbc565b602060405180830381865afa158015614ba0573d6000803e3d6000fd5b505050506040513d601f19601f82011682018060405250810190614bc4919061538c565b905080600003614bd5575050505050565b80831115614be1578092505b8215612b4a5760405163a9059cbb60e01b81526001600160a01b0383169063a9059cbb90614c159087908790600401615466565b6020604051808303816000875af1158015614c34573d6000803e3d6000fd5b505050506040513d601f19601f8201168201806040525081019061380b91906155c4565b600154600090670de0b6b3a7640000614c6f6120cd565b6001600160a01b031663781e0efe6040518163ffffffff1660e01b8152600401602060405180830381865afa158015614cac573d6000803e3d6000fd5b505050506040513d601f19601f82011682018060405250810190614cd0919061538c565b614cd86120cd565b6001600160a01b031663250c3a10846040518263ffffffff1660e01b8152600401614d0591815260200190565b602060405180830381865afa158015614d22573d6000803e3d6000fd5b505050506040513d601f19601f82011682018060405250810190614d46919061538c565b614d4e6120cd565b6001600160a01b0316638ed97a8c856040518263ffffffff1660e01b8152600401614d7b91815260200190565b602060405180830381865afa158015614d98573d6000803e3d6000fd5b505050506040513d601f19601f82011682018060405250810190614dbc919061538c565b600354614dc991906153bb565b614dd391906153bb565b614ddd91906153bb565b614de791906153d2565b91505090565b600080614df86133d3565b614e006124ac565b614e0a9190615453565b9050614e146120cd565b6001600160a01b031663781e0efe6040518163ffffffff1660e01b8152600401602060405180830381865afa158015614e51573d6000803e3d6000fd5b505050506040513d601f19601f82011682018060405250810190614e75919061538c565b614de790826153bb565b600060208284031215614e9157600080fd5b5035919050565b6001600160a01b0381168114614ead57600080fd5b50565b60008083601f840112614ec257600080fd5b5081356001600160401b03811115614ed957600080fd5b6020830191508360208260051b8501011115611c3f57600080fd5b600080600080600080600060a0888a031215614f0f57600080fd5b8735614f1a81614e98565b9650602088013595506040880135614f3181614e98565b945060608801356001600160401b0380821115614f4d57600080fd5b614f598b838c01614eb0565b909650945060808a0135915080821115614f7257600080fd5b50614f7f8a828b01614eb0565b989b979a50959850939692959293505050565b600060208284031215614fa457600080fd5b81356001600160e01b03198116811461428a57600080fd5b6001600160a01b0391909116815260200190565b600080600060608486031215614fe557600080fd5b8335614ff081614e98565b9250602084013561500081614e98565b929592945050506040919091013590565b6000806040838503121561502457600080fd5b50508035926020909101359150565b60006020828403121561504557600080fd5b813561428a81614e98565b634e487b7160e01b600052604160045260246000fd5b604051601f8201601f191681016001600160401b038111828210171561508e5761508e615050565b604052919050565b600060208083850312156150a957600080fd5b82356001600160401b03808211156150c057600080fd5b818501915085601f8301126150d457600080fd5b8135818111156150e6576150e6615050565b6150f8601f8201601f19168501615066565b9150808252868482850101111561510e57600080fd5b8084840185840137600090820190930192909252509392505050565b6000806040838503121561513d57600080fd5b823561514881614e98565b946020939093013593505050565b6020808252825182820181905260009190848201906040850190845b818110156151ae5761519b83855180518252602080820151908301526040908101511515910152565b9284019260609290920191600101615172565b50909695505050505050565b60008083601f8401126151cc57600080fd5b5081356001600160401b038111156151e357600080fd5b602083019150836020828501011115611c3f57600080fd5b60008060008060008060008060a0898b03121561521757600080fd5b883561522281614e98565b9750602089013561523281614e98565b965060408901356001600160401b038082111561524e57600080fd5b61525a8c838d01614eb0565b909850965060608b013591508082111561527357600080fd5b61527f8c838d01614eb0565b909650945060808b013591508082111561529857600080fd5b506152a58b828c016151ba565b999c989b5096995094979396929594505050565b6020808252825182820181905260009190848201906040850190845b818110156151ae576152fe83855180518252602080820151908301526040908101511515910152565b92840192606092909201916001016152d5565b60008060008060008060a0878903121561532a57600080fd5b863561533581614e98565b9550602087013561534581614e98565b9450604087013593506060870135925060808701356001600160401b0381111561536e57600080fd5b61537a89828a016151ba565b979a9699509497509295939492505050565b60006020828403121561539e57600080fd5b5051919050565b634e487b7160e01b600052601160045260246000fd5b8082028115828204841417610670576106706153a5565b6000826153ef57634e487b7160e01b600052601260045260246000fd5b500490565b634e487b7160e01b600052603260045260246000fd5b60006001820161541c5761541c6153a5565b5060010190565b60006020828403121561543557600080fd5b815161428a81614e98565b81810381811115610670576106706153a5565b80820180821115610670576106706153a5565b6001600160a01b03929092168252602082015260400190565b6001600160a01b039384168152919092166020820152604081019190915260600190565b600181815b808511156154de5781600019048211156154c4576154c46153a5565b808516156154d157918102915b93841c93908002906154a8565b509250929050565b6000826154f557506001610670565b8161550257506000610670565b816001811461551857600281146155225761553e565b6001915050610670565b60ff841115615533576155336153a5565b50506001821b610670565b5060208310610133831016604e8410600b8410161715615561575081810a610670565b61556b83836154a3565b806000190482111561557f5761557f6153a5565b029392505050565b600061428a60ff8416836154e6565b600080604083850312156155a957600080fd5b82516155b481614e98565b6020939093015192949293505050565b6000602082840312156155d657600080fd5b8151801515811461428a57600080fd5b600060208083850312156155f957600080fd5b82516001600160401b038082111561561057600080fd5b818501915085601f83011261562457600080fd5b81518181111561563657615636615050565b8060051b9150615647848301615066565b818152918301840191848101908884111561566157600080fd5b938501935b8385101561568b578451925061567b83614e98565b8282529385019390850190615666565b98975050505050505050565b9283526001600160a01b03919091166020830152604082015260600190565b9182526001600160a01b031660208201526040019056fea2646970667358221220f5cb0d6b70d78bbacc17f78b380c1b4b2351224567ad8f26d0a8e49ecf009c3f64736f6c63430008140033",
  "devdoc": {
    "events": {
      "AdvancedProductionAdditionalWorkersCapacityMultiplierUpdated(uint256)": {
        "params": {
          "newAdditionalWorkersCapacityMultiplier": "New additional workers capacity multiplier"
        }
      },
      "AdvancedProductionUpgraded(uint256,uint256)": {
        "params": {
          "newAdvancedProductionLevel": "New advanced production level"
        }
      },
      "BasicProductionUpgraded(uint256,uint256)": {
        "params": {
          "newBasicProductionLevel": "New basic production level"
        }
      },
      "DistributedToShareHolder(bytes32,address,uint256)": {
        "params": {
          "amount": "Amount of distributed resources",
          "holder": "Receiver address",
          "resourceTypeId": "Resource type id"
        }
      },
      "DistributionCreated(uint256)": {
        "params": {
          "newDistributionId": "New distribution id"
        }
      },
      "Initialized(uint8)": {
        "details": "Triggered when the contract has been initialized or reinitialized."
      },
      "ProducedResourceDebtUpdated(address,uint256)": {
        "params": {
          "distributionNftHolder": "Distribution nft holder",
          "newDebt": "New debt"
        }
      },
      "ProductionInfoUpdated(uint256,uint256,uint256,uint256)": {
        "params": {
          "lastUpdateStateRegionTime": "Last update state region time",
          "lastUpdateStateTime": "Last update state time",
          "readyToBeDistributed": "Ready to be distributed",
          "totalDebt": "Total debt"
        }
      }
    },
    "kind": "dev",
    "methods": {
      "assetGroupId()": {
        "details": "Reads data from proxy's storage",
        "returns": {
          "_0": "World asset group id"
        }
      },
      "assetTypeId()": {
        "details": "Reads data from proxy's storage",
        "returns": {
          "_0": "World asset type id"
        }
      },
      "burnTreasury(uint256)": {
        "details": "Can be called by world asset",
        "params": {
          "amount": "Amount of resources to burn from treasury"
        }
      },
      "decreaseAdditionalWorkersCapacityMultiplier(uint256)": {
        "details": "Even though function is opened, it can be called only by world asset",
        "params": {
          "capacityAmount": "Capacity amount"
        }
      },
      "distributeToAllShareholders()": {
        "details": "Useful to get full produced resources to all shareholders"
      },
      "distributeToSingleShareholder(address)": {
        "details": "Useful to taking part of the resource from the building for single shareholder (to not pay gas for minting for all shareholders)",
        "params": {
          "holder": "Holder"
        }
      },
      "era()": {
        "details": "Value is dereferenced from proxy storage and world"
      },
      "eraNumber()": {
        "details": "Reads data from proxy's storage",
        "returns": {
          "_0": "Era number"
        }
      },
      "getAdditionalWorkersFromAdditionalWorkersCapacityMultiplier()": {
        "details": "Return value based on current advancedProduction.additionalWorkersCapacityMultiplier"
      },
      "getAdvancedUpgradeCooldownDuration(uint256)": {
        "details": "If level=1 then returned value will be duration which is taken for upgrading from 1 to 2 level",
        "params": {
          "level": "At which level calculate upgrade duration"
        },
        "returns": {
          "_0": "Upgrade cooldown duration"
        }
      },
      "getAssignedWorkers()": {
        "details": "Same as workers.balanceOf(buildingAddress)",
        "returns": {
          "_0": "Amount of assigned workers"
        }
      },
      "getAvailableForAdvancedProductionWorkersCapacity()": {
        "details": "Difference between #getWorkersCapacity and #getAdditionalWorkersFromAdditionalWorkersCapacityMultiplier"
      },
      "getBasicUpgradeCooldownDuration(uint256)": {
        "details": "If level=1 then returned value will be duration which is taken for upgrading from 1 to 2 level",
        "params": {
          "level": "At which level calculate upgrade duration"
        },
        "returns": {
          "_0": "Upgrade cooldown duration"
        }
      },
      "getBuildingCoefficient(uint256)": {
        "details": "Used to determine max treasury amount and new production coefficients",
        "params": {
          "level": "Building level"
        },
        "returns": {
          "_0": "Building coefficient"
        }
      },
      "getBuildingLevel()": {
        "details": "Takes into an account if upgrades are ended or not",
        "returns": {
          "_0": "Current building level"
        }
      },
      "getConfig()": {
        "details": "Main config that determines which resources is produced/spend by production of this buildingProductionConfigItem.amountPerTick is value how much of resource is spend/produced by 1 worker in 1 tick of production",
        "returns": {
          "_0": "Production config for current building"
        }
      },
      "getMaxTreasuryByLevel(uint256)": {
        "details": "Can be used to determine maximum amount of treasury by any level",
        "params": {
          "level": "Building level",
          "maxTreasury": "Maximum amount of treasury"
        }
      },
      "getProducingResourceTypeId()": {
        "details": "Return value is value from #getConfig where 'isProducing'=true",
        "returns": {
          "_0": "Type id of producing resource"
        }
      },
      "getProductionResult(uint256)": {
        "details": "Useful for determination how much of all production will be burned/produced at the specific time",
        "params": {
          "timestamp": "Time at which calculate amount of resources in building. If timestamp=0 -> calculates as block.timestamp"
        },
        "returns": {
          "_0": "Production resources changes at provided time"
        }
      },
      "getResourcesAmount(bytes32,uint256)": {
        "details": "Useful for determination how much of production resource (either producing and spending) at the specific time",
        "params": {
          "resourceTypeId": "Type id of resource related to production",
          "timestamp": "Time at which calculate amount of resources in building. If timestamp=0 -> calculates as block.timestamp"
        },
        "returns": {
          "_0": "Real amount of provided resource in building related to its production at provided time"
        }
      },
      "getTreasuryAmount(uint256)": {
        "details": "Useful for determination how much treasury will be at specific time",
        "params": {
          "timestamp": "Time at which calculate amount of treasury in building. If timestamp=0 -> calculates as block.timestamp"
        },
        "returns": {
          "_0": "Treasury amount at specified time"
        }
      },
      "getUpgradePrice(uint256)": {
        "details": "Useful for determination how much upgrade will cost at any level",
        "params": {
          "level": "Level at which calculate price"
        },
        "returns": {
          "_0": "Amount of resources needed for upgrade"
        }
      },
      "getWorkersCapacity()": {
        "details": "Used in determination of determinate maximum amount of workers",
        "returns": {
          "_0": "Workers capacity"
        }
      },
      "handleProductionResourcesChanged()": {
        "details": "Even though function is opened, it is auto-called by transfer method. Standalone calls provide 0 impact."
      },
      "increaseAdditionalWorkersCapacityMultiplier(uint256)": {
        "details": "Even though function is opened, it can be called only by world asset",
        "params": {
          "capacityAmount": "Capacity amount"
        }
      },
      "init(bytes)": {
        "details": "World asset initializer",
        "params": {
          "initParams": "Encoded init params (every world asset has own knowledge how to extract data from it)"
        }
      },
      "isResourceAcceptable(bytes32)": {
        "details": "Return value based on #getConfig",
        "params": {
          "resourceTypeId": "Resource type id"
        },
        "returns": {
          "_0": "Is building can accept resource"
        }
      },
      "onERC1155BatchReceived(address,address,uint256[],uint256[],bytes)": {
        "details": "Handles the receipt of a multiple ERC1155 token types. This function is called at the end of a `safeBatchTransferFrom` after the balances have been updated. NOTE: To accept the transfer(s), this must return `bytes4(keccak256(\"onERC1155BatchReceived(address,address,uint256[],uint256[],bytes)\"))` (i.e. 0xbc197c81, or its own function selector).",
        "params": {
          "data": "Additional data with no specified format",
          "from": "The address which previously owned the token",
          "ids": "An array containing ids of each token being transferred (order and length must match values array)",
          "operator": "The address which initiated the batch transfer (i.e. msg.sender)",
          "values": "An array containing amounts of each token being transferred (order and length must match ids array)"
        },
        "returns": {
          "_0": "`bytes4(keccak256(\"onERC1155BatchReceived(address,address,uint256[],uint256[],bytes)\"))` if transfer is allowed"
        }
      },
      "onERC1155Received(address,address,uint256,uint256,bytes)": {
        "details": "Handles the receipt of a single ERC1155 token type. This function is called at the end of a `safeTransferFrom` after the balance has been updated. NOTE: To accept the transfer, this must return `bytes4(keccak256(\"onERC1155Received(address,address,uint256,uint256,bytes)\"))` (i.e. 0xf23a6e61, or its own function selector).",
        "params": {
          "data": "Additional data with no specified format",
          "from": "The address which previously owned the token",
          "id": "The ID of the token being transferred",
          "operator": "The address which initiated the transfer (i.e. msg.sender)",
          "value": "The amount of tokens being transferred"
        },
        "returns": {
          "_0": "`bytes4(keccak256(\"onERC1155Received(address,address,uint256,uint256,bytes)\"))` if transfer is allowed"
        }
      },
      "registry()": {
        "details": "Value is dereferenced from world"
      },
      "removeResourcesAndWorkers(address,uint256,address,bytes32[],uint256[])": {
        "details": "Removes resources+workers from building in single transaction",
        "params": {
          "resourceTypeIds": "Resource type ids",
          "resourcesAmounts": "Resources amounts",
          "resourcesReceiverAddress": "Resources receiver address",
          "workersAmount": "Workers amount (in 1e18 precision)",
          "workersReceiverAddress": "Workers receiver address (building or settlement)"
        }
      },
      "resetDistribution()": {
        "details": "Creates new distribution Nft and mints it to current settlement owner"
      },
      "stealTreasury(address,uint256)": {
        "details": "Called by siege, resources will be stolen into stealer settlement building treasury",
        "params": {
          "amount": "Amount of resources to steal and burn",
          "stealerSettlementAddress": "Settlement address which will get resources"
        },
        "returns": {
          "_0": "Amount of stolen resources",
          "_1": "Amount of burned resources"
        }
      },
      "supportsInterface(bytes4)": {
        "details": "See {IERC165-supportsInterface}."
      },
      "updateDebtsAccordingToNewDistributionsAmounts(address,address,uint256)": {
        "details": "Even though function is opened, it can be called only by distributions",
        "params": {
          "amount": "Amount",
          "from": "From address",
          "to": "To address"
        }
      },
      "updateState()": {
        "details": "Updates building production minting treasury and increasing #production.readyToBeDistributed"
      },
      "upgradeAdvancedProduction(address)": {
        "details": "Necessary resources for upgrade will be taken either from msg.sender or resourcesOwner (if resource.allowance allows it)If resourcesOwner == address(0) -> resources will be taken from msg.senderIf resourcesOwner != address(0) and resourcesOwner has given allowance to msg.sender >= upgradePrice -> resources will be taken from resourcesOwner",
        "params": {
          "resourcesOwner": "Resources owner"
        }
      },
      "upgradeBasicProduction(address)": {
        "details": "Necessary resources for upgrade will be taken either from msg.sender or resourcesOwner (if resource.allowance allows it)If resourcesOwner == address(0) -> resources will be taken from msg.senderIf resourcesOwner != address(0) and resourcesOwner has given allowance to msg.sender >= upgradePrice -> resources will be taken from resourcesOwner",
        "params": {
          "resourcesOwner": "Resources owner"
        }
      },
      "world()": {
        "details": "Value is dereferenced from proxy storage"
      },
      "worldAssetFactory()": {
        "details": "Value is dereferenced from registry"
      }
    },
    "version": 1
  },
  "userdoc": {
    "errors": {
      "BuildingCannotBeUpgradedWhileUpgradeIsOnCooldown()": [
        {
          "notice": "Thrown when attempting to upgrade building when upgrades are on cooldown"
        }
      ],
      "CannotTransferProducingResourceFromBuilding()": [
        {
          "notice": "Thrown when attempting to transfer producing resource from building"
        }
      ],
      "DistributionResetNotAllowedWhenTreasuryThresholdNotMet()": [
        {
          "notice": "Thrown when attempting to reset distribution of building tokens when its not allowed"
        }
      ],
      "OnlyActiveGame()": [
        {
          "notice": "Thrown when attempting to call action which can only be called in active game (started and not finished)"
        }
      ],
      "OnlyDistributions()": [
        {
          "notice": "Thrown when attempting to call action which can be called only by Distributions"
        }
      ],
      "OnlyMightyCreator()": [
        {
          "notice": "Thrown when attempting to call action which can only be called by mighty creator"
        }
      ],
      "OnlyRulerOrWorldAssetFromSameEra()": [
        {
          "notice": "Thrown when attempting to call action which can be called only by ruler or world asset"
        }
      ],
      "OnlySettlementOwner()": [
        {
          "notice": "Thrown when attempting to call action which can be called only by settlement owner"
        }
      ],
      "OnlyWorldAssetFromSameEra()": [
        {
          "notice": "Thrown when attempting to call action which can only be called by world asset from same era"
        }
      ]
    },
    "events": {
      "AdvancedProductionAdditionalWorkersCapacityMultiplierUpdated(uint256)": {
        "notice": "Emitted when #increaseAdditionalWorkersCapacityMultiplier or #decreaseAdditionalWorkersCapacityMultiplier"
      },
      "AdvancedProductionUpgraded(uint256,uint256)": {
        "notice": "Emitted when #doAdvancedProductionUpgrade is called"
      },
      "BasicProductionUpgraded(uint256,uint256)": {
        "notice": "Emitted when #doBasicProductionUpgrade is called"
      },
      "DistributedToShareHolder(bytes32,address,uint256)": {
        "notice": "Emitted when #distribute is called (when resources from production are distributed to building token holders)"
      },
      "DistributionCreated(uint256)": {
        "notice": "Emitted when #_setDefaultDistribution is called"
      },
      "ProducedResourceDebtUpdated(address,uint256)": {
        "notice": "Emitted when producedResourceDebt updated for distributionNftHolder"
      },
      "ProductionInfoUpdated(uint256,uint256,uint256,uint256)": {
        "notice": "Emitted when productionInfo is updated"
      }
    },
    "kind": "user",
    "methods": {
      "advancedProduction()": {
        "notice": "Advanced production"
      },
      "assetGroupId()": {
        "notice": "Returns world asset group id"
      },
      "assetTypeId()": {
        "notice": "Returns world asset type id"
      },
      "basicProduction()": {
        "notice": "Basic production"
      },
      "buildingTypeId()": {
        "notice": "Building type id"
      },
      "burnTreasury(uint256)": {
        "notice": "Burns building treasury"
      },
      "decreaseAdditionalWorkersCapacityMultiplier(uint256)": {
        "notice": "Decreases additional workers capacity multiplier"
      },
      "distributeToAllShareholders()": {
        "notice": "Distributes produces resource to all shareholders"
      },
      "distributeToSingleShareholder(address)": {
        "notice": "Distributes produced resource to single shareholder"
      },
      "distributionId()": {
        "notice": "Distribution id"
      },
      "era()": {
        "notice": "Era"
      },
      "eraNumber()": {
        "notice": "Returns era number"
      },
      "getAdditionalWorkersFromAdditionalWorkersCapacityMultiplier()": {
        "notice": "Calculates additional workers 'granted' from capacity multiplier"
      },
      "getAdvancedUpgradeCooldownDuration(uint256)": {
        "notice": "Calculates advanced upgrade duration for provided level"
      },
      "getAssignedWorkers()": {
        "notice": "Calculates amount of workers currently sitting in this building"
      },
      "getAvailableForAdvancedProductionWorkersCapacity()": {
        "notice": "Calculates capacity of available workers for advanced production"
      },
      "getBasicUpgradeCooldownDuration(uint256)": {
        "notice": "Calculates basic upgrade duration for provided level"
      },
      "getBuildingCoefficient(uint256)": {
        "notice": "Calculates building coefficient by provided level"
      },
      "getBuildingLevel()": {
        "notice": "Calculates current level"
      },
      "getConfig()": {
        "notice": "Returns production config for current building"
      },
      "getMaxTreasuryByLevel(uint256)": {
        "notice": "Calculates maximum amount of treasury by provided level"
      },
      "getProducingResourceTypeId()": {
        "notice": "Calculates producing resource type id for this building"
      },
      "getProductionResult(uint256)": {
        "notice": "Calculates production resources changes at provided time"
      },
      "getResourcesAmount(bytes32,uint256)": {
        "notice": "Calculates real amount of provided resource in building related to its production at provided time"
      },
      "getTreasuryAmount(uint256)": {
        "notice": "Calculates treasury amount at specified time"
      },
      "getUpgradePrice(uint256)": {
        "notice": "Calculates upgrade price by provided level"
      },
      "getWorkersCapacity()": {
        "notice": "Calculates workers capacity (maximum amount of workers)"
      },
      "givenProsperityAmount()": {
        "notice": "Amount of prosperity given"
      },
      "handleProductionResourcesChanged()": {
        "notice": "Callback which recalculates production. Called when resources related to production of this building is transferred from/to this building"
      },
      "increaseAdditionalWorkersCapacityMultiplier(uint256)": {
        "notice": "Increases additional workers capacity multiplier"
      },
      "isResourceAcceptable(bytes32)": {
        "notice": "Calculates if building is capable to accept resource"
      },
      "producedResourceDebt(address)": {
        "notice": "Produced resource debt"
      },
      "productionInfo()": {
        "notice": "Contains production info of the building"
      },
      "registry()": {
        "notice": "Registry"
      },
      "relatedSettlement()": {
        "notice": "Settlement address to which this building belongs"
      },
      "removeResourcesAndWorkers(address,uint256,address,bytes32[],uint256[])": {
        "notice": "Transfers game resources and workers from building to provided addresses"
      },
      "resetDistribution()": {
        "notice": "Resets current building distribution"
      },
      "stealTreasury(address,uint256)": {
        "notice": "Steals resources from treasury"
      },
      "updateDebtsAccordingToNewDistributionsAmounts(address,address,uint256)": {
        "notice": "Updates debts for shareholders whenever their share part changes"
      },
      "updateState()": {
        "notice": "Updates state of this building up to block.timestamp"
      },
      "upgradeAdvancedProduction(address)": {
        "notice": "Upgrades advanced production"
      },
      "upgradeBasicProduction(address)": {
        "notice": "Upgrades basic production"
      },
      "upgradeCooldownEndTime()": {
        "notice": "Upgrade cooldown end time"
      },
      "world()": {
        "notice": "World"
      },
      "worldAssetFactory()": {
        "notice": "Returns world asset factory from registry"
      }
    },
    "version": 1
  },
  "storageLayout": {
    "storage": [
      {
        "astId": 119,
        "contract": "contracts/core/assets/building/impl/Lumbermill.sol:Lumbermill",
        "label": "_initialized",
        "offset": 0,
        "slot": "0",
        "type": "t_uint8"
      },
      {
        "astId": 122,
        "contract": "contracts/core/assets/building/impl/Lumbermill.sol:Lumbermill",
        "label": "_initializing",
        "offset": 1,
        "slot": "0",
        "type": "t_bool"
      },
      {
        "astId": 17445,
        "contract": "contracts/core/assets/building/impl/Lumbermill.sol:Lumbermill",
        "label": "relatedSettlement",
        "offset": 2,
        "slot": "0",
        "type": "t_contract(ISettlement)25199"
      },
      {
        "astId": 17449,
        "contract": "contracts/core/assets/building/impl/Lumbermill.sol:Lumbermill",
        "label": "buildingTypeId",
        "offset": 0,
        "slot": "1",
        "type": "t_bytes32"
      },
      {
        "astId": 17454,
        "contract": "contracts/core/assets/building/impl/Lumbermill.sol:Lumbermill",
        "label": "basicProduction",
        "offset": 0,
        "slot": "2",
        "type": "t_struct(BasicProduction)20280_storage"
      },
      {
        "astId": 17459,
        "contract": "contracts/core/assets/building/impl/Lumbermill.sol:Lumbermill",
        "label": "advancedProduction",
        "offset": 0,
        "slot": "4",
        "type": "t_struct(AdvancedProduction)20289_storage"
      },
      {
        "astId": 17463,
        "contract": "contracts/core/assets/building/impl/Lumbermill.sol:Lumbermill",
        "label": "upgradeCooldownEndTime",
        "offset": 0,
        "slot": "8",
        "type": "t_uint256"
      },
      {
        "astId": 17467,
        "contract": "contracts/core/assets/building/impl/Lumbermill.sol:Lumbermill",
        "label": "givenProsperityAmount",
        "offset": 0,
        "slot": "9",
        "type": "t_uint256"
      },
      {
        "astId": 17472,
        "contract": "contracts/core/assets/building/impl/Lumbermill.sol:Lumbermill",
        "label": "productionInfo",
        "offset": 0,
        "slot": "10",
        "type": "t_struct(ProductionInfo)20298_storage"
      },
      {
        "astId": 17476,
        "contract": "contracts/core/assets/building/impl/Lumbermill.sol:Lumbermill",
        "label": "distributionId",
        "offset": 0,
        "slot": "14",
        "type": "t_uint256"
      },
      {
        "astId": 17482,
        "contract": "contracts/core/assets/building/impl/Lumbermill.sol:Lumbermill",
        "label": "producedResourceDebt",
        "offset": 0,
        "slot": "15",
        "type": "t_mapping(t_address,t_uint256)"
      }
    ],
    "types": {
      "t_address": {
        "encoding": "inplace",
        "label": "address",
        "numberOfBytes": "20"
      },
      "t_bool": {
        "encoding": "inplace",
        "label": "bool",
        "numberOfBytes": "1"
      },
      "t_bytes32": {
        "encoding": "inplace",
        "label": "bytes32",
        "numberOfBytes": "32"
      },
      "t_contract(ISettlement)25199": {
        "encoding": "inplace",
        "label": "contract ISettlement",
        "numberOfBytes": "20"
      },
      "t_mapping(t_address,t_uint256)": {
        "encoding": "mapping",
        "key": "t_address",
        "label": "mapping(address => uint256)",
        "numberOfBytes": "32",
        "value": "t_uint256"
      },
      "t_struct(AdvancedProduction)20289_storage": {
        "encoding": "inplace",
        "label": "struct IBuilding.AdvancedProduction",
        "members": [
          {
            "astId": 20282,
            "contract": "contracts/core/assets/building/impl/Lumbermill.sol:Lumbermill",
            "label": "level",
            "offset": 0,
            "slot": "0",
            "type": "t_uint256"
          },
          {
            "astId": 20284,
            "contract": "contracts/core/assets/building/impl/Lumbermill.sol:Lumbermill",
            "label": "coefficient",
            "offset": 0,
            "slot": "1",
            "type": "t_uint256"
          },
          {
            "astId": 20286,
            "contract": "contracts/core/assets/building/impl/Lumbermill.sol:Lumbermill",
            "label": "additionalWorkersCapacityMultiplier",
            "offset": 0,
            "slot": "2",
            "type": "t_uint256"
          },
          {
            "astId": 20288,
            "contract": "contracts/core/assets/building/impl/Lumbermill.sol:Lumbermill",
            "label": "toBeProducedTicks",
            "offset": 0,
            "slot": "3",
            "type": "t_uint256"
          }
        ],
        "numberOfBytes": "128"
      },
      "t_struct(BasicProduction)20280_storage": {
        "encoding": "inplace",
        "label": "struct IBuilding.BasicProduction",
        "members": [
          {
            "astId": 20277,
            "contract": "contracts/core/assets/building/impl/Lumbermill.sol:Lumbermill",
            "label": "level",
            "offset": 0,
            "slot": "0",
            "type": "t_uint256"
          },
          {
            "astId": 20279,
            "contract": "contracts/core/assets/building/impl/Lumbermill.sol:Lumbermill",
            "label": "coefficient",
            "offset": 0,
            "slot": "1",
            "type": "t_uint256"
          }
        ],
        "numberOfBytes": "64"
      },
      "t_struct(ProductionInfo)20298_storage": {
        "encoding": "inplace",
        "label": "struct IBuilding.ProductionInfo",
        "members": [
          {
            "astId": 20291,
            "contract": "contracts/core/assets/building/impl/Lumbermill.sol:Lumbermill",
            "label": "lastUpdateStateTime",
            "offset": 0,
            "slot": "0",
            "type": "t_uint256"
          },
          {
            "astId": 20293,
            "contract": "contracts/core/assets/building/impl/Lumbermill.sol:Lumbermill",
            "label": "lastUpdateStateRegionTime",
            "offset": 0,
            "slot": "1",
            "type": "t_uint256"
          },
          {
            "astId": 20295,
            "contract": "contracts/core/assets/building/impl/Lumbermill.sol:Lumbermill",
            "label": "readyToBeDistributed",
            "offset": 0,
            "slot": "2",
            "type": "t_uint256"
          },
          {
            "astId": 20297,
            "contract": "contracts/core/assets/building/impl/Lumbermill.sol:Lumbermill",
            "label": "totalDebt",
            "offset": 0,
            "slot": "3",
            "type": "t_uint256"
          }
        ],
        "numberOfBytes": "128"
      },
      "t_uint256": {
        "encoding": "inplace",
        "label": "uint256",
        "numberOfBytes": "32"
      },
      "t_uint8": {
        "encoding": "inplace",
        "label": "uint8",
        "numberOfBytes": "1"
      }
    }
  }
}