{
  "address": "0xb89F74908132f9737303bcc58116d71C117eD53C",
  "abi": [
    {
      "inputs": [],
      "name": "OnlyMightyCreator",
      "type": "error"
    },
    {
      "inputs": [],
      "name": "UnknownInputParameter",
      "type": "error"
    },
    {
      "anonymous": false,
      "inputs": [
        {
          "indexed": false,
          "internalType": "uint8",
          "name": "version",
          "type": "uint8"
        }
      ],
      "name": "Initialized",
      "type": "event"
    },
    {
      "inputs": [
        {
          "internalType": "uint8",
          "name": "variation",
          "type": "uint8"
        }
      ],
      "name": "getAdvancedProductionTileBonusByVariation",
      "outputs": [
        {
          "internalType": "bytes32",
          "name": "",
          "type": "bytes32"
        },
        {
          "internalType": "uint256",
          "name": "",
          "type": "uint256"
        }
      ],
      "stateMutability": "pure",
      "type": "function"
    },
    {
      "inputs": [],
      "name": "getArmyStunDurationByJoiningBattleAtAttackingSide",
      "outputs": [
        {
          "internalType": "uint256",
          "name": "",
          "type": "uint256"
        }
      ],
      "stateMutability": "pure",
      "type": "function"
    },
    {
      "inputs": [],
      "name": "getArmyStunDurationPerRobberyMultiplier",
      "outputs": [
        {
          "internalType": "uint256",
          "name": "",
          "type": "uint256"
        }
      ],
      "stateMutability": "pure",
      "type": "function"
    },
    {
      "inputs": [],
      "name": "getBaseBattleDuration",
      "outputs": [
        {
          "internalType": "uint256",
          "name": "",
          "type": "uint256"
        }
      ],
      "stateMutability": "pure",
      "type": "function"
    },
    {
      "inputs": [
        {
          "internalType": "bytes32",
          "name": "buildingTypeId",
          "type": "bytes32"
        }
      ],
      "name": "getBasicProductionBuildingCoefficient",
      "outputs": [
        {
          "internalType": "uint256",
          "name": "",
          "type": "uint256"
        }
      ],
      "stateMutability": "pure",
      "type": "function"
    },
    {
      "inputs": [],
      "name": "getBattleDurationLosingArmyStunMultiplier",
      "outputs": [
        {
          "internalType": "uint256",
          "name": "",
          "type": "uint256"
        }
      ],
      "stateMutability": "pure",
      "type": "function"
    },
    {
      "inputs": [],
      "name": "getBattleDurationWinningArmyStunMultiplier",
      "outputs": [
        {
          "internalType": "uint256",
          "name": "",
          "type": "uint256"
        }
      ],
      "stateMutability": "pure",
      "type": "function"
    },
    {
      "inputs": [],
      "name": "getBuildingTokenTransferThresholdPercent",
      "outputs": [
        {
          "internalType": "uint256",
          "name": "",
          "type": "uint256"
        }
      ],
      "stateMutability": "pure",
      "type": "function"
    },
    {
      "inputs": [],
      "name": "getBuildingTypeIds",
      "outputs": [
        {
          "internalType": "bytes32[]",
          "name": "",
          "type": "bytes32[]"
        }
      ],
      "stateMutability": "pure",
      "type": "function"
    },
    {
      "inputs": [],
      "name": "getCaptureTileDurationPerTile",
      "outputs": [
        {
          "internalType": "uint256",
          "name": "",
          "type": "uint256"
        }
      ],
      "stateMutability": "pure",
      "type": "function"
    },
    {
      "inputs": [
        {
          "internalType": "uint256",
          "name": "regionTier",
          "type": "uint256"
        }
      ],
      "name": "getChanceForTileWithBonusByRegionTier",
      "outputs": [
        {
          "internalType": "uint256",
          "name": "",
          "type": "uint256"
        }
      ],
      "stateMutability": "pure",
      "type": "function"
    },
    {
      "inputs": [
        {
          "internalType": "bytes32",
          "name": "resourceTypeId",
          "type": "bytes32"
        }
      ],
      "name": "getCorruptionIndexByResource",
      "outputs": [
        {
          "internalType": "uint256",
          "name": "",
          "type": "uint256"
        }
      ],
      "stateMutability": "pure",
      "type": "function"
    },
    {
      "inputs": [],
      "name": "getCultistUnitTypeId",
      "outputs": [
        {
          "internalType": "bytes32",
          "name": "",
          "type": "bytes32"
        }
      ],
      "stateMutability": "pure",
      "type": "function"
    },
    {
      "inputs": [],
      "name": "getCultistsNoDestructionDelay",
      "outputs": [
        {
          "internalType": "uint256",
          "name": "",
          "type": "uint256"
        }
      ],
      "stateMutability": "pure",
      "type": "function"
    },
    {
      "inputs": [],
      "name": "getCultistsPerRegionMultiplier",
      "outputs": [
        {
          "internalType": "uint256",
          "name": "",
          "type": "uint256"
        }
      ],
      "stateMutability": "pure",
      "type": "function"
    },
    {
      "inputs": [],
      "name": "getCultistsSummonDelay",
      "outputs": [
        {
          "internalType": "uint256",
          "name": "",
          "type": "uint256"
        }
      ],
      "stateMutability": "pure",
      "type": "function"
    },
    {
      "inputs": [],
      "name": "getGameResources",
      "outputs": [
        {
          "components": [
            {
              "internalType": "string",
              "name": "tokenName",
              "type": "string"
            },
            {
              "internalType": "string",
              "name": "tokenSymbol",
              "type": "string"
            },
            {
              "internalType": "bytes32",
              "name": "resourceTypeId",
              "type": "bytes32"
            }
          ],
          "internalType": "struct IRegistry.GameResource[]",
          "name": "",
          "type": "tuple[]"
        }
      ],
      "stateMutability": "pure",
      "type": "function"
    },
    {
      "inputs": [],
      "name": "getGameUnits",
      "outputs": [
        {
          "components": [
            {
              "internalType": "string",
              "name": "tokenName",
              "type": "string"
            },
            {
              "internalType": "string",
              "name": "tokenSymbol",
              "type": "string"
            },
            {
              "internalType": "bytes32",
              "name": "unitTypeId",
              "type": "bytes32"
            }
          ],
          "internalType": "struct IRegistry.GameUnit[]",
          "name": "",
          "type": "tuple[]"
        }
      ],
      "stateMutability": "pure",
      "type": "function"
    },
    {
      "inputs": [],
      "name": "getGlobalMultiplier",
      "outputs": [
        {
          "internalType": "uint256",
          "name": "",
          "type": "uint256"
        }
      ],
      "stateMutability": "view",
      "type": "function"
    },
    {
      "inputs": [],
      "name": "getInitialCaptureProsperityBasicValue",
      "outputs": [
        {
          "internalType": "uint256",
          "name": "",
          "type": "uint256"
        }
      ],
      "stateMutability": "pure",
      "type": "function"
    },
    {
      "inputs": [],
      "name": "getInitialCaptureProsperityPerTileValue",
      "outputs": [
        {
          "internalType": "uint256",
          "name": "",
          "type": "uint256"
        }
      ],
      "stateMutability": "pure",
      "type": "function"
    },
    {
      "inputs": [],
      "name": "getInitialCorruptionIndexAmountPerRegionTier",
      "outputs": [
        {
          "internalType": "uint256",
          "name": "",
          "type": "uint256"
        }
      ],
      "stateMutability": "pure",
      "type": "function"
    },
    {
      "inputs": [],
      "name": "getInitialCultistsAmountPerRegionTier",
      "outputs": [
        {
          "internalType": "uint256",
          "name": "",
          "type": "uint256"
        }
      ],
      "stateMutability": "pure",
      "type": "function"
    },
    {
      "inputs": [],
      "name": "getManeuverDurationStunMultiplier",
      "outputs": [
        {
          "internalType": "uint256",
          "name": "",
          "type": "uint256"
        }
      ],
      "stateMutability": "pure",
      "type": "function"
    },
    {
      "inputs": [],
      "name": "getMaxAdvancedProductionTileBuff",
      "outputs": [
        {
          "internalType": "uint256",
          "name": "",
          "type": "uint256"
        }
      ],
      "stateMutability": "pure",
      "type": "function"
    },
    {
      "inputs": [],
      "name": "getMaxAllowedRobberyMultiplierIncreaseValue",
      "outputs": [
        {
          "internalType": "uint256",
          "name": "",
          "type": "uint256"
        }
      ],
      "stateMutability": "pure",
      "type": "function"
    },
    {
      "inputs": [],
      "name": "getMaxAllowedUnitsToBuyPerTransaction",
      "outputs": [
        {
          "internalType": "uint256",
          "name": "",
          "type": "uint256"
        }
      ],
      "stateMutability": "pure",
      "type": "function"
    },
    {
      "inputs": [],
      "name": "getMaxAllowedWorkersToBuyPerTransaction",
      "outputs": [
        {
          "internalType": "uint256",
          "name": "",
          "type": "uint256"
        }
      ],
      "stateMutability": "pure",
      "type": "function"
    },
    {
      "inputs": [
        {
          "internalType": "uint8",
          "name": "tileBonusType",
          "type": "uint8"
        }
      ],
      "name": "getMaxCapturedTilesForSettlement",
      "outputs": [
        {
          "internalType": "uint256",
          "name": "",
          "type": "uint256"
        }
      ],
      "stateMutability": "pure",
      "type": "function"
    },
    {
      "inputs": [],
      "name": "getMaxCultistsPerRegion",
      "outputs": [
        {
          "internalType": "uint256",
          "name": "",
          "type": "uint256"
        }
      ],
      "stateMutability": "pure",
      "type": "function"
    },
    {
      "inputs": [],
      "name": "getMaxRegionTier",
      "outputs": [
        {
          "internalType": "uint256",
          "name": "",
          "type": "uint256"
        }
      ],
      "stateMutability": "pure",
      "type": "function"
    },
    {
      "inputs": [],
      "name": "getMaxSettlementsPerRegion",
      "outputs": [
        {
          "internalType": "uint256",
          "name": "",
          "type": "uint256"
        }
      ],
      "stateMutability": "pure",
      "type": "function"
    },
    {
      "inputs": [],
      "name": "getMinimumBattleDuration",
      "outputs": [
        {
          "internalType": "uint256",
          "name": "",
          "type": "uint256"
        }
      ],
      "stateMutability": "pure",
      "type": "function"
    },
    {
      "inputs": [],
      "name": "getMinimumUserSettlementsCountInNeighboringRegionRequiredToIncludeRegion",
      "outputs": [
        {
          "internalType": "uint256",
          "name": "",
          "type": "uint256"
        }
      ],
      "stateMutability": "pure",
      "type": "function"
    },
    {
      "inputs": [],
      "name": "getNecessaryProsperityPercentForClaimingTileCapture",
      "outputs": [
        {
          "internalType": "uint256",
          "name": "",
          "type": "uint256"
        }
      ],
      "stateMutability": "pure",
      "type": "function"
    },
    {
      "inputs": [],
      "name": "getNewSettlementPriceIncreaseMultiplier",
      "outputs": [
        {
          "internalType": "uint256",
          "name": "",
          "type": "uint256"
        }
      ],
      "stateMutability": "pure",
      "type": "function"
    },
    {
      "inputs": [],
      "name": "getNewSettlementStartingPrice",
      "outputs": [
        {
          "internalType": "uint256",
          "name": "",
          "type": "uint256"
        }
      ],
      "stateMutability": "view",
      "type": "function"
    },
    {
      "inputs": [],
      "name": "getNextCaptureProsperityBasicThreshold",
      "outputs": [
        {
          "internalType": "uint256",
          "name": "",
          "type": "uint256"
        }
      ],
      "stateMutability": "pure",
      "type": "function"
    },
    {
      "inputs": [],
      "name": "getNextCaptureProsperityPerTileThreshold",
      "outputs": [
        {
          "internalType": "uint256",
          "name": "",
          "type": "uint256"
        }
      ],
      "stateMutability": "pure",
      "type": "function"
    },
    {
      "inputs": [],
      "name": "getProductionTicksInSecond",
      "outputs": [
        {
          "internalType": "uint256",
          "name": "",
          "type": "uint256"
        }
      ],
      "stateMutability": "view",
      "type": "function"
    },
    {
      "inputs": [
        {
          "internalType": "bytes32",
          "name": "unitTypeId",
          "type": "bytes32"
        }
      ],
      "name": "getProsperityForUnitLiquidation",
      "outputs": [
        {
          "internalType": "uint256",
          "name": "",
          "type": "uint256"
        }
      ],
      "stateMutability": "pure",
      "type": "function"
    },
    {
      "inputs": [
        {
          "internalType": "uint256",
          "name": "regionTier",
          "type": "uint256"
        }
      ],
      "name": "getRegionInclusionPrice",
      "outputs": [
        {
          "internalType": "uint256",
          "name": "",
          "type": "uint256"
        }
      ],
      "stateMutability": "pure",
      "type": "function"
    },
    {
      "inputs": [
        {
          "internalType": "uint256",
          "name": "regionTier",
          "type": "uint256"
        }
      ],
      "name": "getRegionOwnerSettlementPurchasePercent",
      "outputs": [
        {
          "internalType": "uint256",
          "name": "",
          "type": "uint256"
        }
      ],
      "stateMutability": "pure",
      "type": "function"
    },
    {
      "inputs": [
        {
          "internalType": "bytes32",
          "name": "resourceTypeId",
          "type": "bytes32"
        }
      ],
      "name": "getResourceWeight",
      "outputs": [
        {
          "internalType": "uint256",
          "name": "",
          "type": "uint256"
        }
      ],
      "stateMutability": "pure",
      "type": "function"
    },
    {
      "inputs": [],
      "name": "getRobberyPointsPerDamageMultiplier",
      "outputs": [
        {
          "internalType": "uint256",
          "name": "",
          "type": "uint256"
        }
      ],
      "stateMutability": "pure",
      "type": "function"
    },
    {
      "inputs": [
        {
          "internalType": "bytes32",
          "name": "resourceTypeId",
          "type": "bytes32"
        }
      ],
      "name": "getRobberyPointsToResourceMultiplier",
      "outputs": [
        {
          "internalType": "uint256",
          "name": "",
          "type": "uint256"
        }
      ],
      "stateMutability": "view",
      "type": "function"
    },
    {
      "inputs": [],
      "name": "getSettlementPayToDecreaseCorruptionIndexPenaltyMultiplier",
      "outputs": [
        {
          "internalType": "uint256",
          "name": "",
          "type": "uint256"
        }
      ],
      "stateMutability": "pure",
      "type": "function"
    },
    {
      "inputs": [],
      "name": "getSettlementPriceMultiplierPerIncreasedRegionTier",
      "outputs": [
        {
          "internalType": "uint256",
          "name": "",
          "type": "uint256"
        }
      ],
      "stateMutability": "pure",
      "type": "function"
    },
    {
      "inputs": [],
      "name": "getStunDurationMultiplierOfCancelledSecretManeuver",
      "outputs": [
        {
          "internalType": "uint256",
          "name": "",
          "type": "uint256"
        }
      ],
      "stateMutability": "pure",
      "type": "function"
    },
    {
      "inputs": [],
      "name": "getTileCaptureCancellationFee",
      "outputs": [
        {
          "internalType": "uint256",
          "name": "",
          "type": "uint256"
        }
      ],
      "stateMutability": "pure",
      "type": "function"
    },
    {
      "inputs": [],
      "name": "getToTreasuryPercent",
      "outputs": [
        {
          "internalType": "uint256",
          "name": "",
          "type": "uint256"
        }
      ],
      "stateMutability": "pure",
      "type": "function"
    },
    {
      "inputs": [
        {
          "internalType": "uint8",
          "name": "variation",
          "type": "uint8"
        }
      ],
      "name": "getUnitBattleMultiplierTileBonusByVariation",
      "outputs": [
        {
          "internalType": "bytes32",
          "name": "",
          "type": "bytes32"
        },
        {
          "internalType": "uint256",
          "name": "",
          "type": "uint256"
        }
      ],
      "stateMutability": "pure",
      "type": "function"
    },
    {
      "inputs": [],
      "name": "getUnitHiringFortHpMultiplier",
      "outputs": [
        {
          "internalType": "uint256",
          "name": "",
          "type": "uint256"
        }
      ],
      "stateMutability": "pure",
      "type": "function"
    },
    {
      "inputs": [
        {
          "internalType": "bytes32",
          "name": "unitTypeId",
          "type": "bytes32"
        }
      ],
      "name": "getUnitPoolType",
      "outputs": [
        {
          "internalType": "bytes32",
          "name": "",
          "type": "bytes32"
        }
      ],
      "stateMutability": "pure",
      "type": "function"
    },
    {
      "inputs": [
        {
          "internalType": "bytes32",
          "name": "unitTypeId",
          "type": "bytes32"
        }
      ],
      "name": "getUnitPriceDropByUnitTypeId",
      "outputs": [
        {
          "internalType": "uint256",
          "name": "",
          "type": "uint256"
        },
        {
          "internalType": "uint256",
          "name": "",
          "type": "uint256"
        }
      ],
      "stateMutability": "pure",
      "type": "function"
    },
    {
      "inputs": [],
      "name": "getUnitPriceIncreaseForEachUnit",
      "outputs": [
        {
          "internalType": "uint256",
          "name": "",
          "type": "uint256"
        },
        {
          "internalType": "uint256",
          "name": "",
          "type": "uint256"
        }
      ],
      "stateMutability": "pure",
      "type": "function"
    },
    {
      "inputs": [
        {
          "internalType": "bytes32",
          "name": "unitTypeId",
          "type": "bytes32"
        }
      ],
      "name": "getUnitResourceUsagePer1SecondOfDecreasedManeuverDuration",
      "outputs": [
        {
          "internalType": "uint256",
          "name": "",
          "type": "uint256"
        }
      ],
      "stateMutability": "pure",
      "type": "function"
    },
    {
      "inputs": [
        {
          "internalType": "bytes32",
          "name": "unitTypeId",
          "type": "bytes32"
        }
      ],
      "name": "getUnitStats",
      "outputs": [
        {
          "components": [
            {
              "internalType": "uint256",
              "name": "offenseStage1",
              "type": "uint256"
            },
            {
              "internalType": "uint256",
              "name": "defenceStage1",
              "type": "uint256"
            },
            {
              "internalType": "uint256",
              "name": "offenseStage2",
              "type": "uint256"
            },
            {
              "internalType": "uint256",
              "name": "defenceStage2",
              "type": "uint256"
            },
            {
              "internalType": "uint256",
              "name": "siegePower",
              "type": "uint256"
            },
            {
              "internalType": "uint256",
              "name": "siegeSupport",
              "type": "uint256"
            }
          ],
          "internalType": "struct IRegistry.UnitStats",
          "name": "",
          "type": "tuple"
        }
      ],
      "stateMutability": "pure",
      "type": "function"
    },
    {
      "inputs": [],
      "name": "getUnitTypeIds",
      "outputs": [
        {
          "internalType": "bytes32[]",
          "name": "",
          "type": "bytes32[]"
        }
      ],
      "stateMutability": "pure",
      "type": "function"
    },
    {
      "inputs": [
        {
          "internalType": "bytes32",
          "name": "buildingTypeId",
          "type": "bytes32"
        }
      ],
      "name": "getWorkerCapacityCoefficient",
      "outputs": [
        {
          "internalType": "uint256",
          "name": "",
          "type": "uint256"
        }
      ],
      "stateMutability": "pure",
      "type": "function"
    },
    {
      "inputs": [],
      "name": "getWorkerPriceDrop",
      "outputs": [
        {
          "internalType": "uint256",
          "name": "",
          "type": "uint256"
        },
        {
          "internalType": "uint256",
          "name": "",
          "type": "uint256"
        }
      ],
      "stateMutability": "pure",
      "type": "function"
    },
    {
      "inputs": [],
      "name": "getWorkerPriceIncreaseForEachWorker",
      "outputs": [
        {
          "internalType": "uint256",
          "name": "",
          "type": "uint256"
        },
        {
          "internalType": "uint256",
          "name": "",
          "type": "uint256"
        }
      ],
      "stateMutability": "pure",
      "type": "function"
    },
    {
      "inputs": [
        {
          "internalType": "bytes32",
          "name": "unitTypeId",
          "type": "bytes32"
        }
      ],
      "name": "getWorkersForUnitLiquidation",
      "outputs": [
        {
          "internalType": "uint256",
          "name": "",
          "type": "uint256"
        }
      ],
      "stateMutability": "pure",
      "type": "function"
    },
    {
      "inputs": [],
      "name": "globalMultiplier",
      "outputs": [
        {
          "internalType": "uint256",
          "name": "",
          "type": "uint256"
        }
      ],
      "stateMutability": "view",
      "type": "function"
    },
    {
      "inputs": [
        {
          "internalType": "uint256",
          "name": "_globalMultiplier",
          "type": "uint256"
        },
        {
          "internalType": "uint256",
          "name": "_settlementStartingPrice",
          "type": "uint256"
        }
      ],
      "name": "init",
      "outputs": [],
      "stateMutability": "nonpayable",
      "type": "function"
    },
    {
      "inputs": [],
      "name": "mightyCreator",
      "outputs": [
        {
          "internalType": "address",
          "name": "",
          "type": "address"
        }
      ],
      "stateMutability": "view",
      "type": "function"
    },
    {
      "inputs": [
        {
          "internalType": "address",
          "name": "newMightyCreator",
          "type": "address"
        }
      ],
      "name": "setMightyCreator",
      "outputs": [],
      "stateMutability": "nonpayable",
      "type": "function"
    },
    {
      "inputs": [
        {
          "internalType": "address",
          "name": "worldAssetFactoryAddress",
          "type": "address"
        }
      ],
      "name": "setWorldAssetFactory",
      "outputs": [],
      "stateMutability": "nonpayable",
      "type": "function"
    },
    {
      "inputs": [],
      "name": "settlementStartingPrice",
      "outputs": [
        {
          "internalType": "uint256",
          "name": "",
          "type": "uint256"
        }
      ],
      "stateMutability": "view",
      "type": "function"
    },
    {
      "inputs": [],
      "name": "worldAssetFactory",
      "outputs": [
        {
          "internalType": "contract IWorldAssetFactory",
          "name": "",
          "type": "address"
        }
      ],
      "stateMutability": "view",
      "type": "function"
    }
  ],
  "transactionHash": "0x1167653fff0f141c1fc0291838b8ad18f6325e17afb97a60eedcb5ff6d4b5427",
  "args": [],
  "numDeployments": 1,
  "solcInputHash": "2627c9fa14fa5cb6e37bf26f5785fa8b",
  "bytecode": "0x608060405234801561001057600080fd5b50612727806100206000396000f3fe608060405234801561001057600080fd5b50600436106103525760003560e01c80638dcbb205116101c0578063cbaad44111610100578063cbaad441146106df578063d13c422e146106f2578063d6dd049914610700578063d7ee90041461064a578063dbfb0ea114610707578063dcc6b96e1461071a578063ddc8381914610721578063e1b5c3ef14610734578063e7a76ce714610620578063e84959f2146105aa578063ece56a1a14610747578063f1a5c01d1461075a578063f20bebf414610768578063f515741314610771578063f644c0ce1461077a578063fb5c6df4146104cf578063fe9135f014610782578063ff614f4f1461078a57600080fd5b80638dcbb205146105fa5780638ed97a8c1461060d578063a476a6c314610620578063a53a3bb71461062e578063a5843f0814610637578063a6896cdb1461064a578063a7778ce014610658578063b8daaaeb14610665578063b99cb62c14610673578063bc2143e714610681578063bda2613914610689578063beaa602d14610698578063c15466dc146104cf578063c7388af4146106a1578063c7738b61146106a9578063c80134be146106bc578063c8923946146106cf57600080fd5b806357721c581161029657806357721c581461052f5780635a28acb0146105425780635c13c3bf146105575780635c724dbf1461055f578063616e009514610572578063657f17fd1461057a57806366fa9d24146105825780636795d4a01461059557806368e35ca01461059c5780636f3426da146105aa57806370a1859e146105b8578063746b537a146105c65780637496fc52146105d1578063781e0efe146105e45780637a893af5146105aa5780637e7d746e146105c657806381bfdebc146105b857806385142481146105ec57600080fd5b80630c451c20146103575780630de89b461461037d5780631dae2152146103925780632020e901146103a7578063205a7ec8146103cf578063250c3a10146103d65780632701e0d0146103e957806327153050146103f75780632e62598514610428578063302c7c4a1461045b57806335ba79891461046957806337a42b64146104c85780633afb0ebb146104cf5780633cdba936146104df578063413127ac146104f2578063426851b914610505578063569a52a51461051a575b600080fd5b61036a610365366004612323565b610793565b6040519081526020015b60405180910390f35b61039061038b36600461233c565b610871565b005b61039a61089b565b60405161037491906123f7565b6103ba6103b5366004612459565b610b98565b60408051928352602083019190915201610374565b602861036a565b61036a6103e4366004612323565b610ef7565b6729a2241af62c000061036a565b600054610410906201000090046001600160a01b031681565b6040516001600160a01b039091168152602001610374565b6040805180820190915260078152662ba0a92924a7a960c91b60209091015260008051602061269283398151915261036a565b670853a0d2313c000061036a565b61047c610477366004612323565b61109b565b6040516103749190600060c082019050825182526020830151602083015260408301516040830152606083015160608301526080830151608083015260a083015160a083015292915050565b600261036a565b69010f0cf064dd5920000061036a565b6103ba6104ed366004612323565b61123c565b61039061050036600461233c565b6112d7565b61050d611309565b604051610374919061247c565b662386f07b1c9936662386f26fc100006103ba565b61036a61053d366004612459565b611555565b61054a611585565b60405161037491906124d1565b617e9061036a565b61036a61056d366004612323565b61163b565b61054a611692565b61036a61180c565b61036a610590366004612323565b61182f565b600461036a565b670429d069189e000061036a565b670de0b6b3a764000061036a565b6706f05b59d3b2000061036a565b6103ec6103e86103ba565b61036a6105df366004612323565b6118ec565b60025461036a565b6710a741a46278000061036a565b61036a610608366004612323565b6119ee565b61036a61061b366004612323565b611a4b565b6703782dace9d9000061036a565b6212750061036a565b610390610645366004612515565b611bef565b674563918244f4000061036a565b66b1a2bc2ec5000061036a565b67093a8dfa07a2800061036a565b6709b6e64a8ec6000061036a565b61a8c061036a565b685150ae84a8cdf0000061036a565b61036a60025481565b60035461036a565b6103ba6106b7366004612459565b611d21565b61036a6106ca366004612323565b611e23565b69021e19e0c9bab240000061036a565b61036a6106ed366004612323565b611e89565b6704a628b99fc1800061036a565b600a61036a565b61036a610715366004612323565b611f4d565b601461036a565b61036a61072f366004612323565b6120d6565b61036a610742366004612323565b6121d8565b600154610410906001600160a01b031681565b67120a871cc002000061036a565b6201518061036a565b620d2f0061036a565b61036a6122da565b61fd2061036a565b61036a60035481565b6040805180820190915260078152662ba0a92924a7a960c91b602090910152600060008051602061265283398151915282016107d65750653286e80a5e00919050565b60408051808201909152600681526520a921a422a960d11b60209091015260008051602061261283398151915282016108165750650ca18d4e8000919050565b6040805180820190915260088152672427a929a2a6a0a760c11b6020909101526000805160206126728339815191528201610858575065050d5fcd3e00919050565b60405163ea3b0abb60e01b815260040160405180910390fd5b6108796122f0565b600180546001600160a01b0319166001600160a01b0392909216919091179055565b60408051600480825260a0820190925260609160009190816020015b604080516060808201835280825260208201526000918101919091528152602001906001900390816108b75750506040805160a081018252600e606082019081526d135a5d1a1c98595d5b48119bdbd960921b608083015281528151808301835260058152641b5193d3d160da1b602080830191909152808301919091528251808401845260048152631193d3d160e21b9101527f2f6f5a261d6f4514c3f09a834720fe583c82f2ee4758ce9a45fbd67428e9f93d91810191909152815191925090829060009061098a5761098a61254d565b6020908102919091018101919091526040805160a081018252600e606082019081526d135a5d1a1c98595d5b4815dbdbd960921b608083015281528151808301835260058152641b55d3d3d160da1b818501528184015281518083018352600481526315d3d3d160e21b9301929092527f5f3d3bfd5b61198148275c178146c21eec5c5ab7e81758f3c651754ae3f1ed4290820152815182906001908110610a3457610a3461254d565b6020908102919091018101919091526040805160a081018252600d606082019081526c4d697468726165756d204f726560981b608083015281528151808301835260048152636d4f524560e01b81850152818401528151808301835260038152624f524560e81b9301929092527f9db51ceeef36d28f4a713ba944bdadb00e988c5676c92710eaf0e194efb4cb5590820152815182906002908110610adb57610adb61254d565b6020908102919091018101919091526040805160a081018252600f606082019081526e135a5d1a1c98595d5b48125b99dbdd608a1b608083015281528151808301835260068152651b525391d3d560d21b8185015281840152815180830183526005815264125391d3d560da1b9301929092527ff4d3d98b93a17290e7883bbc86b83d603b27efc328d7873b3fc648501d83e57290820152815182906003908110610b8857610b8861254d565b6020908102919091010152919050565b6000808260ff16600003610be15750506040805180820190915260048152634641524d60e01b602090910152506000805160206126b2833981519152906703782dace9d9000090565b8260ff16600103610c275750506040805180820190915260048152634641524d60e01b602090910152506000805160206126b28339815191529067058d15e17628000090565b8260ff16600203610c8557505060408051808201909152600a8152691315535091549352531360b21b602090910152507f6efa3da32b5b0a21cf9c6f5bc9edeb1d9e3a4b88cc5eb7b649f1e5029410165990670429d069189e000090565b8260ff16600303610ce357505060408051808201909152600a8152691315535091549352531360b21b602090910152507f6efa3da32b5b0a21cf9c6f5bc9edeb1d9e3a4b88cc5eb7b649f1e5029410165990670853a0d2313c000090565b8260ff16600403610d3b5750506040805180820190915260048152634d494e4560e01b602090910152507f458fc043506cc6fea16e7daa38390499ef978846d88dd78fe56678ac9de79444906706f05b59d3b2000090565b8260ff16600503610d935750506040805180820190915260048152634d494e4560e01b602090910152507f458fc043506cc6fea16e7daa38390499ef978846d88dd78fe56678ac9de7944490670b1a2bc2ec50000090565b8260ff16600603610ded575050604080518082019091526006815265534d4954485960d01b602090910152507fe8d22c09878b0ae66551f207dc5f243823c9e1989bc2d5dfab58fb1a93386fd2906709b6e64a8ec6000090565b8260ff16600703610e47575050604080518082019091526006815265534d4954485960d01b602090910152507fe8d22c09878b0ae66551f207dc5f243823c9e1989bc2d5dfab58fb1a93386fd290670de0b6b3a764000090565b8260ff16600803610e9f5750506040805180820190915260048152631193d49560e21b602090910152507f2911d5ca388af24ed7f391a4eb24469bc0fd8935cd73bb1075ca7e702a42eb199067058d15e17628000090565b8260ff166009036108585750506040805180820190915260048152631193d49560e21b602090910152507f2911d5ca388af24ed7f391a4eb24469bc0fd8935cd73bb1075ca7e702a42eb1990670853a0d2313c000090565b6040805180820190915260048152634641524d60e01b60209091015260007fea182adbe8a99c0376d68ae8663b1e572fb013df4142853d0efacd6d83e4a3f38201610f4b5750678ac7230489e80000919050565b60408051808201909152600a8152691315535091549352531360b21b6020909101527f9105c25cd4a4f5de306390a4361214e261c5b47733a14849b60e1afd6befe9a78201610fa35750676124fee993bc0000919050565b6040805180820190915260048152634d494e4560e01b6020909101527fba703fbcaf9339015e918255c7c6fb66106877b9277228701a99875362186bbc8201610ff55750674563918244f40000919050565b604080518082019091526006815265534d4954485960d01b6020909101527f172dd3f67874f5199aae0df823a0dbc7dc361e67643d2a2054a704e56cc7902e820161104957506729a2241af62c0000919050565b6040805180820190915260048152631193d49560e21b6020909101527fd6ee2a35c7750db1280c6e5b14dbb9643f0276ca328c44ef8a35818fd5bd14e782016108585750674563918244f40000919050565b6110d46040518060c001604052806000815260200160008152602001600081526020016000815260200160008152602001600081525090565b6040805180820190915260078152662ba0a92924a7a960c91b602090910152600080516020612652833981519152820161114c576040518060c0016040528060008152602001601481526020016005815260200160058152602001650a86cc92e3da815260200165150d9925c7b48152509050919050565b60408051808201909152600681526520a921a422a960d11b60209091015260008051602061261283398151915282016111c3576040518060c0016040528060058152602001600581526020016000815260200160058152602001650a86cc92e3da815260200165150d9925c7b48152509050919050565b6040805180820190915260088152672427a929a2a6a0a760c11b6020909101526000805160206126728339815191528201610858576040518060c0016040528060008152602001600581526020016005815260200160148152602001650a86cc92e3da815260200165150d9925c7b48152509050919050565b60408051808201909152600681526520a921a422a960d11b602090910152600080600080516020612612833981519152830161128a5750662386ef98e7bf4c92662386f26fc1000092509050565b6040805180820190915260088152672427a929a2a6a0a760c11b60209091015260008051602061267283398151915283016108585750662386f07b1c993692662386f26fc1000092509050565b6112df6122f0565b600080546001600160a01b03909216620100000262010000600160b01b0319909216919091179055565b6040805160038082526080820190925260609160009190816020015b604080516060808201835280825260208201526000918101919091528152602001906001900390816113255750506040805160a0810182526011606082019081527026b4ba343930b2bab6902bb0b93934b7b960791b6080830152815281518083018352600881526736aba0a92924a7a960c11b602080830191909152808301919091528251808401845260078152662ba0a92924a7a960c91b9101526000805160206126928339815191529181019190915281519192509082906000906113ef576113ef61254d565b6020908102919091018101919091526040805160a0810182526010606082019081526f26b4ba343930b2bab69020b931b432b960811b6080830152815281518083018352600781526636a0a921a422a960c91b818501528184015281518083018352600681526520a921a422a960d11b9301929092527f42de5fbfc07577d3e9942df95dd4e61cabcab8907d5d333240140b2999379e409082015281518290600190811061149f5761149f61254d565b6020908102919091018101919091526040805160a0810182526012606082019081527126b4ba343930b2bab6902437b939b2b6b0b760711b6080830152815281518083018352600981526836a427a929a2a6a0a760b91b81850152818401528151808301835260088152672427a929a2a6a0a760c11b9301929092527f89d5ee6f4fcb32fb3c151bc25e6bc320fec82ba89cb3b29d1969d907e0e6793990820152815182906002908110610b8857610b8861254d565b60008160ff1660010361156a57506002919050565b8160ff1660020361157d57506001919050565b506000919050565b60606000611591611309565b90506000815167ffffffffffffffff8111156115af576115af612537565b6040519080825280602002602001820160405280156115d8578160200160208202803683370190505b50905060005b8151811015611634578281815181106115f9576115f961254d565b6020026020010151604001518282815181106116175761161761254d565b60209081029190910101528061162c81612579565b9150506115de565b5092915050565b600081600103611654575067058d15e176280000919050565b8160020361166b57506702c68af0bb140000919050565b81600303611682575067016345785d8a0000919050565b8160040361085857506000919050565b60408051600580825260c08201909252606091600091906020820160a08036833750506040805180820190915260048152634641524d60e01b6020909101525080519091506000805160206126b28339815191529082906000906116f8576116f861254d565b6020026020010181815250506040518060400160405280600a8152602001691315535091549352531360b21b81525080519060200120816001815181106117415761174161254d565b602002602001018181525050604051806040016040528060048152602001634d494e4560e01b81525080519060200120816002815181106117845761178461254d565b60200260200101818152505060405180604001604052806006815260200165534d4954485960d01b81525080519060200120816003815181106117c9576117c961254d565b602002602001018181525050604051806040016040528060048152602001631193d49560e21b8152508051906020012081600481518110610b8857610b8861254d565b600061182a670de0b6b3a764000069021e19e0c9bab2400000612592565b905090565b6040805180820190915260078152662ba0a92924a7a960c91b602090910152600060008051602061265283398151915282016118745750670de0b6b3a7640000919050565b60408051808201909152600681526520a921a422a960d11b60209091015260008051602061261283398151915282016118af57506000919050565b6040805180820190915260088152672427a929a2a6a0a760c11b602090910152600080516020612672833981519152820161085857506000919050565b6040805180820190915260048152631193d3d160e21b60209091015260006000805160206126d2833981519152820161192e5750670429d069189e0000919050565b60408051808201909152600481526315d3d3d160e21b6020909101526000805160206125f2833981519152820161196e5750670de0b6b3a7640000919050565b6040805180820190915260038152624f524560e81b6020909101526000805160206125d283398151915282016119ad57506729a2241af62c0000919050565b604080518082019091526005815264125391d3d560da1b60209091015260008051602061263283398151915282016108585750678ac7230489e80000919050565b600081600103611a065750668e1bc9bf040000919050565b81600203611a1d575067011c37937e080000919050565b81600303611a3457506701aa535d3d0c0000919050565b816004036108585750670214e8348c4f0000919050565b6040805180820190915260048152634641524d60e01b60209091015260007fea182adbe8a99c0376d68ae8663b1e572fb013df4142853d0efacd6d83e4a3f38201611a9f57506706f05b59d3b20000919050565b60408051808201909152600a8152691315535091549352531360b21b6020909101527f9105c25cd4a4f5de306390a4361214e261c5b47733a14849b60e1afd6befe9a78201611af757506705f7aab8c56b0000919050565b6040805180820190915260048152634d494e4560e01b6020909101527fba703fbcaf9339015e918255c7c6fb66106877b9277228701a99875362186bbc8201611b49575067058d15e176280000919050565b604080518082019091526006815265534d4954485960d01b6020909101527f172dd3f67874f5199aae0df823a0dbc7dc361e67643d2a2054a704e56cc7902e8201611b9d5750670494654067e10000919050565b6040805180820190915260048152631193d49560e21b6020909101527fd6ee2a35c7750db1280c6e5b14dbb9643f0276ca328c44ef8a35818fd5bd14e78201610858575067058d15e176280000919050565b600054610100900460ff1615808015611c0f5750600054600160ff909116105b80611c295750303b158015611c29575060005460ff166001145b611c905760405162461bcd60e51b815260206004820152602e60248201527f496e697469616c697a61626c653a20636f6e747261637420697320616c72656160448201526d191e481a5b9a5d1a585b1a5e995960921b606482015260840160405180910390fd5b6000805460ff191660011790558015611cb3576000805461ff0019166101001790555b6000805462010000600160b01b031916336201000002179055600283905560038290558015611d1c576000805461ff0019169055604051600181527f7f26b83ff96e1f2b6a682f133852f6798a09c465da95921460cefb38474024989060200160405180910390a15b505050565b6000808260ff16600003611d6d5750506040805180820190915260078152662ba0a92924a7a960c91b6020909101525060008051602061269283398151915290670429d069189e000090565b8260ff16600103611dc757505060408051808201909152600681526520a921a422a960d11b602090910152507f42de5fbfc07577d3e9942df95dd4e61cabcab8907d5d333240140b2999379e40906706f05b59d3b2000090565b8260ff166002036108585750506040805180820190915260088152672427a929a2a6a0a760c11b602090910152507f89d5ee6f4fcb32fb3c151bc25e6bc320fec82ba89cb3b29d1969d907e0e6793990670de0b6b3a764000090565b600081600103611e3e5750690878678326eac9000000919050565b81600203611e5757506910f0cf064dd592000000919050565b81600303611e7057506921e19e0c9bab24000000919050565b8160040361085857506943c33c19375648000000919050565b6040805180820190915260078152662ba0a92924a7a960c91b60209091015260006000805160206126528339815191528201611ec757506000919050565b60408051808201909152600681526520a921a422a960d11b6020909101526000805160206126128339815191528201611f0957506729a2241af62c0000919050565b6040805180820190915260088152672427a929a2a6a0a760c11b60209091015260008051602061267283398151915282016108585750673782dace9d900000919050565b6040805180820190915260078152662ba0a92924a7a960c91b60209091015260006000805160206126528339815191528201611fd257505060408051808201909152601181527015d3d492d15494d7d553925517d413d3d3607a1b6020909101527f8f75178ea8b939732f30df87bf2b4d5864e1068291d6e7b65eb7efcdd75e570290565b60408051808201909152600681526520a921a422a960d11b602090910152600080516020612612833981519152820161205357505060408051808201909152601081526f125391d3d514d7d553925517d413d3d360821b6020909101527facde00cf82db2dd178c1275275df8e6a2355a26d2338720a6239578a1148b9f790565b6040805180820190915260088152672427a929a2a6a0a760c11b602090910152600080516020612672833981519152820161085857505060408051808201909152601081526f125391d3d514d7d553925517d413d3d360821b6020909101527facde00cf82db2dd178c1275275df8e6a2355a26d2338720a6239578a1148b9f790565b6040805180820190915260048152631193d3d160e21b60209091015260006000805160206126d283398151915282016121185750670de0b6b3a7640000919050565b60408051808201909152600481526315d3d3d160e21b6020909101526000805160206125f283398151915282016121585750670de0b6b3a7640000919050565b6040805180820190915260038152624f524560e81b6020909101526000805160206125d283398151915282016121975750670de0b6b3a7640000919050565b604080518082019091526005815264125391d3d560da1b60209091015260008051602061263283398151915282016108585750670de0b6b3a7640000919050565b6040805180820190915260048152631193d3d160e21b60209091015260006000805160206126d2833981519152820161221a57506706f05b59d3b20000919050565b60408051808201909152600481526315d3d3d160e21b6020909101526000805160206125f2833981519152820161225a5750670de0b6b3a7640000919050565b6040805180820190915260038152624f524560e81b6020909101526000805160206125d283398151915282016122995750671bc16d674ec80000919050565b604080518082019091526005815264125391d3d560da1b602090910152600080516020612632833981519152820161157d57506729a2241af62c0000919050565b600061182a685150ae84a8cdf0000060056125b4565b6000546201000090046001600160a01b031633146123215760405163d136afd560e01b815260040160405180910390fd5b565b60006020828403121561233557600080fd5b5035919050565b60006020828403121561234e57600080fd5b81356001600160a01b038116811461236557600080fd5b9392505050565b6000815180845260005b8181101561239257602081850181015186830182015201612376565b506000602082860101526020601f19601f83011685010191505092915050565b60008151606084526123c7606085018261236c565b9050602083015184820360208601526123e0828261236c565b915050604083015160408501528091505092915050565b6000602080830181845280855180835260408601915060408160051b870101925083870160005b8281101561244c57603f1988860301845261243a8583516123b2565b9450928501929085019060010161241e565b5092979650505050505050565b60006020828403121561246b57600080fd5b813560ff8116811461236557600080fd5b6000602080830181845280855180835260408601915060408160051b870101925083870160005b8281101561244c57603f198886030184526124bf8583516123b2565b945092850192908501906001016124a3565b6020808252825182820181905260009190848201906040850190845b81811015612509578351835292840192918401916001016124ed565b50909695505050505050565b6000806040838503121561252857600080fd5b50508035926020909101359150565b634e487b7160e01b600052604160045260246000fd5b634e487b7160e01b600052603260045260246000fd5b634e487b7160e01b600052601160045260246000fd5b60006001820161258b5761258b612563565b5060010190565b6000826125af57634e487b7160e01b600052601260045260246000fd5b500490565b80820281158282048414176125cb576125cb612563565b9291505056fe624ae31110c92d70b58ec456bb42524ff16773a98936d8ef150f1e6b104b34aba0c2c402a49ee67eb7d8a3e87eb93de113a3a54817e8a70c39ae8ab51c0e12bebd21a0403f8a882c166bd206a22b19e35435476f82a2cccdbfebf4d666c861c00b2c26746c5e8d6f1877c4437947c29fc4d8103cd72878c4c039b7afe27c1a8e963ace81a31bb0e5e04a9395a1006fbdeb19cac259cef54f594aee1106583c6f762a1190b034cd04c3eae43da1943cdf0137d457634c4d62e69626f81f1986c769c5317e5ce44f1a1fb56c6a5eff904214e6353da6310ab0a6b511eef9a7c39115e7d524175663fc8929751799c4e1a8d04fec20bebd7ac2f10532927c1b5c0dd090a5d9e290baeb3c0f657cb8df01a7c37d0d11b8a73165ba04298bd71606c3a26469706673582212201bda10089d82345292fcac3b340f3d2340cafa494fef6784185202df70aa133764736f6c63430008140033",
  "devdoc": {
    "events": {
      "Initialized(uint8)": {
        "details": "Triggered when the contract has been initialized or reinitialized."
      }
    },
    "kind": "dev",
    "methods": {
      "getAdvancedProductionTileBonusByVariation(uint8)": {
        "details": "Used to determine tile bonus by tile bonus variation",
        "params": {
          "tileBonusVariation": "Tile bonus variation"
        },
        "returns": {
          "_0": "Building type id",
          "_1": "Capacity amount multiplier"
        }
      },
      "getArmyStunDurationByJoiningBattleAtAttackingSide()": {
        "details": "Used to determine stun duration army will receive by joining battle at attacking side",
        "returns": {
          "_0": "Stun duration"
        }
      },
      "getArmyStunDurationPerRobberyMultiplier()": {
        "details": "Used in army siege modification",
        "returns": {
          "_0": "Army stun duration per robbery multiplier"
        }
      },
      "getBaseBattleDuration()": {
        "details": "Used internally to determine how long battle will last",
        "returns": {
          "_0": "Base battle duration"
        }
      },
      "getBasicProductionBuildingCoefficient(bytes32)": {
        "details": "used for internal calculation of production result",
        "params": {
          "buildingTypeId": "Building type id"
        },
        "returns": {
          "_0": "Basic production building coefficient"
        }
      },
      "getBattleDurationLosingArmyStunMultiplier()": {
        "details": "Used internally to determine how long stun will last after army lost the battle",
        "returns": {
          "_0": "Battle duration losing army stun multiplier"
        }
      },
      "getBattleDurationWinningArmyStunMultiplier()": {
        "details": "Used internally to determine how long stun will last after army won the battle",
        "returns": {
          "_0": "Battle duration winning army stun multiplier"
        }
      },
      "getBuildingTokenTransferThresholdPercent()": {
        "details": "Used to determine is building token transfer allowed based on treasury percent",
        "returns": {
          "_0": "Building token transfer threshold percent"
        }
      },
      "getBuildingTypeIds()": {
        "details": "Used internally to determine which buildings will be created on placing settlement",
        "returns": {
          "_0": "Building type ids"
        }
      },
      "getCaptureTileDurationPerTile()": {
        "details": "Used to capture tile duration calculation",
        "returns": {
          "_0": "Capture tile duration per tile"
        }
      },
      "getChanceForTileWithBonusByRegionTier(uint256)": {
        "details": "Used to determine whether tile has bonus or not",
        "params": {
          "regionTier": "Region tier"
        },
        "returns": {
          "_0": "Chance for tile with bonus (in 1e18 precision)"
        }
      },
      "getCorruptionIndexByResource(bytes32)": {
        "details": "Used for calculation of how much corruptionIndex increased/decreased",
        "params": {
          "resourceTypeId": "Resource type id"
        },
        "returns": {
          "_0": "Amount of corruptionIndex per 1 resource (both are in 1e18 precision)"
        }
      },
      "getCultistUnitTypeId()": {
        "details": "Determines type of unit in cultists army",
        "returns": {
          "_0": "Cultists unit type id"
        }
      },
      "getCultistsNoDestructionDelay()": {
        "details": "Used to determine if destruction is available or not",
        "returns": {
          "_0": "No destruction interval duration (in seconds)"
        }
      },
      "getCultistsPerRegionMultiplier()": {
        "details": "Used to determine amount of cultists that have to be present for world destruction",
        "returns": {
          "_0": "Value of cultists per region"
        }
      },
      "getCultistsSummonDelay()": {
        "details": "Used to determine is cultists can be re-summoned",
        "returns": {
          "_0": "Cultists summon delay (in seconds)"
        }
      },
      "getGameResources()": {
        "details": "Used internally to determine upgrade costs and providing initial resources for settlement owner based on his tier",
        "params": {
          "resources": "Game resources"
        }
      },
      "getGameUnits()": {
        "details": "Used internally in many places where interaction with units is necessary",
        "returns": {
          "_0": "Game units"
        }
      },
      "getGlobalMultiplier()": {
        "details": "Used everywhere, where time is involved. Essentially determines game speed",
        "returns": {
          "_0": "Global multiplier"
        }
      },
      "getInitialCaptureProsperityBasicValue()": {
        "details": "Used to determine if new bid on captured tile is possible",
        "returns": {
          "_0": "Initial capture prosperity basic value"
        }
      },
      "getInitialCaptureProsperityPerTileValue()": {
        "details": "Used to determine if new bid on captured tile is possible",
        "returns": {
          "_0": "Initial capture prosperity per tile value"
        }
      },
      "getInitialCorruptionIndexAmountPerRegionTier()": {
        "details": "Used in region activation and region tier increase handler",
        "returns": {
          "_0": "Initial corruptionIndex amount"
        }
      },
      "getInitialCultistsAmountPerRegionTier()": {
        "details": "Used in region activation",
        "returns": {
          "_0": "Initial cultists amount"
        }
      },
      "getManeuverDurationStunMultiplier()": {
        "details": "Used internally to determine how long stun will last after armies' maneuver",
        "returns": {
          "_0": "Maneuver duration stun multiplier"
        }
      },
      "getMaxAdvancedProductionTileBuff()": {
        "details": "Used for determination advanced production multiplier",
        "returns": {
          "_0": "Max potential advanced production from tile buff"
        }
      },
      "getMaxAllowedRobberyMultiplierIncreaseValue()": {
        "details": "Used in army siege modification",
        "returns": {
          "_0": "Max allowed robbery multiplier increase value"
        }
      },
      "getMaxAllowedUnitsToBuyPerTransaction()": {
        "details": "Limit specified in order to limit potential price overflows (value is returned in 1e18 precision)",
        "returns": {
          "_0": "Max allowed units to buy"
        }
      },
      "getMaxAllowedWorkersToBuyPerTransaction()": {
        "details": "Limit specified in order to limit potential price overflows (value is returned in 1e18 precision)",
        "returns": {
          "_0": "Max allowed workers to buy"
        }
      },
      "getMaxCapturedTilesForSettlement(uint8)": {
        "details": "Used to determine whether settlement can initiate tile capture",
        "params": {
          "tileBonusType": "Tile bonus type"
        },
        "returns": {
          "_0": "Max captured tiles for settlement with this bonus type"
        }
      },
      "getMaxCultistsPerRegion()": {
        "details": "Used to determine how many cultists will be summoned",
        "returns": {
          "_0": "Maximum amount of cultists"
        }
      },
      "getMaxRegionTier()": {
        "details": "Used in validation in region tier increase",
        "returns": {
          "_0": "Max region tier"
        }
      },
      "getMaxSettlementsPerRegion()": {
        "details": "Cultists does not count (so +1 with cultists)",
        "returns": {
          "_0": "Max settlements that can be placed in one region"
        }
      },
      "getMinimumBattleDuration()": {
        "details": "Used to determine battle duration ignoring current world multiplier",
        "returns": {
          "_0": "Minimum battle duration"
        }
      },
      "getMinimumUserSettlementsCountInNeighboringRegionRequiredToIncludeRegion()": {
        "details": "Used to determine whether region can be included or not",
        "returns": {
          "_0": "Minimum user settlements count"
        }
      },
      "getNecessaryProsperityPercentForClaimingTileCapture()": {
        "details": "Used to determine if tile claim is possible",
        "returns": {
          "_0": "Necessary prosperity percent for claiming tile capture"
        }
      },
      "getNewSettlementPriceIncreaseMultiplier()": {
        "details": "Used to determine new settlement purchase price (in 1e18 precision)",
        "returns": {
          "_0": "New settlement price increase multiplier"
        }
      },
      "getNewSettlementStartingPrice()": {
        "details": "Used to determine how much base price for first settlement will be",
        "returns": {
          "_0": "New settlement starting price"
        }
      },
      "getNextCaptureProsperityBasicThreshold()": {
        "details": "Used to determine if new bid on captured tile is possible",
        "returns": {
          "_0": "Next capture prosperity basic threshold"
        }
      },
      "getNextCaptureProsperityPerTileThreshold()": {
        "details": "Used to determine if new bid on captured tile is possible",
        "returns": {
          "_0": "Next capture prosperity per tile threshold"
        }
      },
      "getProductionTicksInSecond()": {
        "details": "Used for production calculation",
        "returns": {
          "_0": "Amount of production ticks"
        }
      },
      "getProsperityForUnitLiquidation(bytes32)": {
        "details": "Used internally to calculate how much prosperity will be given",
        "returns": {
          "_0": "Prosperity amount per one unit (in 1e18 precision)"
        }
      },
      "getRegionInclusionPrice(uint256)": {
        "details": "Used to determine amount of token to be taken from msg.sender in order to include region",
        "params": {
          "regionTier": "Region tier"
        },
        "returns": {
          "_0": "Region inclusion price"
        }
      },
      "getRegionOwnerSettlementPurchasePercent(uint256)": {
        "details": "Used to determine amount of tokens to be sent to region owner when another user buys settlement in his region",
        "params": {
          "regionTier": "Region tier"
        },
        "returns": {
          "_0": "Percent (in 1e18 precision)"
        }
      },
      "getResourceWeight(bytes32)": {
        "details": "Used for calculation how much prosperity will be produced by resource in treasury",
        "params": {
          "resourceTypeId": "Resource type id"
        },
        "returns": {
          "_0": "Resource weight (in 1e0 precision)"
        }
      },
      "getRobberyPointsPerDamageMultiplier()": {
        "details": "Used for determination how much robbery points will be given",
        "returns": {
          "_0": "Robbery points per damage multiplier (in 1e18 precision)"
        }
      },
      "getRobberyPointsToResourceMultiplier(bytes32)": {
        "details": "Used in calculation how many resources can be exchanged for robbery points",
        "params": {
          "resourceTypeId": "Resource type id"
        },
        "returns": {
          "_0": "Robbery point multiplier (in 1e18 precision)"
        }
      },
      "getSettlementPayToDecreaseCorruptionIndexPenaltyMultiplier()": {
        "details": "Used to determine how much corruptionIndex penalty settlement will endure whenever its corruptionIndex is lowered by paying to reward pool",
        "returns": {
          "_0": "Penalty multiplier"
        }
      },
      "getSettlementPriceMultiplierPerIncreasedRegionTier()": {
        "details": "Used in calculation of new settlement price",
        "returns": {
          "_0": "Settlement price multiplier per increased region tier"
        }
      },
      "getStunDurationMultiplierOfCancelledSecretManeuver()": {
        "details": "Used in calculation of stun duration during cancelling secret maneuver",
        "returns": {
          "_0": "Stun multiplier of cancelled secret maneuver"
        }
      },
      "getTileCaptureCancellationFee()": {
        "details": "Used to determine how much prosperity has to be given in order to cancel tile capture",
        "returns": {
          "_0": "Tile capture cancellation fee"
        }
      },
      "getToTreasuryPercent()": {
        "details": "Determines how much of buildings production will go to treasury (if not full)",
        "params": {
          "toTreasuryPercent": "Production to treasury percent (in 1e18 precision, where 1e18 is 100%)"
        }
      },
      "getUnitBattleMultiplierTileBonusByVariation(uint8)": {
        "details": "Used to determine tile bonus by tile bonus variation",
        "params": {
          "tileBonusVariation": "Tile bonus variation"
        },
        "returns": {
          "_0": "Unit type id",
          "_1": "Unit battle multiplier"
        }
      },
      "getUnitHiringFortHpMultiplier()": {
        "details": "Used to determine how much units in army can be presented based on its current fort hp and this parameter",
        "returns": {
          "_0": "Unit hiring fort hp multiplier"
        }
      },
      "getUnitPoolType(bytes32)": {
        "details": "Used to determine which implementation of unit pool to use for provided unit type",
        "params": {
          "unitTypeId": "Unit type id"
        },
        "returns": {
          "_0": "Unit pool type"
        }
      },
      "getUnitPriceDropByUnitTypeId(bytes32)": {
        "details": "Used for determination of current unit pool price",
        "params": {
          "unitTypeId": "Unit type id"
        },
        "returns": {
          "_0": "Numerator",
          "_1": "Denominator"
        }
      },
      "getUnitPriceIncreaseForEachUnit()": {
        "details": "Used for determination of unit price",
        "returns": {
          "_0": "Numerator",
          "_1": "Denominator"
        }
      },
      "getUnitResourceUsagePer1SecondOfDecreasedManeuverDuration(bytes32)": {
        "details": "Used internally to calculate army's maneuver speed",
        "params": {
          "unitTypeId": "Unit type id"
        },
        "returns": {
          "_0": "Amount of resource to spend per unit per 1 second of decreased maneuver duration (in 1e18 precision)"
        }
      },
      "getUnitStats(bytes32)": {
        "details": "Used everywhere, where game logic based on unit stats",
        "params": {
          "unitTypeId": "Unit type id"
        },
        "returns": {
          "_0": "Unit stats"
        }
      },
      "getUnitTypeIds()": {
        "details": "Used internally in many places where interaction with units is necessary",
        "returns": {
          "_0": "Unit type ids"
        }
      },
      "getWorkerCapacityCoefficient(bytes32)": {
        "details": "Used for internal calculation of max workers for each building",
        "params": {
          "buildingTypeId": "Building type id"
        },
        "returns": {
          "_0": "Worker capacity coefficient"
        }
      },
      "getWorkerPriceDrop()": {
        "details": "Used for determination of current workers pool price",
        "returns": {
          "_0": "Numerator",
          "_1": "Denominator"
        }
      },
      "getWorkerPriceIncreaseForEachWorker()": {
        "details": "Used for determination of worker price",
        "returns": {
          "_0": "Numerator",
          "_1": "Denominator"
        }
      },
      "getWorkersForUnitLiquidation(bytes32)": {
        "details": "Used internally to calculate how much workers will be given",
        "returns": {
          "_0": "Workers amount per one unit (in 1e18 precision)"
        }
      },
      "init(uint256,uint256)": {
        "details": "Called by address which created current instance",
        "params": {
          "globalMultiplier": "Global multiplier",
          "settlementStartingPrice": "Settlement starting price"
        }
      },
      "setMightyCreator(address)": {
        "details": "Even though function is opened, it can be called only by mightyCreator",
        "params": {
          "newMightyCreator": "New mighty creator"
        }
      },
      "setWorldAssetFactory(address)": {
        "details": "Even though function is opened, it can be called only by mightyCreator",
        "params": {
          "worldAssetFactoryAddress": "World asset factory address"
        }
      }
    },
    "stateVariables": {
      "globalMultiplier": {
        "details": "Immutable, initialized on the registry creation"
      },
      "mightyCreator": {
        "details": "Immutable, initialized on the registry creation"
      },
      "settlementStartingPrice": {
        "details": "Immutable, initialized on the registry creation"
      },
      "worldAssetFactory": {
        "details": "During new world asset creation process registry is asked for factory contract"
      }
    },
    "version": 1
  },
  "userdoc": {
    "errors": {
      "OnlyMightyCreator()": [
        {
          "notice": "Thrown when attempting to call action which can only be called by mighty creator"
        }
      ],
      "UnknownInputParameter()": [
        {
          "notice": "Thrown when attempting to call function by providing unknown parameter"
        }
      ]
    },
    "kind": "user",
    "methods": {
      "getAdvancedProductionTileBonusByVariation(uint8)": {
        "notice": "Returns advanced production tile bonus by variation"
      },
      "getArmyStunDurationByJoiningBattleAtAttackingSide()": {
        "notice": "Returns stun duration army will receive by joining battle at attacking side"
      },
      "getArmyStunDurationPerRobberyMultiplier()": {
        "notice": "Returns army stun duration per one point of added robbery multiplier"
      },
      "getBaseBattleDuration()": {
        "notice": "Returns base battle duration"
      },
      "getBasicProductionBuildingCoefficient(bytes32)": {
        "notice": "Calculates basic production building coefficient"
      },
      "getBattleDurationLosingArmyStunMultiplier()": {
        "notice": "Returns battle duration losing army stun multiplier"
      },
      "getBattleDurationWinningArmyStunMultiplier()": {
        "notice": "Returns battle duration winning army stun multiplier"
      },
      "getBuildingTokenTransferThresholdPercent()": {
        "notice": "Returns building token transfer threshold percent"
      },
      "getBuildingTypeIds()": {
        "notice": "Returns game building type ids"
      },
      "getCaptureTileDurationPerTile()": {
        "notice": "Returns capture tile duration per each tile in distance from settlement to selected tile"
      },
      "getChanceForTileWithBonusByRegionTier(uint256)": {
        "notice": "Returns chance for tile with bonus by region tier"
      },
      "getCorruptionIndexByResource(bytes32)": {
        "notice": "Returns corruptionIndex by resource type id"
      },
      "getCultistUnitTypeId()": {
        "notice": "Returns unit type id of cultists army"
      },
      "getCultistsNoDestructionDelay()": {
        "notice": "Returns interval duration where world is not destructible after recent cultists summon"
      },
      "getCultistsPerRegionMultiplier()": {
        "notice": "Returns value of cultists per region which determines cultists threshold for world destruction"
      },
      "getCultistsSummonDelay()": {
        "notice": "Returns cultists summon delay"
      },
      "getGameResources()": {
        "notice": "Returns game resources"
      },
      "getGameUnits()": {
        "notice": "Returns game units"
      },
      "getGlobalMultiplier()": {
        "notice": "Returns global multiplier"
      },
      "getInitialCaptureProsperityBasicValue()": {
        "notice": "Returns initial capture prosperity basic value"
      },
      "getInitialCaptureProsperityPerTileValue()": {
        "notice": "Returns initial capture prosperity per tile value"
      },
      "getInitialCorruptionIndexAmountPerRegionTier()": {
        "notice": "Returns initial corruptionIndex amount per region tier"
      },
      "getInitialCultistsAmountPerRegionTier()": {
        "notice": "Returns initial cultists amount per region tier"
      },
      "getManeuverDurationStunMultiplier()": {
        "notice": "Returns maneuver duration stun multiplier"
      },
      "getMaxAdvancedProductionTileBuff()": {
        "notice": "Returns max potential advanced production buff gain from capturing tiles"
      },
      "getMaxAllowedRobberyMultiplierIncreaseValue()": {
        "notice": "Returns max allowed robbery multiplier increase value"
      },
      "getMaxAllowedUnitsToBuyPerTransaction()": {
        "notice": "Returns max allowed units to buy per transaction"
      },
      "getMaxAllowedWorkersToBuyPerTransaction()": {
        "notice": "Returns max allowed workers to buy per transaction"
      },
      "getMaxCapturedTilesForSettlement(uint8)": {
        "notice": "Returns max captured tiles for settlement"
      },
      "getMaxCultistsPerRegion()": {
        "notice": "Returns maximum amount of cultists that can be present in region"
      },
      "getMaxRegionTier()": {
        "notice": "Returns max region tier"
      },
      "getMaxSettlementsPerRegion()": {
        "notice": "Returns max settlements that can be placed in one region"
      },
      "getMinimumBattleDuration()": {
        "notice": "Returns minimum battle duration"
      },
      "getMinimumUserSettlementsCountInNeighboringRegionRequiredToIncludeRegion()": {
        "notice": "Returns minimum user settlements count in neighboring region required to include region"
      },
      "getNecessaryProsperityPercentForClaimingTileCapture()": {
        "notice": "Returns percent of prosperity that has to be in settlement for claiming captured tile"
      },
      "getNewSettlementPriceIncreaseMultiplier()": {
        "notice": "Returns new settlement price increase multiplier"
      },
      "getNewSettlementStartingPrice()": {
        "notice": "Returns new settlement starting price in settlements market"
      },
      "getNextCaptureProsperityBasicThreshold()": {
        "notice": "Returns next capture prosperity basic threshold"
      },
      "getNextCaptureProsperityPerTileThreshold()": {
        "notice": "Returns next capture prosperity per tile threshold"
      },
      "getProductionTicksInSecond()": {
        "notice": "Returns amount of production ticks"
      },
      "getProsperityForUnitLiquidation(bytes32)": {
        "notice": "Returns how much prosperity will be given for provided unit type id"
      },
      "getRegionInclusionPrice(uint256)": {
        "notice": "Returns region inclusion price"
      },
      "getRegionOwnerSettlementPurchasePercent(uint256)": {
        "notice": "Returns region owner settlement purchase percent"
      },
      "getResourceWeight(bytes32)": {
        "notice": "Returns resource weight"
      },
      "getRobberyPointsPerDamageMultiplier()": {
        "notice": "Returns robbery points per damage multiplier"
      },
      "getRobberyPointsToResourceMultiplier(bytes32)": {
        "notice": "Returns robbery point multiplier by provided resource type id"
      },
      "getSettlementPayToDecreaseCorruptionIndexPenaltyMultiplier()": {
        "notice": "Returns settlement pay to decrease corruptionIndex penalty multiplier"
      },
      "getSettlementPriceMultiplierPerIncreasedRegionTier()": {
        "notice": "Returns settlement price multiplier per increased region tier"
      },
      "getStunDurationMultiplierOfCancelledSecretManeuver()": {
        "notice": "Returns stun duration multiplier of cancelled secret maneuver"
      },
      "getTileCaptureCancellationFee()": {
        "notice": "Returns tile capture cancellation fee"
      },
      "getToTreasuryPercent()": {
        "notice": "Returns production to treasury percent"
      },
      "getUnitBattleMultiplierTileBonusByVariation(uint8)": {
        "notice": "Returns unit battle multiplier tile bonus by variation"
      },
      "getUnitHiringFortHpMultiplier()": {
        "notice": "Returns unit hiring fort hp multiplier"
      },
      "getUnitPoolType(bytes32)": {
        "notice": "Returns unit pool type by unit type id"
      },
      "getUnitPriceDropByUnitTypeId(bytes32)": {
        "notice": "Returns unit pool price drop per second for provided unit type id (value returned as numerator and denominator)"
      },
      "getUnitPriceIncreaseForEachUnit()": {
        "notice": "Returns unit price increase in unit pool for each extra unit to buy (value returned as numerator and denominator)"
      },
      "getUnitResourceUsagePer1SecondOfDecreasedManeuverDuration(bytes32)": {
        "notice": "Returns how much resource unit can take from treasury to reduce maneuver duration"
      },
      "getUnitStats(bytes32)": {
        "notice": "Returns unit stats by provided unit type"
      },
      "getUnitTypeIds()": {
        "notice": "Returns game unit type ids"
      },
      "getWorkerCapacityCoefficient(bytes32)": {
        "notice": "Calculates worker capacity coefficient for provided building type id"
      },
      "getWorkerPriceDrop()": {
        "notice": "Returns workers pool price drop per second, provided as numerator and denominator"
      },
      "getWorkerPriceIncreaseForEachWorker()": {
        "notice": "Returns worker pool price drop per second for each worker (value returned as numerator and denominator)"
      },
      "getWorkersForUnitLiquidation(bytes32)": {
        "notice": "Returns how much workers will be given for provided unit type id"
      },
      "globalMultiplier()": {
        "notice": "Global multiplier"
      },
      "init(uint256,uint256)": {
        "notice": "Proxy initializer"
      },
      "mightyCreator()": {
        "notice": "An address which can configure/reconfigure current game"
      },
      "setMightyCreator(address)": {
        "notice": "Sets new mighty creator"
      },
      "setWorldAssetFactory(address)": {
        "notice": "Sets provided address as world asset factory contract"
      },
      "settlementStartingPrice()": {
        "notice": "Settlement starting price"
      },
      "worldAssetFactory()": {
        "notice": "World asset factory"
      }
    },
    "version": 1
  },
  "storageLayout": {
    "storage": [
      {
        "astId": 119,
        "contract": "contracts/core/Registry.sol:Registry",
        "label": "_initialized",
        "offset": 0,
        "slot": "0",
        "type": "t_uint8"
      },
      {
        "astId": 122,
        "contract": "contracts/core/Registry.sol:Registry",
        "label": "_initializing",
        "offset": 1,
        "slot": "0",
        "type": "t_bool"
      },
      {
        "astId": 8469,
        "contract": "contracts/core/Registry.sol:Registry",
        "label": "mightyCreator",
        "offset": 2,
        "slot": "0",
        "type": "t_address"
      },
      {
        "astId": 8474,
        "contract": "contracts/core/Registry.sol:Registry",
        "label": "worldAssetFactory",
        "offset": 0,
        "slot": "1",
        "type": "t_contract(IWorldAssetFactory)10885"
      },
      {
        "astId": 8478,
        "contract": "contracts/core/Registry.sol:Registry",
        "label": "globalMultiplier",
        "offset": 0,
        "slot": "2",
        "type": "t_uint256"
      },
      {
        "astId": 8482,
        "contract": "contracts/core/Registry.sol:Registry",
        "label": "settlementStartingPrice",
        "offset": 0,
        "slot": "3",
        "type": "t_uint256"
      }
    ],
    "types": {
      "t_address": {
        "encoding": "inplace",
        "label": "address",
        "numberOfBytes": "20"
      },
      "t_bool": {
        "encoding": "inplace",
        "label": "bool",
        "numberOfBytes": "1"
      },
      "t_contract(IWorldAssetFactory)10885": {
        "encoding": "inplace",
        "label": "contract IWorldAssetFactory",
        "numberOfBytes": "20"
      },
      "t_uint256": {
        "encoding": "inplace",
        "label": "uint256",
        "numberOfBytes": "32"
      },
      "t_uint8": {
        "encoding": "inplace",
        "label": "uint8",
        "numberOfBytes": "1"
      }
    }
  }
}