{
  "address": "0x936d43d898408139cDd3CdB89829dfFeD0715dd4",
  "abi": [
    {
      "inputs": [],
      "stateMutability": "nonpayable",
      "type": "constructor"
    },
    {
      "inputs": [],
      "name": "OnlyOwner",
      "type": "error"
    },
    {
      "inputs": [],
      "name": "UnableToTransferOwnershipToZeroAddress",
      "type": "error"
    },
    {
      "anonymous": false,
      "inputs": [
        {
          "indexed": true,
          "internalType": "address",
          "name": "previousOwner",
          "type": "address"
        },
        {
          "indexed": true,
          "internalType": "address",
          "name": "newOwner",
          "type": "address"
        }
      ],
      "name": "OwnershipTransferred",
      "type": "event"
    },
    {
      "stateMutability": "payable",
      "type": "fallback"
    },
    {
      "inputs": [],
      "name": "renounceOwnership",
      "outputs": [],
      "stateMutability": "nonpayable",
      "type": "function"
    },
    {
      "inputs": [
        {
          "internalType": "address",
          "name": "_newImpl",
          "type": "address"
        }
      ],
      "name": "setImplementation",
      "outputs": [],
      "stateMutability": "nonpayable",
      "type": "function"
    },
    {
      "inputs": [
        {
          "internalType": "address",
          "name": "newOwner",
          "type": "address"
        }
      ],
      "name": "transferOwnership",
      "outputs": [],
      "stateMutability": "nonpayable",
      "type": "function"
    }
  ],
  "transactionHash": "0x2c6c76d4e94f76915e77f874a788a3da9c70a3e7f014433c1fd7e5b878731892",
  "args": [],
  "numDeployments": 1,
  "solcInputHash": "2627c9fa14fa5cb6e37bf26f5785fa8b",
  "bytecode": "0x608060405234801561001057600080fd5b5061001a3361001f565b6100b4565b7f89ebf6b655b5bf3480fb4246b9e8786d810726f923695e3ff9668f941b26cb1b80546001600160a01b031981166001600160a01b038481169182179093556040517f89ebf6b655b5bf3480fb4246b9e8786d810726f923695e3ff9668f941b26cb1a939092169182907f8be0079c531659141344cd1fd0a4f28419497f9722a3daafe3b4186f6b6457e090600090a3505050565b61026a806100c36000396000f3fe6080604052600436106100345760003560e01c8063715018a614610074578063d784d42614610089578063f2fde38b146100a9575b600061003e6100c9565b80546040519192506001600160a01b03169036600082376000803683855af43d806000843e81801561006e578184f35b8184fd5b005b34801561008057600080fd5b506100726100ed565b34801561009557600080fd5b506100726100a4366004610204565b610101565b3480156100b557600080fd5b506100726100c4366004610204565b610135565b7f89ebf6b655b5bf3480fb4246b9e8786d810726f923695e3ff9668f941b26cb1a90565b6100f5610170565b6100ff60006101a4565b565b610109610170565b60006101136100c9565b80546001600160a01b0319166001600160a01b03939093169290921790915550565b61013d610170565b6001600160a01b038116610164576040516372e0a41960e11b815260040160405180910390fd5b61016d816101a4565b50565b336101796100c9565b600101546001600160a01b0316146100ff57604051635fc483c560e01b815260040160405180910390fd5b60006101ae6100c9565b6001810180546001600160a01b038581166001600160a01b031983168117909355604051939450169182907f8be0079c531659141344cd1fd0a4f28419497f9722a3daafe3b4186f6b6457e090600090a3505050565b60006020828403121561021657600080fd5b81356001600160a01b038116811461022d57600080fd5b939250505056fea2646970667358221220d2b05df52513aa552c2766c649a7698e014b8bf57f2645c71ff9d8edcc50723764736f6c63430008140033",
  "devdoc": {
    "events": {
      "OwnershipTransferred(address,address)": {
        "params": {
          "newOwner": "New proxy owner",
          "previousOwner": "Previous proxy owner"
        }
      }
    },
    "kind": "dev",
    "methods": {
      "renounceOwnership()": {
        "details": "Even though this function is opened, it can only be called by contract owner"
      },
      "setImplementation(address)": {
        "details": "Even though this function is opened, it can only be called by contract owner",
        "params": {
          "_newImpl": "New implementation address"
        }
      },
      "transferOwnership(address)": {
        "details": "Even though this function is opened, it can only be called by contract owner",
        "params": {
          "newOwner": "New owner address"
        }
      }
    },
    "title": "Simple proxy contract",
    "version": 1
  },
  "userdoc": {
    "errors": {
      "OnlyOwner()": [
        {
          "notice": "Thrown when attempting to call action which can only be called by owner"
        }
      ],
      "UnableToTransferOwnershipToZeroAddress()": [
        {
          "notice": "Thrown when attempting to transfer ownership to zero address"
        }
      ]
    },
    "events": {
      "OwnershipTransferred(address,address)": {
        "notice": "Emitted when #transferOwnership is called"
      }
    },
    "kind": "user",
    "methods": {
      "renounceOwnership()": {
        "notice": "Renounces proxy ownership"
      },
      "setImplementation(address)": {
        "notice": "Updates proxy implementation address"
      },
      "transferOwnership(address)": {
        "notice": "Transfers ownership to another address"
      }
    },
    "notice": "User of current proxy must be aware of simplicity nature of it, in particular case naming collision is not handled in it. Proxy parameters are written as specific slot address",
    "version": 1
  },
  "storageLayout": {
    "storage": [],
    "types": null
  }
}