{
  "address": "0x295925A34F1fF142322D90F4D421239b40549a53",
  "abi": [
    {
      "inputs": [
        {
          "internalType": "address",
          "name": "bannersAddress",
          "type": "address"
        },
        {
          "internalType": "address",
          "name": "worldAddress",
          "type": "address"
        }
      ],
      "stateMutability": "nonpayable",
      "type": "constructor"
    },
    {
      "inputs": [],
      "name": "CannotAcceptExpiredOrder",
      "type": "error"
    },
    {
      "inputs": [],
      "name": "CannotAcceptNotNewOrder",
      "type": "error"
    },
    {
      "inputs": [],
      "name": "CannotAcceptNotStartedOrder",
      "type": "error"
    },
    {
      "inputs": [],
      "name": "CannotAcceptOrderByNotAllowedAddress",
      "type": "error"
    },
    {
      "inputs": [],
      "name": "CannotAcceptOrderByProvidingNotExactPriceForIt",
      "type": "error"
    },
    {
      "inputs": [],
      "name": "CannotAcceptOrderWithSharesToReceiveLowerThanSpecified",
      "type": "error"
    },
    {
      "inputs": [],
      "name": "CannotCancelActiveOrderIfCallerNotOrderOwnerAndOrderOwnerOwnsBanner",
      "type": "error"
    },
    {
      "inputs": [],
      "name": "CannotCancelNonNewOrder",
      "type": "error"
    },
    {
      "inputs": [],
      "name": "CannotCreateOrderForBannerMoreThanOnce",
      "type": "error"
    },
    {
      "inputs": [],
      "name": "CannotCreateOrderForNotOwnedBanner",
      "type": "error"
    },
    {
      "inputs": [],
      "name": "CannotModifyNonNewOrder",
      "type": "error"
    },
    {
      "inputs": [],
      "name": "CannotModifyOrderByNonOrderOwner",
      "type": "error"
    },
    {
      "anonymous": false,
      "inputs": [
        {
          "indexed": false,
          "internalType": "uint256",
          "name": "orderId",
          "type": "uint256"
        }
      ],
      "name": "OrderAccepted",
      "type": "event"
    },
    {
      "anonymous": false,
      "inputs": [
        {
          "indexed": false,
          "internalType": "uint256",
          "name": "orderId",
          "type": "uint256"
        }
      ],
      "name": "OrderCancelled",
      "type": "event"
    },
    {
      "anonymous": false,
      "inputs": [
        {
          "indexed": false,
          "internalType": "uint256",
          "name": "orderId",
          "type": "uint256"
        },
        {
          "indexed": false,
          "internalType": "uint256",
          "name": "bannerId",
          "type": "uint256"
        },
        {
          "indexed": false,
          "internalType": "address",
          "name": "sellingTokenAddress",
          "type": "address"
        },
        {
          "indexed": false,
          "internalType": "uint256",
          "name": "price",
          "type": "uint256"
        },
        {
          "indexed": false,
          "internalType": "address",
          "name": "allowedAddressToAcceptOrder",
          "type": "address"
        },
        {
          "indexed": false,
          "internalType": "uint256",
          "name": "orderStartTime",
          "type": "uint256"
        },
        {
          "indexed": false,
          "internalType": "uint256",
          "name": "orderEndTime",
          "type": "uint256"
        }
      ],
      "name": "OrderCreated",
      "type": "event"
    },
    {
      "anonymous": false,
      "inputs": [
        {
          "indexed": false,
          "internalType": "uint256",
          "name": "orderId",
          "type": "uint256"
        },
        {
          "indexed": false,
          "internalType": "address",
          "name": "sellingTokenAddress",
          "type": "address"
        },
        {
          "indexed": false,
          "internalType": "uint256",
          "name": "price",
          "type": "uint256"
        },
        {
          "indexed": false,
          "internalType": "address",
          "name": "allowedAddressToAcceptOrder",
          "type": "address"
        },
        {
          "indexed": false,
          "internalType": "uint256",
          "name": "orderStartTime",
          "type": "uint256"
        },
        {
          "indexed": false,
          "internalType": "uint256",
          "name": "orderEndTime",
          "type": "uint256"
        }
      ],
      "name": "OrderModified",
      "type": "event"
    },
    {
      "inputs": [
        {
          "internalType": "uint256",
          "name": "orderId",
          "type": "uint256"
        },
        {
          "components": [
            {
              "internalType": "bytes32",
              "name": "buildingTypeId",
              "type": "bytes32"
            },
            {
              "internalType": "uint256",
              "name": "minSharesAmount",
              "type": "uint256"
            }
          ],
          "internalType": "struct SettlementsListings.SharesInfo[]",
          "name": "minBuildingsSharesToReceive",
          "type": "tuple[]"
        }
      ],
      "name": "acceptOrder",
      "outputs": [],
      "stateMutability": "payable",
      "type": "function"
    },
    {
      "inputs": [],
      "name": "banners",
      "outputs": [
        {
          "internalType": "contract IERC721Enumerable",
          "name": "",
          "type": "address"
        }
      ],
      "stateMutability": "view",
      "type": "function"
    },
    {
      "inputs": [
        {
          "internalType": "uint256",
          "name": "",
          "type": "uint256"
        }
      ],
      "name": "bannersOrders",
      "outputs": [
        {
          "internalType": "uint256",
          "name": "",
          "type": "uint256"
        }
      ],
      "stateMutability": "view",
      "type": "function"
    },
    {
      "inputs": [
        {
          "internalType": "uint256",
          "name": "orderId",
          "type": "uint256"
        }
      ],
      "name": "cancelOrder",
      "outputs": [],
      "stateMutability": "nonpayable",
      "type": "function"
    },
    {
      "inputs": [
        {
          "internalType": "uint256",
          "name": "bannerId",
          "type": "uint256"
        },
        {
          "internalType": "address",
          "name": "sellingTokenAddress",
          "type": "address"
        },
        {
          "internalType": "uint256",
          "name": "price",
          "type": "uint256"
        },
        {
          "internalType": "address",
          "name": "allowedAddressToAcceptOrder",
          "type": "address"
        },
        {
          "internalType": "uint256",
          "name": "orderStartTime",
          "type": "uint256"
        },
        {
          "internalType": "uint256",
          "name": "orderEndTime",
          "type": "uint256"
        }
      ],
      "name": "createOrder",
      "outputs": [],
      "stateMutability": "nonpayable",
      "type": "function"
    },
    {
      "inputs": [],
      "name": "lastOrderId",
      "outputs": [
        {
          "internalType": "uint256",
          "name": "",
          "type": "uint256"
        }
      ],
      "stateMutability": "view",
      "type": "function"
    },
    {
      "inputs": [
        {
          "internalType": "uint256",
          "name": "orderId",
          "type": "uint256"
        },
        {
          "internalType": "address",
          "name": "sellingTokenAddress",
          "type": "address"
        },
        {
          "internalType": "uint256",
          "name": "price",
          "type": "uint256"
        },
        {
          "internalType": "address",
          "name": "allowedAddressToAcceptOrder",
          "type": "address"
        },
        {
          "internalType": "uint256",
          "name": "orderStartTime",
          "type": "uint256"
        },
        {
          "internalType": "uint256",
          "name": "orderEndTime",
          "type": "uint256"
        }
      ],
      "name": "modifyOrder",
      "outputs": [],
      "stateMutability": "nonpayable",
      "type": "function"
    },
    {
      "inputs": [
        {
          "internalType": "uint256",
          "name": "",
          "type": "uint256"
        }
      ],
      "name": "orders",
      "outputs": [
        {
          "internalType": "address",
          "name": "orderOwner",
          "type": "address"
        },
        {
          "internalType": "address",
          "name": "sellingTokenAddress",
          "type": "address"
        },
        {
          "internalType": "address",
          "name": "allowedAddressToAcceptOrder",
          "type": "address"
        },
        {
          "internalType": "uint256",
          "name": "orderStartTime",
          "type": "uint256"
        },
        {
          "internalType": "uint256",
          "name": "orderEndTime",
          "type": "uint256"
        },
        {
          "internalType": "uint256",
          "name": "price",
          "type": "uint256"
        },
        {
          "internalType": "uint256",
          "name": "bannerId",
          "type": "uint256"
        },
        {
          "internalType": "enum SettlementsListings.OrderStatus",
          "name": "status",
          "type": "uint8"
        }
      ],
      "stateMutability": "view",
      "type": "function"
    },
    {
      "inputs": [],
      "name": "world",
      "outputs": [
        {
          "internalType": "contract IWorld",
          "name": "",
          "type": "address"
        }
      ],
      "stateMutability": "view",
      "type": "function"
    }
  ],
  "transactionHash": "0xc396fd875cf53af2aee0472ca415362ea3469783bc37d82b73a07753df2f7eb3",
  "args": [
    "0x5f7391659E4D435d4db8F93FbC8cfc8C60590b27",
    "0x020D98a7597C8F1C9345d2a6d60965f11AcE0248"
  ],
  "numDeployments": 1,
  "solcInputHash": "2627c9fa14fa5cb6e37bf26f5785fa8b",
  "bytecode": "0x6080604052600060055534801561001557600080fd5b506040516200175f3803806200175f83398101604081905261003691610088565b6001600081905580546001600160a01b039384166001600160a01b031991821617909155600280549290931691161790556100bb565b80516001600160a01b038116811461008357600080fd5b919050565b6000806040838503121561009b57600080fd5b6100a48361006c565b91506100b26020840161006c565b90509250929050565b61169480620000cb6000396000f3fe6080604052600436106100765760003560e01c806330b67baa1461007b578063363017cd146100b857806340d9456b146100f3578063514fcac7146101135780635662ecc714610135578063599a9aec1461014b578063a85c38ef1461016b578063aa822eb7146101f1578063efcc4c5014610211575b600080fd5b34801561008757600080fd5b5060025461009b906001600160a01b031681565b6040516001600160a01b0390911681526020015b60405180910390f35b3480156100c457600080fd5b506100e56100d3366004611216565b60046020526000908152604090205481565b6040519081526020016100af565b3480156100ff57600080fd5b5060015461009b906001600160a01b031681565b34801561011f57600080fd5b5061013361012e366004611216565b610224565b005b34801561014157600080fd5b506100e560055481565b34801561015757600080fd5b50610133610166366004611247565b610384565b34801561017757600080fd5b506101dd610186366004611216565b6003602081905260009182526040909120805460018201546002830154938301546004840154600585015460068601546007909601546001600160a01b039586169794861696959094169492939192909160ff1688565b6040516100af9897969594939291906112b9565b3480156101fd57600080fd5b5061013361020c366004611247565b6105c6565b61013361021f366004611395565b6106dd565b600081815260036020526040808220600154600682015492516331a9108f60e11b81529193926001600160a01b0390911691636352211e9161026c9160040190815260200190565b602060405180830381865afa158015610289573d6000803e3d6000fd5b505050506040513d601f19601f820116820180604052508101906102ad919061146c565b90506001600783015460ff1660038111156102ca576102ca6112a3565b146102e857604051632f7bd1fd60e11b815260040160405180910390fd5b81546001600160a01b03908116338114918316148115826103065750805b156103245760405163ce86912760e01b815260040160405180910390fd5b60078401805460ff19166002179055600684015460009081526004602090815260408083209290925590518681527f61b9399f2f0f32ca39ce8d7be32caed5ec22fe07a6daba3a467ed479ec606582910160405180910390a15050505050565b6001546040516331a9108f60e11b8152600481018890526000916001600160a01b031690636352211e90602401602060405180830381865afa1580156103ce573d6000803e3d6000fd5b505050506040513d601f19601f820116820180604052508101906103f2919061146c565b6000888152600460209081526040808320548084526003909252909120919250906001600782015460ff16600381111561042e5761042e6112a3565b148015610448575080546001600160a01b03848116911614155b156104565761045682610224565b6001600160a01b038316331461047f57604051630da8190160e11b815260040160405180910390fd5b600089815260046020526040902054156104ac5760405163a0d2b8ad60e01b815260040160405180910390fd5b6005546104ba90600161149f565b600581815560008b81526004602090815260408083208590559382526003905291909120600681018b90558054336001600160a01b0319918216178255600180830180549092166001600160a01b038d161790915591810189905560078101805491929160ff1916828002179055506002810180546001600160a01b0319166001600160a01b03898116918217909255600383018890556004830187905560055460408051918252602082018e9052928c1692810192909252606082018a9052608082015260a0810187905260c081018690527f64a51624f531aae4e5d86d31192645e61feee4523e2544113240356c630f4e109060e00160405180910390a150505050505050505050565b60008681526003602052604090206001600782015460ff1660038111156105ef576105ef6112a3565b1461060d5760405163103f438560e21b815260040160405180910390fd5b80546001600160a01b031633146106375760405163ac26d10760e01b815260040160405180910390fd5b6001810180546001600160a01b038881166001600160a01b03199283168117909355600584018890556002840180549188169190921681179091556003830185905560048301849055604080518a81526020810193909352820187905260608201526080810184905260a081018390527fd46c0f1a97fc5abfe74ee09bcdcc14a0f7a1db6e4b80c067f13501aee513493b9060c00160405180910390a150505050505050565b6002600054036107345760405162461bcd60e51b815260206004820152601f60248201527f5265656e7472616e637947756172643a207265656e7472616e742063616c6c0060448201526064015b60405180910390fd5b600260009081558281526003602052604090206001600782015460ff166003811115610762576107626112a3565b146107805760405163c3cb1a5560e01b815260040160405180910390fd5b60028101546001600160a01b0316158015906107a9575060028101546001600160a01b03163314155b156107c657604051629d5d6b60e51b815260040160405180910390fd5b6003810154158015906107dc5750806003015442105b156107fa57604051630eb5277f60e41b815260040160405180910390fd5b6004810154158015906108105750806004015442115b1561082e576040516311ea326b60e11b815260040160405180910390fd5b60018101546001600160a01b0316158015610886578160050154341461086757604051637edb6f8d60e01b815260040160405180910390fd5b81546005830154610881916001600160a01b031690610e48565b6108ac565b6001820154825460058401546108ac926001600160a01b03908116923392911690610f63565b60015482546006840154604051632142170760e11b81526001600160a01b03938416936342842e0e936108e7939116913391906004016114b8565b600060405180830381600087803b15801561090157600080fd5b505af1158015610915573d6000803e3d6000fd5b505050506000600260009054906101000a90046001600160a01b03166001600160a01b031663e4e940f06040518163ffffffff1660e01b8152600401602060405180830381865afa15801561096e573d6000803e3d6000fd5b505050506040513d601f19601f82011682018060405250810190610992919061146c565b6002546040805163704f63a160e01b815290519293506000926001600160a01b039092169163720a70bd91839163704f63a1916004808201926020929091908290030181865afa1580156109ea573d6000803e3d6000fd5b505050506040513d601f19601f82011682018060405250810190610a0e91906114dc565b6040518263ffffffff1660e01b8152600401610a2c91815260200190565b602060405180830381865afa158015610a49573d6000803e3d6000fd5b505050506040513d601f19601f82011682018060405250810190610a6d919061146c565b90506000816001600160a01b031663ebe63ec886600601546040518263ffffffff1660e01b8152600401610aa391815260200190565b602060405180830381865afa158015610ac0573d6000803e3d6000fd5b505050506040513d601f19601f82011682018060405250810190610ae4919061146c565b9050600086516001600160401b03811115610b0157610b01611327565b604051908082528060200260200182016040528015610b2a578160200160208202803683370190505b509050600087516001600160401b03811115610b4857610b48611327565b604051908082528060200260200182016040528015610b71578160200160208202803683370190505b50905060005b8851811015610d66576000898281518110610b9457610b946114f5565b602002602001015190506000856001600160a01b0316636e5cf15c83600001516040518263ffffffff1660e01b8152600401610bd291815260200190565b602060405180830381865afa158015610bef573d6000803e3d6000fd5b505050506040513d601f19601f82011682018060405250810190610c13919061146c565b6001600160a01b031663c9c0df616040518163ffffffff1660e01b8152600401602060405180830381865afa158015610c50573d6000803e3d6000fd5b505050506040513d601f19601f82011682018060405250810190610c7491906114dc565b8a54604051627eeac760e11b81526001600160a01b03918216600482015260248101839052919250600091908a169062fdd58e90604401602060405180830381865afa158015610cc8573d6000803e3d6000fd5b505050506040513d601f19601f82011682018060405250810190610cec91906114dc565b90508260200151811015610d125760405162b04f4360e51b815260040160405180910390fd5b81868581518110610d2557610d256114f5565b60200260200101818152505080858581518110610d4457610d446114f5565b6020026020010181815250505050508080610d5e9061150b565b915050610b77565b50865460408051600081526020810191829052631759616b60e11b9091526001600160a01b0387811692632eb2c2d692610dad9290911690339087908790602481016115af565b600060405180830381600087803b158015610dc757600080fd5b505af1158015610ddb573d6000803e3d6000fd5b5050505060078701805460ff19166003179055600687015460009081526004602090815260408083209290925590518a81527f262f7ad1922bdcf27203585ef3238620589ce6f74721d45bff6897a19e4f94a1910160405180910390a15050600160005550505050505050565b80471015610e985760405162461bcd60e51b815260206004820152601d60248201527f416464726573733a20696e73756666696369656e742062616c616e6365000000604482015260640161072b565b6000826001600160a01b03168260405160006040518083038185875af1925050503d8060008114610ee5576040519150601f19603f3d011682016040523d82523d6000602084013e610eea565b606091505b5050905080610f5e5760405162461bcd60e51b815260206004820152603a60248201527f416464726573733a20756e61626c6520746f2073656e642076616c75652c20726044820152791958da5c1a595b9d081b585e481a185d99481c995d995c9d195960321b606482015260840161072b565b505050565b610fbb846323b872dd60e01b858585604051602401610f84939291906114b8565b60408051601f198184030181529190526020810180516001600160e01b03166001600160e01b031990931692909217909152610fc1565b50505050565b6000611016826040518060400160405280602081526020017f5361666545524332303a206c6f772d6c6576656c2063616c6c206661696c6564815250856001600160a01b03166110939092919063ffffffff16565b805190915015610f5e5780806020019051810190611034919061160d565b610f5e5760405162461bcd60e51b815260206004820152602a60248201527f5361666545524332303a204552433230206f7065726174696f6e20646964206e6044820152691bdd081cdd58d8d9595960b21b606482015260840161072b565b60606110a284846000856110ac565b90505b9392505050565b60608247101561110d5760405162461bcd60e51b815260206004820152602660248201527f416464726573733a20696e73756666696369656e742062616c616e636520666f6044820152651c8818d85b1b60d21b606482015260840161072b565b6001600160a01b0385163b6111645760405162461bcd60e51b815260206004820152601d60248201527f416464726573733a2063616c6c20746f206e6f6e2d636f6e7472616374000000604482015260640161072b565b600080866001600160a01b03168587604051611180919061162f565b60006040518083038185875af1925050503d80600081146111bd576040519150601f19603f3d011682016040523d82523d6000602084013e6111c2565b606091505b50915091506111d28282866111dd565b979650505050505050565b606083156111ec5750816110a5565b8251156111fc5782518084602001fd5b8160405162461bcd60e51b815260040161072b919061164b565b60006020828403121561122857600080fd5b5035919050565b6001600160a01b038116811461124457600080fd5b50565b60008060008060008060c0878903121561126057600080fd5b8635955060208701356112728161122f565b94506040870135935060608701356112898161122f565b9598949750929560808101359460a0909101359350915050565b634e487b7160e01b600052602160045260246000fd5b6001600160a01b038981168252888116602083015287166040820152606081018690526080810185905260a0810184905260c0810183905261010081016004831061131457634e487b7160e01b600052602160045260246000fd5b8260e08301529998505050505050505050565b634e487b7160e01b600052604160045260246000fd5b604080519081016001600160401b038111828210171561135f5761135f611327565b60405290565b604051601f8201601f191681016001600160401b038111828210171561138d5761138d611327565b604052919050565b60008060408084860312156113a957600080fd5b833592506020808501356001600160401b03808211156113c857600080fd5b818701915087601f8301126113dc57600080fd5b8135818111156113ee576113ee611327565b6113fc848260051b01611365565b818152848101925060069190911b83018401908982111561141c57600080fd5b928401925b8184101561145c5785848b0312156114395760008081fd5b61144161133d565b84358152858501358682015283529285019291840191611421565b8096505050505050509250929050565b60006020828403121561147e57600080fd5b81516110a58161122f565b634e487b7160e01b600052601160045260246000fd5b808201808211156114b2576114b2611489565b92915050565b6001600160a01b039384168152919092166020820152604081019190915260600190565b6000602082840312156114ee57600080fd5b5051919050565b634e487b7160e01b600052603260045260246000fd5b60006001820161151d5761151d611489565b5060010190565b600081518084526020808501945080840160005b8381101561155457815187529582019590820190600101611538565b509495945050505050565b60005b8381101561157a578181015183820152602001611562565b50506000910152565b6000815180845261159b81602086016020860161155f565b601f01601f19169290920160200192915050565b6001600160a01b0386811682528516602082015260a0604082018190526000906115db90830186611524565b82810360608401526115ed8186611524565b905082810360808401526116018185611583565b98975050505050505050565b60006020828403121561161f57600080fd5b815180151581146110a557600080fd5b6000825161164181846020870161155f565b9190910192915050565b6020815260006110a5602083018461158356fea2646970667358221220d069ce8b50da1ddc158f3e10dce2692d3d8c7d32531c8cc909aa01496e2e3a9f64736f6c63430008140033",
  "devdoc": {
    "events": {
      "OrderAccepted(uint256)": {
        "params": {
          "orderId": "Order id"
        }
      },
      "OrderCancelled(uint256)": {
        "params": {
          "orderId": "Order id"
        }
      },
      "OrderCreated(uint256,uint256,address,uint256,address,uint256,uint256)": {
        "params": {
          "allowedAddressToAcceptOrder": "Allowed address to accept order (address(0) if any address can accept order)",
          "bannerId": "Banner id",
          "orderEndTime": "Order end time (0 if order is lasting infinitely)",
          "orderId": "Newly created order id",
          "orderStartTime": "Order start time (0 if order is started immediately)",
          "price": "Price",
          "sellingTokenAddress": "Selling token address (address(0) if native eth currency is used)"
        }
      },
      "OrderModified(uint256,address,uint256,address,uint256,uint256)": {
        "params": {
          "allowedAddressToAcceptOrder": "New allowed address to accept order (address(0) if any address can accept order)",
          "orderEndTime": "New order end time (0 if order is lasting infinitely)",
          "orderId": "Order id",
          "orderStartTime": "New order start time (0 if order is started immediately)",
          "price": "New price",
          "sellingTokenAddress": "New selling token address (address(0) if native eth currency is used)"
        }
      }
    },
    "kind": "dev",
    "methods": {
      "acceptOrder(uint256,(bytes32,uint256)[])": {
        "details": "Transfers banner id to msg.sender for provided amount of tokens (if ERC20 - they need to be approved beforehand, if native - they have to be sent to this function)",
        "params": {
          "minBuildingsSharesToReceive": "Minimum amount of building shares to receive with orders' banner",
          "orderId": "Order id"
        }
      },
      "cancelOrder(uint256)": {
        "details": "Can be called by order owner OR order owner is not banner owner (anyone can cancel order if order is not valid)",
        "params": {
          "orderId": "Order id"
        }
      },
      "createOrder(uint256,address,uint256,address,uint256,uint256)": {
        "details": "Creates order for specified amount of tokens",
        "params": {
          "allowedAddressToAcceptOrder": "Allowed address to accept order (address(0) if any address can accept order)",
          "bannerId": "Banner id",
          "orderEndTime": "Order end time (0 if order is lasting infinitely)",
          "orderStartTime": "Order start time (0 if order is started immediately)",
          "price": "Price",
          "sellingTokenAddress": "Selling token address (address(0) if native eth currency is used)"
        }
      },
      "modifyOrder(uint256,address,uint256,address,uint256,uint256)": {
        "details": "Selling token address, price can be modified; banner id cannot be modified",
        "params": {
          "allowedAddressToAcceptOrder": "New allowed address to accept order (address(0) if any address can accept order)",
          "orderEndTime": "New order end time (0 if order is lasting infinitely)",
          "orderId": "Order id",
          "orderStartTime": "New order start time (0 if order is started immediately)",
          "price": "New price",
          "sellingTokenAddress": "New selling token address (address(0) if native eth currency is used)"
        }
      }
    },
    "stateVariables": {
      "banners": {
        "details": "Immutable, initialized in constructor"
      },
      "bannersOrders": {
        "details": "Modified when #createOrder or #createOrder is called"
      },
      "lastOrderId": {
        "details": "Modified when #createOrder is called"
      },
      "orders": {
        "details": "Modified when #createOrder or #acceptOrder or #cancelOrder is called"
      },
      "world": {
        "details": "Immutable, initialized in constructor"
      }
    },
    "title": "Settlements listings",
    "version": 1
  },
  "userdoc": {
    "errors": {
      "CannotAcceptExpiredOrder()": [
        {
          "notice": "Thrown when attempting to accept order if 'orderDetails.orderEndTime' exist and order is already expired"
        }
      ],
      "CannotAcceptNotNewOrder()": [
        {
          "notice": "Thrown when attempting to accept order with non NEW status"
        }
      ],
      "CannotAcceptNotStartedOrder()": [
        {
          "notice": "Thrown when attempting to accept order if 'orderDetails.orderStartTime' exist and order is not started"
        }
      ],
      "CannotAcceptOrderByNotAllowedAddress()": [
        {
          "notice": "Thrown when attempting to accept order if 'orderDetails.allowedAddressToAcceptOrder' exist and msg.sender is not that address"
        }
      ],
      "CannotAcceptOrderByProvidingNotExactPriceForIt()": [
        {
          "notice": "Thrown when attempting to accept order without providing exact amount of tokens for it"
        }
      ],
      "CannotAcceptOrderWithSharesToReceiveLowerThanSpecified()": [
        {
          "notice": "Thrown when attempting to accept order with shares to receive in the process lower than specified"
        }
      ],
      "CannotCancelActiveOrderIfCallerNotOrderOwnerAndOrderOwnerOwnsBanner()": [
        {
          "notice": "Thrown when attempting to cancel order if caller is not order owner and order owner owns banner"
        }
      ],
      "CannotCancelNonNewOrder()": [
        {
          "notice": "Thrown when attempting to cancel non NEW order"
        }
      ],
      "CannotCreateOrderForBannerMoreThanOnce()": [
        {
          "notice": "Thrown when attempting to create order for one banner more than once"
        }
      ],
      "CannotCreateOrderForNotOwnedBanner()": [
        {
          "notice": "Thrown when attempting to create order while not owning banner which will be traded"
        }
      ],
      "CannotModifyNonNewOrder()": [
        {
          "notice": "Thrown when attempting to modify non NEW order"
        }
      ],
      "CannotModifyOrderByNonOrderOwner()": [
        {
          "notice": "Thrown when attempting to modify order by caller who is not order owner"
        }
      ]
    },
    "events": {
      "OrderAccepted(uint256)": {
        "notice": "Emitted when #acceptOrder is called"
      },
      "OrderCancelled(uint256)": {
        "notice": "Emitted when #cancelOrder is called (can be emitted when #createOrder is called once again after banner owner is changed)"
      },
      "OrderCreated(uint256,uint256,address,uint256,address,uint256,uint256)": {
        "notice": "Emitted when #createOrder is called"
      },
      "OrderModified(uint256,address,uint256,address,uint256,uint256)": {
        "notice": "Emitted when #modifyOrder is called"
      }
    },
    "kind": "user",
    "methods": {
      "acceptOrder(uint256,(bytes32,uint256)[])": {
        "notice": "Accepts order"
      },
      "banners()": {
        "notice": "Banners contract"
      },
      "bannersOrders(uint256)": {
        "notice": "Mapping containing link from banner id to order id"
      },
      "cancelOrder(uint256)": {
        "notice": "Cancels order"
      },
      "createOrder(uint256,address,uint256,address,uint256,uint256)": {
        "notice": "Creates settlement order"
      },
      "lastOrderId()": {
        "notice": "Lastly created order id (0 if no orders is created)"
      },
      "modifyOrder(uint256,address,uint256,address,uint256,uint256)": {
        "notice": "Modifies order"
      },
      "orders(uint256)": {
        "notice": "Mapping containing order id to related OrderDetails struct"
      },
      "world()": {
        "notice": "World contract"
      }
    },
    "notice": "Functions related to selling settlements for specific amount of tokens",
    "version": 1
  },
  "storageLayout": {
    "storage": [
      {
        "astId": 274,
        "contract": "contracts/external/SettlementsListings.sol:SettlementsListings",
        "label": "_status",
        "offset": 0,
        "slot": "0",
        "type": "t_uint256"
      },
      {
        "astId": 37097,
        "contract": "contracts/external/SettlementsListings.sol:SettlementsListings",
        "label": "banners",
        "offset": 0,
        "slot": "1",
        "type": "t_contract(IERC721Enumerable)4158"
      },
      {
        "astId": 37101,
        "contract": "contracts/external/SettlementsListings.sol:SettlementsListings",
        "label": "world",
        "offset": 0,
        "slot": "2",
        "type": "t_contract(IWorld)8441"
      },
      {
        "astId": 37107,
        "contract": "contracts/external/SettlementsListings.sol:SettlementsListings",
        "label": "orders",
        "offset": 0,
        "slot": "3",
        "type": "t_mapping(t_uint256,t_struct(OrderDetails)37093_storage)"
      },
      {
        "astId": 37112,
        "contract": "contracts/external/SettlementsListings.sol:SettlementsListings",
        "label": "bannersOrders",
        "offset": 0,
        "slot": "4",
        "type": "t_mapping(t_uint256,t_uint256)"
      },
      {
        "astId": 37116,
        "contract": "contracts/external/SettlementsListings.sol:SettlementsListings",
        "label": "lastOrderId",
        "offset": 0,
        "slot": "5",
        "type": "t_uint256"
      }
    ],
    "types": {
      "t_address": {
        "encoding": "inplace",
        "label": "address",
        "numberOfBytes": "20"
      },
      "t_contract(IERC721Enumerable)4158": {
        "encoding": "inplace",
        "label": "contract IERC721Enumerable",
        "numberOfBytes": "20"
      },
      "t_contract(IWorld)8441": {
        "encoding": "inplace",
        "label": "contract IWorld",
        "numberOfBytes": "20"
      },
      "t_enum(OrderStatus)37070": {
        "encoding": "inplace",
        "label": "enum SettlementsListings.OrderStatus",
        "numberOfBytes": "1"
      },
      "t_mapping(t_uint256,t_struct(OrderDetails)37093_storage)": {
        "encoding": "mapping",
        "key": "t_uint256",
        "label": "mapping(uint256 => struct SettlementsListings.OrderDetails)",
        "numberOfBytes": "32",
        "value": "t_struct(OrderDetails)37093_storage"
      },
      "t_mapping(t_uint256,t_uint256)": {
        "encoding": "mapping",
        "key": "t_uint256",
        "label": "mapping(uint256 => uint256)",
        "numberOfBytes": "32",
        "value": "t_uint256"
      },
      "t_struct(OrderDetails)37093_storage": {
        "encoding": "inplace",
        "label": "struct SettlementsListings.OrderDetails",
        "members": [
          {
            "astId": 37077,
            "contract": "contracts/external/SettlementsListings.sol:SettlementsListings",
            "label": "orderOwner",
            "offset": 0,
            "slot": "0",
            "type": "t_address"
          },
          {
            "astId": 37079,
            "contract": "contracts/external/SettlementsListings.sol:SettlementsListings",
            "label": "sellingTokenAddress",
            "offset": 0,
            "slot": "1",
            "type": "t_address"
          },
          {
            "astId": 37081,
            "contract": "contracts/external/SettlementsListings.sol:SettlementsListings",
            "label": "allowedAddressToAcceptOrder",
            "offset": 0,
            "slot": "2",
            "type": "t_address"
          },
          {
            "astId": 37083,
            "contract": "contracts/external/SettlementsListings.sol:SettlementsListings",
            "label": "orderStartTime",
            "offset": 0,
            "slot": "3",
            "type": "t_uint256"
          },
          {
            "astId": 37085,
            "contract": "contracts/external/SettlementsListings.sol:SettlementsListings",
            "label": "orderEndTime",
            "offset": 0,
            "slot": "4",
            "type": "t_uint256"
          },
          {
            "astId": 37087,
            "contract": "contracts/external/SettlementsListings.sol:SettlementsListings",
            "label": "price",
            "offset": 0,
            "slot": "5",
            "type": "t_uint256"
          },
          {
            "astId": 37089,
            "contract": "contracts/external/SettlementsListings.sol:SettlementsListings",
            "label": "bannerId",
            "offset": 0,
            "slot": "6",
            "type": "t_uint256"
          },
          {
            "astId": 37092,
            "contract": "contracts/external/SettlementsListings.sol:SettlementsListings",
            "label": "status",
            "offset": 0,
            "slot": "7",
            "type": "t_enum(OrderStatus)37070"
          }
        ],
        "numberOfBytes": "256"
      },
      "t_uint256": {
        "encoding": "inplace",
        "label": "uint256",
        "numberOfBytes": "32"
      }
    }
  }
}