{
  "address": "0x382011e36f5b769D152878c017f9b1859fAfB5ef",
  "abi": [
    {
      "inputs": [],
      "stateMutability": "nonpayable",
      "type": "constructor"
    },
    {
      "inputs": [],
      "name": "Disabled",
      "type": "error"
    },
    {
      "inputs": [],
      "name": "OnlyActiveGame",
      "type": "error"
    },
    {
      "inputs": [],
      "name": "OnlyMightyCreator",
      "type": "error"
    },
    {
      "inputs": [],
      "name": "OnlyWorldAssetFromSameEra",
      "type": "error"
    },
    {
      "anonymous": false,
      "inputs": [
        {
          "indexed": true,
          "internalType": "address",
          "name": "owner",
          "type": "address"
        },
        {
          "indexed": true,
          "internalType": "address",
          "name": "spender",
          "type": "address"
        },
        {
          "indexed": false,
          "internalType": "uint256",
          "name": "value",
          "type": "uint256"
        }
      ],
      "name": "Approval",
      "type": "event"
    },
    {
      "anonymous": false,
      "inputs": [
        {
          "indexed": false,
          "internalType": "uint8",
          "name": "version",
          "type": "uint8"
        }
      ],
      "name": "Initialized",
      "type": "event"
    },
    {
      "anonymous": false,
      "inputs": [
        {
          "indexed": true,
          "internalType": "address",
          "name": "from",
          "type": "address"
        },
        {
          "indexed": true,
          "internalType": "address",
          "name": "to",
          "type": "address"
        },
        {
          "indexed": false,
          "internalType": "uint256",
          "name": "value",
          "type": "uint256"
        }
      ],
      "name": "Transfer",
      "type": "event"
    },
    {
      "inputs": [
        {
          "internalType": "address",
          "name": "owner",
          "type": "address"
        },
        {
          "internalType": "address",
          "name": "spender",
          "type": "address"
        }
      ],
      "name": "allowance",
      "outputs": [
        {
          "internalType": "uint256",
          "name": "",
          "type": "uint256"
        }
      ],
      "stateMutability": "view",
      "type": "function"
    },
    {
      "inputs": [
        {
          "internalType": "address",
          "name": "spender",
          "type": "address"
        },
        {
          "internalType": "uint256",
          "name": "amount",
          "type": "uint256"
        }
      ],
      "name": "approve",
      "outputs": [
        {
          "internalType": "bool",
          "name": "",
          "type": "bool"
        }
      ],
      "stateMutability": "nonpayable",
      "type": "function"
    },
    {
      "inputs": [],
      "name": "assetGroupId",
      "outputs": [
        {
          "internalType": "bytes32",
          "name": "",
          "type": "bytes32"
        }
      ],
      "stateMutability": "view",
      "type": "function"
    },
    {
      "inputs": [],
      "name": "assetTypeId",
      "outputs": [
        {
          "internalType": "bytes32",
          "name": "",
          "type": "bytes32"
        }
      ],
      "stateMutability": "view",
      "type": "function"
    },
    {
      "inputs": [
        {
          "internalType": "address",
          "name": "account",
          "type": "address"
        }
      ],
      "name": "balanceOf",
      "outputs": [
        {
          "internalType": "uint256",
          "name": "",
          "type": "uint256"
        }
      ],
      "stateMutability": "view",
      "type": "function"
    },
    {
      "inputs": [
        {
          "internalType": "uint256",
          "name": "amount",
          "type": "uint256"
        }
      ],
      "name": "burn",
      "outputs": [],
      "stateMutability": "nonpayable",
      "type": "function"
    },
    {
      "inputs": [
        {
          "internalType": "address",
          "name": "account",
          "type": "address"
        },
        {
          "internalType": "uint256",
          "name": "amount",
          "type": "uint256"
        }
      ],
      "name": "burnFrom",
      "outputs": [],
      "stateMutability": "nonpayable",
      "type": "function"
    },
    {
      "inputs": [],
      "name": "decimals",
      "outputs": [
        {
          "internalType": "uint8",
          "name": "",
          "type": "uint8"
        }
      ],
      "stateMutability": "view",
      "type": "function"
    },
    {
      "inputs": [
        {
          "internalType": "address",
          "name": "spender",
          "type": "address"
        },
        {
          "internalType": "uint256",
          "name": "subtractedValue",
          "type": "uint256"
        }
      ],
      "name": "decreaseAllowance",
      "outputs": [
        {
          "internalType": "bool",
          "name": "",
          "type": "bool"
        }
      ],
      "stateMutability": "nonpayable",
      "type": "function"
    },
    {
      "inputs": [],
      "name": "era",
      "outputs": [
        {
          "internalType": "contract IEra",
          "name": "",
          "type": "address"
        }
      ],
      "stateMutability": "view",
      "type": "function"
    },
    {
      "inputs": [],
      "name": "eraNumber",
      "outputs": [
        {
          "internalType": "uint256",
          "name": "",
          "type": "uint256"
        }
      ],
      "stateMutability": "view",
      "type": "function"
    },
    {
      "inputs": [
        {
          "internalType": "address",
          "name": "spender",
          "type": "address"
        },
        {
          "internalType": "uint256",
          "name": "addedValue",
          "type": "uint256"
        }
      ],
      "name": "increaseAllowance",
      "outputs": [
        {
          "internalType": "bool",
          "name": "",
          "type": "bool"
        }
      ],
      "stateMutability": "nonpayable",
      "type": "function"
    },
    {
      "inputs": [
        {
          "internalType": "bytes",
          "name": "initParams",
          "type": "bytes"
        }
      ],
      "name": "init",
      "outputs": [],
      "stateMutability": "nonpayable",
      "type": "function"
    },
    {
      "inputs": [
        {
          "internalType": "address",
          "name": "to",
          "type": "address"
        },
        {
          "internalType": "uint256",
          "name": "amount",
          "type": "uint256"
        }
      ],
      "name": "mint",
      "outputs": [],
      "stateMutability": "nonpayable",
      "type": "function"
    },
    {
      "inputs": [],
      "name": "name",
      "outputs": [
        {
          "internalType": "string",
          "name": "",
          "type": "string"
        }
      ],
      "stateMutability": "view",
      "type": "function"
    },
    {
      "inputs": [],
      "name": "registry",
      "outputs": [
        {
          "internalType": "contract IRegistry",
          "name": "",
          "type": "address"
        }
      ],
      "stateMutability": "view",
      "type": "function"
    },
    {
      "inputs": [],
      "name": "symbol",
      "outputs": [
        {
          "internalType": "string",
          "name": "",
          "type": "string"
        }
      ],
      "stateMutability": "view",
      "type": "function"
    },
    {
      "inputs": [],
      "name": "tokenName",
      "outputs": [
        {
          "internalType": "string",
          "name": "",
          "type": "string"
        }
      ],
      "stateMutability": "view",
      "type": "function"
    },
    {
      "inputs": [],
      "name": "tokenSymbol",
      "outputs": [
        {
          "internalType": "string",
          "name": "",
          "type": "string"
        }
      ],
      "stateMutability": "view",
      "type": "function"
    },
    {
      "inputs": [],
      "name": "totalSupply",
      "outputs": [
        {
          "internalType": "uint256",
          "name": "",
          "type": "uint256"
        }
      ],
      "stateMutability": "view",
      "type": "function"
    },
    {
      "inputs": [
        {
          "internalType": "address",
          "name": "to",
          "type": "address"
        },
        {
          "internalType": "uint256",
          "name": "amount",
          "type": "uint256"
        }
      ],
      "name": "transfer",
      "outputs": [
        {
          "internalType": "bool",
          "name": "success",
          "type": "bool"
        }
      ],
      "stateMutability": "nonpayable",
      "type": "function"
    },
    {
      "inputs": [
        {
          "internalType": "address",
          "name": "from",
          "type": "address"
        },
        {
          "internalType": "address",
          "name": "to",
          "type": "address"
        },
        {
          "internalType": "uint256",
          "name": "amount",
          "type": "uint256"
        }
      ],
      "name": "transferFrom",
      "outputs": [
        {
          "internalType": "bool",
          "name": "success",
          "type": "bool"
        }
      ],
      "stateMutability": "nonpayable",
      "type": "function"
    },
    {
      "inputs": [],
      "name": "unitTypeId",
      "outputs": [
        {
          "internalType": "bytes32",
          "name": "",
          "type": "bytes32"
        }
      ],
      "stateMutability": "view",
      "type": "function"
    },
    {
      "inputs": [],
      "name": "world",
      "outputs": [
        {
          "internalType": "contract IWorld",
          "name": "",
          "type": "address"
        }
      ],
      "stateMutability": "view",
      "type": "function"
    },
    {
      "inputs": [],
      "name": "worldAssetFactory",
      "outputs": [
        {
          "internalType": "contract IWorldAssetFactory",
          "name": "",
          "type": "address"
        }
      ],
      "stateMutability": "view",
      "type": "function"
    }
  ],
  "transactionHash": "0x2c29e5d97293cb60b7e952ff9e5f45a6893aadc761f1c79b967e675153fa4cbc",
  "args": [],
  "numDeployments": 1,
  "solcInputHash": "2627c9fa14fa5cb6e37bf26f5785fa8b",
  "bytecode": "0x60806040523480156200001157600080fd5b506040805160208082018352600080835283519182019093529182529060036200003c8382620000f9565b5060046200004b8282620000f9565b505050620001c5565b634e487b7160e01b600052604160045260246000fd5b600181811c908216806200007f57607f821691505b602082108103620000a057634e487b7160e01b600052602260045260246000fd5b50919050565b601f821115620000f457600081815260208120601f850160051c81016020861015620000cf5750805b601f850160051c820191505b81811015620000f057828155600101620000db565b5050505b505050565b81516001600160401b0381111562000115576200011562000054565b6200012d816200012684546200006a565b84620000a6565b602080601f8311600181146200016557600084156200014c5750858301515b600019600386901b1c1916600185901b178555620000f0565b600085815260208120601f198616915b82811015620001965788860151825594840194600190910190840162000175565b5085821015620001b55787850151600019600388901b60f8161c191681555b5050505050600190811b01905550565b61211580620001d56000396000f3fe608060405234801561001057600080fd5b50600436106101435760003560e01c80635920c543116100be5780635920c5431461023f5780636c02a9311461024857806370a082311461025057806379cc6790146102795780637b1039991461028c5780637b61c320146102945780637d884c741461029c57806384ba89e3146102a457806395d89b41146102ac578063a457c2d7146102b4578063a9059cbb146102c7578063dd62ed3e146102da578063ece56a1a146102ed57600080fd5b806306fdde0314610148578063095ea7b3146101665780630b4e99c314610189578063143e55e01461019f57806318160ddd146101bf57806323b872dd146101c757806330b67baa146101da578063313ce567146101e257806339509351146101f157806340c10f191461020457806342966c68146102195780634ddf47d41461022c575b600080fd5b6101506102f5565b60405161015d9190611a94565b60405180910390f35b610179610174366004611adc565b61034d565b604051901515815260200161015d565b610191610367565b60405190815260200161015d565b6101a76103a4565b6040516001600160a01b03909116815260200161015d565b600254610191565b6101796101d5366004611b08565b610428565b6101a761046b565b6040516012815260200161015d565b6101796101ff366004611adc565b610475565b610217610212366004611adc565b610497565b005b610217610227366004611b49565b6104ad565b61021761023a366004611bcf565b6104b9565b61019160085481565b610150610606565b61019161025e366004611c4e565b6001600160a01b031660009081526020819052604090205490565b610217610287366004611adc565b610694565b6101a76106b6565b6101506106fd565b61019161070a565b610191610747565b610150610784565b6101796102c2366004611adc565b610798565b6101796102d5366004611adc565b61081e565b6101916102e8366004611c6b565b610839565b6101a7610864565b606060066040516020016103099190611cde565b60405160208183030381529060405261032861032361070a565b6108ab565b604051602001610339929190611d5d565b604051602081830303815290604052905090565b60003361035b8185856109b3565b60019150505b92915050565b604080516020808252818301909252600091309183918291906020820181803683370190505090506020607a60208301853c602001519392505050565b60006103ae61046b565b6001600160a01b031663720a70bd6103c461070a565b6040518263ffffffff1660e01b81526004016103e291815260200190565b602060405180830381865afa1580156103ff573d6000803e3d6000fd5b505050506040513d601f19601f820116820180604052508101906104239190611d8c565b905090565b600061043333610ad7565b1561044b57610443848484610b82565b506001610464565b604051633ac4266d60e11b815260040160405180910390fd5b9392505050565b6000610423610d55565b60003361035b8185856104888383610839565b6104929190611dbf565b6109b3565b61049f610d92565b6104a98282610e57565b5050565b6104b681610f38565b50565b600554610100900460ff16158080156104d95750600554600160ff909116105b806104f35750303b1580156104f3575060055460ff166001145b61055b5760405162461bcd60e51b815260206004820152602e60248201527f496e697469616c697a61626c653a20636f6e747261637420697320616c72656160448201526d191e481a5b9a5d1a585b1a5e995960921b60648201526084015b60405180910390fd5b6005805460ff19166001179055801561057e576005805461ff0019166101001790555b6000806000848060200190518101906105979190611e17565b9194509250905060066105aa8482611ed1565b5060076105b78382611ed1565b50600855505080156104a9576005805461ff0019169055604051600181527f7f26b83ff96e1f2b6a682f133852f6798a09c465da95921460cefb38474024989060200160405180910390a15050565b6006805461061390611ca4565b80601f016020809104026020016040519081016040528092919081815260200182805461063f90611ca4565b801561068c5780601f106106615761010080835404028352916020019161068c565b820191906000526020600020905b81548152906001019060200180831161066f57829003601f168201915b505050505081565b61069d33610ad7565b156106ac576104a98282610f3e565b6104a98282611092565b60006106c061046b565b6001600160a01b0316637b1039996040518163ffffffff1660e01b8152600401602060405180830381865afa1580156103ff573d6000803e3d6000fd5b6007805461061390611ca4565b604080516020808252818301909252600091309183918291906020820181803683370190505090506020609a60208301853c602001519392505050565b604080516020808252818301909252600091309183918291906020820181803683370190505090506020605a60208301853c602001519392505050565b606060076040516020016103099190611cde565b600033816107a68286610839565b9050838110156108065760405162461bcd60e51b815260206004820152602560248201527f45524332303a2064656372656173656420616c6c6f77616e63652062656c6f77604482015264207a65726f60d81b6064820152608401610552565b61081382868684036109b3565b506001949350505050565b6000604051633ac4266d60e11b815260040160405180910390fd5b6001600160a01b03918216600090815260016020908152604080832093909416825291909152205490565b600061086e6106b6565b6001600160a01b031663ece56a1a6040518163ffffffff1660e01b8152600401602060405180830381865afa1580156103ff573d6000803e3d6000fd5b6060816000036108d25750506040805180820190915260018152600360fc1b602082015290565b8160005b81156108fc57806108e681611f90565b91506108f59050600a83611fbf565b91506108d6565b6000816001600160401b0381111561091657610916611b62565b6040519080825280601f01601f191660200182016040528015610940576020820181803683370190505b5090505b84156109ab57610955600183611fd3565b9150610962600a86611fe6565b61096d906030611dbf565b60f81b81838151811061098257610982611ffa565b60200101906001600160f81b031916908160001a9053506109a4600a86611fbf565b9450610944565b949350505050565b6001600160a01b038316610a155760405162461bcd60e51b8152602060048201526024808201527f45524332303a20617070726f76652066726f6d20746865207a65726f206164646044820152637265737360e01b6064820152608401610552565b6001600160a01b038216610a765760405162461bcd60e51b815260206004820152602260248201527f45524332303a20617070726f766520746f20746865207a65726f206164647265604482015261737360f01b6064820152608401610552565b6001600160a01b0383811660008181526001602090815260408083209487168084529482529182902085905590518481527f8c5be1e5ebec7d5bd14f71427d1e84f3dd0314c0f7b2291e5b200ac8c7c3b925910160405180910390a3505050565b6000610ae161046b565b6001600160a01b0316826001600160a01b0316148061036157506000610b0561046b565b6001600160a01b031663ebbe8034610b1b61070a565b856040518363ffffffff1660e01b8152600401610b39929190612010565b602060405180830381865afa158015610b56573d6000803e3d6000fd5b505050506040513d601f19601f82011682018060405250810190610b7a9190612027565b141592915050565b6001600160a01b038316610be65760405162461bcd60e51b815260206004820152602560248201527f45524332303a207472616e736665722066726f6d20746865207a65726f206164604482015264647265737360d81b6064820152608401610552565b6001600160a01b038216610c485760405162461bcd60e51b815260206004820152602360248201527f45524332303a207472616e7366657220746f20746865207a65726f206164647260448201526265737360e81b6064820152608401610552565b610c538383836110a7565b6001600160a01b03831660009081526020819052604090205481811015610ccb5760405162461bcd60e51b815260206004820152602660248201527f45524332303a207472616e7366657220616d6f756e7420657863656564732062604482015265616c616e636560d01b6064820152608401610552565b6001600160a01b03808516600090815260208190526040808220858503905591851681529081208054849290610d02908490611dbf565b92505081905550826001600160a01b0316846001600160a01b03166000805160206120c083398151915284604051610d3c91815260200190565b60405180910390a3610d4f848484611574565b50505050565b604080516014808252818301909252600091309183918291906020820181803683370190505090506014602a60208301853c601401519392505050565b610d9a61046b565b6001600160a01b0316336001600160a01b031614158015610e3757506000610dc061046b565b6001600160a01b031663ebbe8034610dd661070a565b336040518363ffffffff1660e01b8152600401610df4929190612010565b602060405180830381865afa158015610e11573d6000803e3d6000fd5b505050506040513d601f19601f82011682018060405250810190610e359190612027565b145b15610e555760405163422656d160e01b815260040160405180910390fd5b565b6001600160a01b038216610ead5760405162461bcd60e51b815260206004820152601f60248201527f45524332303a206d696e7420746f20746865207a65726f2061646472657373006044820152606401610552565b610eb9600083836110a7565b8060026000828254610ecb9190611dbf565b90915550506001600160a01b03821660009081526020819052604081208054839290610ef8908490611dbf565b90915550506040518181526001600160a01b038316906000906000805160206120c08339815191529060200160405180910390a36104a960008383611574565b6104b633825b6001600160a01b038216610f9e5760405162461bcd60e51b815260206004820152602160248201527f45524332303a206275726e2066726f6d20746865207a65726f206164647265736044820152607360f81b6064820152608401610552565b610faa826000836110a7565b6001600160a01b0382166000908152602081905260409020548181101561101e5760405162461bcd60e51b815260206004820152602260248201527f45524332303a206275726e20616d6f756e7420657863656564732062616c616e604482015261636560f01b6064820152608401610552565b6001600160a01b038316600090815260208190526040812083830390556002805484929061104d908490611fd3565b90915550506040518281526000906001600160a01b038516906000805160206120c08339815191529060200160405180910390a361108d83600084611574565b505050565b61109d823383611969565b6104a98282610f3e565b6001600160a01b038316158015611163575060408051808201909152600481526361726d7960e01b6020909101526000805160206120a08339815191526110ec61046b565b6001600160a01b031663ebbe803461110261070a565b856040518363ffffffff1660e01b8152600401611120929190612010565b602060405180830381865afa15801561113d573d6000803e3d6000fd5b505050506040513d601f19601f820116820180604052508101906111619190612027565b145b1561129c576000826001600160a01b031663c45f10006040518163ffffffff1660e01b8152600401602060405180830381865afa1580156111a8573d6000803e3d6000fd5b505050506040513d601f19601f820116820180604052508101906111cc9190611d8c565b90506111d7816119dd565b1561129a57806001600160a01b031663e6c15c996040518163ffffffff1660e01b8152600401602060405180830381865afa15801561121a573d6000803e3d6000fd5b505050506040513d601f19601f8201168201806040525081019061123e9190611d8c565b604051637706581760e01b81524260048201526001600160a01b039190911690637706581790602401600060405180830381600087803b15801561128157600080fd5b505af1158015611295573d6000803e3d6000fd5b505050505b505b6001600160a01b038216158015611358575060408051808201909152600481526361726d7960e01b6020909101526000805160206120a08339815191526112e161046b565b6001600160a01b031663ebbe80346112f761070a565b866040518363ffffffff1660e01b8152600401611315929190612010565b602060405180830381865afa158015611332573d6000803e3d6000fd5b505050506040513d601f19601f820116820180604052508101906113569190612027565b145b1561108d5760008390506000816001600160a01b031663c45f10006040518163ffffffff1660e01b8152600401602060405180830381865afa1580156113a2573d6000803e3d6000fd5b505050506040513d601f19601f820116820180604052508101906113c69190611d8c565b90506113d1816119dd565b1561156d576000826001600160a01b03166344e445456040518163ffffffff1660e01b8152600401602060405180830381865afa158015611416573d6000803e3d6000fd5b505050506040513d601f19601f8201168201806040525081019061143a9190611d8c565b90506000816001600160a01b031663383f9ac36040518163ffffffff1660e01b8152600401606060405180830381865afa15801561147c573d6000803e3d6000fd5b505050506040513d601f19601f820116820180604052508101906114a0919061205c565b92505050826001600160a01b031663e6c15c996040518163ffffffff1660e01b8152600401602060405180830381865afa1580156114e2573d6000803e3d6000fd5b505050506040513d601f19601f820116820180604052508101906115069190611d8c565b604051637706581760e01b81526001600160401b03831660048201526001600160a01b039190911690637706581790602401600060405180830381600087803b15801561155257600080fd5b505af1158015611566573d6000803e3d6000fd5b5050505050505b5050505050565b6001600160a01b038316158015611630575060408051808201909152600481526361726d7960e01b6020909101526000805160206120a08339815191526115b961046b565b6001600160a01b031663ebbe80346115cf61070a565b856040518363ffffffff1660e01b81526004016115ed929190612010565b602060405180830381865afa15801561160a573d6000803e3d6000fd5b505050506040513d601f19601f8201168201806040525081019061162e9190612027565b145b1561176d576000826001600160a01b031663c45f10006040518163ffffffff1660e01b8152600401602060405180830381865afa158015611675573d6000803e3d6000fd5b505050506040513d601f19601f820116820180604052508101906116999190611d8c565b90506116a4816119dd565b1561176b57806001600160a01b031663e6c15c996040518163ffffffff1660e01b8152600401602060405180830381865afa1580156116e7573d6000803e3d6000fd5b505050506040513d601f19601f8201168201806040525081019061170b9190611d8c565b6001600160a01b031663403e2e43836040518263ffffffff1660e01b815260040161173891815260200190565b600060405180830381600087803b15801561175257600080fd5b505af1158015611766573d6000803e3d6000fd5b505050505b505b6001600160a01b038216158015611829575060408051808201909152600481526361726d7960e01b6020909101526000805160206120a08339815191526117b261046b565b6001600160a01b031663ebbe80346117c861070a565b866040518363ffffffff1660e01b81526004016117e6929190612010565b602060405180830381865afa158015611803573d6000803e3d6000fd5b505050506040513d601f19601f820116820180604052508101906118279190612027565b145b1561108d576000836001600160a01b031663c45f10006040518163ffffffff1660e01b8152600401602060405180830381865afa15801561186e573d6000803e3d6000fd5b505050506040513d601f19601f820116820180604052508101906118929190611d8c565b905061189d816119dd565b15610d4f57806001600160a01b031663e6c15c996040518163ffffffff1660e01b8152600401602060405180830381865afa1580156118e0573d6000803e3d6000fd5b505050506040513d601f19601f820116820180604052508101906119049190611d8c565b6001600160a01b03166354082260836040518263ffffffff1660e01b815260040161193191815260200190565b600060405180830381600087803b15801561194b57600080fd5b505af115801561195f573d6000803e3d6000fd5b5050505050505050565b60006119758484610839565b90506000198114610d4f57818110156119d05760405162461bcd60e51b815260206004820152601d60248201527f45524332303a20696e73756666696369656e7420616c6c6f77616e63650000006044820152606401610552565b610d4f84848484036109b3565b60006040518060400160405280600881526020016743554c544953545360c01b81525080519060200120826001600160a01b0316630b4e99c36040518163ffffffff1660e01b8152600401602060405180830381865afa158015611a45573d6000803e3d6000fd5b505050506040513d601f19601f82011682018060405250810190611a699190612027565b1492915050565b60005b83811015611a8b578181015183820152602001611a73565b50506000910152565b6020815260008251806020840152611ab3816040850160208701611a70565b601f01601f19169190910160400192915050565b6001600160a01b03811681146104b657600080fd5b60008060408385031215611aef57600080fd5b8235611afa81611ac7565b946020939093013593505050565b600080600060608486031215611b1d57600080fd5b8335611b2881611ac7565b92506020840135611b3881611ac7565b929592945050506040919091013590565b600060208284031215611b5b57600080fd5b5035919050565b634e487b7160e01b600052604160045260246000fd5b604051601f8201601f191681016001600160401b0381118282101715611ba057611ba0611b62565b604052919050565b60006001600160401b03821115611bc157611bc1611b62565b50601f01601f191660200190565b600060208284031215611be157600080fd5b81356001600160401b03811115611bf757600080fd5b8201601f81018413611c0857600080fd5b8035611c1b611c1682611ba8565b611b78565b818152856020838501011115611c3057600080fd5b81602084016020830137600091810160200191909152949350505050565b600060208284031215611c6057600080fd5b813561046481611ac7565b60008060408385031215611c7e57600080fd5b8235611c8981611ac7565b91506020830135611c9981611ac7565b809150509250929050565b600181811c90821680611cb857607f821691505b602082108103611cd857634e487b7160e01b600052602260045260246000fd5b50919050565b6000808354611cec81611ca4565b60018281168015611d045760018114611d1957611d48565b60ff1984168752821515830287019450611d48565b8760005260208060002060005b85811015611d3f5781548a820152908401908201611d26565b50505082870194505b5050608160f61b835250506002019392505050565b60008351611d6f818460208801611a70565b835190830190611d83818360208801611a70565b01949350505050565b600060208284031215611d9e57600080fd5b815161046481611ac7565b634e487b7160e01b600052601160045260246000fd5b8082018082111561036157610361611da9565b600082601f830112611de357600080fd5b8151611df1611c1682611ba8565b818152846020838601011115611e0657600080fd5b6109ab826020830160208701611a70565b600080600060608486031215611e2c57600080fd5b83516001600160401b0380821115611e4357600080fd5b611e4f87838801611dd2565b94506020860151915080821115611e6557600080fd5b50611e7286828701611dd2565b925050604084015190509250925092565b601f82111561108d57600081815260208120601f850160051c81016020861015611eaa5750805b601f850160051c820191505b81811015611ec957828155600101611eb6565b505050505050565b81516001600160401b03811115611eea57611eea611b62565b611efe81611ef88454611ca4565b84611e83565b602080601f831160018114611f335760008415611f1b5750858301515b600019600386901b1c1916600185901b178555611ec9565b600085815260208120601f198616915b82811015611f6257888601518255948401946001909101908401611f43565b5085821015611f805787850151600019600388901b60f8161c191681555b5050505050600190811b01905550565b600060018201611fa257611fa2611da9565b5060010190565b634e487b7160e01b600052601260045260246000fd5b600082611fce57611fce611fa9565b500490565b8181038181111561036157610361611da9565b600082611ff557611ff5611fa9565b500690565b634e487b7160e01b600052603260045260246000fd5b9182526001600160a01b0316602082015260400190565b60006020828403121561203957600080fd5b5051919050565b80516001600160401b038116811461205757600080fd5b919050565b60008060006060848603121561207157600080fd5b61207a84612040565b925061208860208501612040565b915061209660408501612040565b9050925092509256fe1dfa95949f0b18e5ee916f85d0296148ce2f94b82b74404d6a5d6e64ed9b8c5fddf252ad1be2c89b69c2b068fc378daa952ba7f163c4a11628f55a4df523b3efa2646970667358221220e362cb7c36d79c93893f97653ed2a5c511a2ee40584a5e0ae66e7ea9205d4fbc64736f6c63430008140033",
  "devdoc": {
    "events": {
      "Approval(address,address,uint256)": {
        "details": "Emitted when the allowance of a `spender` for an `owner` is set by a call to {approve}. `value` is the new allowance."
      },
      "Initialized(uint8)": {
        "details": "Triggered when the contract has been initialized or reinitialized."
      },
      "Transfer(address,address,uint256)": {
        "details": "Emitted when `value` tokens are moved from one account (`from`) to another (`to`). Note that `value` may be zero."
      }
    },
    "kind": "dev",
    "methods": {
      "allowance(address,address)": {
        "details": "See {IERC20-allowance}."
      },
      "approve(address,uint256)": {
        "details": "See {IERC20-approve}. NOTE: If `amount` is the maximum `uint256`, the allowance is not updated on `transferFrom`. This is semantically equivalent to an infinite approval. Requirements: - `spender` cannot be the zero address."
      },
      "assetGroupId()": {
        "details": "Reads data from proxy's storage",
        "returns": {
          "_0": "World asset group id"
        }
      },
      "assetTypeId()": {
        "details": "Reads data from proxy's storage",
        "returns": {
          "_0": "World asset type id"
        }
      },
      "balanceOf(address)": {
        "details": "See {IERC20-balanceOf}."
      },
      "constructor": {
        "details": "Removes error for compiling, default constructor does nothing because its a proxy"
      },
      "decimals()": {
        "details": "Returns the number of decimals used to get its user representation. For example, if `decimals` equals `2`, a balance of `505` tokens should be displayed to a user as `5.05` (`505 / 10 ** 2`). Tokens usually opt for a value of 18, imitating the relationship between Ether and Wei. This is the value {ERC20} uses, unless this function is overridden; NOTE: This information is only used for _display_ purposes: it in no way affects any of the arithmetic of the contract, including {IERC20-balanceOf} and {IERC20-transfer}."
      },
      "decreaseAllowance(address,uint256)": {
        "details": "Atomically decreases the allowance granted to `spender` by the caller. This is an alternative to {approve} that can be used as a mitigation for problems described in {IERC20-approve}. Emits an {Approval} event indicating the updated allowance. Requirements: - `spender` cannot be the zero address. - `spender` must have allowance for the caller of at least `subtractedValue`."
      },
      "era()": {
        "details": "Value is dereferenced from proxy storage and world"
      },
      "eraNumber()": {
        "details": "Reads data from proxy's storage",
        "returns": {
          "_0": "Era number"
        }
      },
      "increaseAllowance(address,uint256)": {
        "details": "Atomically increases the allowance granted to `spender` by the caller. This is an alternative to {approve} that can be used as a mitigation for problems described in {IERC20-approve}. Emits an {Approval} event indicating the updated allowance. Requirements: - `spender` cannot be the zero address."
      },
      "init(bytes)": {
        "details": "World asset initializer",
        "params": {
          "initParams": "Encoded init params (every world asset has own knowledge how to extract data from it)"
        }
      },
      "mint(address,uint256)": {
        "details": "Even though function is opened, it can only be called by world asset",
        "params": {
          "amount": "Amount of units to mint",
          "to": "Address which will receive units"
        }
      },
      "name()": {
        "details": "Returns the name of the token."
      },
      "registry()": {
        "details": "Value is dereferenced from world"
      },
      "symbol()": {
        "details": "Returns the symbol of the token."
      },
      "totalSupply()": {
        "details": "See {IERC20-totalSupply}."
      },
      "transfer(address,uint256)": {
        "details": "Moves `amount` tokens from the caller's account to `to`. Returns a boolean value indicating whether the operation succeeded. Emits a {Transfer} event."
      },
      "transferFrom(address,address,uint256)": {
        "details": "Moves `amount` tokens from `from` to `to` using the allowance mechanism. `amount` is then deducted from the caller's allowance. Returns a boolean value indicating whether the operation succeeded. Emits a {Transfer} event."
      },
      "world()": {
        "details": "Value is dereferenced from proxy storage"
      },
      "worldAssetFactory()": {
        "details": "Value is dereferenced from registry"
      }
    },
    "stateVariables": {
      "tokenName": {
        "details": "Immutable, initialized on creation"
      },
      "tokenSymbol": {
        "details": "Immutable, initialized on creation"
      },
      "unitTypeId": {
        "details": "Immutable, initialized on creation"
      }
    },
    "version": 1
  },
  "userdoc": {
    "errors": {
      "Disabled()": [
        {
          "notice": "Thrown when attempting to call action which is disabled"
        }
      ],
      "OnlyActiveGame()": [
        {
          "notice": "Thrown when attempting to call action which can only be called in active game (started and not finished)"
        }
      ],
      "OnlyMightyCreator()": [
        {
          "notice": "Thrown when attempting to call action which can only be called by mighty creator"
        }
      ],
      "OnlyWorldAssetFromSameEra()": [
        {
          "notice": "Thrown when attempting to call action which can only be called by world asset from same era"
        }
      ]
    },
    "kind": "user",
    "methods": {
      "assetGroupId()": {
        "notice": "Returns world asset group id"
      },
      "assetTypeId()": {
        "notice": "Returns world asset type id"
      },
      "era()": {
        "notice": "Era"
      },
      "eraNumber()": {
        "notice": "Returns era number"
      },
      "mint(address,uint256)": {
        "notice": "Mints units to specified address"
      },
      "registry()": {
        "notice": "Registry"
      },
      "tokenName()": {
        "notice": "Token name"
      },
      "tokenSymbol()": {
        "notice": "Token symbol"
      },
      "transfer(address,uint256)": {
        "notice": "Transfer is disabled"
      },
      "transferFrom(address,address,uint256)": {
        "notice": "Transfer from is disabled"
      },
      "unitTypeId()": {
        "notice": "Unit type id"
      },
      "world()": {
        "notice": "World"
      },
      "worldAssetFactory()": {
        "notice": "Returns world asset factory from registry"
      }
    },
    "version": 1
  },
  "storageLayout": {
    "storage": [
      {
        "astId": 1754,
        "contract": "contracts/core/assets/tokens/units/Units.sol:Units",
        "label": "_balances",
        "offset": 0,
        "slot": "0",
        "type": "t_mapping(t_address,t_uint256)"
      },
      {
        "astId": 1760,
        "contract": "contracts/core/assets/tokens/units/Units.sol:Units",
        "label": "_allowances",
        "offset": 0,
        "slot": "1",
        "type": "t_mapping(t_address,t_mapping(t_address,t_uint256))"
      },
      {
        "astId": 1762,
        "contract": "contracts/core/assets/tokens/units/Units.sol:Units",
        "label": "_totalSupply",
        "offset": 0,
        "slot": "2",
        "type": "t_uint256"
      },
      {
        "astId": 1764,
        "contract": "contracts/core/assets/tokens/units/Units.sol:Units",
        "label": "_name",
        "offset": 0,
        "slot": "3",
        "type": "t_string_storage"
      },
      {
        "astId": 1766,
        "contract": "contracts/core/assets/tokens/units/Units.sol:Units",
        "label": "_symbol",
        "offset": 0,
        "slot": "4",
        "type": "t_string_storage"
      },
      {
        "astId": 119,
        "contract": "contracts/core/assets/tokens/units/Units.sol:Units",
        "label": "_initialized",
        "offset": 0,
        "slot": "5",
        "type": "t_uint8"
      },
      {
        "astId": 122,
        "contract": "contracts/core/assets/tokens/units/Units.sol:Units",
        "label": "_initializing",
        "offset": 1,
        "slot": "5",
        "type": "t_bool"
      },
      {
        "astId": 31075,
        "contract": "contracts/core/assets/tokens/units/Units.sol:Units",
        "label": "tokenName",
        "offset": 0,
        "slot": "6",
        "type": "t_string_storage"
      },
      {
        "astId": 31078,
        "contract": "contracts/core/assets/tokens/units/Units.sol:Units",
        "label": "tokenSymbol",
        "offset": 0,
        "slot": "7",
        "type": "t_string_storage"
      },
      {
        "astId": 31082,
        "contract": "contracts/core/assets/tokens/units/Units.sol:Units",
        "label": "unitTypeId",
        "offset": 0,
        "slot": "8",
        "type": "t_bytes32"
      }
    ],
    "types": {
      "t_address": {
        "encoding": "inplace",
        "label": "address",
        "numberOfBytes": "20"
      },
      "t_bool": {
        "encoding": "inplace",
        "label": "bool",
        "numberOfBytes": "1"
      },
      "t_bytes32": {
        "encoding": "inplace",
        "label": "bytes32",
        "numberOfBytes": "32"
      },
      "t_mapping(t_address,t_mapping(t_address,t_uint256))": {
        "encoding": "mapping",
        "key": "t_address",
        "label": "mapping(address => mapping(address => uint256))",
        "numberOfBytes": "32",
        "value": "t_mapping(t_address,t_uint256)"
      },
      "t_mapping(t_address,t_uint256)": {
        "encoding": "mapping",
        "key": "t_address",
        "label": "mapping(address => uint256)",
        "numberOfBytes": "32",
        "value": "t_uint256"
      },
      "t_string_storage": {
        "encoding": "bytes",
        "label": "string",
        "numberOfBytes": "32"
      },
      "t_uint256": {
        "encoding": "inplace",
        "label": "uint256",
        "numberOfBytes": "32"
      },
      "t_uint8": {
        "encoding": "inplace",
        "label": "uint8",
        "numberOfBytes": "1"
      }
    }
  }
}